{"contracts/King.sol":{"King":{"abi":[{"anonymous":false,"inputs":[{"indexed":false,"internalType":"bool","name":"success","type":"bool"},{"indexed":false,"internalType":"uint256","name":"amount","type":"uint256"},{"indexed":false,"internalType":"address","name":"king","type":"address"}],"name":"EthDeposit","type":"event"},{"anonymous":false,"inputs":[{"indexed":true,"internalType":"address","name":"previousOwner","type":"address"},{"indexed":true,"internalType":"address","name":"newOwner","type":"address"}],"name":"OwnershipTransferred","type":"event"},{"anonymous":false,"inputs":[{"indexed":false,"internalType":"uint256","name":"amount","type":"uint256"},{"indexed":false,"internalType":"address","name":"king","type":"address"}],"name":"UsdcDeposit","type":"event"},{"stateMutability":"payable","type":"fallback"},{"inputs":[],"name":"MATIC_USD_ORACLE","outputs":[{"internalType":"address","name":"","type":"address"}],"stateMutability":"view","type":"function"},{"inputs":[],"name":"USDC_ADDRESS","outputs":[{"internalType":"address","name":"","type":"address"}],"stateMutability":"view","type":"function"},{"inputs":[{"internalType":"uint256","name":"depositAmount","type":"uint256"},{"internalType":"bytes32","name":"_secret","type":"bytes32"}],"name":"deposit","outputs":[],"stateMutability":"nonpayable","type":"function"},{"inputs":[],"name":"emergencyWithdraw","outputs":[],"stateMutability":"payable","type":"function"},{"inputs":[],"name":"getKing","outputs":[{"internalType":"address payable","name":"","type":"address"}],"stateMutability":"view","type":"function"},{"inputs":[],"name":"maximumPaid","outputs":[{"internalType":"uint256","name":"","type":"uint256"}],"stateMutability":"view","type":"function"},{"inputs":[],"name":"owner","outputs":[{"internalType":"address","name":"","type":"address"}],"stateMutability":"view","type":"function"},{"inputs":[{"internalType":"bytes32","name":"_commitment","type":"bytes32"}],"name":"register","outputs":[],"stateMutability":"nonpayable","type":"function"},{"inputs":[],"name":"renounceOwnership","outputs":[],"stateMutability":"nonpayable","type":"function"},{"inputs":[{"internalType":"uint256","name":"gasAmount","type":"uint256"}],"name":"setGasAllocatedForKingPayment","outputs":[],"stateMutability":"nonpayable","type":"function"},{"inputs":[{"internalType":"address","name":"newOwner","type":"address"}],"name":"transferOwnership","outputs":[],"stateMutability":"nonpayable","type":"function"},{"stateMutability":"payable","type":"receive"}],"evm":{"bytecode":{"linkReferences":{},"object":"6080604052341561000f57600080fd5b60008054336001600160a01b031982168117835590916001600160a01b038316907f8be0079c531659141344cd1fd0a4f28419497f9722a3daafe3b4186f6b6457e0906080a35061140e80610066608039806080f3fe6040608081526004361061022e576000803560e01c631f19ec2981146100925763423cb99e81146100b25763715018a681146100d257637920d80481146100ed57638da5cb5b811461012657638db9f39a811461015e5763bb09d9b7811461018f5763c9630cb081146101c05763db2e21bc81146101e45763e1fa8e8481146101f55763f2fde38b81146102105761022b565b341561009c578182fd5b6100ad6100a83661031e565b6110c7565b818351f35b34156100bc578182fd5b6100c536610265565b6002548351818152602081f35b34156100dc578182fd5b6100e536610265565b6100ad610e11565b34156100f7578182fd5b61010036610265565b600154835173ffffffffffffffffffffffffffffffffffffffff90911680825290602081f35b3415610130578182fd5b61013936610265565b8154835173ffffffffffffffffffffffffffffffffffffffff90911680825290602081f35b3415610168578182fd5b61017136610265565b825173ab594600376ec9fd91f8e885dadf0ce036862de08152602081f35b3415610199578182fd5b6101a236610265565b8251732791bca1f2de4661ed88a30c99a7a9449aa841748152602081f35b34156101ca578182fd5b6101d336610371565b6101dd8183610957565b5050818351f35b6101ed36610265565b6100ad610e85565b34156101ff578182fd5b6100ad61020b3661031e565b610ba3565b341561021a578182fd5b6100ad61022636610298565b610fc1565b50505b503661023e5761023c610740565b005b61023c6105e6565b805169ffffffffffffffffffff8116811461026057600080fd5b919050565b60007ffffffffffffffffffffffffffffffffffffffffffffffffffffffffffffffffc8201121561029557600080fd5b50565b600060207ffffffffffffffffffffffffffffffffffffffffffffffffffffffffffffffffc830112156102ca57600080fd5b60043573ffffffffffffffffffffffffffffffffffffffff811681146102ef57600080fd5b92915050565b60006020828403121561030757600080fd5b8151801515811461031757600080fd5b9392505050565b600060207ffffffffffffffffffffffffffffffffffffffffffffffffffffffffffffffffc8301121561035057600080fd5b505060043590565b60006020828403121561036a57600080fd5b5051919050565b60008060407ffffffffffffffffffffffffffffffffffffffffffffffffffffffffffffffffc840112156103a457600080fd5b5050600435916024359150565b816000823760609290921b7fffffffffffffffffffffffffffffffffffffffff00000000000000000000000016910190815260140190565b60008261041f577f4e487b7100000000000000000000000000000000000000000000000000000000600052601260045260246000fd5b500490565b60007f5555555555555555555555555555555555555555555555555555555555555555821160011615610459576104596110d4565b5060030290565b6000817fffffffffffffffffffffffffffffffffffffffffffffffffffffffffffffffff046064118215151615610499576104996110d4565b5060640290565b600068056bc75e2d63100000827fffffffffffffffffffffffffffffffffffffffffffffffffffffffffffffffff04811183151516156104e2576104e26110d4565b91909102919050565b6000817fffffffffffffffffffffffffffffffffffffffffffffffffffffffffffffffff0483118215151615610523576105236110d4565b500290565b60003d8015610593573d67ffffffffffffffff81111561054a5761054a611103565b60405161057f60207fffffffffffffffffffffffffffffffffffffffffffffffffffffffffffffffe0601f850116018261059b565b8181528093503d6000602083013e50505090565b606091505090565b7fffffffffffffffffffffffffffffffffffffffffffffffffffffffffffffffe0601f830116810181811067ffffffffffffffff821117156105df576105df611103565b6040525050565b6002546106066105fe6105f883610424565b60011c90565b3410156111bc565b600354604051602081018161061c3336846103b1565b037fffffffffffffffffffffffffffffffffffffffffffffffffffffffffffffffe08101835261064c818461059b565b5061065b825182208414611246565b50505080158015906107095761067034600255565b6106ab61069260015473ffffffffffffffffffffffffffffffffffffffff1690565b73ffffffffffffffffffffffffffffffffffffffff1690565b6005546000806000604051348686f19150506106c5610528565b5060408051821515815234602082015233918101919091527f7f7caf2cfdc2014aa045dd0ef7e9f5a6a4819e729710bed3689ba095e658738f606082a15050610712565b61071234600255565b5050600180547fffffffffffffffffffffffff00000000000000000000000000000000000000001633179055565b6040517f08c379a000000000000000000000000000000000000000000000000000000000815260206004820152603560248201527f536f7272792c20796f75277265206e6f74207468652063757272656e746c792060448201527f72656769737465726564206465706f7369746f722e00000000000000000000006064820152608481fd5b6040516040810181811067ffffffffffffffff821117156107e8576107e8611103565b60405260208082527f5361666545524332303a206c6f772d6c6576656c2063616c6c206661696c656482820152732791bca1f2de4661ed88a30c99a7a9449aa84174803b61088e576040517f08c379a0000000000000000000000000000000000000000000000000000000008152826004820152601d60248201527f416464726573733a2063616c6c20746f206e6f6e2d636f6e74726163740000006044820152606481fd5b60008085518487016000855af190506108af836108a9610528565b83610d55565b925050815180156108d2576108d26108cd83838601018486016102f5565b611334565b50505050565b73ffffffffffffffffffffffffffffffffffffffff60005416338114610295576040517f08c379a000000000000000000000000000000000000000000000000000000000815260206004820152602060248201527f4f776e61626c653a2063616c6c6572206973206e6f7420746865206f776e65726044820152606481fd5b60025461096381610424565b61099461098c6105f861097d610977610afc565b856104eb565b68056bc75e2d63100000900490565b841015611132565b5060035460405160208101816109dc33888490815260609190911b7fffffffffffffffffffffffffffffffffffffffff00000000000000000000000016602082015260340190565b037fffffffffffffffffffffffffffffffffffffffffffffffffffffffffffffffe081018352610a0c818461059b565b50610a1b825182208414611246565b5050508015801590610a7b57610a30836104a0565b610a49610a44610a3e610afc565b836103e9565b600255565b50610a7683610a7061069260015473ffffffffffffffffffffffffffffffffffffffff1690565b33610c68565b610a94565b610a8483610460565b610a92610a44610a3e610afc565b505b5050600180547fffffffffffffffffffffffff0000000000000000000000000000000000000000163317905560408051828152336020820152907ff5cb588f5f04842fa8a48ffd1f1b14b97339a788a30a4ab1c445e84f46a8b5ff90829081010382a1505050565b600073ab594600376ec9fd91f8e885dadf0ce036862de0803b610b1e57600080fd5b6040517ffeaf968c00000000000000000000000000000000000000000000000000000000815260a081600483855afa915081610b5c57610b5c6113be565b6000821561031757610b6e3d8361059b565b60a0823d8401031215610b7f578081fd5b610b8882610246565b506020820151610b9a60808401610246565b50949350505050565b60035415610c5f576004544211610c5f576040517f08c379a000000000000000000000000000000000000000000000000000000000815260206004820152604e60248201527f536f6d656f6e6520656c736520686173207265676973746572656420746f206460448201527f65706f7369742c20706c65617365207761697420616e6420747279206167616960648201527f6e20696e2033206d696e75746573000000000000000000000000000000000000608482015260a481fd5b60035542600455565b6040517f23b872dd00000000000000000000000000000000000000000000000000000000602082015273ffffffffffffffffffffffffffffffffffffffff8281166024830152831660448201526064808201859052815260a0810167ffffffffffffffff81118282101715610cdf57610cdf611103565b6040526108d2816107c5565b6040517fa9059cbb00000000000000000000000000000000000000000000000000000000602082015273ffffffffffffffffffffffffffffffffffffffff82166024820152604480820184905281526064610d46818361059b565b50610d50816107c5565b505050565b6060818015610d675783915050610317565b835115801590610d7957845185602001fd5b6040517f08c379a00000000000000000000000000000000000000000000000000000000081526020806004830152875180602484015260005b81811015610dce57898101830151848201604401528201610db2565b81811115610de0576000604483860101525b506044837fffffffffffffffffffffffffffffffffffffffffffffffffffffffffffffffe0601f8401168501030183fd5b610e196108d8565b6000547fffffffffffffffffffffffff00000000000000000000000000000000000000008116600055600073ffffffffffffffffffffffffffffffffffffffff82167f8be0079c531659141344cd1fd0a4f28419497f9722a3daafe3b4186f6b6457e06000604051a350565b610e8d6108d8565b4715610eb65747600080600060405184335af19050610eaa610528565b50610eb4816112d0565b505b732791bca1f2de4661ed88a30c99a7a9449aa84174803b610ed657600080fd5b6040517f70a08231000000000000000000000000000000000000000000000000000000008152306004820152602081602481855afa80610f1857610f186113be565b60008115610f3957610f2a3d8461059b565b610f363d840184610358565b90505b80156108d257833b610f4a57600080fd5b6040517f095ea7b30000000000000000000000000000000000000000000000000000000081523360048201526024810182905292506020836044816000885af1915081610f9957610f996113be565b8115610fb757610fa93d8461059b565b610fb53d8401846102f5565b505b6108d28133610ceb565b610fc96108d8565b73ffffffffffffffffffffffffffffffffffffffff8082168061106b576040517f08c379a000000000000000000000000000000000000000000000000000000000815260206004820152602660248201527f4f776e61626c653a206e6577206f776e657220697320746865207a65726f206160448201527f64647265737300000000000000000000000000000000000000000000000000006064820152608481fd5b600054817fffffffffffffffffffffffff0000000000000000000000000000000000000000821617600055838382167f8be0079c531659141344cd1fd0a4f28419497f9722a3daafe3b4186f6b6457e06000604051a350505050565b6110cf6108d8565b600555565b7f4e487b7100000000000000000000000000000000000000000000000000000000600052601160045260246000fd5b7f4e487b7100000000000000000000000000000000000000000000000000000000600052604160045260246000fd5b80610295576040517f08c379a000000000000000000000000000000000000000000000000000000000815260206004820152602260248201527f596f75277265206e6f74206465706f736974696e6720656e6f7567682055534460448201527f43210000000000000000000000000000000000000000000000000000000000006064820152608481fd5b80610295576040517f08c379a000000000000000000000000000000000000000000000000000000000815260206004820152602360248201527f596f75277265206e6f74206465706f736974696e6720656e6f7567682065746860448201527f65722100000000000000000000000000000000000000000000000000000000006064820152608481fd5b80610295576040517f08c379a000000000000000000000000000000000000000000000000000000000815260206004820152603560248201527f536f7272792c20796f75277265206e6f74207468652063757272656e746c792060448201527f72656769737465726564206465706f7369746f722e00000000000000000000006064820152608481fd5b80610295576040517f08c379a000000000000000000000000000000000000000000000000000000000815260206004820152601360248201527f4572726f7220696e207769746864726177616c000000000000000000000000006044820152606481fd5b80610295576040517f08c379a000000000000000000000000000000000000000000000000000000000815260206004820152602a60248201527f5361666545524332303a204552433230206f7065726174696f6e20646964206e60448201527f6f742073756363656564000000000000000000000000000000000000000000006064820152608481fd5b6040513d6000823e3d81fdfea364697066735822122092bd6b6d8c877666a025c1867fe7ce884276699ce6a7bcead02f828c2611d0ac6c6578706572696d656e74616cf564736f6c63430008070041","opcodes":"PUSH1 0x80 PUSH1 0x40 MSTORE CALLVALUE ISZERO PUSH2 0xF JUMPI PUSH1 0x0 DUP1 REVERT JUMPDEST PUSH1 0x0 DUP1 SLOAD CALLER PUSH1 0x1 PUSH1 0x1 PUSH1 0xA0 SHL SUB NOT DUP3 AND DUP2 OR DUP4 SSTORE SWAP1 SWAP2 PUSH1 0x1 PUSH1 0x1 PUSH1 0xA0 SHL SUB DUP4 AND SWAP1 PUSH32 0x8BE0079C531659141344CD1FD0A4F28419497F9722A3DAAFE3B4186F6B6457E0 SWAP1 PUSH1 0x80 LOG3 POP PUSH2 0x140E DUP1 PUSH2 0x66 PUSH1 0x80 CODECOPY DUP1 PUSH1 0x80 RETURN INVALID PUSH1 0x40 PUSH1 0x80 DUP2 MSTORE PUSH1 0x4 CALLDATASIZE LT PUSH2 0x22E JUMPI PUSH1 0x0 DUP1 CALLDATALOAD PUSH1 0xE0 SHR PUSH4 0x1F19EC29 DUP2 EQ PUSH2 0x92 JUMPI PUSH4 0x423CB99E DUP2 EQ PUSH2 0xB2 JUMPI PUSH4 0x715018A6 DUP2 EQ PUSH2 0xD2 JUMPI PUSH4 0x7920D804 DUP2 EQ PUSH2 0xED JUMPI PUSH4 0x8DA5CB5B DUP2 EQ PUSH2 0x126 JUMPI PUSH4 0x8DB9F39A DUP2 EQ PUSH2 0x15E JUMPI PUSH4 0xBB09D9B7 DUP2 EQ PUSH2 0x18F JUMPI PUSH4 0xC9630CB0 DUP2 EQ PUSH2 0x1C0 JUMPI PUSH4 0xDB2E21BC DUP2 EQ PUSH2 0x1E4 JUMPI PUSH4 0xE1FA8E84 DUP2 EQ PUSH2 0x1F5 JUMPI PUSH4 0xF2FDE38B DUP2 EQ PUSH2 0x210 JUMPI PUSH2 0x22B JUMP JUMPDEST CALLVALUE ISZERO PUSH2 0x9C JUMPI DUP2 DUP3 REVERT JUMPDEST PUSH2 0xAD PUSH2 0xA8 CALLDATASIZE PUSH2 0x31E JUMP JUMPDEST PUSH2 0x10C7 JUMP JUMPDEST DUP2 DUP4 MLOAD RETURN JUMPDEST CALLVALUE ISZERO PUSH2 0xBC JUMPI DUP2 DUP3 REVERT JUMPDEST PUSH2 0xC5 CALLDATASIZE PUSH2 0x265 JUMP JUMPDEST PUSH1 0x2 SLOAD DUP4 MLOAD DUP2 DUP2 MSTORE PUSH1 0x20 DUP2 RETURN JUMPDEST CALLVALUE ISZERO PUSH2 0xDC JUMPI DUP2 DUP3 REVERT JUMPDEST PUSH2 0xE5 CALLDATASIZE PUSH2 0x265 JUMP JUMPDEST PUSH2 0xAD PUSH2 0xE11 JUMP JUMPDEST CALLVALUE ISZERO PUSH2 0xF7 JUMPI DUP2 DUP3 REVERT JUMPDEST PUSH2 0x100 CALLDATASIZE PUSH2 0x265 JUMP JUMPDEST PUSH1 0x1 SLOAD DUP4 MLOAD PUSH20 0xFFFFFFFFFFFFFFFFFFFFFFFFFFFFFFFFFFFFFFFF SWAP1 SWAP2 AND DUP1 DUP3 MSTORE SWAP1 PUSH1 0x20 DUP2 RETURN JUMPDEST CALLVALUE ISZERO PUSH2 0x130 JUMPI DUP2 DUP3 REVERT JUMPDEST PUSH2 0x139 CALLDATASIZE PUSH2 0x265 JUMP JUMPDEST DUP2 SLOAD DUP4 MLOAD PUSH20 0xFFFFFFFFFFFFFFFFFFFFFFFFFFFFFFFFFFFFFFFF SWAP1 SWAP2 AND DUP1 DUP3 MSTORE SWAP1 PUSH1 0x20 DUP2 RETURN JUMPDEST CALLVALUE ISZERO PUSH2 0x168 JUMPI DUP2 DUP3 REVERT JUMPDEST PUSH2 0x171 CALLDATASIZE PUSH2 0x265 JUMP JUMPDEST DUP3 MLOAD PUSH20 0xAB594600376EC9FD91F8E885DADF0CE036862DE0 DUP2 MSTORE PUSH1 0x20 DUP2 RETURN JUMPDEST CALLVALUE ISZERO PUSH2 0x199 JUMPI DUP2 DUP3 REVERT JUMPDEST PUSH2 0x1A2 CALLDATASIZE PUSH2 0x265 JUMP JUMPDEST DUP3 MLOAD PUSH20 0x2791BCA1F2DE4661ED88A30C99A7A9449AA84174 DUP2 MSTORE PUSH1 0x20 DUP2 RETURN JUMPDEST CALLVALUE ISZERO PUSH2 0x1CA JUMPI DUP2 DUP3 REVERT JUMPDEST PUSH2 0x1D3 CALLDATASIZE PUSH2 0x371 JUMP JUMPDEST PUSH2 0x1DD DUP2 DUP4 PUSH2 0x957 JUMP JUMPDEST POP POP DUP2 DUP4 MLOAD RETURN JUMPDEST PUSH2 0x1ED CALLDATASIZE PUSH2 0x265 JUMP JUMPDEST PUSH2 0xAD PUSH2 0xE85 JUMP JUMPDEST CALLVALUE ISZERO PUSH2 0x1FF JUMPI DUP2 DUP3 REVERT JUMPDEST PUSH2 0xAD PUSH2 0x20B CALLDATASIZE PUSH2 0x31E JUMP JUMPDEST PUSH2 0xBA3 JUMP JUMPDEST CALLVALUE ISZERO PUSH2 0x21A JUMPI DUP2 DUP3 REVERT JUMPDEST PUSH2 0xAD PUSH2 0x226 CALLDATASIZE PUSH2 0x298 JUMP JUMPDEST PUSH2 0xFC1 JUMP JUMPDEST POP POP JUMPDEST POP CALLDATASIZE PUSH2 0x23E JUMPI PUSH2 0x23C PUSH2 0x740 JUMP JUMPDEST STOP JUMPDEST PUSH2 0x23C PUSH2 0x5E6 JUMP JUMPDEST DUP1 MLOAD PUSH10 0xFFFFFFFFFFFFFFFFFFFF DUP2 AND DUP2 EQ PUSH2 0x260 JUMPI PUSH1 0x0 DUP1 REVERT JUMPDEST SWAP2 SWAP1 POP JUMP JUMPDEST PUSH1 0x0 PUSH32 0xFFFFFFFFFFFFFFFFFFFFFFFFFFFFFFFFFFFFFFFFFFFFFFFFFFFFFFFFFFFFFFFC DUP3 ADD SLT ISZERO PUSH2 0x295 JUMPI PUSH1 0x0 DUP1 REVERT JUMPDEST POP JUMP JUMPDEST PUSH1 0x0 PUSH1 0x20 PUSH32 0xFFFFFFFFFFFFFFFFFFFFFFFFFFFFFFFFFFFFFFFFFFFFFFFFFFFFFFFFFFFFFFFC DUP4 ADD SLT ISZERO PUSH2 0x2CA JUMPI PUSH1 0x0 DUP1 REVERT JUMPDEST PUSH1 0x4 CALLDATALOAD PUSH20 0xFFFFFFFFFFFFFFFFFFFFFFFFFFFFFFFFFFFFFFFF DUP2 AND DUP2 EQ PUSH2 0x2EF JUMPI PUSH1 0x0 DUP1 REVERT JUMPDEST SWAP3 SWAP2 POP POP JUMP JUMPDEST PUSH1 0x0 PUSH1 0x20 DUP3 DUP5 SUB SLT ISZERO PUSH2 0x307 JUMPI PUSH1 0x0 DUP1 REVERT JUMPDEST DUP2 MLOAD DUP1 ISZERO ISZERO DUP2 EQ PUSH2 0x317 JUMPI PUSH1 0x0 DUP1 REVERT JUMPDEST SWAP4 SWAP3 POP POP POP JUMP JUMPDEST PUSH1 0x0 PUSH1 0x20 PUSH32 0xFFFFFFFFFFFFFFFFFFFFFFFFFFFFFFFFFFFFFFFFFFFFFFFFFFFFFFFFFFFFFFFC DUP4 ADD SLT ISZERO PUSH2 0x350 JUMPI PUSH1 0x0 DUP1 REVERT JUMPDEST POP POP PUSH1 0x4 CALLDATALOAD SWAP1 JUMP JUMPDEST PUSH1 0x0 PUSH1 0x20 DUP3 DUP5 SUB SLT ISZERO PUSH2 0x36A JUMPI PUSH1 0x0 DUP1 REVERT JUMPDEST POP MLOAD SWAP2 SWAP1 POP JUMP JUMPDEST PUSH1 0x0 DUP1 PUSH1 0x40 PUSH32 0xFFFFFFFFFFFFFFFFFFFFFFFFFFFFFFFFFFFFFFFFFFFFFFFFFFFFFFFFFFFFFFFC DUP5 ADD SLT ISZERO PUSH2 0x3A4 JUMPI PUSH1 0x0 DUP1 REVERT JUMPDEST POP POP PUSH1 0x4 CALLDATALOAD SWAP2 PUSH1 0x24 CALLDATALOAD SWAP2 POP JUMP JUMPDEST DUP2 PUSH1 0x0 DUP3 CALLDATACOPY PUSH1 0x60 SWAP3 SWAP1 SWAP3 SHL PUSH32 0xFFFFFFFFFFFFFFFFFFFFFFFFFFFFFFFFFFFFFFFF000000000000000000000000 AND SWAP2 ADD SWAP1 DUP2 MSTORE PUSH1 0x14 ADD SWAP1 JUMP JUMPDEST PUSH1 0x0 DUP3 PUSH2 0x41F JUMPI PUSH32 0x4E487B7100000000000000000000000000000000000000000000000000000000 PUSH1 0x0 MSTORE PUSH1 0x12 PUSH1 0x4 MSTORE PUSH1 0x24 PUSH1 0x0 REVERT JUMPDEST POP DIV SWAP1 JUMP JUMPDEST PUSH1 0x0 PUSH32 0x5555555555555555555555555555555555555555555555555555555555555555 DUP3 GT PUSH1 0x1 AND ISZERO PUSH2 0x459 JUMPI PUSH2 0x459 PUSH2 0x10D4 JUMP JUMPDEST POP PUSH1 0x3 MUL SWAP1 JUMP JUMPDEST PUSH1 0x0 DUP2 PUSH32 0xFFFFFFFFFFFFFFFFFFFFFFFFFFFFFFFFFFFFFFFFFFFFFFFFFFFFFFFFFFFFFFFF DIV PUSH1 0x64 GT DUP3 ISZERO ISZERO AND ISZERO PUSH2 0x499 JUMPI PUSH2 0x499 PUSH2 0x10D4 JUMP JUMPDEST POP PUSH1 0x64 MUL SWAP1 JUMP JUMPDEST PUSH1 0x0 PUSH9 0x56BC75E2D63100000 DUP3 PUSH32 0xFFFFFFFFFFFFFFFFFFFFFFFFFFFFFFFFFFFFFFFFFFFFFFFFFFFFFFFFFFFFFFFF DIV DUP2 GT DUP4 ISZERO ISZERO AND ISZERO PUSH2 0x4E2 JUMPI PUSH2 0x4E2 PUSH2 0x10D4 JUMP JUMPDEST SWAP2 SWAP1 SWAP2 MUL SWAP2 SWAP1 POP JUMP JUMPDEST PUSH1 0x0 DUP2 PUSH32 0xFFFFFFFFFFFFFFFFFFFFFFFFFFFFFFFFFFFFFFFFFFFFFFFFFFFFFFFFFFFFFFFF DIV DUP4 GT DUP3 ISZERO ISZERO AND ISZERO PUSH2 0x523 JUMPI PUSH2 0x523 PUSH2 0x10D4 JUMP JUMPDEST POP MUL SWAP1 JUMP JUMPDEST PUSH1 0x0 RETURNDATASIZE DUP1 ISZERO PUSH2 0x593 JUMPI RETURNDATASIZE PUSH8 0xFFFFFFFFFFFFFFFF DUP2 GT ISZERO PUSH2 0x54A JUMPI PUSH2 0x54A PUSH2 0x1103 JUMP JUMPDEST PUSH1 0x40 MLOAD PUSH2 0x57F PUSH1 0x20 PUSH32 0xFFFFFFFFFFFFFFFFFFFFFFFFFFFFFFFFFFFFFFFFFFFFFFFFFFFFFFFFFFFFFFE0 PUSH1 0x1F DUP6 ADD AND ADD DUP3 PUSH2 0x59B JUMP JUMPDEST DUP2 DUP2 MSTORE DUP1 SWAP4 POP RETURNDATASIZE PUSH1 0x0 PUSH1 0x20 DUP4 ADD RETURNDATACOPY POP POP POP SWAP1 JUMP JUMPDEST PUSH1 0x60 SWAP2 POP POP SWAP1 JUMP JUMPDEST PUSH32 0xFFFFFFFFFFFFFFFFFFFFFFFFFFFFFFFFFFFFFFFFFFFFFFFFFFFFFFFFFFFFFFE0 PUSH1 0x1F DUP4 ADD AND DUP2 ADD DUP2 DUP2 LT PUSH8 0xFFFFFFFFFFFFFFFF DUP3 GT OR ISZERO PUSH2 0x5DF JUMPI PUSH2 0x5DF PUSH2 0x1103 JUMP JUMPDEST PUSH1 0x40 MSTORE POP POP JUMP JUMPDEST PUSH1 0x2 SLOAD PUSH2 0x606 PUSH2 0x5FE PUSH2 0x5F8 DUP4 PUSH2 0x424 JUMP JUMPDEST PUSH1 0x1 SHR SWAP1 JUMP JUMPDEST CALLVALUE LT ISZERO PUSH2 0x11BC JUMP JUMPDEST PUSH1 0x3 SLOAD PUSH1 0x40 MLOAD PUSH1 0x20 DUP2 ADD DUP2 PUSH2 0x61C CALLER CALLDATASIZE DUP5 PUSH2 0x3B1 JUMP JUMPDEST SUB PUSH32 0xFFFFFFFFFFFFFFFFFFFFFFFFFFFFFFFFFFFFFFFFFFFFFFFFFFFFFFFFFFFFFFE0 DUP2 ADD DUP4 MSTORE PUSH2 0x64C DUP2 DUP5 PUSH2 0x59B JUMP JUMPDEST POP PUSH2 0x65B DUP3 MLOAD DUP3 KECCAK256 DUP5 EQ PUSH2 0x1246 JUMP JUMPDEST POP POP POP DUP1 ISZERO DUP1 ISZERO SWAP1 PUSH2 0x709 JUMPI PUSH2 0x670 CALLVALUE PUSH1 0x2 SSTORE JUMP JUMPDEST PUSH2 0x6AB PUSH2 0x692 PUSH1 0x1 SLOAD PUSH20 0xFFFFFFFFFFFFFFFFFFFFFFFFFFFFFFFFFFFFFFFF AND SWAP1 JUMP JUMPDEST PUSH20 0xFFFFFFFFFFFFFFFFFFFFFFFFFFFFFFFFFFFFFFFF AND SWAP1 JUMP JUMPDEST PUSH1 0x5 SLOAD PUSH1 0x0 DUP1 PUSH1 0x0 PUSH1 0x40 MLOAD CALLVALUE DUP7 DUP7 CALL SWAP2 POP POP PUSH2 0x6C5 PUSH2 0x528 JUMP JUMPDEST POP PUSH1 0x40 DUP1 MLOAD DUP3 ISZERO ISZERO DUP2 MSTORE CALLVALUE PUSH1 0x20 DUP3 ADD MSTORE CALLER SWAP2 DUP2 ADD SWAP2 SWAP1 SWAP2 MSTORE PUSH32 0x7F7CAF2CFDC2014AA045DD0EF7E9F5A6A4819E729710BED3689BA095E658738F PUSH1 0x60 DUP3 LOG1 POP POP PUSH2 0x712 JUMP JUMPDEST PUSH2 0x712 CALLVALUE PUSH1 0x2 SSTORE JUMP JUMPDEST POP POP PUSH1 0x1 DUP1 SLOAD PUSH32 0xFFFFFFFFFFFFFFFFFFFFFFFF0000000000000000000000000000000000000000 AND CALLER OR SWAP1 SSTORE JUMP JUMPDEST PUSH1 0x40 MLOAD PUSH32 0x8C379A000000000000000000000000000000000000000000000000000000000 DUP2 MSTORE PUSH1 0x20 PUSH1 0x4 DUP3 ADD MSTORE PUSH1 0x35 PUSH1 0x24 DUP3 ADD MSTORE PUSH32 0x536F7272792C20796F75277265206E6F74207468652063757272656E746C7920 PUSH1 0x44 DUP3 ADD MSTORE PUSH32 0x72656769737465726564206465706F7369746F722E0000000000000000000000 PUSH1 0x64 DUP3 ADD MSTORE PUSH1 0x84 DUP2 REVERT JUMPDEST PUSH1 0x40 MLOAD PUSH1 0x40 DUP2 ADD DUP2 DUP2 LT PUSH8 0xFFFFFFFFFFFFFFFF DUP3 GT OR ISZERO PUSH2 0x7E8 JUMPI PUSH2 0x7E8 PUSH2 0x1103 JUMP JUMPDEST PUSH1 0x40 MSTORE PUSH1 0x20 DUP1 DUP3 MSTORE PUSH32 0x5361666545524332303A206C6F772D6C6576656C2063616C6C206661696C6564 DUP3 DUP3 ADD MSTORE PUSH20 0x2791BCA1F2DE4661ED88A30C99A7A9449AA84174 DUP1 EXTCODESIZE PUSH2 0x88E JUMPI PUSH1 0x40 MLOAD PUSH32 0x8C379A000000000000000000000000000000000000000000000000000000000 DUP2 MSTORE DUP3 PUSH1 0x4 DUP3 ADD MSTORE PUSH1 0x1D PUSH1 0x24 DUP3 ADD MSTORE PUSH32 0x416464726573733A2063616C6C20746F206E6F6E2D636F6E7472616374000000 PUSH1 0x44 DUP3 ADD MSTORE PUSH1 0x64 DUP2 REVERT JUMPDEST PUSH1 0x0 DUP1 DUP6 MLOAD DUP5 DUP8 ADD PUSH1 0x0 DUP6 GAS CALL SWAP1 POP PUSH2 0x8AF DUP4 PUSH2 0x8A9 PUSH2 0x528 JUMP JUMPDEST DUP4 PUSH2 0xD55 JUMP JUMPDEST SWAP3 POP POP DUP2 MLOAD DUP1 ISZERO PUSH2 0x8D2 JUMPI PUSH2 0x8D2 PUSH2 0x8CD DUP4 DUP4 DUP7 ADD ADD DUP5 DUP7 ADD PUSH2 0x2F5 JUMP JUMPDEST PUSH2 0x1334 JUMP JUMPDEST POP POP POP POP JUMP JUMPDEST PUSH20 0xFFFFFFFFFFFFFFFFFFFFFFFFFFFFFFFFFFFFFFFF PUSH1 0x0 SLOAD AND CALLER DUP2 EQ PUSH2 0x295 JUMPI PUSH1 0x40 MLOAD PUSH32 0x8C379A000000000000000000000000000000000000000000000000000000000 DUP2 MSTORE PUSH1 0x20 PUSH1 0x4 DUP3 ADD MSTORE PUSH1 0x20 PUSH1 0x24 DUP3 ADD MSTORE PUSH32 0x4F776E61626C653A2063616C6C6572206973206E6F7420746865206F776E6572 PUSH1 0x44 DUP3 ADD MSTORE PUSH1 0x64 DUP2 REVERT JUMPDEST PUSH1 0x2 SLOAD PUSH2 0x963 DUP2 PUSH2 0x424 JUMP JUMPDEST PUSH2 0x994 PUSH2 0x98C PUSH2 0x5F8 PUSH2 0x97D PUSH2 0x977 PUSH2 0xAFC JUMP JUMPDEST DUP6 PUSH2 0x4EB JUMP JUMPDEST PUSH9 0x56BC75E2D63100000 SWAP1 DIV SWAP1 JUMP JUMPDEST DUP5 LT ISZERO PUSH2 0x1132 JUMP JUMPDEST POP PUSH1 0x3 SLOAD PUSH1 0x40 MLOAD PUSH1 0x20 DUP2 ADD DUP2 PUSH2 0x9DC CALLER DUP9 DUP5 SWAP1 DUP2 MSTORE PUSH1 0x60 SWAP2 SWAP1 SWAP2 SHL PUSH32 0xFFFFFFFFFFFFFFFFFFFFFFFFFFFFFFFFFFFFFFFF000000000000000000000000 AND PUSH1 0x20 DUP3 ADD MSTORE PUSH1 0x34 ADD SWAP1 JUMP JUMPDEST SUB PUSH32 0xFFFFFFFFFFFFFFFFFFFFFFFFFFFFFFFFFFFFFFFFFFFFFFFFFFFFFFFFFFFFFFE0 DUP2 ADD DUP4 MSTORE PUSH2 0xA0C DUP2 DUP5 PUSH2 0x59B JUMP JUMPDEST POP PUSH2 0xA1B DUP3 MLOAD DUP3 KECCAK256 DUP5 EQ PUSH2 0x1246 JUMP JUMPDEST POP POP POP DUP1 ISZERO DUP1 ISZERO SWAP1 PUSH2 0xA7B JUMPI PUSH2 0xA30 DUP4 PUSH2 0x4A0 JUMP JUMPDEST PUSH2 0xA49 PUSH2 0xA44 PUSH2 0xA3E PUSH2 0xAFC JUMP JUMPDEST DUP4 PUSH2 0x3E9 JUMP JUMPDEST PUSH1 0x2 SSTORE JUMP JUMPDEST POP PUSH2 0xA76 DUP4 PUSH2 0xA70 PUSH2 0x692 PUSH1 0x1 SLOAD PUSH20 0xFFFFFFFFFFFFFFFFFFFFFFFFFFFFFFFFFFFFFFFF AND SWAP1 JUMP JUMPDEST CALLER PUSH2 0xC68 JUMP JUMPDEST PUSH2 0xA94 JUMP JUMPDEST PUSH2 0xA84 DUP4 PUSH2 0x460 JUMP JUMPDEST PUSH2 0xA92 PUSH2 0xA44 PUSH2 0xA3E PUSH2 0xAFC JUMP JUMPDEST POP JUMPDEST POP POP PUSH1 0x1 DUP1 SLOAD PUSH32 0xFFFFFFFFFFFFFFFFFFFFFFFF0000000000000000000000000000000000000000 AND CALLER OR SWAP1 SSTORE PUSH1 0x40 DUP1 MLOAD DUP3 DUP2 MSTORE CALLER PUSH1 0x20 DUP3 ADD MSTORE SWAP1 PUSH32 0xF5CB588F5F04842FA8A48FFD1F1B14B97339A788A30A4AB1C445E84F46A8B5FF SWAP1 DUP3 SWAP1 DUP2 ADD SUB DUP3 LOG1 POP POP POP JUMP JUMPDEST PUSH1 0x0 PUSH20 0xAB594600376EC9FD91F8E885DADF0CE036862DE0 DUP1 EXTCODESIZE PUSH2 0xB1E JUMPI PUSH1 0x0 DUP1 REVERT JUMPDEST PUSH1 0x40 MLOAD PUSH32 0xFEAF968C00000000000000000000000000000000000000000000000000000000 DUP2 MSTORE PUSH1 0xA0 DUP2 PUSH1 0x4 DUP4 DUP6 GAS STATICCALL SWAP2 POP DUP2 PUSH2 0xB5C JUMPI PUSH2 0xB5C PUSH2 0x13BE JUMP JUMPDEST PUSH1 0x0 DUP3 ISZERO PUSH2 0x317 JUMPI PUSH2 0xB6E RETURNDATASIZE DUP4 PUSH2 0x59B JUMP JUMPDEST PUSH1 0xA0 DUP3 RETURNDATASIZE DUP5 ADD SUB SLT ISZERO PUSH2 0xB7F JUMPI DUP1 DUP2 REVERT JUMPDEST PUSH2 0xB88 DUP3 PUSH2 0x246 JUMP JUMPDEST POP PUSH1 0x20 DUP3 ADD MLOAD PUSH2 0xB9A PUSH1 0x80 DUP5 ADD PUSH2 0x246 JUMP JUMPDEST POP SWAP5 SWAP4 POP POP POP POP JUMP JUMPDEST PUSH1 0x3 SLOAD ISZERO PUSH2 0xC5F JUMPI PUSH1 0x4 SLOAD TIMESTAMP GT PUSH2 0xC5F JUMPI PUSH1 0x40 MLOAD PUSH32 0x8C379A000000000000000000000000000000000000000000000000000000000 DUP2 MSTORE PUSH1 0x20 PUSH1 0x4 DUP3 ADD MSTORE PUSH1 0x4E PUSH1 0x24 DUP3 ADD MSTORE PUSH32 0x536F6D656F6E6520656C736520686173207265676973746572656420746F2064 PUSH1 0x44 DUP3 ADD MSTORE PUSH32 0x65706F7369742C20706C65617365207761697420616E64207472792061676169 PUSH1 0x64 DUP3 ADD MSTORE PUSH32 0x6E20696E2033206D696E75746573000000000000000000000000000000000000 PUSH1 0x84 DUP3 ADD MSTORE PUSH1 0xA4 DUP2 REVERT JUMPDEST PUSH1 0x3 SSTORE TIMESTAMP PUSH1 0x4 SSTORE JUMP JUMPDEST PUSH1 0x40 MLOAD PUSH32 0x23B872DD00000000000000000000000000000000000000000000000000000000 PUSH1 0x20 DUP3 ADD MSTORE PUSH20 0xFFFFFFFFFFFFFFFFFFFFFFFFFFFFFFFFFFFFFFFF DUP3 DUP2 AND PUSH1 0x24 DUP4 ADD MSTORE DUP4 AND PUSH1 0x44 DUP3 ADD MSTORE PUSH1 0x64 DUP1 DUP3 ADD DUP6 SWAP1 MSTORE DUP2 MSTORE PUSH1 0xA0 DUP2 ADD PUSH8 0xFFFFFFFFFFFFFFFF DUP2 GT DUP3 DUP3 LT OR ISZERO PUSH2 0xCDF JUMPI PUSH2 0xCDF PUSH2 0x1103 JUMP JUMPDEST PUSH1 0x40 MSTORE PUSH2 0x8D2 DUP2 PUSH2 0x7C5 JUMP JUMPDEST PUSH1 0x40 MLOAD PUSH32 0xA9059CBB00000000000000000000000000000000000000000000000000000000 PUSH1 0x20 DUP3 ADD MSTORE PUSH20 0xFFFFFFFFFFFFFFFFFFFFFFFFFFFFFFFFFFFFFFFF DUP3 AND PUSH1 0x24 DUP3 ADD MSTORE PUSH1 0x44 DUP1 DUP3 ADD DUP5 SWAP1 MSTORE DUP2 MSTORE PUSH1 0x64 PUSH2 0xD46 DUP2 DUP4 PUSH2 0x59B JUMP JUMPDEST POP PUSH2 0xD50 DUP2 PUSH2 0x7C5 JUMP JUMPDEST POP POP POP JUMP JUMPDEST PUSH1 0x60 DUP2 DUP1 ISZERO PUSH2 0xD67 JUMPI DUP4 SWAP2 POP POP PUSH2 0x317 JUMP JUMPDEST DUP4 MLOAD ISZERO DUP1 ISZERO SWAP1 PUSH2 0xD79 JUMPI DUP5 MLOAD DUP6 PUSH1 0x20 ADD REVERT JUMPDEST PUSH1 0x40 MLOAD PUSH32 0x8C379A000000000000000000000000000000000000000000000000000000000 DUP2 MSTORE PUSH1 0x20 DUP1 PUSH1 0x4 DUP4 ADD MSTORE DUP8 MLOAD DUP1 PUSH1 0x24 DUP5 ADD MSTORE PUSH1 0x0 JUMPDEST DUP2 DUP2 LT ISZERO PUSH2 0xDCE JUMPI DUP10 DUP2 ADD DUP4 ADD MLOAD DUP5 DUP3 ADD PUSH1 0x44 ADD MSTORE DUP3 ADD PUSH2 0xDB2 JUMP JUMPDEST DUP2 DUP2 GT ISZERO PUSH2 0xDE0 JUMPI PUSH1 0x0 PUSH1 0x44 DUP4 DUP7 ADD ADD MSTORE JUMPDEST POP PUSH1 0x44 DUP4 PUSH32 0xFFFFFFFFFFFFFFFFFFFFFFFFFFFFFFFFFFFFFFFFFFFFFFFFFFFFFFFFFFFFFFE0 PUSH1 0x1F DUP5 ADD AND DUP6 ADD SUB ADD DUP4 REVERT JUMPDEST PUSH2 0xE19 PUSH2 0x8D8 JUMP JUMPDEST PUSH1 0x0 SLOAD PUSH32 0xFFFFFFFFFFFFFFFFFFFFFFFF0000000000000000000000000000000000000000 DUP2 AND PUSH1 0x0 SSTORE PUSH1 0x0 PUSH20 0xFFFFFFFFFFFFFFFFFFFFFFFFFFFFFFFFFFFFFFFF DUP3 AND PUSH32 0x8BE0079C531659141344CD1FD0A4F28419497F9722A3DAAFE3B4186F6B6457E0 PUSH1 0x0 PUSH1 0x40 MLOAD LOG3 POP JUMP JUMPDEST PUSH2 0xE8D PUSH2 0x8D8 JUMP JUMPDEST SELFBALANCE ISZERO PUSH2 0xEB6 JUMPI SELFBALANCE PUSH1 0x0 DUP1 PUSH1 0x0 PUSH1 0x40 MLOAD DUP5 CALLER GAS CALL SWAP1 POP PUSH2 0xEAA PUSH2 0x528 JUMP JUMPDEST POP PUSH2 0xEB4 DUP2 PUSH2 0x12D0 JUMP JUMPDEST POP JUMPDEST PUSH20 0x2791BCA1F2DE4661ED88A30C99A7A9449AA84174 DUP1 EXTCODESIZE PUSH2 0xED6 JUMPI PUSH1 0x0 DUP1 REVERT JUMPDEST PUSH1 0x40 MLOAD PUSH32 0x70A0823100000000000000000000000000000000000000000000000000000000 DUP2 MSTORE ADDRESS PUSH1 0x4 DUP3 ADD MSTORE PUSH1 0x20 DUP2 PUSH1 0x24 DUP2 DUP6 GAS STATICCALL DUP1 PUSH2 0xF18 JUMPI PUSH2 0xF18 PUSH2 0x13BE JUMP JUMPDEST PUSH1 0x0 DUP2 ISZERO PUSH2 0xF39 JUMPI PUSH2 0xF2A RETURNDATASIZE DUP5 PUSH2 0x59B JUMP JUMPDEST PUSH2 0xF36 RETURNDATASIZE DUP5 ADD DUP5 PUSH2 0x358 JUMP JUMPDEST SWAP1 POP JUMPDEST DUP1 ISZERO PUSH2 0x8D2 JUMPI DUP4 EXTCODESIZE PUSH2 0xF4A JUMPI PUSH1 0x0 DUP1 REVERT JUMPDEST PUSH1 0x40 MLOAD PUSH32 0x95EA7B300000000000000000000000000000000000000000000000000000000 DUP2 MSTORE CALLER PUSH1 0x4 DUP3 ADD MSTORE PUSH1 0x24 DUP2 ADD DUP3 SWAP1 MSTORE SWAP3 POP PUSH1 0x20 DUP4 PUSH1 0x44 DUP2 PUSH1 0x0 DUP9 GAS CALL SWAP2 POP DUP2 PUSH2 0xF99 JUMPI PUSH2 0xF99 PUSH2 0x13BE JUMP JUMPDEST DUP2 ISZERO PUSH2 0xFB7 JUMPI PUSH2 0xFA9 RETURNDATASIZE DUP5 PUSH2 0x59B JUMP JUMPDEST PUSH2 0xFB5 RETURNDATASIZE DUP5 ADD DUP5 PUSH2 0x2F5 JUMP JUMPDEST POP JUMPDEST PUSH2 0x8D2 DUP2 CALLER PUSH2 0xCEB JUMP JUMPDEST PUSH2 0xFC9 PUSH2 0x8D8 JUMP JUMPDEST PUSH20 0xFFFFFFFFFFFFFFFFFFFFFFFFFFFFFFFFFFFFFFFF DUP1 DUP3 AND DUP1 PUSH2 0x106B JUMPI PUSH1 0x40 MLOAD PUSH32 0x8C379A000000000000000000000000000000000000000000000000000000000 DUP2 MSTORE PUSH1 0x20 PUSH1 0x4 DUP3 ADD MSTORE PUSH1 0x26 PUSH1 0x24 DUP3 ADD MSTORE PUSH32 0x4F776E61626C653A206E6577206F776E657220697320746865207A65726F2061 PUSH1 0x44 DUP3 ADD MSTORE PUSH32 0x6464726573730000000000000000000000000000000000000000000000000000 PUSH1 0x64 DUP3 ADD MSTORE PUSH1 0x84 DUP2 REVERT JUMPDEST PUSH1 0x0 SLOAD DUP2 PUSH32 0xFFFFFFFFFFFFFFFFFFFFFFFF0000000000000000000000000000000000000000 DUP3 AND OR PUSH1 0x0 SSTORE DUP4 DUP4 DUP3 AND PUSH32 0x8BE0079C531659141344CD1FD0A4F28419497F9722A3DAAFE3B4186F6B6457E0 PUSH1 0x0 PUSH1 0x40 MLOAD LOG3 POP POP POP POP JUMP JUMPDEST PUSH2 0x10CF PUSH2 0x8D8 JUMP JUMPDEST PUSH1 0x5 SSTORE JUMP JUMPDEST PUSH32 0x4E487B7100000000000000000000000000000000000000000000000000000000 PUSH1 0x0 MSTORE PUSH1 0x11 PUSH1 0x4 MSTORE PUSH1 0x24 PUSH1 0x0 REVERT JUMPDEST PUSH32 0x4E487B7100000000000000000000000000000000000000000000000000000000 PUSH1 0x0 MSTORE PUSH1 0x41 PUSH1 0x4 MSTORE PUSH1 0x24 PUSH1 0x0 REVERT JUMPDEST DUP1 PUSH2 0x295 JUMPI PUSH1 0x40 MLOAD PUSH32 0x8C379A000000000000000000000000000000000000000000000000000000000 DUP2 MSTORE PUSH1 0x20 PUSH1 0x4 DUP3 ADD MSTORE PUSH1 0x22 PUSH1 0x24 DUP3 ADD MSTORE PUSH32 0x596F75277265206E6F74206465706F736974696E6720656E6F75676820555344 PUSH1 0x44 DUP3 ADD MSTORE PUSH32 0x4321000000000000000000000000000000000000000000000000000000000000 PUSH1 0x64 DUP3 ADD MSTORE PUSH1 0x84 DUP2 REVERT JUMPDEST DUP1 PUSH2 0x295 JUMPI PUSH1 0x40 MLOAD PUSH32 0x8C379A000000000000000000000000000000000000000000000000000000000 DUP2 MSTORE PUSH1 0x20 PUSH1 0x4 DUP3 ADD MSTORE PUSH1 0x23 PUSH1 0x24 DUP3 ADD MSTORE PUSH32 0x596F75277265206E6F74206465706F736974696E6720656E6F75676820657468 PUSH1 0x44 DUP3 ADD MSTORE PUSH32 0x6572210000000000000000000000000000000000000000000000000000000000 PUSH1 0x64 DUP3 ADD MSTORE PUSH1 0x84 DUP2 REVERT JUMPDEST DUP1 PUSH2 0x295 JUMPI PUSH1 0x40 MLOAD PUSH32 0x8C379A000000000000000000000000000000000000000000000000000000000 DUP2 MSTORE PUSH1 0x20 PUSH1 0x4 DUP3 ADD MSTORE PUSH1 0x35 PUSH1 0x24 DUP3 ADD MSTORE PUSH32 0x536F7272792C20796F75277265206E6F74207468652063757272656E746C7920 PUSH1 0x44 DUP3 ADD MSTORE PUSH32 0x72656769737465726564206465706F7369746F722E0000000000000000000000 PUSH1 0x64 DUP3 ADD MSTORE PUSH1 0x84 DUP2 REVERT JUMPDEST DUP1 PUSH2 0x295 JUMPI PUSH1 0x40 MLOAD PUSH32 0x8C379A000000000000000000000000000000000000000000000000000000000 DUP2 MSTORE PUSH1 0x20 PUSH1 0x4 DUP3 ADD MSTORE PUSH1 0x13 PUSH1 0x24 DUP3 ADD MSTORE PUSH32 0x4572726F7220696E207769746864726177616C00000000000000000000000000 PUSH1 0x44 DUP3 ADD MSTORE PUSH1 0x64 DUP2 REVERT JUMPDEST DUP1 PUSH2 0x295 JUMPI PUSH1 0x40 MLOAD PUSH32 0x8C379A000000000000000000000000000000000000000000000000000000000 DUP2 MSTORE PUSH1 0x20 PUSH1 0x4 DUP3 ADD MSTORE PUSH1 0x2A PUSH1 0x24 DUP3 ADD MSTORE PUSH32 0x5361666545524332303A204552433230206F7065726174696F6E20646964206E PUSH1 0x44 DUP3 ADD MSTORE PUSH32 0x6F74207375636365656400000000000000000000000000000000000000000000 PUSH1 0x64 DUP3 ADD MSTORE PUSH1 0x84 DUP2 REVERT JUMPDEST PUSH1 0x40 MLOAD RETURNDATASIZE PUSH1 0x0 DUP3 RETURNDATACOPY RETURNDATASIZE DUP2 REVERT INVALID LOG3 PUSH5 0x6970667358 0x22 SLT KECCAK256 SWAP3 0xBD PUSH12 0x6D8C877666A025C1867FE7CE DUP9 TIMESTAMP PUSH23 0x699CE6A7BCEAD02F828C2611D0AC6C6578706572696D65 PUSH15 0x74616CF564736F6C63430008070041 "},"methodIdentifiers":{"MATIC_USD_ORACLE()":"8db9f39a","USDC_ADDRESS()":"bb09d9b7","deposit(uint256,bytes32)":"c9630cb0","emergencyWithdraw()":"db2e21bc","getKing()":"7920d804","maximumPaid()":"423cb99e","owner()":"8da5cb5b","register(bytes32)":"e1fa8e84","renounceOwnership()":"715018a6","setGasAllocatedForKingPayment(uint256)":"1f19ec29","transferOwnership(address)":"f2fde38b"}}}}}