{"contracts/King.sol":{"King":{"abi":[{"anonymous":false,"inputs":[{"indexed":false,"internalType":"bool","name":"success","type":"bool"},{"indexed":false,"internalType":"uint256","name":"amount","type":"uint256"},{"indexed":false,"internalType":"address","name":"king","type":"address"}],"name":"EthDeposit","type":"event"},{"anonymous":false,"inputs":[{"indexed":true,"internalType":"address","name":"previousOwner","type":"address"},{"indexed":true,"internalType":"address","name":"newOwner","type":"address"}],"name":"OwnershipTransferred","type":"event"},{"anonymous":false,"inputs":[{"indexed":false,"internalType":"uint256","name":"amount","type":"uint256"},{"indexed":false,"internalType":"address","name":"king","type":"address"}],"name":"UsdcDeposit","type":"event"},{"stateMutability":"payable","type":"fallback"},{"inputs":[],"name":"MATIC_USD_ORACLE","outputs":[{"internalType":"address","name":"","type":"address"}],"stateMutability":"view","type":"function"},{"inputs":[],"name":"USDC_ADDRESS","outputs":[{"internalType":"address","name":"","type":"address"}],"stateMutability":"view","type":"function"},{"inputs":[{"internalType":"uint256","name":"depositAmount","type":"uint256"},{"internalType":"bytes32","name":"_secret","type":"bytes32"}],"name":"deposit","outputs":[],"stateMutability":"nonpayable","type":"function"},{"inputs":[],"name":"emergencyWithdraw","outputs":[],"stateMutability":"payable","type":"function"},{"inputs":[],"name":"getKing","outputs":[{"internalType":"address payable","name":"","type":"address"}],"stateMutability":"view","type":"function"},{"inputs":[],"name":"maximumPaid","outputs":[{"internalType":"uint256","name":"","type":"uint256"}],"stateMutability":"view","type":"function"},{"inputs":[],"name":"owner","outputs":[{"internalType":"address","name":"","type":"address"}],"stateMutability":"view","type":"function"},{"inputs":[{"internalType":"bytes32","name":"_commitment","type":"bytes32"}],"name":"register","outputs":[],"stateMutability":"nonpayable","type":"function"},{"inputs":[],"name":"renounceOwnership","outputs":[],"stateMutability":"nonpayable","type":"function"},{"inputs":[{"internalType":"address","name":"newOwner","type":"address"}],"name":"transferOwnership","outputs":[],"stateMutability":"nonpayable","type":"function"}],"evm":{"bytecode":{"linkReferences":{},"object":"6080604052341561000f57600080fd5b60008054336001600160a01b031982168117835590916001600160a01b038316907f8be0079c531659141344cd1fd0a4f28419497f9722a3daafe3b4186f6b6457e0906080a35061137980610066608039806080f3fe60406080815260043610610229576000803560e01c63423cb99e81146100875763715018a681146100c857637920d80481146100e857638da5cb5b811461012157638db9f39a81146101595763bb09d9b7811461018a5763c9630cb081146101bb5763db2e21bc81146101df5763e1fa8e8481146101f05763f2fde38b811461020b57610226565b3415610091578182fd5b61009a36610253565b6002546080527fffffffffffffffffffffffffffffffffffffffffffffffffffffffffffffff8060a0016080f35b34156100d2578182fd5b6100db36610253565b6100e3610d6d565b818351f35b34156100f2578182fd5b6100fb36610253565b600154835173ffffffffffffffffffffffffffffffffffffffff90911680825290602081f35b341561012b578182fd5b61013436610253565b8154835173ffffffffffffffffffffffffffffffffffffffff90911680825290602081f35b3415610163578182fd5b61016c36610253565b825173ab594600376ec9fd91f8e885dadf0ce036862de08152602081f35b3415610194578182fd5b61019d36610253565b8251732791bca1f2de4661ed88a30c99a7a9449aa841748152602081f35b34156101c5578182fd5b6101ce3661035f565b6101d881836108ff565b5050818351f35b6101e836610253565b6100e3610de1565b34156101fa578182fd5b6100e36102063661030c565b610b4b565b3415610215578182fd5b6100e361022136610286565b610f5f565b50505b506102326105d4565b005b805169ffffffffffffffffffff8116811461024e57600080fd5b919050565b60007ffffffffffffffffffffffffffffffffffffffffffffffffffffffffffffffffc8201121561028357600080fd5b50565b600060207ffffffffffffffffffffffffffffffffffffffffffffffffffffffffffffffffc830112156102b857600080fd5b60043573ffffffffffffffffffffffffffffffffffffffff811681146102dd57600080fd5b92915050565b6000602082840312156102f557600080fd5b8151801515811461030557600080fd5b9392505050565b600060207ffffffffffffffffffffffffffffffffffffffffffffffffffffffffffffffffc8301121561033e57600080fd5b505060043590565b60006020828403121561035857600080fd5b5051919050565b60008060407ffffffffffffffffffffffffffffffffffffffffffffffffffffffffffffffffc8401121561039257600080fd5b5050600435916024359150565b816000823760609290921b7fffffffffffffffffffffffffffffffffffffffff00000000000000000000000016910190815260140190565b60008261040d577f4e487b7100000000000000000000000000000000000000000000000000000000600052601260045260246000fd5b500490565b60007f555555555555555555555555555555555555555555555555555555555555555582116001161561044757610447611065565b5060030290565b6000817fffffffffffffffffffffffffffffffffffffffffffffffffffffffffffffffff04606411821515161561048757610487611065565b5060640290565b600068056bc75e2d63100000827fffffffffffffffffffffffffffffffffffffffffffffffffffffffffffffffff04811183151516156104d0576104d0611065565b91909102919050565b6000817fffffffffffffffffffffffffffffffffffffffffffffffffffffffffffffffff048311821515161561051157610511611065565b500290565b60003d8015610581573d67ffffffffffffffff81111561053857610538611094565b60405161056d60207fffffffffffffffffffffffffffffffffffffffffffffffffffffffffffffffe0601f8501160182610589565b8181528093503d6000602083013e50505090565b606091505090565b7fffffffffffffffffffffffffffffffffffffffffffffffffffffffffffffffe0601f830116810181811067ffffffffffffffff821117156105cd576105cd611094565b6040525050565b6002546105f46105ec6105e683610412565b60011c90565b34101561114d565b600454604051602081018161060a33368461039f565b037fffffffffffffffffffffffffffffffffffffffffffffffffffffffffffffffe08101835261063a8184610589565b506106498251822084146111d7565b50505080158015906106ee5761065e34600255565b61069961068060015473ffffffffffffffffffffffffffffffffffffffff1690565b73ffffffffffffffffffffffffffffffffffffffff1690565b600080600060405134855af190506106af610516565b506106e8817fffffffffffffffffffffffffffffffffffffffffffffffffffffffffffffff006003541660ff8215151681176003555050565b506106f7565b6106f734600255565b5050600180547fffffffffffffffffffffffff0000000000000000000000000000000000000000163317905560035460ff1660408051821515815234602082015233918101919091527f7f7caf2cfdc2014aa045dd0ef7e9f5a6a4819e729710bed3689ba095e658738f81606081010382a15050565b6040516040810181811067ffffffffffffffff8211171561079057610790611094565b60405260208082527f5361666545524332303a206c6f772d6c6576656c2063616c6c206661696c656482820152732791bca1f2de4661ed88a30c99a7a9449aa84174803b610836576040517f08c379a0000000000000000000000000000000000000000000000000000000008152826004820152601d60248201527f416464726573733a2063616c6c20746f206e6f6e2d636f6e74726163740000006044820152606481fd5b60008085518487016000855af1905061085783610851610516565b83610cb1565b9250508151801561087a5761087a61087583838601018486016102e3565b61129f565b50505050565b73ffffffffffffffffffffffffffffffffffffffff60005416338114610283576040517f08c379a000000000000000000000000000000000000000000000000000000000815260206004820152602060248201527f4f776e61626c653a2063616c6c6572206973206e6f7420746865206f776e65726044820152606481fd5b60025461090b81610412565b61093c6109346105e661092561091f610aa4565b856104d9565b68056bc75e2d63100000900490565b8410156110c3565b50600454604051602081018161098433888490815260609190911b7fffffffffffffffffffffffffffffffffffffffff00000000000000000000000016602082015260340190565b037fffffffffffffffffffffffffffffffffffffffffffffffffffffffffffffffe0810183526109b48184610589565b506109c38251822084146111d7565b5050508015801590610a23576109d88361048e565b6109f16109ec6109e6610aa4565b836103d7565b600255565b50610a1e83610a1861068060015473ffffffffffffffffffffffffffffffffffffffff1690565b33610bc4565b610a3c565b610a2c8361044e565b610a3a6109ec6109e6610aa4565b505b5050600180547fffffffffffffffffffffffff0000000000000000000000000000000000000000163317905560408051828152336020820152907ff5cb588f5f04842fa8a48ffd1f1b14b97339a788a30a4ab1c445e84f46a8b5ff90829081010382a1505050565b600073ab594600376ec9fd91f8e885dadf0ce036862de0803b610ac657600080fd5b6040517ffeaf968c00000000000000000000000000000000000000000000000000000000815260a081600483855afa915081610b0457610b04611329565b6000821561030557610b163d83610589565b60a0823d8401031215610b27578081fd5b610b3082610234565b506020820151610b4260808401610234565b50949350505050565b60045415610bbb576005544211610bbb576040517f08c379a000000000000000000000000000000000000000000000000000000000815260206004820152600460248201527f57616974000000000000000000000000000000000000000000000000000000006044820152606481fd5b60045542600555565b6040517f23b872dd00000000000000000000000000000000000000000000000000000000602082015273ffffffffffffffffffffffffffffffffffffffff8281166024830152831660448201526064808201859052815260a0810167ffffffffffffffff81118282101715610c3b57610c3b611094565b60405261087a8161076d565b6040517fa9059cbb00000000000000000000000000000000000000000000000000000000602082015273ffffffffffffffffffffffffffffffffffffffff82166024820152604480820184905281526064610ca28183610589565b50610cac8161076d565b505050565b6060818015610cc35783915050610305565b835115801590610cd557845185602001fd5b6040517f08c379a00000000000000000000000000000000000000000000000000000000081526020806004830152875180602484015260005b81811015610d2a57898101830151848201604401528201610d0e565b81811115610d3c576000604483860101525b506044837fffffffffffffffffffffffffffffffffffffffffffffffffffffffffffffffe0601f8401168501030183fd5b610d75610880565b6000547fffffffffffffffffffffffff00000000000000000000000000000000000000008116600055600073ffffffffffffffffffffffffffffffffffffffff82167f8be0079c531659141344cd1fd0a4f28419497f9722a3daafe3b4186f6b6457e06000604051a350565b610de9610880565b4715610e545747600080600060405184335af19050610e06610516565b50610e3f817fffffffffffffffffffffffffffffffffffffffffffffffffffffffffffffff006003541660ff8215151681176003555050565b50610e54610e4f60035460ff1690565b61123b565b732791bca1f2de4661ed88a30c99a7a9449aa84174803b610e7457600080fd5b6040517f70a08231000000000000000000000000000000000000000000000000000000008152306004820152602081602481855afa80610eb657610eb6611329565b60008115610ed757610ec83d84610589565b610ed43d840184610346565b90505b801561087a57833b610ee857600080fd5b6040517f095ea7b30000000000000000000000000000000000000000000000000000000081523360048201526024810182905292506020836044816000885af1915081610f3757610f37611329565b8115610f5557610f473d84610589565b610f533d8401846102e3565b505b61087a8133610c47565b610f67610880565b73ffffffffffffffffffffffffffffffffffffffff80821680611009576040517f08c379a000000000000000000000000000000000000000000000000000000000815260206004820152602660248201527f4f776e61626c653a206e6577206f776e657220697320746865207a65726f206160448201527f64647265737300000000000000000000000000000000000000000000000000006064820152608481fd5b600054817fffffffffffffffffffffffff0000000000000000000000000000000000000000821617600055838382167f8be0079c531659141344cd1fd0a4f28419497f9722a3daafe3b4186f6b6457e06000604051a350505050565b7f4e487b7100000000000000000000000000000000000000000000000000000000600052601160045260246000fd5b7f4e487b7100000000000000000000000000000000000000000000000000000000600052604160045260246000fd5b80610283576040517f08c379a000000000000000000000000000000000000000000000000000000000815260206004820152602260248201527f596f75277265206e6f74206465706f736974696e6720656e6f7567682055534460448201527f43210000000000000000000000000000000000000000000000000000000000006064820152608481fd5b80610283576040517f08c379a000000000000000000000000000000000000000000000000000000000815260206004820152602360248201527f596f75277265206e6f74206465706f736974696e6720656e6f7567682065746860448201527f65722100000000000000000000000000000000000000000000000000000000006064820152608481fd5b80610283576040517f08c379a000000000000000000000000000000000000000000000000000000000815260206004820152600860248201527f4d69736d617463680000000000000000000000000000000000000000000000006044820152606481fd5b80610283576040517f08c379a000000000000000000000000000000000000000000000000000000000815260206004820152601360248201527f4572726f7220696e207769746864726177616c000000000000000000000000006044820152606481fd5b80610283576040517f08c379a000000000000000000000000000000000000000000000000000000000815260206004820152602a60248201527f5361666545524332303a204552433230206f7065726174696f6e20646964206e60448201527f6f742073756363656564000000000000000000000000000000000000000000006064820152608481fd5b6040513d6000823e3d81fdfea3646970667358221220a1c83cd227771d3885c23c87490e4c4ddab6a59e5f9260f4c78020eaabd555616c6578706572696d656e74616cf564736f6c63430008070041","opcodes":"PUSH1 0x80 PUSH1 0x40 MSTORE CALLVALUE ISZERO PUSH2 0xF JUMPI PUSH1 0x0 DUP1 REVERT JUMPDEST PUSH1 0x0 DUP1 SLOAD CALLER PUSH1 0x1 PUSH1 0x1 PUSH1 0xA0 SHL SUB NOT DUP3 AND DUP2 OR DUP4 SSTORE SWAP1 SWAP2 PUSH1 0x1 PUSH1 0x1 PUSH1 0xA0 SHL SUB DUP4 AND SWAP1 PUSH32 0x8BE0079C531659141344CD1FD0A4F28419497F9722A3DAAFE3B4186F6B6457E0 SWAP1 PUSH1 0x80 LOG3 POP PUSH2 0x1379 DUP1 PUSH2 0x66 PUSH1 0x80 CODECOPY DUP1 PUSH1 0x80 RETURN INVALID PUSH1 0x40 PUSH1 0x80 DUP2 MSTORE PUSH1 0x4 CALLDATASIZE LT PUSH2 0x229 JUMPI PUSH1 0x0 DUP1 CALLDATALOAD PUSH1 0xE0 SHR PUSH4 0x423CB99E DUP2 EQ PUSH2 0x87 JUMPI PUSH4 0x715018A6 DUP2 EQ PUSH2 0xC8 JUMPI PUSH4 0x7920D804 DUP2 EQ PUSH2 0xE8 JUMPI PUSH4 0x8DA5CB5B DUP2 EQ PUSH2 0x121 JUMPI PUSH4 0x8DB9F39A DUP2 EQ PUSH2 0x159 JUMPI PUSH4 0xBB09D9B7 DUP2 EQ PUSH2 0x18A JUMPI PUSH4 0xC9630CB0 DUP2 EQ PUSH2 0x1BB JUMPI PUSH4 0xDB2E21BC DUP2 EQ PUSH2 0x1DF JUMPI PUSH4 0xE1FA8E84 DUP2 EQ PUSH2 0x1F0 JUMPI PUSH4 0xF2FDE38B DUP2 EQ PUSH2 0x20B JUMPI PUSH2 0x226 JUMP JUMPDEST CALLVALUE ISZERO PUSH2 0x91 JUMPI DUP2 DUP3 REVERT JUMPDEST PUSH2 0x9A CALLDATASIZE PUSH2 0x253 JUMP JUMPDEST PUSH1 0x2 SLOAD PUSH1 0x80 MSTORE PUSH32 0xFFFFFFFFFFFFFFFFFFFFFFFFFFFFFFFFFFFFFFFFFFFFFFFFFFFFFFFFFFFFFF80 PUSH1 0xA0 ADD PUSH1 0x80 RETURN JUMPDEST CALLVALUE ISZERO PUSH2 0xD2 JUMPI DUP2 DUP3 REVERT JUMPDEST PUSH2 0xDB CALLDATASIZE PUSH2 0x253 JUMP JUMPDEST PUSH2 0xE3 PUSH2 0xD6D JUMP JUMPDEST DUP2 DUP4 MLOAD RETURN JUMPDEST CALLVALUE ISZERO PUSH2 0xF2 JUMPI DUP2 DUP3 REVERT JUMPDEST PUSH2 0xFB CALLDATASIZE PUSH2 0x253 JUMP JUMPDEST PUSH1 0x1 SLOAD DUP4 MLOAD PUSH20 0xFFFFFFFFFFFFFFFFFFFFFFFFFFFFFFFFFFFFFFFF SWAP1 SWAP2 AND DUP1 DUP3 MSTORE SWAP1 PUSH1 0x20 DUP2 RETURN JUMPDEST CALLVALUE ISZERO PUSH2 0x12B JUMPI DUP2 DUP3 REVERT JUMPDEST PUSH2 0x134 CALLDATASIZE PUSH2 0x253 JUMP JUMPDEST DUP2 SLOAD DUP4 MLOAD PUSH20 0xFFFFFFFFFFFFFFFFFFFFFFFFFFFFFFFFFFFFFFFF SWAP1 SWAP2 AND DUP1 DUP3 MSTORE SWAP1 PUSH1 0x20 DUP2 RETURN JUMPDEST CALLVALUE ISZERO PUSH2 0x163 JUMPI DUP2 DUP3 REVERT JUMPDEST PUSH2 0x16C CALLDATASIZE PUSH2 0x253 JUMP JUMPDEST DUP3 MLOAD PUSH20 0xAB594600376EC9FD91F8E885DADF0CE036862DE0 DUP2 MSTORE PUSH1 0x20 DUP2 RETURN JUMPDEST CALLVALUE ISZERO PUSH2 0x194 JUMPI DUP2 DUP3 REVERT JUMPDEST PUSH2 0x19D CALLDATASIZE PUSH2 0x253 JUMP JUMPDEST DUP3 MLOAD PUSH20 0x2791BCA1F2DE4661ED88A30C99A7A9449AA84174 DUP2 MSTORE PUSH1 0x20 DUP2 RETURN JUMPDEST CALLVALUE ISZERO PUSH2 0x1C5 JUMPI DUP2 DUP3 REVERT JUMPDEST PUSH2 0x1CE CALLDATASIZE PUSH2 0x35F JUMP JUMPDEST PUSH2 0x1D8 DUP2 DUP4 PUSH2 0x8FF JUMP JUMPDEST POP POP DUP2 DUP4 MLOAD RETURN JUMPDEST PUSH2 0x1E8 CALLDATASIZE PUSH2 0x253 JUMP JUMPDEST PUSH2 0xE3 PUSH2 0xDE1 JUMP JUMPDEST CALLVALUE ISZERO PUSH2 0x1FA JUMPI DUP2 DUP3 REVERT JUMPDEST PUSH2 0xE3 PUSH2 0x206 CALLDATASIZE PUSH2 0x30C JUMP JUMPDEST PUSH2 0xB4B JUMP JUMPDEST CALLVALUE ISZERO PUSH2 0x215 JUMPI DUP2 DUP3 REVERT JUMPDEST PUSH2 0xE3 PUSH2 0x221 CALLDATASIZE PUSH2 0x286 JUMP JUMPDEST PUSH2 0xF5F JUMP JUMPDEST POP POP JUMPDEST POP PUSH2 0x232 PUSH2 0x5D4 JUMP JUMPDEST STOP JUMPDEST DUP1 MLOAD PUSH10 0xFFFFFFFFFFFFFFFFFFFF DUP2 AND DUP2 EQ PUSH2 0x24E JUMPI PUSH1 0x0 DUP1 REVERT JUMPDEST SWAP2 SWAP1 POP JUMP JUMPDEST PUSH1 0x0 PUSH32 0xFFFFFFFFFFFFFFFFFFFFFFFFFFFFFFFFFFFFFFFFFFFFFFFFFFFFFFFFFFFFFFFC DUP3 ADD SLT ISZERO PUSH2 0x283 JUMPI PUSH1 0x0 DUP1 REVERT JUMPDEST POP JUMP JUMPDEST PUSH1 0x0 PUSH1 0x20 PUSH32 0xFFFFFFFFFFFFFFFFFFFFFFFFFFFFFFFFFFFFFFFFFFFFFFFFFFFFFFFFFFFFFFFC DUP4 ADD SLT ISZERO PUSH2 0x2B8 JUMPI PUSH1 0x0 DUP1 REVERT JUMPDEST PUSH1 0x4 CALLDATALOAD PUSH20 0xFFFFFFFFFFFFFFFFFFFFFFFFFFFFFFFFFFFFFFFF DUP2 AND DUP2 EQ PUSH2 0x2DD JUMPI PUSH1 0x0 DUP1 REVERT JUMPDEST SWAP3 SWAP2 POP POP JUMP JUMPDEST PUSH1 0x0 PUSH1 0x20 DUP3 DUP5 SUB SLT ISZERO PUSH2 0x2F5 JUMPI PUSH1 0x0 DUP1 REVERT JUMPDEST DUP2 MLOAD DUP1 ISZERO ISZERO DUP2 EQ PUSH2 0x305 JUMPI PUSH1 0x0 DUP1 REVERT JUMPDEST SWAP4 SWAP3 POP POP POP JUMP JUMPDEST PUSH1 0x0 PUSH1 0x20 PUSH32 0xFFFFFFFFFFFFFFFFFFFFFFFFFFFFFFFFFFFFFFFFFFFFFFFFFFFFFFFFFFFFFFFC DUP4 ADD SLT ISZERO PUSH2 0x33E JUMPI PUSH1 0x0 DUP1 REVERT JUMPDEST POP POP PUSH1 0x4 CALLDATALOAD SWAP1 JUMP JUMPDEST PUSH1 0x0 PUSH1 0x20 DUP3 DUP5 SUB SLT ISZERO PUSH2 0x358 JUMPI PUSH1 0x0 DUP1 REVERT JUMPDEST POP MLOAD SWAP2 SWAP1 POP JUMP JUMPDEST PUSH1 0x0 DUP1 PUSH1 0x40 PUSH32 0xFFFFFFFFFFFFFFFFFFFFFFFFFFFFFFFFFFFFFFFFFFFFFFFFFFFFFFFFFFFFFFFC DUP5 ADD SLT ISZERO PUSH2 0x392 JUMPI PUSH1 0x0 DUP1 REVERT JUMPDEST POP POP PUSH1 0x4 CALLDATALOAD SWAP2 PUSH1 0x24 CALLDATALOAD SWAP2 POP JUMP JUMPDEST DUP2 PUSH1 0x0 DUP3 CALLDATACOPY PUSH1 0x60 SWAP3 SWAP1 SWAP3 SHL PUSH32 0xFFFFFFFFFFFFFFFFFFFFFFFFFFFFFFFFFFFFFFFF000000000000000000000000 AND SWAP2 ADD SWAP1 DUP2 MSTORE PUSH1 0x14 ADD SWAP1 JUMP JUMPDEST PUSH1 0x0 DUP3 PUSH2 0x40D JUMPI PUSH32 0x4E487B7100000000000000000000000000000000000000000000000000000000 PUSH1 0x0 MSTORE PUSH1 0x12 PUSH1 0x4 MSTORE PUSH1 0x24 PUSH1 0x0 REVERT JUMPDEST POP DIV SWAP1 JUMP JUMPDEST PUSH1 0x0 PUSH32 0x5555555555555555555555555555555555555555555555555555555555555555 DUP3 GT PUSH1 0x1 AND ISZERO PUSH2 0x447 JUMPI PUSH2 0x447 PUSH2 0x1065 JUMP JUMPDEST POP PUSH1 0x3 MUL SWAP1 JUMP JUMPDEST PUSH1 0x0 DUP2 PUSH32 0xFFFFFFFFFFFFFFFFFFFFFFFFFFFFFFFFFFFFFFFFFFFFFFFFFFFFFFFFFFFFFFFF DIV PUSH1 0x64 GT DUP3 ISZERO ISZERO AND ISZERO PUSH2 0x487 JUMPI PUSH2 0x487 PUSH2 0x1065 JUMP JUMPDEST POP PUSH1 0x64 MUL SWAP1 JUMP JUMPDEST PUSH1 0x0 PUSH9 0x56BC75E2D63100000 DUP3 PUSH32 0xFFFFFFFFFFFFFFFFFFFFFFFFFFFFFFFFFFFFFFFFFFFFFFFFFFFFFFFFFFFFFFFF DIV DUP2 GT DUP4 ISZERO ISZERO AND ISZERO PUSH2 0x4D0 JUMPI PUSH2 0x4D0 PUSH2 0x1065 JUMP JUMPDEST SWAP2 SWAP1 SWAP2 MUL SWAP2 SWAP1 POP JUMP JUMPDEST PUSH1 0x0 DUP2 PUSH32 0xFFFFFFFFFFFFFFFFFFFFFFFFFFFFFFFFFFFFFFFFFFFFFFFFFFFFFFFFFFFFFFFF DIV DUP4 GT DUP3 ISZERO ISZERO AND ISZERO PUSH2 0x511 JUMPI PUSH2 0x511 PUSH2 0x1065 JUMP JUMPDEST POP MUL SWAP1 JUMP JUMPDEST PUSH1 0x0 RETURNDATASIZE DUP1 ISZERO PUSH2 0x581 JUMPI RETURNDATASIZE PUSH8 0xFFFFFFFFFFFFFFFF DUP2 GT ISZERO PUSH2 0x538 JUMPI PUSH2 0x538 PUSH2 0x1094 JUMP JUMPDEST PUSH1 0x40 MLOAD PUSH2 0x56D PUSH1 0x20 PUSH32 0xFFFFFFFFFFFFFFFFFFFFFFFFFFFFFFFFFFFFFFFFFFFFFFFFFFFFFFFFFFFFFFE0 PUSH1 0x1F DUP6 ADD AND ADD DUP3 PUSH2 0x589 JUMP JUMPDEST DUP2 DUP2 MSTORE DUP1 SWAP4 POP RETURNDATASIZE PUSH1 0x0 PUSH1 0x20 DUP4 ADD RETURNDATACOPY POP POP POP SWAP1 JUMP JUMPDEST PUSH1 0x60 SWAP2 POP POP SWAP1 JUMP JUMPDEST PUSH32 0xFFFFFFFFFFFFFFFFFFFFFFFFFFFFFFFFFFFFFFFFFFFFFFFFFFFFFFFFFFFFFFE0 PUSH1 0x1F DUP4 ADD AND DUP2 ADD DUP2 DUP2 LT PUSH8 0xFFFFFFFFFFFFFFFF DUP3 GT OR ISZERO PUSH2 0x5CD JUMPI PUSH2 0x5CD PUSH2 0x1094 JUMP JUMPDEST PUSH1 0x40 MSTORE POP POP JUMP JUMPDEST PUSH1 0x2 SLOAD PUSH2 0x5F4 PUSH2 0x5EC PUSH2 0x5E6 DUP4 PUSH2 0x412 JUMP JUMPDEST PUSH1 0x1 SHR SWAP1 JUMP JUMPDEST CALLVALUE LT ISZERO PUSH2 0x114D JUMP JUMPDEST PUSH1 0x4 SLOAD PUSH1 0x40 MLOAD PUSH1 0x20 DUP2 ADD DUP2 PUSH2 0x60A CALLER CALLDATASIZE DUP5 PUSH2 0x39F JUMP JUMPDEST SUB PUSH32 0xFFFFFFFFFFFFFFFFFFFFFFFFFFFFFFFFFFFFFFFFFFFFFFFFFFFFFFFFFFFFFFE0 DUP2 ADD DUP4 MSTORE PUSH2 0x63A DUP2 DUP5 PUSH2 0x589 JUMP JUMPDEST POP PUSH2 0x649 DUP3 MLOAD DUP3 KECCAK256 DUP5 EQ PUSH2 0x11D7 JUMP JUMPDEST POP POP POP DUP1 ISZERO DUP1 ISZERO SWAP1 PUSH2 0x6EE JUMPI PUSH2 0x65E CALLVALUE PUSH1 0x2 SSTORE JUMP JUMPDEST PUSH2 0x699 PUSH2 0x680 PUSH1 0x1 SLOAD PUSH20 0xFFFFFFFFFFFFFFFFFFFFFFFFFFFFFFFFFFFFFFFF AND SWAP1 JUMP JUMPDEST PUSH20 0xFFFFFFFFFFFFFFFFFFFFFFFFFFFFFFFFFFFFFFFF AND SWAP1 JUMP JUMPDEST PUSH1 0x0 DUP1 PUSH1 0x0 PUSH1 0x40 MLOAD CALLVALUE DUP6 GAS CALL SWAP1 POP PUSH2 0x6AF PUSH2 0x516 JUMP JUMPDEST POP PUSH2 0x6E8 DUP2 PUSH32 0xFFFFFFFFFFFFFFFFFFFFFFFFFFFFFFFFFFFFFFFFFFFFFFFFFFFFFFFFFFFFFF00 PUSH1 0x3 SLOAD AND PUSH1 0xFF DUP3 ISZERO ISZERO AND DUP2 OR PUSH1 0x3 SSTORE POP POP JUMP JUMPDEST POP PUSH2 0x6F7 JUMP JUMPDEST PUSH2 0x6F7 CALLVALUE PUSH1 0x2 SSTORE JUMP JUMPDEST POP POP PUSH1 0x1 DUP1 SLOAD PUSH32 0xFFFFFFFFFFFFFFFFFFFFFFFF0000000000000000000000000000000000000000 AND CALLER OR SWAP1 SSTORE PUSH1 0x3 SLOAD PUSH1 0xFF AND PUSH1 0x40 DUP1 MLOAD DUP3 ISZERO ISZERO DUP2 MSTORE CALLVALUE PUSH1 0x20 DUP3 ADD MSTORE CALLER SWAP2 DUP2 ADD SWAP2 SWAP1 SWAP2 MSTORE PUSH32 0x7F7CAF2CFDC2014AA045DD0EF7E9F5A6A4819E729710BED3689BA095E658738F DUP2 PUSH1 0x60 DUP2 ADD SUB DUP3 LOG1 POP POP JUMP JUMPDEST PUSH1 0x40 MLOAD PUSH1 0x40 DUP2 ADD DUP2 DUP2 LT PUSH8 0xFFFFFFFFFFFFFFFF DUP3 GT OR ISZERO PUSH2 0x790 JUMPI PUSH2 0x790 PUSH2 0x1094 JUMP JUMPDEST PUSH1 0x40 MSTORE PUSH1 0x20 DUP1 DUP3 MSTORE PUSH32 0x5361666545524332303A206C6F772D6C6576656C2063616C6C206661696C6564 DUP3 DUP3 ADD MSTORE PUSH20 0x2791BCA1F2DE4661ED88A30C99A7A9449AA84174 DUP1 EXTCODESIZE PUSH2 0x836 JUMPI PUSH1 0x40 MLOAD PUSH32 0x8C379A000000000000000000000000000000000000000000000000000000000 DUP2 MSTORE DUP3 PUSH1 0x4 DUP3 ADD MSTORE PUSH1 0x1D PUSH1 0x24 DUP3 ADD MSTORE PUSH32 0x416464726573733A2063616C6C20746F206E6F6E2D636F6E7472616374000000 PUSH1 0x44 DUP3 ADD MSTORE PUSH1 0x64 DUP2 REVERT JUMPDEST PUSH1 0x0 DUP1 DUP6 MLOAD DUP5 DUP8 ADD PUSH1 0x0 DUP6 GAS CALL SWAP1 POP PUSH2 0x857 DUP4 PUSH2 0x851 PUSH2 0x516 JUMP JUMPDEST DUP4 PUSH2 0xCB1 JUMP JUMPDEST SWAP3 POP POP DUP2 MLOAD DUP1 ISZERO PUSH2 0x87A JUMPI PUSH2 0x87A PUSH2 0x875 DUP4 DUP4 DUP7 ADD ADD DUP5 DUP7 ADD PUSH2 0x2E3 JUMP JUMPDEST PUSH2 0x129F JUMP JUMPDEST POP POP POP POP JUMP JUMPDEST PUSH20 0xFFFFFFFFFFFFFFFFFFFFFFFFFFFFFFFFFFFFFFFF PUSH1 0x0 SLOAD AND CALLER DUP2 EQ PUSH2 0x283 JUMPI PUSH1 0x40 MLOAD PUSH32 0x8C379A000000000000000000000000000000000000000000000000000000000 DUP2 MSTORE PUSH1 0x20 PUSH1 0x4 DUP3 ADD MSTORE PUSH1 0x20 PUSH1 0x24 DUP3 ADD MSTORE PUSH32 0x4F776E61626C653A2063616C6C6572206973206E6F7420746865206F776E6572 PUSH1 0x44 DUP3 ADD MSTORE PUSH1 0x64 DUP2 REVERT JUMPDEST PUSH1 0x2 SLOAD PUSH2 0x90B DUP2 PUSH2 0x412 JUMP JUMPDEST PUSH2 0x93C PUSH2 0x934 PUSH2 0x5E6 PUSH2 0x925 PUSH2 0x91F PUSH2 0xAA4 JUMP JUMPDEST DUP6 PUSH2 0x4D9 JUMP JUMPDEST PUSH9 0x56BC75E2D63100000 SWAP1 DIV SWAP1 JUMP JUMPDEST DUP5 LT ISZERO PUSH2 0x10C3 JUMP JUMPDEST POP PUSH1 0x4 SLOAD PUSH1 0x40 MLOAD PUSH1 0x20 DUP2 ADD DUP2 PUSH2 0x984 CALLER DUP9 DUP5 SWAP1 DUP2 MSTORE PUSH1 0x60 SWAP2 SWAP1 SWAP2 SHL PUSH32 0xFFFFFFFFFFFFFFFFFFFFFFFFFFFFFFFFFFFFFFFF000000000000000000000000 AND PUSH1 0x20 DUP3 ADD MSTORE PUSH1 0x34 ADD SWAP1 JUMP JUMPDEST SUB PUSH32 0xFFFFFFFFFFFFFFFFFFFFFFFFFFFFFFFFFFFFFFFFFFFFFFFFFFFFFFFFFFFFFFE0 DUP2 ADD DUP4 MSTORE PUSH2 0x9B4 DUP2 DUP5 PUSH2 0x589 JUMP JUMPDEST POP PUSH2 0x9C3 DUP3 MLOAD DUP3 KECCAK256 DUP5 EQ PUSH2 0x11D7 JUMP JUMPDEST POP POP POP DUP1 ISZERO DUP1 ISZERO SWAP1 PUSH2 0xA23 JUMPI PUSH2 0x9D8 DUP4 PUSH2 0x48E JUMP JUMPDEST PUSH2 0x9F1 PUSH2 0x9EC PUSH2 0x9E6 PUSH2 0xAA4 JUMP JUMPDEST DUP4 PUSH2 0x3D7 JUMP JUMPDEST PUSH1 0x2 SSTORE JUMP JUMPDEST POP PUSH2 0xA1E DUP4 PUSH2 0xA18 PUSH2 0x680 PUSH1 0x1 SLOAD PUSH20 0xFFFFFFFFFFFFFFFFFFFFFFFFFFFFFFFFFFFFFFFF AND SWAP1 JUMP JUMPDEST CALLER PUSH2 0xBC4 JUMP JUMPDEST PUSH2 0xA3C JUMP JUMPDEST PUSH2 0xA2C DUP4 PUSH2 0x44E JUMP JUMPDEST PUSH2 0xA3A PUSH2 0x9EC PUSH2 0x9E6 PUSH2 0xAA4 JUMP JUMPDEST POP JUMPDEST POP POP PUSH1 0x1 DUP1 SLOAD PUSH32 0xFFFFFFFFFFFFFFFFFFFFFFFF0000000000000000000000000000000000000000 AND CALLER OR SWAP1 SSTORE PUSH1 0x40 DUP1 MLOAD DUP3 DUP2 MSTORE CALLER PUSH1 0x20 DUP3 ADD MSTORE SWAP1 PUSH32 0xF5CB588F5F04842FA8A48FFD1F1B14B97339A788A30A4AB1C445E84F46A8B5FF SWAP1 DUP3 SWAP1 DUP2 ADD SUB DUP3 LOG1 POP POP POP JUMP JUMPDEST PUSH1 0x0 PUSH20 0xAB594600376EC9FD91F8E885DADF0CE036862DE0 DUP1 EXTCODESIZE PUSH2 0xAC6 JUMPI PUSH1 0x0 DUP1 REVERT JUMPDEST PUSH1 0x40 MLOAD PUSH32 0xFEAF968C00000000000000000000000000000000000000000000000000000000 DUP2 MSTORE PUSH1 0xA0 DUP2 PUSH1 0x4 DUP4 DUP6 GAS STATICCALL SWAP2 POP DUP2 PUSH2 0xB04 JUMPI PUSH2 0xB04 PUSH2 0x1329 JUMP JUMPDEST PUSH1 0x0 DUP3 ISZERO PUSH2 0x305 JUMPI PUSH2 0xB16 RETURNDATASIZE DUP4 PUSH2 0x589 JUMP JUMPDEST PUSH1 0xA0 DUP3 RETURNDATASIZE DUP5 ADD SUB SLT ISZERO PUSH2 0xB27 JUMPI DUP1 DUP2 REVERT JUMPDEST PUSH2 0xB30 DUP3 PUSH2 0x234 JUMP JUMPDEST POP PUSH1 0x20 DUP3 ADD MLOAD PUSH2 0xB42 PUSH1 0x80 DUP5 ADD PUSH2 0x234 JUMP JUMPDEST POP SWAP5 SWAP4 POP POP POP POP JUMP JUMPDEST PUSH1 0x4 SLOAD ISZERO PUSH2 0xBBB JUMPI PUSH1 0x5 SLOAD TIMESTAMP GT PUSH2 0xBBB JUMPI PUSH1 0x40 MLOAD PUSH32 0x8C379A000000000000000000000000000000000000000000000000000000000 DUP2 MSTORE PUSH1 0x20 PUSH1 0x4 DUP3 ADD MSTORE PUSH1 0x4 PUSH1 0x24 DUP3 ADD MSTORE PUSH32 0x5761697400000000000000000000000000000000000000000000000000000000 PUSH1 0x44 DUP3 ADD MSTORE PUSH1 0x64 DUP2 REVERT JUMPDEST PUSH1 0x4 SSTORE TIMESTAMP PUSH1 0x5 SSTORE JUMP JUMPDEST PUSH1 0x40 MLOAD PUSH32 0x23B872DD00000000000000000000000000000000000000000000000000000000 PUSH1 0x20 DUP3 ADD MSTORE PUSH20 0xFFFFFFFFFFFFFFFFFFFFFFFFFFFFFFFFFFFFFFFF DUP3 DUP2 AND PUSH1 0x24 DUP4 ADD MSTORE DUP4 AND PUSH1 0x44 DUP3 ADD MSTORE PUSH1 0x64 DUP1 DUP3 ADD DUP6 SWAP1 MSTORE DUP2 MSTORE PUSH1 0xA0 DUP2 ADD PUSH8 0xFFFFFFFFFFFFFFFF DUP2 GT DUP3 DUP3 LT OR ISZERO PUSH2 0xC3B JUMPI PUSH2 0xC3B PUSH2 0x1094 JUMP JUMPDEST PUSH1 0x40 MSTORE PUSH2 0x87A DUP2 PUSH2 0x76D JUMP JUMPDEST PUSH1 0x40 MLOAD PUSH32 0xA9059CBB00000000000000000000000000000000000000000000000000000000 PUSH1 0x20 DUP3 ADD MSTORE PUSH20 0xFFFFFFFFFFFFFFFFFFFFFFFFFFFFFFFFFFFFFFFF DUP3 AND PUSH1 0x24 DUP3 ADD MSTORE PUSH1 0x44 DUP1 DUP3 ADD DUP5 SWAP1 MSTORE DUP2 MSTORE PUSH1 0x64 PUSH2 0xCA2 DUP2 DUP4 PUSH2 0x589 JUMP JUMPDEST POP PUSH2 0xCAC DUP2 PUSH2 0x76D JUMP JUMPDEST POP POP POP JUMP JUMPDEST PUSH1 0x60 DUP2 DUP1 ISZERO PUSH2 0xCC3 JUMPI DUP4 SWAP2 POP POP PUSH2 0x305 JUMP JUMPDEST DUP4 MLOAD ISZERO DUP1 ISZERO SWAP1 PUSH2 0xCD5 JUMPI DUP5 MLOAD DUP6 PUSH1 0x20 ADD REVERT JUMPDEST PUSH1 0x40 MLOAD PUSH32 0x8C379A000000000000000000000000000000000000000000000000000000000 DUP2 MSTORE PUSH1 0x20 DUP1 PUSH1 0x4 DUP4 ADD MSTORE DUP8 MLOAD DUP1 PUSH1 0x24 DUP5 ADD MSTORE PUSH1 0x0 JUMPDEST DUP2 DUP2 LT ISZERO PUSH2 0xD2A JUMPI DUP10 DUP2 ADD DUP4 ADD MLOAD DUP5 DUP3 ADD PUSH1 0x44 ADD MSTORE DUP3 ADD PUSH2 0xD0E JUMP JUMPDEST DUP2 DUP2 GT ISZERO PUSH2 0xD3C JUMPI PUSH1 0x0 PUSH1 0x44 DUP4 DUP7 ADD ADD MSTORE JUMPDEST POP PUSH1 0x44 DUP4 PUSH32 0xFFFFFFFFFFFFFFFFFFFFFFFFFFFFFFFFFFFFFFFFFFFFFFFFFFFFFFFFFFFFFFE0 PUSH1 0x1F DUP5 ADD AND DUP6 ADD SUB ADD DUP4 REVERT JUMPDEST PUSH2 0xD75 PUSH2 0x880 JUMP JUMPDEST PUSH1 0x0 SLOAD PUSH32 0xFFFFFFFFFFFFFFFFFFFFFFFF0000000000000000000000000000000000000000 DUP2 AND PUSH1 0x0 SSTORE PUSH1 0x0 PUSH20 0xFFFFFFFFFFFFFFFFFFFFFFFFFFFFFFFFFFFFFFFF DUP3 AND PUSH32 0x8BE0079C531659141344CD1FD0A4F28419497F9722A3DAAFE3B4186F6B6457E0 PUSH1 0x0 PUSH1 0x40 MLOAD LOG3 POP JUMP JUMPDEST PUSH2 0xDE9 PUSH2 0x880 JUMP JUMPDEST SELFBALANCE ISZERO PUSH2 0xE54 JUMPI SELFBALANCE PUSH1 0x0 DUP1 PUSH1 0x0 PUSH1 0x40 MLOAD DUP5 CALLER GAS CALL SWAP1 POP PUSH2 0xE06 PUSH2 0x516 JUMP JUMPDEST POP PUSH2 0xE3F DUP2 PUSH32 0xFFFFFFFFFFFFFFFFFFFFFFFFFFFFFFFFFFFFFFFFFFFFFFFFFFFFFFFFFFFFFF00 PUSH1 0x3 SLOAD AND PUSH1 0xFF DUP3 ISZERO ISZERO AND DUP2 OR PUSH1 0x3 SSTORE POP POP JUMP JUMPDEST POP PUSH2 0xE54 PUSH2 0xE4F PUSH1 0x3 SLOAD PUSH1 0xFF AND SWAP1 JUMP JUMPDEST PUSH2 0x123B JUMP JUMPDEST PUSH20 0x2791BCA1F2DE4661ED88A30C99A7A9449AA84174 DUP1 EXTCODESIZE PUSH2 0xE74 JUMPI PUSH1 0x0 DUP1 REVERT JUMPDEST PUSH1 0x40 MLOAD PUSH32 0x70A0823100000000000000000000000000000000000000000000000000000000 DUP2 MSTORE ADDRESS PUSH1 0x4 DUP3 ADD MSTORE PUSH1 0x20 DUP2 PUSH1 0x24 DUP2 DUP6 GAS STATICCALL DUP1 PUSH2 0xEB6 JUMPI PUSH2 0xEB6 PUSH2 0x1329 JUMP JUMPDEST PUSH1 0x0 DUP2 ISZERO PUSH2 0xED7 JUMPI PUSH2 0xEC8 RETURNDATASIZE DUP5 PUSH2 0x589 JUMP JUMPDEST PUSH2 0xED4 RETURNDATASIZE DUP5 ADD DUP5 PUSH2 0x346 JUMP JUMPDEST SWAP1 POP JUMPDEST DUP1 ISZERO PUSH2 0x87A JUMPI DUP4 EXTCODESIZE PUSH2 0xEE8 JUMPI PUSH1 0x0 DUP1 REVERT JUMPDEST PUSH1 0x40 MLOAD PUSH32 0x95EA7B300000000000000000000000000000000000000000000000000000000 DUP2 MSTORE CALLER PUSH1 0x4 DUP3 ADD MSTORE PUSH1 0x24 DUP2 ADD DUP3 SWAP1 MSTORE SWAP3 POP PUSH1 0x20 DUP4 PUSH1 0x44 DUP2 PUSH1 0x0 DUP9 GAS CALL SWAP2 POP DUP2 PUSH2 0xF37 JUMPI PUSH2 0xF37 PUSH2 0x1329 JUMP JUMPDEST DUP2 ISZERO PUSH2 0xF55 JUMPI PUSH2 0xF47 RETURNDATASIZE DUP5 PUSH2 0x589 JUMP JUMPDEST PUSH2 0xF53 RETURNDATASIZE DUP5 ADD DUP5 PUSH2 0x2E3 JUMP JUMPDEST POP JUMPDEST PUSH2 0x87A DUP2 CALLER PUSH2 0xC47 JUMP JUMPDEST PUSH2 0xF67 PUSH2 0x880 JUMP JUMPDEST PUSH20 0xFFFFFFFFFFFFFFFFFFFFFFFFFFFFFFFFFFFFFFFF DUP1 DUP3 AND DUP1 PUSH2 0x1009 JUMPI PUSH1 0x40 MLOAD PUSH32 0x8C379A000000000000000000000000000000000000000000000000000000000 DUP2 MSTORE PUSH1 0x20 PUSH1 0x4 DUP3 ADD MSTORE PUSH1 0x26 PUSH1 0x24 DUP3 ADD MSTORE PUSH32 0x4F776E61626C653A206E6577206F776E657220697320746865207A65726F2061 PUSH1 0x44 DUP3 ADD MSTORE PUSH32 0x6464726573730000000000000000000000000000000000000000000000000000 PUSH1 0x64 DUP3 ADD MSTORE PUSH1 0x84 DUP2 REVERT JUMPDEST PUSH1 0x0 SLOAD DUP2 PUSH32 0xFFFFFFFFFFFFFFFFFFFFFFFF0000000000000000000000000000000000000000 DUP3 AND OR PUSH1 0x0 SSTORE DUP4 DUP4 DUP3 AND PUSH32 0x8BE0079C531659141344CD1FD0A4F28419497F9722A3DAAFE3B4186F6B6457E0 PUSH1 0x0 PUSH1 0x40 MLOAD LOG3 POP POP POP POP JUMP JUMPDEST PUSH32 0x4E487B7100000000000000000000000000000000000000000000000000000000 PUSH1 0x0 MSTORE PUSH1 0x11 PUSH1 0x4 MSTORE PUSH1 0x24 PUSH1 0x0 REVERT JUMPDEST PUSH32 0x4E487B7100000000000000000000000000000000000000000000000000000000 PUSH1 0x0 MSTORE PUSH1 0x41 PUSH1 0x4 MSTORE PUSH1 0x24 PUSH1 0x0 REVERT JUMPDEST DUP1 PUSH2 0x283 JUMPI PUSH1 0x40 MLOAD PUSH32 0x8C379A000000000000000000000000000000000000000000000000000000000 DUP2 MSTORE PUSH1 0x20 PUSH1 0x4 DUP3 ADD MSTORE PUSH1 0x22 PUSH1 0x24 DUP3 ADD MSTORE PUSH32 0x596F75277265206E6F74206465706F736974696E6720656E6F75676820555344 PUSH1 0x44 DUP3 ADD MSTORE PUSH32 0x4321000000000000000000000000000000000000000000000000000000000000 PUSH1 0x64 DUP3 ADD MSTORE PUSH1 0x84 DUP2 REVERT JUMPDEST DUP1 PUSH2 0x283 JUMPI PUSH1 0x40 MLOAD PUSH32 0x8C379A000000000000000000000000000000000000000000000000000000000 DUP2 MSTORE PUSH1 0x20 PUSH1 0x4 DUP3 ADD MSTORE PUSH1 0x23 PUSH1 0x24 DUP3 ADD MSTORE PUSH32 0x596F75277265206E6F74206465706F736974696E6720656E6F75676820657468 PUSH1 0x44 DUP3 ADD MSTORE PUSH32 0x6572210000000000000000000000000000000000000000000000000000000000 PUSH1 0x64 DUP3 ADD MSTORE PUSH1 0x84 DUP2 REVERT JUMPDEST DUP1 PUSH2 0x283 JUMPI PUSH1 0x40 MLOAD PUSH32 0x8C379A000000000000000000000000000000000000000000000000000000000 DUP2 MSTORE PUSH1 0x20 PUSH1 0x4 DUP3 ADD MSTORE PUSH1 0x8 PUSH1 0x24 DUP3 ADD MSTORE PUSH32 0x4D69736D61746368000000000000000000000000000000000000000000000000 PUSH1 0x44 DUP3 ADD MSTORE PUSH1 0x64 DUP2 REVERT JUMPDEST DUP1 PUSH2 0x283 JUMPI PUSH1 0x40 MLOAD PUSH32 0x8C379A000000000000000000000000000000000000000000000000000000000 DUP2 MSTORE PUSH1 0x20 PUSH1 0x4 DUP3 ADD MSTORE PUSH1 0x13 PUSH1 0x24 DUP3 ADD MSTORE PUSH32 0x4572726F7220696E207769746864726177616C00000000000000000000000000 PUSH1 0x44 DUP3 ADD MSTORE PUSH1 0x64 DUP2 REVERT JUMPDEST DUP1 PUSH2 0x283 JUMPI PUSH1 0x40 MLOAD PUSH32 0x8C379A000000000000000000000000000000000000000000000000000000000 DUP2 MSTORE PUSH1 0x20 PUSH1 0x4 DUP3 ADD MSTORE PUSH1 0x2A PUSH1 0x24 DUP3 ADD MSTORE PUSH32 0x5361666545524332303A204552433230206F7065726174696F6E20646964206E PUSH1 0x44 DUP3 ADD MSTORE PUSH32 0x6F74207375636365656400000000000000000000000000000000000000000000 PUSH1 0x64 DUP3 ADD MSTORE PUSH1 0x84 DUP2 REVERT JUMPDEST PUSH1 0x40 MLOAD RETURNDATASIZE PUSH1 0x0 DUP3 RETURNDATACOPY RETURNDATASIZE DUP2 REVERT INVALID LOG3 PUSH5 0x6970667358 0x22 SLT KECCAK256 LOG1 0xC8 EXTCODECOPY 0xD2 0x27 PUSH24 0x1D3885C23C87490E4C4DDAB6A59E5F9260F4C78020EAABD5 SSTORE PUSH2 0x6C65 PUSH25 0x706572696D656E74616CF564736F6C63430008070041000000 "},"methodIdentifiers":{"MATIC_USD_ORACLE()":"8db9f39a","USDC_ADDRESS()":"bb09d9b7","deposit(uint256,bytes32)":"c9630cb0","emergencyWithdraw()":"db2e21bc","getKing()":"7920d804","maximumPaid()":"423cb99e","owner()":"8da5cb5b","register(bytes32)":"e1fa8e84","renounceOwnership()":"715018a6","transferOwnership(address)":"f2fde38b"}}}}}