{"contracts/King.sol":{"King":{"abi":[{"inputs":[],"stateMutability":"nonpayable","type":"constructor"},{"anonymous":false,"inputs":[{"indexed":false,"internalType":"bool","name":"success","type":"bool"},{"indexed":false,"internalType":"uint256","name":"amount","type":"uint256"},{"indexed":false,"internalType":"address","name":"king","type":"address"}],"name":"EthDeposit","type":"event"},{"anonymous":false,"inputs":[{"indexed":false,"internalType":"address","name":"account","type":"address"}],"name":"Paused","type":"event"},{"anonymous":false,"inputs":[{"indexed":false,"internalType":"address","name":"account","type":"address"}],"name":"Unpaused","type":"event"},{"anonymous":false,"inputs":[{"indexed":false,"internalType":"uint256","name":"amount","type":"uint256"},{"indexed":false,"internalType":"address","name":"king","type":"address"}],"name":"UsdcDeposit","type":"event"},{"inputs":[],"name":"MATIC_USD_ORACLE","outputs":[{"internalType":"address","name":"","type":"address"}],"stateMutability":"view","type":"function"},{"inputs":[],"name":"USDC_ADDRESS","outputs":[{"internalType":"address","name":"","type":"address"}],"stateMutability":"view","type":"function"},{"inputs":[{"internalType":"uint256","name":"depositAmount","type":"uint256"}],"name":"deposit","outputs":[],"stateMutability":"nonpayable","type":"function"},{"inputs":[],"name":"emergencyWithdraw","outputs":[],"stateMutability":"payable","type":"function"},{"inputs":[],"name":"getKing","outputs":[{"internalType":"address payable","name":"","type":"address"}],"stateMutability":"view","type":"function"},{"inputs":[{"internalType":"address","name":"oracleAddress","type":"address"}],"name":"getLatestPrice","outputs":[{"internalType":"int256","name":"","type":"int256"}],"stateMutability":"view","type":"function"},{"inputs":[],"name":"maximumPaid","outputs":[{"internalType":"uint256","name":"","type":"uint256"}],"stateMutability":"view","type":"function"},{"inputs":[],"name":"owner","outputs":[{"internalType":"address","name":"","type":"address"}],"stateMutability":"view","type":"function"},{"inputs":[],"name":"paused","outputs":[{"internalType":"bool","name":"","type":"bool"}],"stateMutability":"view","type":"function"},{"stateMutability":"payable","type":"receive"}],"evm":{"bytecode":{"linkReferences":{},"object":"6080604052341561000f57600080fd5b6000805460ff19169055600180546001600160a01b0319163317905561119c8061003b608039806080f3fe604060808152600436106101fb576000803560e01c6316345f18811461007c5763423cb99e81146100a557635c975abb81146100c557637920d80481146100f057638da5cb5b811461012c57638db9f39a81146101655763b6b55f2581146101965763bb09d9b781146101b65763db2e21bc81146101e7576101f8565b3415610086578182fd5b61009761009236610262565b610b0a565b8351818152602081f35b0381f35b34156100af578182fd5b6100b83661022f565b6002548351818152602081f35b34156100cf578182fd5b6100d83661022f565b60ff8254168351806100a18383901515815260200190565b34156100fa578182fd5b6101033661022f565b8154835160089190911c73ffffffffffffffffffffffffffffffffffffffff1680825290602081f35b3415610136578182fd5b61013f3661022f565b600154835173ffffffffffffffffffffffffffffffffffffffff90911680825290602081f35b341561016f578182fd5b6101783661022f565b825173ab594600376ec9fd91f8e885dadf0ce036862de08152602081f35b34156101a0578182fd5b6101b16101ac366102e8565b610dd2565b818351f35b34156101c0578182fd5b6101c93661022f565b8251732791bca1f2de4661ed88a30c99a7a9449aa841748152602081f35b6101f03661022f565b6101b16108c1565b50505b503661020b576102096105d4565b005b600080fd5b805169ffffffffffffffffffff8116811461022a57600080fd5b919050565b60007ffffffffffffffffffffffffffffffffffffffffffffffffffffffffffffffffc8201121561025f57600080fd5b50565b600060207ffffffffffffffffffffffffffffffffffffffffffffffffffffffffffffffffc8301121561029457600080fd5b60043573ffffffffffffffffffffffffffffffffffffffff811681146102b957600080fd5b92915050565b6000602082840312156102d157600080fd5b815180151581146102e157600080fd5b9392505050565b600060207ffffffffffffffffffffffffffffffffffffffffffffffffffffffffffffffffc8301121561031a57600080fd5b505060043590565b60006020828403121561033457600080fd5b5051919050565b600082610371577f4e487b7100000000000000000000000000000000000000000000000000000000600052601260045260246000fd5b500490565b60007f55555555555555555555555555555555555555555555555555555555555555558211600116156103d2577f4e487b7100000000000000000000000000000000000000000000000000000000600052601160045260246000fd5b5060030290565b6000817fffffffffffffffffffffffffffffffffffffffffffffffffffffffffffffffff046064118215151615610439577f4e487b7100000000000000000000000000000000000000000000000000000000600052601160045260246000fd5b5060640290565b600068056bc75e2d63100000827fffffffffffffffffffffffffffffffffffffffffffffffffffffffffffffffff04811183151516156104a9577f4e487b7100000000000000000000000000000000000000000000000000000000600052601160045260246000fd5b91909102919050565b6000817fffffffffffffffffffffffffffffffffffffffffffffffffffffffffffffffff0483118215151615610511577f4e487b7100000000000000000000000000000000000000000000000000000000600052601160045260246000fd5b500290565b60003d8015610581573d67ffffffffffffffff81111561053857610538610f9b565b60405161056d60207fffffffffffffffffffffffffffffffffffffffffffffffffffffffffffffffe0601f8501160182610589565b8181528093503d6000602083013e50505090565b606091505090565b7fffffffffffffffffffffffffffffffffffffffffffffffffffffffffffffffe0601f830116810181811067ffffffffffffffff821117156105cd576105cd610f9b565b6040525050565b6002546105e081610376565b60011c34101561066f576040517f08c379a000000000000000000000000000000000000000000000000000000000815260206004820152602360248201527f596f75277265206e6f74206465706f736974696e6720656e6f7567682065746860448201527f65722100000000000000000000000000000000000000000000000000000000006064820152608481fd5b80158015906107145761068134600255565b6106bf6106a660005460081c73ffffffffffffffffffffffffffffffffffffffff1690565b73ffffffffffffffffffffffffffffffffffffffff1690565b600080600060405134855af190506106d5610516565b5061070e817fffffffffffffffffffffffffffffffffffffffffffffffffffffffffffffff006003541660ff8215151681176003555050565b5061071d565b61071d34600255565b5050600080547fffffffffffffffffffffff0000000000000000000000000000000000000000ff163360081b74ffffffffffffffffffffffffffffffffffffffff001617905560035460ff1660408051821515815234602082015233918101919091527f7f7caf2cfdc2014aa045dd0ef7e9f5a6a4819e729710bed3689ba095e658738f81606081015b0382a15050565b6040516040810181811067ffffffffffffffff821117156107d1576107d1610f9b565b60405260208082527f5361666545524332303a206c6f772d6c6576656c2063616c6c206661696c656482820152732791bca1f2de4661ed88a30c99a7a9449aa84174803b610877576040517f08c379a0000000000000000000000000000000000000000000000000000000008152826004820152601d60248201527f416464726573733a2063616c6c20746f206e6f6e2d636f6e74726163740000006044820152606481fd5b60008085518487016000855af1905061089883610892610516565b83610d16565b925050815180156108bb576108bb6108b683838601018486016102bf565b6110c2565b50505050565b6108ed6108e66106a660015473ffffffffffffffffffffffffffffffffffffffff1690565b3314610fca565b47156109585747600080600060405184335af1905061090a610516565b50610943817fffffffffffffffffffffffffffffffffffffffffffffffffffffffffffffff006003541660ff8215151681176003555050565b5061095861095360035460ff1690565b61105e565b732791bca1f2de4661ed88a30c99a7a9449aa84174803b61097857600080fd5b6040517f70a08231000000000000000000000000000000000000000000000000000000008152306004820152602081602481855afa806109ba576109ba61114c565b600081156109db576109cc3d84610589565b6109d83d840184610322565b90505b80156108bb57833b6109ec57600080fd5b6040517f095ea7b30000000000000000000000000000000000000000000000000000000081523360048201526024810182905292506020836044816000885af1915081610a3b57610a3b61114c565b8115610a5957610a4b3d84610589565b610a573d8401846102bf565b505b6108bb8133610cac565b600073ab594600376ec9fd91f8e885dadf0ce036862de0803b610a8557600080fd5b6040517ffeaf968c00000000000000000000000000000000000000000000000000000000815260a081600483855afa915081610ac357610ac361114c565b600082156102e157610ad53d83610589565b60a0823d8401031215610ae6578081fd5b610aef82610210565b506020820151610b0160808401610210565b50949350505050565b600073ffffffffffffffffffffffffffffffffffffffff8216803b610b2e57600080fd5b6040517ffeaf968c00000000000000000000000000000000000000000000000000000000815260a081600483855afa915081610b6c57610b6c61114c565b60008215610bae57610b7e3d83610589565b60a0823d8401031215610b8f578081fd5b610b9882610210565b506020820151610baa60808401610210565b5090505b949350505050565b604051602081017ff82c50f1000000000000000000000000000000000000000000000000000000008152826024830152602482526060820182811067ffffffffffffffff82111715610c0a57610c0a610f9b565b80604052506000808351836a636f6e736f6c652e6c6f675afa50505050565b6040517f23b872dd00000000000000000000000000000000000000000000000000000000602082015273ffffffffffffffffffffffffffffffffffffffff8281166024830152831660448201526064808201859052815260a0810167ffffffffffffffff81118282101715610ca057610ca0610f9b565b6040526108bb816107ae565b6040517fa9059cbb00000000000000000000000000000000000000000000000000000000602082015273ffffffffffffffffffffffffffffffffffffffff82166024820152604480820184905281526064610d078183610589565b50610d11816107ae565b505050565b6060818015610d2857839150506102e1565b835115801590610d3a57845185602001fd5b6040517f08c379a00000000000000000000000000000000000000000000000000000000081526020806004830152875180602484015260005b81811015610d8f57898101830151848201604401528201610d73565b81811115610da1576000604483860101525b506044837fffffffffffffffffffffffffffffffffffffffffffffffffffffffffffffffe0601f8401168501030183fd5b60ff6000541615610e3c576040517f08c379a000000000000000000000000000000000000000000000000000000000815260206004820152601060248201527f5061757361626c653a20706175736564000000000000000000000000000000006044820152606481fd5b600254610e4881610376565b610e7f610e77610e71610e62610e5c610a63565b856104b2565b68056bc75e2d63100000900490565b60011c90565b841015610fd4565b50610e8981610376565b610ea2610e9d610e71610e62610e5c610a63565b610bb6565b508015801590610f0357610eb583610440565b610ece610ec9610ec3610a63565b8361033b565b600255565b50610efe83610ef86106a660005460081c73ffffffffffffffffffffffffffffffffffffffff1690565b33610c29565b610f1c565b610f0c836103d9565b610f1a610ec9610ec3610a63565b505b5050600080547fffffffffffffffffffffff0000000000000000000000000000000000000000ff163360081b74ffffffffffffffffffffffffffffffffffffffff001617905560408051828152336020820152907ff5cb588f5f04842fa8a48ffd1f1b14b97339a788a30a4ab1c445e84f46a8b5ff90829081016107a7565b7f4e487b7100000000000000000000000000000000000000000000000000000000600052604160045260246000fd5b8061025f57600080fd5b8061025f576040517f08c379a000000000000000000000000000000000000000000000000000000000815260206004820152602260248201527f596f75277265206e6f74206465706f736974696e6720656e6f7567682055534460448201527f43210000000000000000000000000000000000000000000000000000000000006064820152608481fd5b8061025f576040517f08c379a000000000000000000000000000000000000000000000000000000000815260206004820152601360248201527f4572726f7220696e207769746864726177616c000000000000000000000000006044820152606481fd5b8061025f576040517f08c379a000000000000000000000000000000000000000000000000000000000815260206004820152602a60248201527f5361666545524332303a204552433230206f7065726174696f6e20646964206e60448201527f6f742073756363656564000000000000000000000000000000000000000000006064820152608481fd5b6040513d6000823e3d81fdfea3646970667358221220edcb69d2f094ff456ee7845130c3d9f340dfc5c61fe305b443c6fbfeafe75ee76c6578706572696d656e74616cf564736f6c63430008070041","opcodes":"PUSH1 0x80 PUSH1 0x40 MSTORE CALLVALUE ISZERO PUSH2 0xF JUMPI PUSH1 0x0 DUP1 REVERT JUMPDEST PUSH1 0x0 DUP1 SLOAD PUSH1 0xFF NOT AND SWAP1 SSTORE PUSH1 0x1 DUP1 SLOAD PUSH1 0x1 PUSH1 0x1 PUSH1 0xA0 SHL SUB NOT AND CALLER OR SWAP1 SSTORE PUSH2 0x119C DUP1 PUSH2 0x3B PUSH1 0x80 CODECOPY DUP1 PUSH1 0x80 RETURN INVALID PUSH1 0x40 PUSH1 0x80 DUP2 MSTORE PUSH1 0x4 CALLDATASIZE LT PUSH2 0x1FB JUMPI PUSH1 0x0 DUP1 CALLDATALOAD PUSH1 0xE0 SHR PUSH4 0x16345F18 DUP2 EQ PUSH2 0x7C JUMPI PUSH4 0x423CB99E DUP2 EQ PUSH2 0xA5 JUMPI PUSH4 0x5C975ABB DUP2 EQ PUSH2 0xC5 JUMPI PUSH4 0x7920D804 DUP2 EQ PUSH2 0xF0 JUMPI PUSH4 0x8DA5CB5B DUP2 EQ PUSH2 0x12C JUMPI PUSH4 0x8DB9F39A DUP2 EQ PUSH2 0x165 JUMPI PUSH4 0xB6B55F25 DUP2 EQ PUSH2 0x196 JUMPI PUSH4 0xBB09D9B7 DUP2 EQ PUSH2 0x1B6 JUMPI PUSH4 0xDB2E21BC DUP2 EQ PUSH2 0x1E7 JUMPI PUSH2 0x1F8 JUMP JUMPDEST CALLVALUE ISZERO PUSH2 0x86 JUMPI DUP2 DUP3 REVERT JUMPDEST PUSH2 0x97 PUSH2 0x92 CALLDATASIZE PUSH2 0x262 JUMP JUMPDEST PUSH2 0xB0A JUMP JUMPDEST DUP4 MLOAD DUP2 DUP2 MSTORE PUSH1 0x20 DUP2 RETURN JUMPDEST SUB DUP2 RETURN JUMPDEST CALLVALUE ISZERO PUSH2 0xAF JUMPI DUP2 DUP3 REVERT JUMPDEST PUSH2 0xB8 CALLDATASIZE PUSH2 0x22F JUMP JUMPDEST PUSH1 0x2 SLOAD DUP4 MLOAD DUP2 DUP2 MSTORE PUSH1 0x20 DUP2 RETURN JUMPDEST CALLVALUE ISZERO PUSH2 0xCF JUMPI DUP2 DUP3 REVERT JUMPDEST PUSH2 0xD8 CALLDATASIZE PUSH2 0x22F JUMP JUMPDEST PUSH1 0xFF DUP3 SLOAD AND DUP4 MLOAD DUP1 PUSH2 0xA1 DUP4 DUP4 SWAP1 ISZERO ISZERO DUP2 MSTORE PUSH1 0x20 ADD SWAP1 JUMP JUMPDEST CALLVALUE ISZERO PUSH2 0xFA JUMPI DUP2 DUP3 REVERT JUMPDEST PUSH2 0x103 CALLDATASIZE PUSH2 0x22F JUMP JUMPDEST DUP2 SLOAD DUP4 MLOAD PUSH1 0x8 SWAP2 SWAP1 SWAP2 SHR PUSH20 0xFFFFFFFFFFFFFFFFFFFFFFFFFFFFFFFFFFFFFFFF AND DUP1 DUP3 MSTORE SWAP1 PUSH1 0x20 DUP2 RETURN JUMPDEST CALLVALUE ISZERO PUSH2 0x136 JUMPI DUP2 DUP3 REVERT JUMPDEST PUSH2 0x13F CALLDATASIZE PUSH2 0x22F JUMP JUMPDEST PUSH1 0x1 SLOAD DUP4 MLOAD PUSH20 0xFFFFFFFFFFFFFFFFFFFFFFFFFFFFFFFFFFFFFFFF SWAP1 SWAP2 AND DUP1 DUP3 MSTORE SWAP1 PUSH1 0x20 DUP2 RETURN JUMPDEST CALLVALUE ISZERO PUSH2 0x16F JUMPI DUP2 DUP3 REVERT JUMPDEST PUSH2 0x178 CALLDATASIZE PUSH2 0x22F JUMP JUMPDEST DUP3 MLOAD PUSH20 0xAB594600376EC9FD91F8E885DADF0CE036862DE0 DUP2 MSTORE PUSH1 0x20 DUP2 RETURN JUMPDEST CALLVALUE ISZERO PUSH2 0x1A0 JUMPI DUP2 DUP3 REVERT JUMPDEST PUSH2 0x1B1 PUSH2 0x1AC CALLDATASIZE PUSH2 0x2E8 JUMP JUMPDEST PUSH2 0xDD2 JUMP JUMPDEST DUP2 DUP4 MLOAD RETURN JUMPDEST CALLVALUE ISZERO PUSH2 0x1C0 JUMPI DUP2 DUP3 REVERT JUMPDEST PUSH2 0x1C9 CALLDATASIZE PUSH2 0x22F JUMP JUMPDEST DUP3 MLOAD PUSH20 0x2791BCA1F2DE4661ED88A30C99A7A9449AA84174 DUP2 MSTORE PUSH1 0x20 DUP2 RETURN JUMPDEST PUSH2 0x1F0 CALLDATASIZE PUSH2 0x22F JUMP JUMPDEST PUSH2 0x1B1 PUSH2 0x8C1 JUMP JUMPDEST POP POP JUMPDEST POP CALLDATASIZE PUSH2 0x20B JUMPI PUSH2 0x209 PUSH2 0x5D4 JUMP JUMPDEST STOP JUMPDEST PUSH1 0x0 DUP1 REVERT JUMPDEST DUP1 MLOAD PUSH10 0xFFFFFFFFFFFFFFFFFFFF DUP2 AND DUP2 EQ PUSH2 0x22A JUMPI PUSH1 0x0 DUP1 REVERT JUMPDEST SWAP2 SWAP1 POP JUMP JUMPDEST PUSH1 0x0 PUSH32 0xFFFFFFFFFFFFFFFFFFFFFFFFFFFFFFFFFFFFFFFFFFFFFFFFFFFFFFFFFFFFFFFC DUP3 ADD SLT ISZERO PUSH2 0x25F JUMPI PUSH1 0x0 DUP1 REVERT JUMPDEST POP JUMP JUMPDEST PUSH1 0x0 PUSH1 0x20 PUSH32 0xFFFFFFFFFFFFFFFFFFFFFFFFFFFFFFFFFFFFFFFFFFFFFFFFFFFFFFFFFFFFFFFC DUP4 ADD SLT ISZERO PUSH2 0x294 JUMPI PUSH1 0x0 DUP1 REVERT JUMPDEST PUSH1 0x4 CALLDATALOAD PUSH20 0xFFFFFFFFFFFFFFFFFFFFFFFFFFFFFFFFFFFFFFFF DUP2 AND DUP2 EQ PUSH2 0x2B9 JUMPI PUSH1 0x0 DUP1 REVERT JUMPDEST SWAP3 SWAP2 POP POP JUMP JUMPDEST PUSH1 0x0 PUSH1 0x20 DUP3 DUP5 SUB SLT ISZERO PUSH2 0x2D1 JUMPI PUSH1 0x0 DUP1 REVERT JUMPDEST DUP2 MLOAD DUP1 ISZERO ISZERO DUP2 EQ PUSH2 0x2E1 JUMPI PUSH1 0x0 DUP1 REVERT JUMPDEST SWAP4 SWAP3 POP POP POP JUMP JUMPDEST PUSH1 0x0 PUSH1 0x20 PUSH32 0xFFFFFFFFFFFFFFFFFFFFFFFFFFFFFFFFFFFFFFFFFFFFFFFFFFFFFFFFFFFFFFFC DUP4 ADD SLT ISZERO PUSH2 0x31A JUMPI PUSH1 0x0 DUP1 REVERT JUMPDEST POP POP PUSH1 0x4 CALLDATALOAD SWAP1 JUMP JUMPDEST PUSH1 0x0 PUSH1 0x20 DUP3 DUP5 SUB SLT ISZERO PUSH2 0x334 JUMPI PUSH1 0x0 DUP1 REVERT JUMPDEST POP MLOAD SWAP2 SWAP1 POP JUMP JUMPDEST PUSH1 0x0 DUP3 PUSH2 0x371 JUMPI PUSH32 0x4E487B7100000000000000000000000000000000000000000000000000000000 PUSH1 0x0 MSTORE PUSH1 0x12 PUSH1 0x4 MSTORE PUSH1 0x24 PUSH1 0x0 REVERT JUMPDEST POP DIV SWAP1 JUMP JUMPDEST PUSH1 0x0 PUSH32 0x5555555555555555555555555555555555555555555555555555555555555555 DUP3 GT PUSH1 0x1 AND ISZERO PUSH2 0x3D2 JUMPI PUSH32 0x4E487B7100000000000000000000000000000000000000000000000000000000 PUSH1 0x0 MSTORE PUSH1 0x11 PUSH1 0x4 MSTORE PUSH1 0x24 PUSH1 0x0 REVERT JUMPDEST POP PUSH1 0x3 MUL SWAP1 JUMP JUMPDEST PUSH1 0x0 DUP2 PUSH32 0xFFFFFFFFFFFFFFFFFFFFFFFFFFFFFFFFFFFFFFFFFFFFFFFFFFFFFFFFFFFFFFFF DIV PUSH1 0x64 GT DUP3 ISZERO ISZERO AND ISZERO PUSH2 0x439 JUMPI PUSH32 0x4E487B7100000000000000000000000000000000000000000000000000000000 PUSH1 0x0 MSTORE PUSH1 0x11 PUSH1 0x4 MSTORE PUSH1 0x24 PUSH1 0x0 REVERT JUMPDEST POP PUSH1 0x64 MUL SWAP1 JUMP JUMPDEST PUSH1 0x0 PUSH9 0x56BC75E2D63100000 DUP3 PUSH32 0xFFFFFFFFFFFFFFFFFFFFFFFFFFFFFFFFFFFFFFFFFFFFFFFFFFFFFFFFFFFFFFFF DIV DUP2 GT DUP4 ISZERO ISZERO AND ISZERO PUSH2 0x4A9 JUMPI PUSH32 0x4E487B7100000000000000000000000000000000000000000000000000000000 PUSH1 0x0 MSTORE PUSH1 0x11 PUSH1 0x4 MSTORE PUSH1 0x24 PUSH1 0x0 REVERT JUMPDEST SWAP2 SWAP1 SWAP2 MUL SWAP2 SWAP1 POP JUMP JUMPDEST PUSH1 0x0 DUP2 PUSH32 0xFFFFFFFFFFFFFFFFFFFFFFFFFFFFFFFFFFFFFFFFFFFFFFFFFFFFFFFFFFFFFFFF DIV DUP4 GT DUP3 ISZERO ISZERO AND ISZERO PUSH2 0x511 JUMPI PUSH32 0x4E487B7100000000000000000000000000000000000000000000000000000000 PUSH1 0x0 MSTORE PUSH1 0x11 PUSH1 0x4 MSTORE PUSH1 0x24 PUSH1 0x0 REVERT JUMPDEST POP MUL SWAP1 JUMP JUMPDEST PUSH1 0x0 RETURNDATASIZE DUP1 ISZERO PUSH2 0x581 JUMPI RETURNDATASIZE PUSH8 0xFFFFFFFFFFFFFFFF DUP2 GT ISZERO PUSH2 0x538 JUMPI PUSH2 0x538 PUSH2 0xF9B JUMP JUMPDEST PUSH1 0x40 MLOAD PUSH2 0x56D PUSH1 0x20 PUSH32 0xFFFFFFFFFFFFFFFFFFFFFFFFFFFFFFFFFFFFFFFFFFFFFFFFFFFFFFFFFFFFFFE0 PUSH1 0x1F DUP6 ADD AND ADD DUP3 PUSH2 0x589 JUMP JUMPDEST DUP2 DUP2 MSTORE DUP1 SWAP4 POP RETURNDATASIZE PUSH1 0x0 PUSH1 0x20 DUP4 ADD RETURNDATACOPY POP POP POP SWAP1 JUMP JUMPDEST PUSH1 0x60 SWAP2 POP POP SWAP1 JUMP JUMPDEST PUSH32 0xFFFFFFFFFFFFFFFFFFFFFFFFFFFFFFFFFFFFFFFFFFFFFFFFFFFFFFFFFFFFFFE0 PUSH1 0x1F DUP4 ADD AND DUP2 ADD DUP2 DUP2 LT PUSH8 0xFFFFFFFFFFFFFFFF DUP3 GT OR ISZERO PUSH2 0x5CD JUMPI PUSH2 0x5CD PUSH2 0xF9B JUMP JUMPDEST PUSH1 0x40 MSTORE POP POP JUMP JUMPDEST PUSH1 0x2 SLOAD PUSH2 0x5E0 DUP2 PUSH2 0x376 JUMP JUMPDEST PUSH1 0x1 SHR CALLVALUE LT ISZERO PUSH2 0x66F JUMPI PUSH1 0x40 MLOAD PUSH32 0x8C379A000000000000000000000000000000000000000000000000000000000 DUP2 MSTORE PUSH1 0x20 PUSH1 0x4 DUP3 ADD MSTORE PUSH1 0x23 PUSH1 0x24 DUP3 ADD MSTORE PUSH32 0x596F75277265206E6F74206465706F736974696E6720656E6F75676820657468 PUSH1 0x44 DUP3 ADD MSTORE PUSH32 0x6572210000000000000000000000000000000000000000000000000000000000 PUSH1 0x64 DUP3 ADD MSTORE PUSH1 0x84 DUP2 REVERT JUMPDEST DUP1 ISZERO DUP1 ISZERO SWAP1 PUSH2 0x714 JUMPI PUSH2 0x681 CALLVALUE PUSH1 0x2 SSTORE JUMP JUMPDEST PUSH2 0x6BF PUSH2 0x6A6 PUSH1 0x0 SLOAD PUSH1 0x8 SHR PUSH20 0xFFFFFFFFFFFFFFFFFFFFFFFFFFFFFFFFFFFFFFFF AND SWAP1 JUMP JUMPDEST PUSH20 0xFFFFFFFFFFFFFFFFFFFFFFFFFFFFFFFFFFFFFFFF AND SWAP1 JUMP JUMPDEST PUSH1 0x0 DUP1 PUSH1 0x0 PUSH1 0x40 MLOAD CALLVALUE DUP6 GAS CALL SWAP1 POP PUSH2 0x6D5 PUSH2 0x516 JUMP JUMPDEST POP PUSH2 0x70E DUP2 PUSH32 0xFFFFFFFFFFFFFFFFFFFFFFFFFFFFFFFFFFFFFFFFFFFFFFFFFFFFFFFFFFFFFF00 PUSH1 0x3 SLOAD AND PUSH1 0xFF DUP3 ISZERO ISZERO AND DUP2 OR PUSH1 0x3 SSTORE POP POP JUMP JUMPDEST POP PUSH2 0x71D JUMP JUMPDEST PUSH2 0x71D CALLVALUE PUSH1 0x2 SSTORE JUMP JUMPDEST POP POP PUSH1 0x0 DUP1 SLOAD PUSH32 0xFFFFFFFFFFFFFFFFFFFFFF0000000000000000000000000000000000000000FF AND CALLER PUSH1 0x8 SHL PUSH21 0xFFFFFFFFFFFFFFFFFFFFFFFFFFFFFFFFFFFFFFFF00 AND OR SWAP1 SSTORE PUSH1 0x3 SLOAD PUSH1 0xFF AND PUSH1 0x40 DUP1 MLOAD DUP3 ISZERO ISZERO DUP2 MSTORE CALLVALUE PUSH1 0x20 DUP3 ADD MSTORE CALLER SWAP2 DUP2 ADD SWAP2 SWAP1 SWAP2 MSTORE PUSH32 0x7F7CAF2CFDC2014AA045DD0EF7E9F5A6A4819E729710BED3689BA095E658738F DUP2 PUSH1 0x60 DUP2 ADD JUMPDEST SUB DUP3 LOG1 POP POP JUMP JUMPDEST PUSH1 0x40 MLOAD PUSH1 0x40 DUP2 ADD DUP2 DUP2 LT PUSH8 0xFFFFFFFFFFFFFFFF DUP3 GT OR ISZERO PUSH2 0x7D1 JUMPI PUSH2 0x7D1 PUSH2 0xF9B JUMP JUMPDEST PUSH1 0x40 MSTORE PUSH1 0x20 DUP1 DUP3 MSTORE PUSH32 0x5361666545524332303A206C6F772D6C6576656C2063616C6C206661696C6564 DUP3 DUP3 ADD MSTORE PUSH20 0x2791BCA1F2DE4661ED88A30C99A7A9449AA84174 DUP1 EXTCODESIZE PUSH2 0x877 JUMPI PUSH1 0x40 MLOAD PUSH32 0x8C379A000000000000000000000000000000000000000000000000000000000 DUP2 MSTORE DUP3 PUSH1 0x4 DUP3 ADD MSTORE PUSH1 0x1D PUSH1 0x24 DUP3 ADD MSTORE PUSH32 0x416464726573733A2063616C6C20746F206E6F6E2D636F6E7472616374000000 PUSH1 0x44 DUP3 ADD MSTORE PUSH1 0x64 DUP2 REVERT JUMPDEST PUSH1 0x0 DUP1 DUP6 MLOAD DUP5 DUP8 ADD PUSH1 0x0 DUP6 GAS CALL SWAP1 POP PUSH2 0x898 DUP4 PUSH2 0x892 PUSH2 0x516 JUMP JUMPDEST DUP4 PUSH2 0xD16 JUMP JUMPDEST SWAP3 POP POP DUP2 MLOAD DUP1 ISZERO PUSH2 0x8BB JUMPI PUSH2 0x8BB PUSH2 0x8B6 DUP4 DUP4 DUP7 ADD ADD DUP5 DUP7 ADD PUSH2 0x2BF JUMP JUMPDEST PUSH2 0x10C2 JUMP JUMPDEST POP POP POP POP JUMP JUMPDEST PUSH2 0x8ED PUSH2 0x8E6 PUSH2 0x6A6 PUSH1 0x1 SLOAD PUSH20 0xFFFFFFFFFFFFFFFFFFFFFFFFFFFFFFFFFFFFFFFF AND SWAP1 JUMP JUMPDEST CALLER EQ PUSH2 0xFCA JUMP JUMPDEST SELFBALANCE ISZERO PUSH2 0x958 JUMPI SELFBALANCE PUSH1 0x0 DUP1 PUSH1 0x0 PUSH1 0x40 MLOAD DUP5 CALLER GAS CALL SWAP1 POP PUSH2 0x90A PUSH2 0x516 JUMP JUMPDEST POP PUSH2 0x943 DUP2 PUSH32 0xFFFFFFFFFFFFFFFFFFFFFFFFFFFFFFFFFFFFFFFFFFFFFFFFFFFFFFFFFFFFFF00 PUSH1 0x3 SLOAD AND PUSH1 0xFF DUP3 ISZERO ISZERO AND DUP2 OR PUSH1 0x3 SSTORE POP POP JUMP JUMPDEST POP PUSH2 0x958 PUSH2 0x953 PUSH1 0x3 SLOAD PUSH1 0xFF AND SWAP1 JUMP JUMPDEST PUSH2 0x105E JUMP JUMPDEST PUSH20 0x2791BCA1F2DE4661ED88A30C99A7A9449AA84174 DUP1 EXTCODESIZE PUSH2 0x978 JUMPI PUSH1 0x0 DUP1 REVERT JUMPDEST PUSH1 0x40 MLOAD PUSH32 0x70A0823100000000000000000000000000000000000000000000000000000000 DUP2 MSTORE ADDRESS PUSH1 0x4 DUP3 ADD MSTORE PUSH1 0x20 DUP2 PUSH1 0x24 DUP2 DUP6 GAS STATICCALL DUP1 PUSH2 0x9BA JUMPI PUSH2 0x9BA PUSH2 0x114C JUMP JUMPDEST PUSH1 0x0 DUP2 ISZERO PUSH2 0x9DB JUMPI PUSH2 0x9CC RETURNDATASIZE DUP5 PUSH2 0x589 JUMP JUMPDEST PUSH2 0x9D8 RETURNDATASIZE DUP5 ADD DUP5 PUSH2 0x322 JUMP JUMPDEST SWAP1 POP JUMPDEST DUP1 ISZERO PUSH2 0x8BB JUMPI DUP4 EXTCODESIZE PUSH2 0x9EC JUMPI PUSH1 0x0 DUP1 REVERT JUMPDEST PUSH1 0x40 MLOAD PUSH32 0x95EA7B300000000000000000000000000000000000000000000000000000000 DUP2 MSTORE CALLER PUSH1 0x4 DUP3 ADD MSTORE PUSH1 0x24 DUP2 ADD DUP3 SWAP1 MSTORE SWAP3 POP PUSH1 0x20 DUP4 PUSH1 0x44 DUP2 PUSH1 0x0 DUP9 GAS CALL SWAP2 POP DUP2 PUSH2 0xA3B JUMPI PUSH2 0xA3B PUSH2 0x114C JUMP JUMPDEST DUP2 ISZERO PUSH2 0xA59 JUMPI PUSH2 0xA4B RETURNDATASIZE DUP5 PUSH2 0x589 JUMP JUMPDEST PUSH2 0xA57 RETURNDATASIZE DUP5 ADD DUP5 PUSH2 0x2BF JUMP JUMPDEST POP JUMPDEST PUSH2 0x8BB DUP2 CALLER PUSH2 0xCAC JUMP JUMPDEST PUSH1 0x0 PUSH20 0xAB594600376EC9FD91F8E885DADF0CE036862DE0 DUP1 EXTCODESIZE PUSH2 0xA85 JUMPI PUSH1 0x0 DUP1 REVERT JUMPDEST PUSH1 0x40 MLOAD PUSH32 0xFEAF968C00000000000000000000000000000000000000000000000000000000 DUP2 MSTORE PUSH1 0xA0 DUP2 PUSH1 0x4 DUP4 DUP6 GAS STATICCALL SWAP2 POP DUP2 PUSH2 0xAC3 JUMPI PUSH2 0xAC3 PUSH2 0x114C JUMP JUMPDEST PUSH1 0x0 DUP3 ISZERO PUSH2 0x2E1 JUMPI PUSH2 0xAD5 RETURNDATASIZE DUP4 PUSH2 0x589 JUMP JUMPDEST PUSH1 0xA0 DUP3 RETURNDATASIZE DUP5 ADD SUB SLT ISZERO PUSH2 0xAE6 JUMPI DUP1 DUP2 REVERT JUMPDEST PUSH2 0xAEF DUP3 PUSH2 0x210 JUMP JUMPDEST POP PUSH1 0x20 DUP3 ADD MLOAD PUSH2 0xB01 PUSH1 0x80 DUP5 ADD PUSH2 0x210 JUMP JUMPDEST POP SWAP5 SWAP4 POP POP POP POP JUMP JUMPDEST PUSH1 0x0 PUSH20 0xFFFFFFFFFFFFFFFFFFFFFFFFFFFFFFFFFFFFFFFF DUP3 AND DUP1 EXTCODESIZE PUSH2 0xB2E JUMPI PUSH1 0x0 DUP1 REVERT JUMPDEST PUSH1 0x40 MLOAD PUSH32 0xFEAF968C00000000000000000000000000000000000000000000000000000000 DUP2 MSTORE PUSH1 0xA0 DUP2 PUSH1 0x4 DUP4 DUP6 GAS STATICCALL SWAP2 POP DUP2 PUSH2 0xB6C JUMPI PUSH2 0xB6C PUSH2 0x114C JUMP JUMPDEST PUSH1 0x0 DUP3 ISZERO PUSH2 0xBAE JUMPI PUSH2 0xB7E RETURNDATASIZE DUP4 PUSH2 0x589 JUMP JUMPDEST PUSH1 0xA0 DUP3 RETURNDATASIZE DUP5 ADD SUB SLT ISZERO PUSH2 0xB8F JUMPI DUP1 DUP2 REVERT JUMPDEST PUSH2 0xB98 DUP3 PUSH2 0x210 JUMP JUMPDEST POP PUSH1 0x20 DUP3 ADD MLOAD PUSH2 0xBAA PUSH1 0x80 DUP5 ADD PUSH2 0x210 JUMP JUMPDEST POP SWAP1 POP JUMPDEST SWAP5 SWAP4 POP POP POP POP JUMP JUMPDEST PUSH1 0x40 MLOAD PUSH1 0x20 DUP2 ADD PUSH32 0xF82C50F100000000000000000000000000000000000000000000000000000000 DUP2 MSTORE DUP3 PUSH1 0x24 DUP4 ADD MSTORE PUSH1 0x24 DUP3 MSTORE PUSH1 0x60 DUP3 ADD DUP3 DUP2 LT PUSH8 0xFFFFFFFFFFFFFFFF DUP3 GT OR ISZERO PUSH2 0xC0A JUMPI PUSH2 0xC0A PUSH2 0xF9B JUMP JUMPDEST DUP1 PUSH1 0x40 MSTORE POP PUSH1 0x0 DUP1 DUP4 MLOAD DUP4 PUSH11 0x636F6E736F6C652E6C6F67 GAS STATICCALL POP POP POP POP JUMP JUMPDEST PUSH1 0x40 MLOAD PUSH32 0x23B872DD00000000000000000000000000000000000000000000000000000000 PUSH1 0x20 DUP3 ADD MSTORE PUSH20 0xFFFFFFFFFFFFFFFFFFFFFFFFFFFFFFFFFFFFFFFF DUP3 DUP2 AND PUSH1 0x24 DUP4 ADD MSTORE DUP4 AND PUSH1 0x44 DUP3 ADD MSTORE PUSH1 0x64 DUP1 DUP3 ADD DUP6 SWAP1 MSTORE DUP2 MSTORE PUSH1 0xA0 DUP2 ADD PUSH8 0xFFFFFFFFFFFFFFFF DUP2 GT DUP3 DUP3 LT OR ISZERO PUSH2 0xCA0 JUMPI PUSH2 0xCA0 PUSH2 0xF9B JUMP JUMPDEST PUSH1 0x40 MSTORE PUSH2 0x8BB DUP2 PUSH2 0x7AE JUMP JUMPDEST PUSH1 0x40 MLOAD PUSH32 0xA9059CBB00000000000000000000000000000000000000000000000000000000 PUSH1 0x20 DUP3 ADD MSTORE PUSH20 0xFFFFFFFFFFFFFFFFFFFFFFFFFFFFFFFFFFFFFFFF DUP3 AND PUSH1 0x24 DUP3 ADD MSTORE PUSH1 0x44 DUP1 DUP3 ADD DUP5 SWAP1 MSTORE DUP2 MSTORE PUSH1 0x64 PUSH2 0xD07 DUP2 DUP4 PUSH2 0x589 JUMP JUMPDEST POP PUSH2 0xD11 DUP2 PUSH2 0x7AE JUMP JUMPDEST POP POP POP JUMP JUMPDEST PUSH1 0x60 DUP2 DUP1 ISZERO PUSH2 0xD28 JUMPI DUP4 SWAP2 POP POP PUSH2 0x2E1 JUMP JUMPDEST DUP4 MLOAD ISZERO DUP1 ISZERO SWAP1 PUSH2 0xD3A JUMPI DUP5 MLOAD DUP6 PUSH1 0x20 ADD REVERT JUMPDEST PUSH1 0x40 MLOAD PUSH32 0x8C379A000000000000000000000000000000000000000000000000000000000 DUP2 MSTORE PUSH1 0x20 DUP1 PUSH1 0x4 DUP4 ADD MSTORE DUP8 MLOAD DUP1 PUSH1 0x24 DUP5 ADD MSTORE PUSH1 0x0 JUMPDEST DUP2 DUP2 LT ISZERO PUSH2 0xD8F JUMPI DUP10 DUP2 ADD DUP4 ADD MLOAD DUP5 DUP3 ADD PUSH1 0x44 ADD MSTORE DUP3 ADD PUSH2 0xD73 JUMP JUMPDEST DUP2 DUP2 GT ISZERO PUSH2 0xDA1 JUMPI PUSH1 0x0 PUSH1 0x44 DUP4 DUP7 ADD ADD MSTORE JUMPDEST POP PUSH1 0x44 DUP4 PUSH32 0xFFFFFFFFFFFFFFFFFFFFFFFFFFFFFFFFFFFFFFFFFFFFFFFFFFFFFFFFFFFFFFE0 PUSH1 0x1F DUP5 ADD AND DUP6 ADD SUB ADD DUP4 REVERT JUMPDEST PUSH1 0xFF PUSH1 0x0 SLOAD AND ISZERO PUSH2 0xE3C JUMPI PUSH1 0x40 MLOAD PUSH32 0x8C379A000000000000000000000000000000000000000000000000000000000 DUP2 MSTORE PUSH1 0x20 PUSH1 0x4 DUP3 ADD MSTORE PUSH1 0x10 PUSH1 0x24 DUP3 ADD MSTORE PUSH32 0x5061757361626C653A2070617573656400000000000000000000000000000000 PUSH1 0x44 DUP3 ADD MSTORE PUSH1 0x64 DUP2 REVERT JUMPDEST PUSH1 0x2 SLOAD PUSH2 0xE48 DUP2 PUSH2 0x376 JUMP JUMPDEST PUSH2 0xE7F PUSH2 0xE77 PUSH2 0xE71 PUSH2 0xE62 PUSH2 0xE5C PUSH2 0xA63 JUMP JUMPDEST DUP6 PUSH2 0x4B2 JUMP JUMPDEST PUSH9 0x56BC75E2D63100000 SWAP1 DIV SWAP1 JUMP JUMPDEST PUSH1 0x1 SHR SWAP1 JUMP JUMPDEST DUP5 LT ISZERO PUSH2 0xFD4 JUMP JUMPDEST POP PUSH2 0xE89 DUP2 PUSH2 0x376 JUMP JUMPDEST PUSH2 0xEA2 PUSH2 0xE9D PUSH2 0xE71 PUSH2 0xE62 PUSH2 0xE5C PUSH2 0xA63 JUMP JUMPDEST PUSH2 0xBB6 JUMP JUMPDEST POP DUP1 ISZERO DUP1 ISZERO SWAP1 PUSH2 0xF03 JUMPI PUSH2 0xEB5 DUP4 PUSH2 0x440 JUMP JUMPDEST PUSH2 0xECE PUSH2 0xEC9 PUSH2 0xEC3 PUSH2 0xA63 JUMP JUMPDEST DUP4 PUSH2 0x33B JUMP JUMPDEST PUSH1 0x2 SSTORE JUMP JUMPDEST POP PUSH2 0xEFE DUP4 PUSH2 0xEF8 PUSH2 0x6A6 PUSH1 0x0 SLOAD PUSH1 0x8 SHR PUSH20 0xFFFFFFFFFFFFFFFFFFFFFFFFFFFFFFFFFFFFFFFF AND SWAP1 JUMP JUMPDEST CALLER PUSH2 0xC29 JUMP JUMPDEST PUSH2 0xF1C JUMP JUMPDEST PUSH2 0xF0C DUP4 PUSH2 0x3D9 JUMP JUMPDEST PUSH2 0xF1A PUSH2 0xEC9 PUSH2 0xEC3 PUSH2 0xA63 JUMP JUMPDEST POP JUMPDEST POP POP PUSH1 0x0 DUP1 SLOAD PUSH32 0xFFFFFFFFFFFFFFFFFFFFFF0000000000000000000000000000000000000000FF AND CALLER PUSH1 0x8 SHL PUSH21 0xFFFFFFFFFFFFFFFFFFFFFFFFFFFFFFFFFFFFFFFF00 AND OR SWAP1 SSTORE PUSH1 0x40 DUP1 MLOAD DUP3 DUP2 MSTORE CALLER PUSH1 0x20 DUP3 ADD MSTORE SWAP1 PUSH32 0xF5CB588F5F04842FA8A48FFD1F1B14B97339A788A30A4AB1C445E84F46A8B5FF SWAP1 DUP3 SWAP1 DUP2 ADD PUSH2 0x7A7 JUMP JUMPDEST PUSH32 0x4E487B7100000000000000000000000000000000000000000000000000000000 PUSH1 0x0 MSTORE PUSH1 0x41 PUSH1 0x4 MSTORE PUSH1 0x24 PUSH1 0x0 REVERT JUMPDEST DUP1 PUSH2 0x25F JUMPI PUSH1 0x0 DUP1 REVERT JUMPDEST DUP1 PUSH2 0x25F JUMPI PUSH1 0x40 MLOAD PUSH32 0x8C379A000000000000000000000000000000000000000000000000000000000 DUP2 MSTORE PUSH1 0x20 PUSH1 0x4 DUP3 ADD MSTORE PUSH1 0x22 PUSH1 0x24 DUP3 ADD MSTORE PUSH32 0x596F75277265206E6F74206465706F736974696E6720656E6F75676820555344 PUSH1 0x44 DUP3 ADD MSTORE PUSH32 0x4321000000000000000000000000000000000000000000000000000000000000 PUSH1 0x64 DUP3 ADD MSTORE PUSH1 0x84 DUP2 REVERT JUMPDEST DUP1 PUSH2 0x25F JUMPI PUSH1 0x40 MLOAD PUSH32 0x8C379A000000000000000000000000000000000000000000000000000000000 DUP2 MSTORE PUSH1 0x20 PUSH1 0x4 DUP3 ADD MSTORE PUSH1 0x13 PUSH1 0x24 DUP3 ADD MSTORE PUSH32 0x4572726F7220696E207769746864726177616C00000000000000000000000000 PUSH1 0x44 DUP3 ADD MSTORE PUSH1 0x64 DUP2 REVERT JUMPDEST DUP1 PUSH2 0x25F JUMPI PUSH1 0x40 MLOAD PUSH32 0x8C379A000000000000000000000000000000000000000000000000000000000 DUP2 MSTORE PUSH1 0x20 PUSH1 0x4 DUP3 ADD MSTORE PUSH1 0x2A PUSH1 0x24 DUP3 ADD MSTORE PUSH32 0x5361666545524332303A204552433230206F7065726174696F6E20646964206E PUSH1 0x44 DUP3 ADD MSTORE PUSH32 0x6F74207375636365656400000000000000000000000000000000000000000000 PUSH1 0x64 DUP3 ADD MSTORE PUSH1 0x84 DUP2 REVERT JUMPDEST PUSH1 0x40 MLOAD RETURNDATASIZE PUSH1 0x0 DUP3 RETURNDATACOPY RETURNDATASIZE DUP2 REVERT INVALID LOG3 PUSH5 0x6970667358 0x22 SLT KECCAK256 0xED 0xCB PUSH10 0xD2F094FF456EE7845130 0xC3 0xD9 RETURN BLOCKHASH 0xDF 0xC5 0xC6 0x1F 0xE3 SDIV 0xB4 NUMBER 0xC6 0xFB INVALID 0xAF 0xE7 0x5E 0xE7 PUSH13 0x6578706572696D656E74616CF5 PUSH5 0x736F6C6343 STOP ADDMOD SMOD STOP COINBASE "},"methodIdentifiers":{"MATIC_USD_ORACLE()":"8db9f39a","USDC_ADDRESS()":"bb09d9b7","deposit(uint256)":"b6b55f25","emergencyWithdraw()":"db2e21bc","getKing()":"7920d804","getLatestPrice(address)":"16345f18","maximumPaid()":"423cb99e","owner()":"8da5cb5b","paused()":"5c975abb"}}}}}