{"contracts/King.sol":{"King":{"abi":[{"inputs":[],"name":"MATIC_USD_ORACLE","outputs":[{"internalType":"address","name":"","type":"address"}],"stateMutability":"view","type":"function"},{"inputs":[],"name":"USDC_ADDRESS","outputs":[{"internalType":"address","name":"","type":"address"}],"stateMutability":"view","type":"function"},{"inputs":[],"name":"_king","outputs":[{"internalType":"address payable","name":"","type":"address"}],"stateMutability":"view","type":"function"},{"inputs":[{"internalType":"uint256","name":"deposit_amount","type":"uint256"}],"name":"deposit","outputs":[],"stateMutability":"nonpayable","type":"function"},{"inputs":[{"internalType":"address","name":"_oracle_address","type":"address"}],"name":"getLatestPrice","outputs":[{"internalType":"int256","name":"","type":"int256"}],"stateMutability":"view","type":"function"},{"inputs":[],"name":"previous_maximum","outputs":[{"internalType":"uint256","name":"","type":"uint256"}],"stateMutability":"view","type":"function"},{"inputs":[],"name":"previous_usdc_maximum","outputs":[{"internalType":"uint256","name":"","type":"uint256"}],"stateMutability":"view","type":"function"},{"stateMutability":"payable","type":"receive"}],"evm":{"bytecode":{"linkReferences":{},"object":"6080806040523461001657610b9a908161001c8239f35b600080fdfe60806040526004361015610023575b361561001957600080fd5b6100216106f7565b005b6000803560e01c90816316345f18146100b25750806329cc6d6f146100a95780636e4a17d3146100a05780638db9f39a146100975780639144c2541461008e578063b6b55f25146100855763bb09d9b70361000e5761008061033f565b61000e565b50610080610238565b506100806101fb565b506100806101ad565b50610080610170565b50610080610118565b346101155760207ffffffffffffffffffffffffffffffffffffffffffffffffffffffffffffffffc360112610115576004359073ffffffffffffffffffffffffffffffffffffffff8216820361011557602061010d83610504565b604051908152f35b80fd5b503461016b5760007ffffffffffffffffffffffffffffffffffffffffffffffffffffffffffffffffc36011261016b57602073ffffffffffffffffffffffffffffffffffffffff60005416604051908152f35b600080fd5b503461016b5760007ffffffffffffffffffffffffffffffffffffffffffffffffffffffffffffffffc36011261016b576020600254604051908152f35b503461016b5760007ffffffffffffffffffffffffffffffffffffffffffffffffffffffffffffffffc36011261016b57602060405173ab594600376ec9fd91f8e885dadf0ce036862de08152f35b503461016b5760007ffffffffffffffffffffffffffffffffffffffffffffffffffffffffffffffffc36011261016b576020600154604051908152f35b503461016b5760207ffffffffffffffffffffffffffffffffffffffffffffffffffffffffffffffffc36011261016b5760043560015461029661028b61027d8361055d565b61028561045a565b906105bc565b60011c831015610818565b15610325576102f9906102b86102b36102ad61045a565b836105ed565b600155565b6102f36102da60005473ffffffffffffffffffffffffffffffffffffffff1690565b73ffffffffffffffffffffffffffffffffffffffff1690565b336108a3565b600080547fffffffffffffffffffffffff00000000000000000000000000000000000000001633179055005b6102b361033a9161033461045a565b906105ed565b6102f9565b503461016b5760007ffffffffffffffffffffffffffffffffffffffffffffffffffffffffffffffffc36011261016b576020604051732791bca1f2de4661ed88a30c99a7a9449aa841748152f35b507f4e487b7100000000000000000000000000000000000000000000000000000000600052604160045260246000fd5b60a0810190811067ffffffffffffffff8211176103d957604052565b6103e161038d565b604052565b6040810190811067ffffffffffffffff8211176103d957604052565b90601f7fffffffffffffffffffffffffffffffffffffffffffffffffffffffffffffffe0910116810190811067ffffffffffffffff8211176103d957604052565b519069ffffffffffffffffffff8216820361016b57565b6040517ffeaf968c00000000000000000000000000000000000000000000000000000000815260a08160048173ab594600376ec9fd91f8e885dadf0ce036862de05afa9081156104f8576000916104af575090565b9060a0823d82116104f0575b816104c860a09383610402565b8101031261011557506104da81610443565b506104ec608060208301519201610443565b5090565b3d91506104bb565b6040513d6000823e3d90fd5b60a073ffffffffffffffffffffffffffffffffffffffff916004604051809481937ffeaf968c000000000000000000000000000000000000000000000000000000008352165afa9081156104f8576000916104af575090565b7f5555555555555555555555555555555555555555555555555555555555555555811160011661058d5760030290565b7f4e487b7100000000000000000000000000000000000000000000000000000000600052601160045260246000fd5b807fffffffffffffffffffffffffffffffffffffffffffffffffffffffffffffffff0482118115151661058d570290565b81156105f7570490565b7f4e487b7100000000000000000000000000000000000000000000000000000000600052601260045260246000fd5b3d1561068d573d9067ffffffffffffffff8211610680575b6040519161067460207fffffffffffffffffffffffffffffffffffffffffffffffffffffffffffffffe0601f8401160184610402565b82523d6000602084013e565b61068861038d565b61063e565b606090565b1561069957565b60646040517f08c379a000000000000000000000000000000000000000000000000000000000815260206004820152601460248201527f4661696c656420746f2073656e642045746865720000000000000000000000006044820152fd5b6001546107038161055d565b60011c341061079457156107865761071a34600155565b610758600080806107426102da825473ffffffffffffffffffffffffffffffffffffffff1690565b6040519034905af1610752610626565b50610692565b600080547fffffffffffffffffffffffff00000000000000000000000000000000000000001633179055565b565b61078f34600155565b610758565b60846040517f08c379a000000000000000000000000000000000000000000000000000000000815260206004820152602360248201527f596f75277265206e6f74206465706f736974696e6720656e6f7567682065746860448201527f65722100000000000000000000000000000000000000000000000000000000006064820152fd5b1561081f57565b60846040517f08c379a000000000000000000000000000000000000000000000000000000000815260206004820152602260248201527f596f75277265206e6f74206465706f736974696e6720656e6f7567682055534460448201527f43210000000000000000000000000000000000000000000000000000000000006064820152fd5b60008091610978946040519160208301957f23b872dd00000000000000000000000000000000000000000000000000000000875273ffffffffffffffffffffffffffffffffffffffff809216602485015216604483015260648201526064815261090c816103bd565b60405193610919856103e6565b602085527f5361666545524332303a206c6f772d6c6576656c2063616c6c206661696c6564602086015282732791bca1f2de4661ed88a30c99a7a9449aa8417492610966843b1515610a40565b51925af1610972610626565b90610aa5565b805180610983575050565b8160208061099893610784950101910161099d565b6109b5565b9081602091031261016b5751801515810361016b5790565b156109bc57565b60846040517f08c379a000000000000000000000000000000000000000000000000000000000815260206004820152602a60248201527f5361666545524332303a204552433230206f7065726174696f6e20646964206e60448201527f6f742073756363656564000000000000000000000000000000000000000000006064820152fd5b15610a4757565b60646040517f08c379a000000000000000000000000000000000000000000000000000000000815260206004820152601d60248201527f416464726573733a2063616c6c20746f206e6f6e2d636f6e74726163740000006044820152fd5b90919015610ab1575090565b815115610ac15750805190602001fd5b604051907f08c379a00000000000000000000000000000000000000000000000000000000082528160208060048301528251928360248401526000915b848310610b4b575050601f836044947fffffffffffffffffffffffffffffffffffffffffffffffffffffffffffffffe09311610b3e575b01168101030190fd5b6000858286010152610b35565b8183018101518684016044015285935091820191610afe56fea2646970667358221220b3f35927e3c351180a4ed9792af32d234ba95f569daf3ce7d92720ffb430668964736f6c634300080d0033","opcodes":"PUSH1 0x80 DUP1 PUSH1 0x40 MSTORE CALLVALUE PUSH2 0x16 JUMPI PUSH2 0xB9A SWAP1 DUP2 PUSH2 0x1C DUP3 CODECOPY RETURN JUMPDEST PUSH1 0x0 DUP1 REVERT INVALID PUSH1 0x80 PUSH1 0x40 MSTORE PUSH1 0x4 CALLDATASIZE LT ISZERO PUSH2 0x23 JUMPI JUMPDEST CALLDATASIZE ISZERO PUSH2 0x19 JUMPI PUSH1 0x0 DUP1 REVERT JUMPDEST PUSH2 0x21 PUSH2 0x6F7 JUMP JUMPDEST STOP JUMPDEST PUSH1 0x0 DUP1 CALLDATALOAD PUSH1 0xE0 SHR SWAP1 DUP2 PUSH4 0x16345F18 EQ PUSH2 0xB2 JUMPI POP DUP1 PUSH4 0x29CC6D6F EQ PUSH2 0xA9 JUMPI DUP1 PUSH4 0x6E4A17D3 EQ PUSH2 0xA0 JUMPI DUP1 PUSH4 0x8DB9F39A EQ PUSH2 0x97 JUMPI DUP1 PUSH4 0x9144C254 EQ PUSH2 0x8E JUMPI DUP1 PUSH4 0xB6B55F25 EQ PUSH2 0x85 JUMPI PUSH4 0xBB09D9B7 SUB PUSH2 0xE JUMPI PUSH2 0x80 PUSH2 0x33F JUMP JUMPDEST PUSH2 0xE JUMP JUMPDEST POP PUSH2 0x80 PUSH2 0x238 JUMP JUMPDEST POP PUSH2 0x80 PUSH2 0x1FB JUMP JUMPDEST POP PUSH2 0x80 PUSH2 0x1AD JUMP JUMPDEST POP PUSH2 0x80 PUSH2 0x170 JUMP JUMPDEST POP PUSH2 0x80 PUSH2 0x118 JUMP JUMPDEST CALLVALUE PUSH2 0x115 JUMPI PUSH1 0x20 PUSH32 0xFFFFFFFFFFFFFFFFFFFFFFFFFFFFFFFFFFFFFFFFFFFFFFFFFFFFFFFFFFFFFFFC CALLDATASIZE ADD SLT PUSH2 0x115 JUMPI PUSH1 0x4 CALLDATALOAD SWAP1 PUSH20 0xFFFFFFFFFFFFFFFFFFFFFFFFFFFFFFFFFFFFFFFF DUP3 AND DUP3 SUB PUSH2 0x115 JUMPI PUSH1 0x20 PUSH2 0x10D DUP4 PUSH2 0x504 JUMP JUMPDEST PUSH1 0x40 MLOAD SWAP1 DUP2 MSTORE RETURN JUMPDEST DUP1 REVERT JUMPDEST POP CALLVALUE PUSH2 0x16B JUMPI PUSH1 0x0 PUSH32 0xFFFFFFFFFFFFFFFFFFFFFFFFFFFFFFFFFFFFFFFFFFFFFFFFFFFFFFFFFFFFFFFC CALLDATASIZE ADD SLT PUSH2 0x16B JUMPI PUSH1 0x20 PUSH20 0xFFFFFFFFFFFFFFFFFFFFFFFFFFFFFFFFFFFFFFFF PUSH1 0x0 SLOAD AND PUSH1 0x40 MLOAD SWAP1 DUP2 MSTORE RETURN JUMPDEST PUSH1 0x0 DUP1 REVERT JUMPDEST POP CALLVALUE PUSH2 0x16B JUMPI PUSH1 0x0 PUSH32 0xFFFFFFFFFFFFFFFFFFFFFFFFFFFFFFFFFFFFFFFFFFFFFFFFFFFFFFFFFFFFFFFC CALLDATASIZE ADD SLT PUSH2 0x16B JUMPI PUSH1 0x20 PUSH1 0x2 SLOAD PUSH1 0x40 MLOAD SWAP1 DUP2 MSTORE RETURN JUMPDEST POP CALLVALUE PUSH2 0x16B JUMPI PUSH1 0x0 PUSH32 0xFFFFFFFFFFFFFFFFFFFFFFFFFFFFFFFFFFFFFFFFFFFFFFFFFFFFFFFFFFFFFFFC CALLDATASIZE ADD SLT PUSH2 0x16B JUMPI PUSH1 0x20 PUSH1 0x40 MLOAD PUSH20 0xAB594600376EC9FD91F8E885DADF0CE036862DE0 DUP2 MSTORE RETURN JUMPDEST POP CALLVALUE PUSH2 0x16B JUMPI PUSH1 0x0 PUSH32 0xFFFFFFFFFFFFFFFFFFFFFFFFFFFFFFFFFFFFFFFFFFFFFFFFFFFFFFFFFFFFFFFC CALLDATASIZE ADD SLT PUSH2 0x16B JUMPI PUSH1 0x20 PUSH1 0x1 SLOAD PUSH1 0x40 MLOAD SWAP1 DUP2 MSTORE RETURN JUMPDEST POP CALLVALUE PUSH2 0x16B JUMPI PUSH1 0x20 PUSH32 0xFFFFFFFFFFFFFFFFFFFFFFFFFFFFFFFFFFFFFFFFFFFFFFFFFFFFFFFFFFFFFFFC CALLDATASIZE ADD SLT PUSH2 0x16B JUMPI PUSH1 0x4 CALLDATALOAD PUSH1 0x1 SLOAD PUSH2 0x296 PUSH2 0x28B PUSH2 0x27D DUP4 PUSH2 0x55D JUMP JUMPDEST PUSH2 0x285 PUSH2 0x45A JUMP JUMPDEST SWAP1 PUSH2 0x5BC JUMP JUMPDEST PUSH1 0x1 SHR DUP4 LT ISZERO PUSH2 0x818 JUMP JUMPDEST ISZERO PUSH2 0x325 JUMPI PUSH2 0x2F9 SWAP1 PUSH2 0x2B8 PUSH2 0x2B3 PUSH2 0x2AD PUSH2 0x45A JUMP JUMPDEST DUP4 PUSH2 0x5ED JUMP JUMPDEST PUSH1 0x1 SSTORE JUMP JUMPDEST PUSH2 0x2F3 PUSH2 0x2DA PUSH1 0x0 SLOAD PUSH20 0xFFFFFFFFFFFFFFFFFFFFFFFFFFFFFFFFFFFFFFFF AND SWAP1 JUMP JUMPDEST PUSH20 0xFFFFFFFFFFFFFFFFFFFFFFFFFFFFFFFFFFFFFFFF AND SWAP1 JUMP JUMPDEST CALLER PUSH2 0x8A3 JUMP JUMPDEST PUSH1 0x0 DUP1 SLOAD PUSH32 0xFFFFFFFFFFFFFFFFFFFFFFFF0000000000000000000000000000000000000000 AND CALLER OR SWAP1 SSTORE STOP JUMPDEST PUSH2 0x2B3 PUSH2 0x33A SWAP2 PUSH2 0x334 PUSH2 0x45A JUMP JUMPDEST SWAP1 PUSH2 0x5ED JUMP JUMPDEST PUSH2 0x2F9 JUMP JUMPDEST POP CALLVALUE PUSH2 0x16B JUMPI PUSH1 0x0 PUSH32 0xFFFFFFFFFFFFFFFFFFFFFFFFFFFFFFFFFFFFFFFFFFFFFFFFFFFFFFFFFFFFFFFC CALLDATASIZE ADD SLT PUSH2 0x16B JUMPI PUSH1 0x20 PUSH1 0x40 MLOAD PUSH20 0x2791BCA1F2DE4661ED88A30C99A7A9449AA84174 DUP2 MSTORE RETURN JUMPDEST POP PUSH32 0x4E487B7100000000000000000000000000000000000000000000000000000000 PUSH1 0x0 MSTORE PUSH1 0x41 PUSH1 0x4 MSTORE PUSH1 0x24 PUSH1 0x0 REVERT JUMPDEST PUSH1 0xA0 DUP2 ADD SWAP1 DUP2 LT PUSH8 0xFFFFFFFFFFFFFFFF DUP3 GT OR PUSH2 0x3D9 JUMPI PUSH1 0x40 MSTORE JUMP JUMPDEST PUSH2 0x3E1 PUSH2 0x38D JUMP JUMPDEST PUSH1 0x40 MSTORE JUMP JUMPDEST PUSH1 0x40 DUP2 ADD SWAP1 DUP2 LT PUSH8 0xFFFFFFFFFFFFFFFF DUP3 GT OR PUSH2 0x3D9 JUMPI PUSH1 0x40 MSTORE JUMP JUMPDEST SWAP1 PUSH1 0x1F PUSH32 0xFFFFFFFFFFFFFFFFFFFFFFFFFFFFFFFFFFFFFFFFFFFFFFFFFFFFFFFFFFFFFFE0 SWAP2 ADD AND DUP2 ADD SWAP1 DUP2 LT PUSH8 0xFFFFFFFFFFFFFFFF DUP3 GT OR PUSH2 0x3D9 JUMPI PUSH1 0x40 MSTORE JUMP JUMPDEST MLOAD SWAP1 PUSH10 0xFFFFFFFFFFFFFFFFFFFF DUP3 AND DUP3 SUB PUSH2 0x16B JUMPI JUMP JUMPDEST PUSH1 0x40 MLOAD PUSH32 0xFEAF968C00000000000000000000000000000000000000000000000000000000 DUP2 MSTORE PUSH1 0xA0 DUP2 PUSH1 0x4 DUP2 PUSH20 0xAB594600376EC9FD91F8E885DADF0CE036862DE0 GAS STATICCALL SWAP1 DUP2 ISZERO PUSH2 0x4F8 JUMPI PUSH1 0x0 SWAP2 PUSH2 0x4AF JUMPI POP SWAP1 JUMP JUMPDEST SWAP1 PUSH1 0xA0 DUP3 RETURNDATASIZE DUP3 GT PUSH2 0x4F0 JUMPI JUMPDEST DUP2 PUSH2 0x4C8 PUSH1 0xA0 SWAP4 DUP4 PUSH2 0x402 JUMP JUMPDEST DUP2 ADD SUB SLT PUSH2 0x115 JUMPI POP PUSH2 0x4DA DUP2 PUSH2 0x443 JUMP JUMPDEST POP PUSH2 0x4EC PUSH1 0x80 PUSH1 0x20 DUP4 ADD MLOAD SWAP3 ADD PUSH2 0x443 JUMP JUMPDEST POP SWAP1 JUMP JUMPDEST RETURNDATASIZE SWAP2 POP PUSH2 0x4BB JUMP JUMPDEST PUSH1 0x40 MLOAD RETURNDATASIZE PUSH1 0x0 DUP3 RETURNDATACOPY RETURNDATASIZE SWAP1 REVERT JUMPDEST PUSH1 0xA0 PUSH20 0xFFFFFFFFFFFFFFFFFFFFFFFFFFFFFFFFFFFFFFFF SWAP2 PUSH1 0x4 PUSH1 0x40 MLOAD DUP1 SWAP5 DUP2 SWAP4 PUSH32 0xFEAF968C00000000000000000000000000000000000000000000000000000000 DUP4 MSTORE AND GAS STATICCALL SWAP1 DUP2 ISZERO PUSH2 0x4F8 JUMPI PUSH1 0x0 SWAP2 PUSH2 0x4AF JUMPI POP SWAP1 JUMP JUMPDEST PUSH32 0x5555555555555555555555555555555555555555555555555555555555555555 DUP2 GT PUSH1 0x1 AND PUSH2 0x58D JUMPI PUSH1 0x3 MUL SWAP1 JUMP JUMPDEST PUSH32 0x4E487B7100000000000000000000000000000000000000000000000000000000 PUSH1 0x0 MSTORE PUSH1 0x11 PUSH1 0x4 MSTORE PUSH1 0x24 PUSH1 0x0 REVERT JUMPDEST DUP1 PUSH32 0xFFFFFFFFFFFFFFFFFFFFFFFFFFFFFFFFFFFFFFFFFFFFFFFFFFFFFFFFFFFFFFFF DIV DUP3 GT DUP2 ISZERO ISZERO AND PUSH2 0x58D JUMPI MUL SWAP1 JUMP JUMPDEST DUP2 ISZERO PUSH2 0x5F7 JUMPI DIV SWAP1 JUMP JUMPDEST PUSH32 0x4E487B7100000000000000000000000000000000000000000000000000000000 PUSH1 0x0 MSTORE PUSH1 0x12 PUSH1 0x4 MSTORE PUSH1 0x24 PUSH1 0x0 REVERT JUMPDEST RETURNDATASIZE ISZERO PUSH2 0x68D JUMPI RETURNDATASIZE SWAP1 PUSH8 0xFFFFFFFFFFFFFFFF DUP3 GT PUSH2 0x680 JUMPI JUMPDEST PUSH1 0x40 MLOAD SWAP2 PUSH2 0x674 PUSH1 0x20 PUSH32 0xFFFFFFFFFFFFFFFFFFFFFFFFFFFFFFFFFFFFFFFFFFFFFFFFFFFFFFFFFFFFFFE0 PUSH1 0x1F DUP5 ADD AND ADD DUP5 PUSH2 0x402 JUMP JUMPDEST DUP3 MSTORE RETURNDATASIZE PUSH1 0x0 PUSH1 0x20 DUP5 ADD RETURNDATACOPY JUMP JUMPDEST PUSH2 0x688 PUSH2 0x38D JUMP JUMPDEST PUSH2 0x63E JUMP JUMPDEST PUSH1 0x60 SWAP1 JUMP JUMPDEST ISZERO PUSH2 0x699 JUMPI JUMP JUMPDEST PUSH1 0x64 PUSH1 0x40 MLOAD PUSH32 0x8C379A000000000000000000000000000000000000000000000000000000000 DUP2 MSTORE PUSH1 0x20 PUSH1 0x4 DUP3 ADD MSTORE PUSH1 0x14 PUSH1 0x24 DUP3 ADD MSTORE PUSH32 0x4661696C656420746F2073656E64204574686572000000000000000000000000 PUSH1 0x44 DUP3 ADD MSTORE REVERT JUMPDEST PUSH1 0x1 SLOAD PUSH2 0x703 DUP2 PUSH2 0x55D JUMP JUMPDEST PUSH1 0x1 SHR CALLVALUE LT PUSH2 0x794 JUMPI ISZERO PUSH2 0x786 JUMPI PUSH2 0x71A CALLVALUE PUSH1 0x1 SSTORE JUMP JUMPDEST PUSH2 0x758 PUSH1 0x0 DUP1 DUP1 PUSH2 0x742 PUSH2 0x2DA DUP3 SLOAD PUSH20 0xFFFFFFFFFFFFFFFFFFFFFFFFFFFFFFFFFFFFFFFF AND SWAP1 JUMP JUMPDEST PUSH1 0x40 MLOAD SWAP1 CALLVALUE SWAP1 GAS CALL PUSH2 0x752 PUSH2 0x626 JUMP JUMPDEST POP PUSH2 0x692 JUMP JUMPDEST PUSH1 0x0 DUP1 SLOAD PUSH32 0xFFFFFFFFFFFFFFFFFFFFFFFF0000000000000000000000000000000000000000 AND CALLER OR SWAP1 SSTORE JUMP JUMPDEST JUMP JUMPDEST PUSH2 0x78F CALLVALUE PUSH1 0x1 SSTORE JUMP JUMPDEST PUSH2 0x758 JUMP JUMPDEST PUSH1 0x84 PUSH1 0x40 MLOAD PUSH32 0x8C379A000000000000000000000000000000000000000000000000000000000 DUP2 MSTORE PUSH1 0x20 PUSH1 0x4 DUP3 ADD MSTORE PUSH1 0x23 PUSH1 0x24 DUP3 ADD MSTORE PUSH32 0x596F75277265206E6F74206465706F736974696E6720656E6F75676820657468 PUSH1 0x44 DUP3 ADD MSTORE PUSH32 0x6572210000000000000000000000000000000000000000000000000000000000 PUSH1 0x64 DUP3 ADD MSTORE REVERT JUMPDEST ISZERO PUSH2 0x81F JUMPI JUMP JUMPDEST PUSH1 0x84 PUSH1 0x40 MLOAD PUSH32 0x8C379A000000000000000000000000000000000000000000000000000000000 DUP2 MSTORE PUSH1 0x20 PUSH1 0x4 DUP3 ADD MSTORE PUSH1 0x22 PUSH1 0x24 DUP3 ADD MSTORE PUSH32 0x596F75277265206E6F74206465706F736974696E6720656E6F75676820555344 PUSH1 0x44 DUP3 ADD MSTORE PUSH32 0x4321000000000000000000000000000000000000000000000000000000000000 PUSH1 0x64 DUP3 ADD MSTORE REVERT JUMPDEST PUSH1 0x0 DUP1 SWAP2 PUSH2 0x978 SWAP5 PUSH1 0x40 MLOAD SWAP2 PUSH1 0x20 DUP4 ADD SWAP6 PUSH32 0x23B872DD00000000000000000000000000000000000000000000000000000000 DUP8 MSTORE PUSH20 0xFFFFFFFFFFFFFFFFFFFFFFFFFFFFFFFFFFFFFFFF DUP1 SWAP3 AND PUSH1 0x24 DUP6 ADD MSTORE AND PUSH1 0x44 DUP4 ADD MSTORE PUSH1 0x64 DUP3 ADD MSTORE PUSH1 0x64 DUP2 MSTORE PUSH2 0x90C DUP2 PUSH2 0x3BD JUMP JUMPDEST PUSH1 0x40 MLOAD SWAP4 PUSH2 0x919 DUP6 PUSH2 0x3E6 JUMP JUMPDEST PUSH1 0x20 DUP6 MSTORE PUSH32 0x5361666545524332303A206C6F772D6C6576656C2063616C6C206661696C6564 PUSH1 0x20 DUP7 ADD MSTORE DUP3 PUSH20 0x2791BCA1F2DE4661ED88A30C99A7A9449AA84174 SWAP3 PUSH2 0x966 DUP5 EXTCODESIZE ISZERO ISZERO PUSH2 0xA40 JUMP JUMPDEST MLOAD SWAP3 GAS CALL PUSH2 0x972 PUSH2 0x626 JUMP JUMPDEST SWAP1 PUSH2 0xAA5 JUMP JUMPDEST DUP1 MLOAD DUP1 PUSH2 0x983 JUMPI POP POP JUMP JUMPDEST DUP2 PUSH1 0x20 DUP1 PUSH2 0x998 SWAP4 PUSH2 0x784 SWAP6 ADD ADD SWAP2 ADD PUSH2 0x99D JUMP JUMPDEST PUSH2 0x9B5 JUMP JUMPDEST SWAP1 DUP2 PUSH1 0x20 SWAP2 SUB SLT PUSH2 0x16B JUMPI MLOAD DUP1 ISZERO ISZERO DUP2 SUB PUSH2 0x16B JUMPI SWAP1 JUMP JUMPDEST ISZERO PUSH2 0x9BC JUMPI JUMP JUMPDEST PUSH1 0x84 PUSH1 0x40 MLOAD PUSH32 0x8C379A000000000000000000000000000000000000000000000000000000000 DUP2 MSTORE PUSH1 0x20 PUSH1 0x4 DUP3 ADD MSTORE PUSH1 0x2A PUSH1 0x24 DUP3 ADD MSTORE PUSH32 0x5361666545524332303A204552433230206F7065726174696F6E20646964206E PUSH1 0x44 DUP3 ADD MSTORE PUSH32 0x6F74207375636365656400000000000000000000000000000000000000000000 PUSH1 0x64 DUP3 ADD MSTORE REVERT JUMPDEST ISZERO PUSH2 0xA47 JUMPI JUMP JUMPDEST PUSH1 0x64 PUSH1 0x40 MLOAD PUSH32 0x8C379A000000000000000000000000000000000000000000000000000000000 DUP2 MSTORE PUSH1 0x20 PUSH1 0x4 DUP3 ADD MSTORE PUSH1 0x1D PUSH1 0x24 DUP3 ADD MSTORE PUSH32 0x416464726573733A2063616C6C20746F206E6F6E2D636F6E7472616374000000 PUSH1 0x44 DUP3 ADD MSTORE REVERT JUMPDEST SWAP1 SWAP2 SWAP1 ISZERO PUSH2 0xAB1 JUMPI POP SWAP1 JUMP JUMPDEST DUP2 MLOAD ISZERO PUSH2 0xAC1 JUMPI POP DUP1 MLOAD SWAP1 PUSH1 0x20 ADD REVERT JUMPDEST PUSH1 0x40 MLOAD SWAP1 PUSH32 0x8C379A000000000000000000000000000000000000000000000000000000000 DUP3 MSTORE DUP2 PUSH1 0x20 DUP1 PUSH1 0x4 DUP4 ADD MSTORE DUP3 MLOAD SWAP3 DUP4 PUSH1 0x24 DUP5 ADD MSTORE PUSH1 0x0 SWAP2 JUMPDEST DUP5 DUP4 LT PUSH2 0xB4B JUMPI POP POP PUSH1 0x1F DUP4 PUSH1 0x44 SWAP5 PUSH32 0xFFFFFFFFFFFFFFFFFFFFFFFFFFFFFFFFFFFFFFFFFFFFFFFFFFFFFFFFFFFFFFE0 SWAP4 GT PUSH2 0xB3E JUMPI JUMPDEST ADD AND DUP2 ADD SUB ADD SWAP1 REVERT JUMPDEST PUSH1 0x0 DUP6 DUP3 DUP7 ADD ADD MSTORE PUSH2 0xB35 JUMP JUMPDEST DUP2 DUP4 ADD DUP2 ADD MLOAD DUP7 DUP5 ADD PUSH1 0x44 ADD MSTORE DUP6 SWAP4 POP SWAP2 DUP3 ADD SWAP2 PUSH2 0xAFE JUMP INVALID LOG2 PUSH5 0x6970667358 0x22 SLT KECCAK256 0xB3 RETURN MSIZE 0x27 0xE3 0xC3 MLOAD XOR EXP 0x4E 0xD9 PUSH26 0x2AF32D234BA95F569DAF3CE7D92720FFB430668964736F6C6343 STOP ADDMOD 0xD STOP CALLER "},"methodIdentifiers":{"MATIC_USD_ORACLE()":"8db9f39a","USDC_ADDRESS()":"bb09d9b7","_king()":"29cc6d6f","deposit(uint256)":"b6b55f25","getLatestPrice(address)":"16345f18","previous_maximum()":"9144c254","previous_usdc_maximum()":"6e4a17d3"}}}}}