{"contracts/King.sol":{"King":{"abi":[{"inputs":[],"name":"USDC_ADDRESS","outputs":[{"internalType":"address","name":"","type":"address"}],"stateMutability":"view","type":"function"},{"inputs":[],"name":"_king","outputs":[{"internalType":"address payable","name":"","type":"address"}],"stateMutability":"view","type":"function"},{"inputs":[{"internalType":"uint256","name":"deposit_amount","type":"uint256"}],"name":"deposit","outputs":[],"stateMutability":"nonpayable","type":"function"},{"inputs":[],"name":"previous_maximum","outputs":[{"internalType":"uint256","name":"","type":"uint256"}],"stateMutability":"view","type":"function"},{"inputs":[],"name":"previous_usdc_maximum","outputs":[{"internalType":"uint256","name":"","type":"uint256"}],"stateMutability":"view","type":"function"},{"stateMutability":"payable","type":"receive"}],"evm":{"bytecode":{"linkReferences":{},"object":"60808060405234610016576104cc908161001c8239f35b600080fdfe6080806040526004361015610025575b50361561001b57600080fd5b61002361037b565b005b6000803560e01c91826329cc6d6f1461009457505080636e4a17d31461008b5780639144c25414610082578063b6b55f25146100795763bb09d9b71461006c575b3861000f565b61007461025c565b610066565b50610074610163565b50610074610126565b506100746100e4565b346100e057817ffffffffffffffffffffffffffffffffffffffffffffffffffffffffffffffffc3601126100e05773ffffffffffffffffffffffffffffffffffffffff60209254168152f35b5080fd5b50346101215760007ffffffffffffffffffffffffffffffffffffffffffffffffffffffffffffffffc360112610121576020600254604051908152f35b600080fd5b50346101215760007ffffffffffffffffffffffffffffffffffffffffffffffffffffffffffffffffc360112610121576020600154604051908152f35b50346101215760207ffffffffffffffffffffffffffffffffffffffffffffffffffffffffffffffffc3601126101215761020060206004356101ba6101b26101ac6002546102aa565b60011c90565b821015610309565b6040517f23b872dd000000000000000000000000000000000000000000000000000000008152336004820152306024820152604481019190915291829081906064820190565b03816000732791bca1f2de4661ed88a30c99a7a9449aa841745af1801561024f575b61022857005b6100239060203d8111610248575b610240818361040e565b81019061047e565b503d610236565b61025761036e565b610222565b50346101215760007ffffffffffffffffffffffffffffffffffffffffffffffffffffffffffffffffc360112610121576020604051732791bca1f2de4661ed88a30c99a7a9449aa841748152f35b7f555555555555555555555555555555555555555555555555555555555555555581116001166102da5760030290565b7f4e487b7100000000000000000000000000000000000000000000000000000000600052601160045260246000fd5b1561031057565b60646040517f08c379a000000000000000000000000000000000000000000000000000000000815260206004820152601c60248201527f596f7520646f6e2774206861766520656e6f75676820657468657221000000006044820152fd5b506040513d6000823e3d90fd5b60015461039561038a826102aa565b60011c341015610309565b6103ca575b337fffffffffffffffffffffffff0000000000000000000000000000000000000000600054161760005534600155565b600080808073ffffffffffffffffffffffffffffffffffffffff81541681903415610404575b3491f161039a576103ff61036e565b61039a565b6108fc91506103f0565b90601f7fffffffffffffffffffffffffffffffffffffffffffffffffffffffffffffffe0910116810190811067ffffffffffffffff82111761044f57604052565b7f4e487b7100000000000000000000000000000000000000000000000000000000600052604160045260246000fd5b9081602091031261012157518015158103610121579056fea26469706673582212208f2de8e5c49018cdb945cd32d66521732233df3e2e76c64dbec9e99d83d1f1c964736f6c634300080d0033","opcodes":"PUSH1 0x80 DUP1 PUSH1 0x40 MSTORE CALLVALUE PUSH2 0x16 JUMPI PUSH2 0x4CC SWAP1 DUP2 PUSH2 0x1C DUP3 CODECOPY RETURN JUMPDEST PUSH1 0x0 DUP1 REVERT INVALID PUSH1 0x80 DUP1 PUSH1 0x40 MSTORE PUSH1 0x4 CALLDATASIZE LT ISZERO PUSH2 0x25 JUMPI JUMPDEST POP CALLDATASIZE ISZERO PUSH2 0x1B JUMPI PUSH1 0x0 DUP1 REVERT JUMPDEST PUSH2 0x23 PUSH2 0x37B JUMP JUMPDEST STOP JUMPDEST PUSH1 0x0 DUP1 CALLDATALOAD PUSH1 0xE0 SHR SWAP2 DUP3 PUSH4 0x29CC6D6F EQ PUSH2 0x94 JUMPI POP POP DUP1 PUSH4 0x6E4A17D3 EQ PUSH2 0x8B JUMPI DUP1 PUSH4 0x9144C254 EQ PUSH2 0x82 JUMPI DUP1 PUSH4 0xB6B55F25 EQ PUSH2 0x79 JUMPI PUSH4 0xBB09D9B7 EQ PUSH2 0x6C JUMPI JUMPDEST CODESIZE PUSH2 0xF JUMP JUMPDEST PUSH2 0x74 PUSH2 0x25C JUMP JUMPDEST PUSH2 0x66 JUMP JUMPDEST POP PUSH2 0x74 PUSH2 0x163 JUMP JUMPDEST POP PUSH2 0x74 PUSH2 0x126 JUMP JUMPDEST POP PUSH2 0x74 PUSH2 0xE4 JUMP JUMPDEST CALLVALUE PUSH2 0xE0 JUMPI DUP2 PUSH32 0xFFFFFFFFFFFFFFFFFFFFFFFFFFFFFFFFFFFFFFFFFFFFFFFFFFFFFFFFFFFFFFFC CALLDATASIZE ADD SLT PUSH2 0xE0 JUMPI PUSH20 0xFFFFFFFFFFFFFFFFFFFFFFFFFFFFFFFFFFFFFFFF PUSH1 0x20 SWAP3 SLOAD AND DUP2 MSTORE RETURN JUMPDEST POP DUP1 REVERT JUMPDEST POP CALLVALUE PUSH2 0x121 JUMPI PUSH1 0x0 PUSH32 0xFFFFFFFFFFFFFFFFFFFFFFFFFFFFFFFFFFFFFFFFFFFFFFFFFFFFFFFFFFFFFFFC CALLDATASIZE ADD SLT PUSH2 0x121 JUMPI PUSH1 0x20 PUSH1 0x2 SLOAD PUSH1 0x40 MLOAD SWAP1 DUP2 MSTORE RETURN JUMPDEST PUSH1 0x0 DUP1 REVERT JUMPDEST POP CALLVALUE PUSH2 0x121 JUMPI PUSH1 0x0 PUSH32 0xFFFFFFFFFFFFFFFFFFFFFFFFFFFFFFFFFFFFFFFFFFFFFFFFFFFFFFFFFFFFFFFC CALLDATASIZE ADD SLT PUSH2 0x121 JUMPI PUSH1 0x20 PUSH1 0x1 SLOAD PUSH1 0x40 MLOAD SWAP1 DUP2 MSTORE RETURN JUMPDEST POP CALLVALUE PUSH2 0x121 JUMPI PUSH1 0x20 PUSH32 0xFFFFFFFFFFFFFFFFFFFFFFFFFFFFFFFFFFFFFFFFFFFFFFFFFFFFFFFFFFFFFFFC CALLDATASIZE ADD SLT PUSH2 0x121 JUMPI PUSH2 0x200 PUSH1 0x20 PUSH1 0x4 CALLDATALOAD PUSH2 0x1BA PUSH2 0x1B2 PUSH2 0x1AC PUSH1 0x2 SLOAD PUSH2 0x2AA JUMP JUMPDEST PUSH1 0x1 SHR SWAP1 JUMP JUMPDEST DUP3 LT ISZERO PUSH2 0x309 JUMP JUMPDEST PUSH1 0x40 MLOAD PUSH32 0x23B872DD00000000000000000000000000000000000000000000000000000000 DUP2 MSTORE CALLER PUSH1 0x4 DUP3 ADD MSTORE ADDRESS PUSH1 0x24 DUP3 ADD MSTORE PUSH1 0x44 DUP2 ADD SWAP2 SWAP1 SWAP2 MSTORE SWAP2 DUP3 SWAP1 DUP2 SWAP1 PUSH1 0x64 DUP3 ADD SWAP1 JUMP JUMPDEST SUB DUP2 PUSH1 0x0 PUSH20 0x2791BCA1F2DE4661ED88A30C99A7A9449AA84174 GAS CALL DUP1 ISZERO PUSH2 0x24F JUMPI JUMPDEST PUSH2 0x228 JUMPI STOP JUMPDEST PUSH2 0x23 SWAP1 PUSH1 0x20 RETURNDATASIZE DUP2 GT PUSH2 0x248 JUMPI JUMPDEST PUSH2 0x240 DUP2 DUP4 PUSH2 0x40E JUMP JUMPDEST DUP2 ADD SWAP1 PUSH2 0x47E JUMP JUMPDEST POP RETURNDATASIZE PUSH2 0x236 JUMP JUMPDEST PUSH2 0x257 PUSH2 0x36E JUMP JUMPDEST PUSH2 0x222 JUMP JUMPDEST POP CALLVALUE PUSH2 0x121 JUMPI PUSH1 0x0 PUSH32 0xFFFFFFFFFFFFFFFFFFFFFFFFFFFFFFFFFFFFFFFFFFFFFFFFFFFFFFFFFFFFFFFC CALLDATASIZE ADD SLT PUSH2 0x121 JUMPI PUSH1 0x20 PUSH1 0x40 MLOAD PUSH20 0x2791BCA1F2DE4661ED88A30C99A7A9449AA84174 DUP2 MSTORE RETURN JUMPDEST PUSH32 0x5555555555555555555555555555555555555555555555555555555555555555 DUP2 GT PUSH1 0x1 AND PUSH2 0x2DA JUMPI PUSH1 0x3 MUL SWAP1 JUMP JUMPDEST PUSH32 0x4E487B7100000000000000000000000000000000000000000000000000000000 PUSH1 0x0 MSTORE PUSH1 0x11 PUSH1 0x4 MSTORE PUSH1 0x24 PUSH1 0x0 REVERT JUMPDEST ISZERO PUSH2 0x310 JUMPI JUMP JUMPDEST PUSH1 0x64 PUSH1 0x40 MLOAD PUSH32 0x8C379A000000000000000000000000000000000000000000000000000000000 DUP2 MSTORE PUSH1 0x20 PUSH1 0x4 DUP3 ADD MSTORE PUSH1 0x1C PUSH1 0x24 DUP3 ADD MSTORE PUSH32 0x596F7520646F6E2774206861766520656E6F7567682065746865722100000000 PUSH1 0x44 DUP3 ADD MSTORE REVERT JUMPDEST POP PUSH1 0x40 MLOAD RETURNDATASIZE PUSH1 0x0 DUP3 RETURNDATACOPY RETURNDATASIZE SWAP1 REVERT JUMPDEST PUSH1 0x1 SLOAD PUSH2 0x395 PUSH2 0x38A DUP3 PUSH2 0x2AA JUMP JUMPDEST PUSH1 0x1 SHR CALLVALUE LT ISZERO PUSH2 0x309 JUMP JUMPDEST PUSH2 0x3CA JUMPI JUMPDEST CALLER PUSH32 0xFFFFFFFFFFFFFFFFFFFFFFFF0000000000000000000000000000000000000000 PUSH1 0x0 SLOAD AND OR PUSH1 0x0 SSTORE CALLVALUE PUSH1 0x1 SSTORE JUMP JUMPDEST PUSH1 0x0 DUP1 DUP1 DUP1 PUSH20 0xFFFFFFFFFFFFFFFFFFFFFFFFFFFFFFFFFFFFFFFF DUP2 SLOAD AND DUP2 SWAP1 CALLVALUE ISZERO PUSH2 0x404 JUMPI JUMPDEST CALLVALUE SWAP2 CALL PUSH2 0x39A JUMPI PUSH2 0x3FF PUSH2 0x36E JUMP JUMPDEST PUSH2 0x39A JUMP JUMPDEST PUSH2 0x8FC SWAP2 POP PUSH2 0x3F0 JUMP JUMPDEST SWAP1 PUSH1 0x1F PUSH32 0xFFFFFFFFFFFFFFFFFFFFFFFFFFFFFFFFFFFFFFFFFFFFFFFFFFFFFFFFFFFFFFE0 SWAP2 ADD AND DUP2 ADD SWAP1 DUP2 LT PUSH8 0xFFFFFFFFFFFFFFFF DUP3 GT OR PUSH2 0x44F JUMPI PUSH1 0x40 MSTORE JUMP JUMPDEST PUSH32 0x4E487B7100000000000000000000000000000000000000000000000000000000 PUSH1 0x0 MSTORE PUSH1 0x41 PUSH1 0x4 MSTORE PUSH1 0x24 PUSH1 0x0 REVERT JUMPDEST SWAP1 DUP2 PUSH1 0x20 SWAP2 SUB SLT PUSH2 0x121 JUMPI MLOAD DUP1 ISZERO ISZERO DUP2 SUB PUSH2 0x121 JUMPI SWAP1 JUMP INVALID LOG2 PUSH5 0x6970667358 0x22 SLT KECCAK256 DUP16 0x2D 0xE8 0xE5 0xC4 SWAP1 XOR 0xCD 0xB9 GASLIMIT 0xCD ORIGIN 0xD6 PUSH6 0x21732233DF3E 0x2E PUSH23 0xC64DBEC9E99D83D1F1C964736F6C634300080D00330000 "},"methodIdentifiers":{"USDC_ADDRESS()":"bb09d9b7","_king()":"29cc6d6f","deposit(uint256)":"b6b55f25","previous_maximum()":"9144c254","previous_usdc_maximum()":"6e4a17d3"}}}}}