{"contracts/King.sol":{"King":{"abi":[{"inputs":[],"name":"MATIC_USD_ORACLE","outputs":[{"internalType":"address","name":"","type":"address"}],"stateMutability":"view","type":"function"},{"inputs":[],"name":"USDC_ADDRESS","outputs":[{"internalType":"address","name":"","type":"address"}],"stateMutability":"view","type":"function"},{"inputs":[{"internalType":"uint256","name":"depositAmount","type":"uint256"}],"name":"deposit","outputs":[],"stateMutability":"nonpayable","type":"function"},{"inputs":[],"name":"getKing","outputs":[{"internalType":"address payable","name":"","type":"address"}],"stateMutability":"view","type":"function"},{"inputs":[{"internalType":"address","name":"oracleAddress","type":"address"}],"name":"getLatestPrice","outputs":[{"internalType":"int256","name":"","type":"int256"}],"stateMutability":"view","type":"function"},{"inputs":[],"name":"maximumPaid","outputs":[{"internalType":"uint256","name":"","type":"uint256"}],"stateMutability":"view","type":"function"},{"stateMutability":"payable","type":"receive"}],"evm":{"bytecode":{"linkReferences":{},"object":"6080604052341561000f57600080fd5b610c778061001f608039806080f3fe6040608081526004361061015d576000803560e01c6316345f18811461005b5763423cb99e811461008057637920d80481146100a057638db9f39a81146100d85763b6b55f2581146101095763bb09d9b781146101295761015a565b3415610065578182fd5b610076610071366101c4565b610819565b8351818152602081f35b341561008a578182fd5b61009336610191565b6001548351818152602081f35b34156100aa578182fd5b6100b336610191565b8154835173ffffffffffffffffffffffffffffffffffffffff90911680825290602081f35b34156100e2578182fd5b6100eb36610191565b825173ab594600376ec9fd91f8e885dadf0ce036862de08152602081f35b3415610113578182fd5b61012461011f3661024a565b61063a565b818351f35b3415610133578182fd5b61013c36610191565b8251732791bca1f2de4661ed88a30c99a7a9449aa841748152602081f35b50505b503661016d5761016b6104ff565b005b600080fd5b805169ffffffffffffffffffff8116811461018c57600080fd5b919050565b60007ffffffffffffffffffffffffffffffffffffffffffffffffffffffffffffffffc820112156101c157600080fd5b50565b600060207ffffffffffffffffffffffffffffffffffffffffffffffffffffffffffffffffc830112156101f657600080fd5b60043573ffffffffffffffffffffffffffffffffffffffff8116811461021b57600080fd5b92915050565b60006020828403121561023357600080fd5b8151801515811461024357600080fd5b9392505050565b600060207ffffffffffffffffffffffffffffffffffffffffffffffffffffffffffffffffc8301121561027c57600080fd5b505060043590565b6000826102ba577f4e487b7100000000000000000000000000000000000000000000000000000000600052601260045260246000fd5b500490565b60007f555555555555555555555555555555555555555555555555555555555555555582116001161561031b577f4e487b7100000000000000000000000000000000000000000000000000000000600052601160045260246000fd5b5060030290565b6000817fffffffffffffffffffffffffffffffffffffffffffffffffffffffffffffffff046064118215151615610382577f4e487b7100000000000000000000000000000000000000000000000000000000600052601160045260246000fd5b5060640290565b600068056bc75e2d63100000827fffffffffffffffffffffffffffffffffffffffffffffffffffffffffffffffff04811183151516156103f2577f4e487b7100000000000000000000000000000000000000000000000000000000600052601160045260246000fd5b91909102919050565b60003d8015610466573d67ffffffffffffffff81111561041d5761041d610a8c565b60405161045260207fffffffffffffffffffffffffffffffffffffffffffffffffffffffffffffffe0601f85011601826104b4565b8181528093503d6000602083013e50505090565b606091505090565b60a0810181811067ffffffffffffffff8211171561048e5761048e610a8c565b60405250565b6040810181811067ffffffffffffffff8211171561048e5761048e610a8c565b7fffffffffffffffffffffffffffffffffffffffffffffffffffffffffffffffe0601f830116810181811067ffffffffffffffff821117156104f8576104f8610a8c565b6040525050565b60015461050b816102bf565b60011c34101561059a576040517f08c379a000000000000000000000000000000000000000000000000000000000815260206004820152602360248201527f596f75277265206e6f74206465706f736974696e6720656e6f7567682065746860448201527f65722100000000000000000000000000000000000000000000000000000000006064820152608481fd5b8015801590610603576105ac34600155565b6105e76105ce60005473ffffffffffffffffffffffffffffffffffffffff1690565b73ffffffffffffffffffffffffffffffffffffffff1690565b600080600060405134855af150506105fd6103fb565b5061060c565b61060c34600155565b5050600080547fffffffffffffffffffffffff00000000000000000000000000000000000000001633179055565b600154610646816102bf565b61064e61076e565b817fffffffffffffffffffffffffffffffffffffffffffffffffffffffffffffffff04811182151516156106ab577f4e487b7100000000000000000000000000000000000000000000000000000000600052601160045260246000fd5b6106c768056bc75e2d631000008284020460011c851015610abb565b50508015801590610726576106db83610389565b6106f46106ef6106e961076e565b83610284565b600155565b506107218361071b6105ce60005473ffffffffffffffffffffffffffffffffffffffff1690565b336108c9565b61073f565b61072f83610322565b61073d6106ef6106e961076e565b505b5050600080547fffffffffffffffffffffffff0000000000000000000000000000000000000000163317905550565b600073ab594600376ec9fd91f8e885dadf0ce036862de0803b61079057600080fd5b6040517ffeaf968c00000000000000000000000000000000000000000000000000000000815260a081600483855afa9150816107d2576040513d6000823e3d81fd5b60008215610243576107e43d836104b4565b60a0823d84010312156107f5578081fd5b6107fe82610172565b50602082015161081060808401610172565b50949350505050565b600073ffffffffffffffffffffffffffffffffffffffff8216803b61083d57600080fd5b6040517ffeaf968c00000000000000000000000000000000000000000000000000000000815260a081600483855afa91508161087f576040513d6000823e3d81fd5b600082156108c1576108913d836104b4565b60a0823d84010312156108a2578081fd5b6108ab82610172565b5060208201516108bd60808401610172565b5090505b949350505050565b604051602081017f23b872dd00000000000000000000000000000000000000000000000000000000815273ffffffffffffffffffffffffffffffffffffffff80841660248401528085166044840152508460648301526064825261092c8261046e565b60405161093881610494565b602081527f5361666545524332303a206c6f772d6c6576656c2063616c6c206661696c65646020820152732791bca1f2de4661ed88a30c99a7a9449aa84174610983813b1515610b45565b6000808551856000855af19350506109a38161099d6103fb565b856109d0565b92505050805180156109c9576109c96109c460208385010160208501610221565b610ba9565b5050505050565b60608180156109e25783915050610243565b8351158015906109f457845185602001fd5b6040517f08c379a00000000000000000000000000000000000000000000000000000000081526020806004830152875180602484015260005b81811015610a4957898101830151848201604401528201610a2d565b81811115610a5b576000604483860101525b506044837fffffffffffffffffffffffffffffffffffffffffffffffffffffffffffffffe0601f8401168501030183fd5b7f4e487b7100000000000000000000000000000000000000000000000000000000600052604160045260246000fd5b806101c1576040517f08c379a000000000000000000000000000000000000000000000000000000000815260206004820152602260248201527f596f75277265206e6f74206465706f736974696e6720656e6f7567682055534460448201527f43210000000000000000000000000000000000000000000000000000000000006064820152608481fd5b806101c1576040517f08c379a000000000000000000000000000000000000000000000000000000000815260206004820152601d60248201527f416464726573733a2063616c6c20746f206e6f6e2d636f6e74726163740000006044820152606481fd5b806101c1576040517f08c379a000000000000000000000000000000000000000000000000000000000815260206004820152602a60248201527f5361666545524332303a204552433230206f7065726174696f6e20646964206e60448201527f6f742073756363656564000000000000000000000000000000000000000000006064820152608481fdfea3646970667358221220c2385f073f9653e4b551564452d74697efa0b601d53c7130f3e7f7149f81599e6c6578706572696d656e74616cf564736f6c63430008070041","opcodes":"PUSH1 0x80 PUSH1 0x40 MSTORE CALLVALUE ISZERO PUSH2 0xF JUMPI PUSH1 0x0 DUP1 REVERT JUMPDEST PUSH2 0xC77 DUP1 PUSH2 0x1F PUSH1 0x80 CODECOPY DUP1 PUSH1 0x80 RETURN INVALID PUSH1 0x40 PUSH1 0x80 DUP2 MSTORE PUSH1 0x4 CALLDATASIZE LT PUSH2 0x15D JUMPI PUSH1 0x0 DUP1 CALLDATALOAD PUSH1 0xE0 SHR PUSH4 0x16345F18 DUP2 EQ PUSH2 0x5B JUMPI PUSH4 0x423CB99E DUP2 EQ PUSH2 0x80 JUMPI PUSH4 0x7920D804 DUP2 EQ PUSH2 0xA0 JUMPI PUSH4 0x8DB9F39A DUP2 EQ PUSH2 0xD8 JUMPI PUSH4 0xB6B55F25 DUP2 EQ PUSH2 0x109 JUMPI PUSH4 0xBB09D9B7 DUP2 EQ PUSH2 0x129 JUMPI PUSH2 0x15A JUMP JUMPDEST CALLVALUE ISZERO PUSH2 0x65 JUMPI DUP2 DUP3 REVERT JUMPDEST PUSH2 0x76 PUSH2 0x71 CALLDATASIZE PUSH2 0x1C4 JUMP JUMPDEST PUSH2 0x819 JUMP JUMPDEST DUP4 MLOAD DUP2 DUP2 MSTORE PUSH1 0x20 DUP2 RETURN JUMPDEST CALLVALUE ISZERO PUSH2 0x8A JUMPI DUP2 DUP3 REVERT JUMPDEST PUSH2 0x93 CALLDATASIZE PUSH2 0x191 JUMP JUMPDEST PUSH1 0x1 SLOAD DUP4 MLOAD DUP2 DUP2 MSTORE PUSH1 0x20 DUP2 RETURN JUMPDEST CALLVALUE ISZERO PUSH2 0xAA JUMPI DUP2 DUP3 REVERT JUMPDEST PUSH2 0xB3 CALLDATASIZE PUSH2 0x191 JUMP JUMPDEST DUP2 SLOAD DUP4 MLOAD PUSH20 0xFFFFFFFFFFFFFFFFFFFFFFFFFFFFFFFFFFFFFFFF SWAP1 SWAP2 AND DUP1 DUP3 MSTORE SWAP1 PUSH1 0x20 DUP2 RETURN JUMPDEST CALLVALUE ISZERO PUSH2 0xE2 JUMPI DUP2 DUP3 REVERT JUMPDEST PUSH2 0xEB CALLDATASIZE PUSH2 0x191 JUMP JUMPDEST DUP3 MLOAD PUSH20 0xAB594600376EC9FD91F8E885DADF0CE036862DE0 DUP2 MSTORE PUSH1 0x20 DUP2 RETURN JUMPDEST CALLVALUE ISZERO PUSH2 0x113 JUMPI DUP2 DUP3 REVERT JUMPDEST PUSH2 0x124 PUSH2 0x11F CALLDATASIZE PUSH2 0x24A JUMP JUMPDEST PUSH2 0x63A JUMP JUMPDEST DUP2 DUP4 MLOAD RETURN JUMPDEST CALLVALUE ISZERO PUSH2 0x133 JUMPI DUP2 DUP3 REVERT JUMPDEST PUSH2 0x13C CALLDATASIZE PUSH2 0x191 JUMP JUMPDEST DUP3 MLOAD PUSH20 0x2791BCA1F2DE4661ED88A30C99A7A9449AA84174 DUP2 MSTORE PUSH1 0x20 DUP2 RETURN JUMPDEST POP POP JUMPDEST POP CALLDATASIZE PUSH2 0x16D JUMPI PUSH2 0x16B PUSH2 0x4FF JUMP JUMPDEST STOP JUMPDEST PUSH1 0x0 DUP1 REVERT JUMPDEST DUP1 MLOAD PUSH10 0xFFFFFFFFFFFFFFFFFFFF DUP2 AND DUP2 EQ PUSH2 0x18C JUMPI PUSH1 0x0 DUP1 REVERT JUMPDEST SWAP2 SWAP1 POP JUMP JUMPDEST PUSH1 0x0 PUSH32 0xFFFFFFFFFFFFFFFFFFFFFFFFFFFFFFFFFFFFFFFFFFFFFFFFFFFFFFFFFFFFFFFC DUP3 ADD SLT ISZERO PUSH2 0x1C1 JUMPI PUSH1 0x0 DUP1 REVERT JUMPDEST POP JUMP JUMPDEST PUSH1 0x0 PUSH1 0x20 PUSH32 0xFFFFFFFFFFFFFFFFFFFFFFFFFFFFFFFFFFFFFFFFFFFFFFFFFFFFFFFFFFFFFFFC DUP4 ADD SLT ISZERO PUSH2 0x1F6 JUMPI PUSH1 0x0 DUP1 REVERT JUMPDEST PUSH1 0x4 CALLDATALOAD PUSH20 0xFFFFFFFFFFFFFFFFFFFFFFFFFFFFFFFFFFFFFFFF DUP2 AND DUP2 EQ PUSH2 0x21B JUMPI PUSH1 0x0 DUP1 REVERT JUMPDEST SWAP3 SWAP2 POP POP JUMP JUMPDEST PUSH1 0x0 PUSH1 0x20 DUP3 DUP5 SUB SLT ISZERO PUSH2 0x233 JUMPI PUSH1 0x0 DUP1 REVERT JUMPDEST DUP2 MLOAD DUP1 ISZERO ISZERO DUP2 EQ PUSH2 0x243 JUMPI PUSH1 0x0 DUP1 REVERT JUMPDEST SWAP4 SWAP3 POP POP POP JUMP JUMPDEST PUSH1 0x0 PUSH1 0x20 PUSH32 0xFFFFFFFFFFFFFFFFFFFFFFFFFFFFFFFFFFFFFFFFFFFFFFFFFFFFFFFFFFFFFFFC DUP4 ADD SLT ISZERO PUSH2 0x27C JUMPI PUSH1 0x0 DUP1 REVERT JUMPDEST POP POP PUSH1 0x4 CALLDATALOAD SWAP1 JUMP JUMPDEST PUSH1 0x0 DUP3 PUSH2 0x2BA JUMPI PUSH32 0x4E487B7100000000000000000000000000000000000000000000000000000000 PUSH1 0x0 MSTORE PUSH1 0x12 PUSH1 0x4 MSTORE PUSH1 0x24 PUSH1 0x0 REVERT JUMPDEST POP DIV SWAP1 JUMP JUMPDEST PUSH1 0x0 PUSH32 0x5555555555555555555555555555555555555555555555555555555555555555 DUP3 GT PUSH1 0x1 AND ISZERO PUSH2 0x31B JUMPI PUSH32 0x4E487B7100000000000000000000000000000000000000000000000000000000 PUSH1 0x0 MSTORE PUSH1 0x11 PUSH1 0x4 MSTORE PUSH1 0x24 PUSH1 0x0 REVERT JUMPDEST POP PUSH1 0x3 MUL SWAP1 JUMP JUMPDEST PUSH1 0x0 DUP2 PUSH32 0xFFFFFFFFFFFFFFFFFFFFFFFFFFFFFFFFFFFFFFFFFFFFFFFFFFFFFFFFFFFFFFFF DIV PUSH1 0x64 GT DUP3 ISZERO ISZERO AND ISZERO PUSH2 0x382 JUMPI PUSH32 0x4E487B7100000000000000000000000000000000000000000000000000000000 PUSH1 0x0 MSTORE PUSH1 0x11 PUSH1 0x4 MSTORE PUSH1 0x24 PUSH1 0x0 REVERT JUMPDEST POP PUSH1 0x64 MUL SWAP1 JUMP JUMPDEST PUSH1 0x0 PUSH9 0x56BC75E2D63100000 DUP3 PUSH32 0xFFFFFFFFFFFFFFFFFFFFFFFFFFFFFFFFFFFFFFFFFFFFFFFFFFFFFFFFFFFFFFFF DIV DUP2 GT DUP4 ISZERO ISZERO AND ISZERO PUSH2 0x3F2 JUMPI PUSH32 0x4E487B7100000000000000000000000000000000000000000000000000000000 PUSH1 0x0 MSTORE PUSH1 0x11 PUSH1 0x4 MSTORE PUSH1 0x24 PUSH1 0x0 REVERT JUMPDEST SWAP2 SWAP1 SWAP2 MUL SWAP2 SWAP1 POP JUMP JUMPDEST PUSH1 0x0 RETURNDATASIZE DUP1 ISZERO PUSH2 0x466 JUMPI RETURNDATASIZE PUSH8 0xFFFFFFFFFFFFFFFF DUP2 GT ISZERO PUSH2 0x41D JUMPI PUSH2 0x41D PUSH2 0xA8C JUMP JUMPDEST PUSH1 0x40 MLOAD PUSH2 0x452 PUSH1 0x20 PUSH32 0xFFFFFFFFFFFFFFFFFFFFFFFFFFFFFFFFFFFFFFFFFFFFFFFFFFFFFFFFFFFFFFE0 PUSH1 0x1F DUP6 ADD AND ADD DUP3 PUSH2 0x4B4 JUMP JUMPDEST DUP2 DUP2 MSTORE DUP1 SWAP4 POP RETURNDATASIZE PUSH1 0x0 PUSH1 0x20 DUP4 ADD RETURNDATACOPY POP POP POP SWAP1 JUMP JUMPDEST PUSH1 0x60 SWAP2 POP POP SWAP1 JUMP JUMPDEST PUSH1 0xA0 DUP2 ADD DUP2 DUP2 LT PUSH8 0xFFFFFFFFFFFFFFFF DUP3 GT OR ISZERO PUSH2 0x48E JUMPI PUSH2 0x48E PUSH2 0xA8C JUMP JUMPDEST PUSH1 0x40 MSTORE POP JUMP JUMPDEST PUSH1 0x40 DUP2 ADD DUP2 DUP2 LT PUSH8 0xFFFFFFFFFFFFFFFF DUP3 GT OR ISZERO PUSH2 0x48E JUMPI PUSH2 0x48E PUSH2 0xA8C JUMP JUMPDEST PUSH32 0xFFFFFFFFFFFFFFFFFFFFFFFFFFFFFFFFFFFFFFFFFFFFFFFFFFFFFFFFFFFFFFE0 PUSH1 0x1F DUP4 ADD AND DUP2 ADD DUP2 DUP2 LT PUSH8 0xFFFFFFFFFFFFFFFF DUP3 GT OR ISZERO PUSH2 0x4F8 JUMPI PUSH2 0x4F8 PUSH2 0xA8C JUMP JUMPDEST PUSH1 0x40 MSTORE POP POP JUMP JUMPDEST PUSH1 0x1 SLOAD PUSH2 0x50B DUP2 PUSH2 0x2BF JUMP JUMPDEST PUSH1 0x1 SHR CALLVALUE LT ISZERO PUSH2 0x59A JUMPI PUSH1 0x40 MLOAD PUSH32 0x8C379A000000000000000000000000000000000000000000000000000000000 DUP2 MSTORE PUSH1 0x20 PUSH1 0x4 DUP3 ADD MSTORE PUSH1 0x23 PUSH1 0x24 DUP3 ADD MSTORE PUSH32 0x596F75277265206E6F74206465706F736974696E6720656E6F75676820657468 PUSH1 0x44 DUP3 ADD MSTORE PUSH32 0x6572210000000000000000000000000000000000000000000000000000000000 PUSH1 0x64 DUP3 ADD MSTORE PUSH1 0x84 DUP2 REVERT JUMPDEST DUP1 ISZERO DUP1 ISZERO SWAP1 PUSH2 0x603 JUMPI PUSH2 0x5AC CALLVALUE PUSH1 0x1 SSTORE JUMP JUMPDEST PUSH2 0x5E7 PUSH2 0x5CE PUSH1 0x0 SLOAD PUSH20 0xFFFFFFFFFFFFFFFFFFFFFFFFFFFFFFFFFFFFFFFF AND SWAP1 JUMP JUMPDEST PUSH20 0xFFFFFFFFFFFFFFFFFFFFFFFFFFFFFFFFFFFFFFFF AND SWAP1 JUMP JUMPDEST PUSH1 0x0 DUP1 PUSH1 0x0 PUSH1 0x40 MLOAD CALLVALUE DUP6 GAS CALL POP POP PUSH2 0x5FD PUSH2 0x3FB JUMP JUMPDEST POP PUSH2 0x60C JUMP JUMPDEST PUSH2 0x60C CALLVALUE PUSH1 0x1 SSTORE JUMP JUMPDEST POP POP PUSH1 0x0 DUP1 SLOAD PUSH32 0xFFFFFFFFFFFFFFFFFFFFFFFF0000000000000000000000000000000000000000 AND CALLER OR SWAP1 SSTORE JUMP JUMPDEST PUSH1 0x1 SLOAD PUSH2 0x646 DUP2 PUSH2 0x2BF JUMP JUMPDEST PUSH2 0x64E PUSH2 0x76E JUMP JUMPDEST DUP2 PUSH32 0xFFFFFFFFFFFFFFFFFFFFFFFFFFFFFFFFFFFFFFFFFFFFFFFFFFFFFFFFFFFFFFFF DIV DUP2 GT DUP3 ISZERO ISZERO AND ISZERO PUSH2 0x6AB JUMPI PUSH32 0x4E487B7100000000000000000000000000000000000000000000000000000000 PUSH1 0x0 MSTORE PUSH1 0x11 PUSH1 0x4 MSTORE PUSH1 0x24 PUSH1 0x0 REVERT JUMPDEST PUSH2 0x6C7 PUSH9 0x56BC75E2D63100000 DUP3 DUP5 MUL DIV PUSH1 0x1 SHR DUP6 LT ISZERO PUSH2 0xABB JUMP JUMPDEST POP POP DUP1 ISZERO DUP1 ISZERO SWAP1 PUSH2 0x726 JUMPI PUSH2 0x6DB DUP4 PUSH2 0x389 JUMP JUMPDEST PUSH2 0x6F4 PUSH2 0x6EF PUSH2 0x6E9 PUSH2 0x76E JUMP JUMPDEST DUP4 PUSH2 0x284 JUMP JUMPDEST PUSH1 0x1 SSTORE JUMP JUMPDEST POP PUSH2 0x721 DUP4 PUSH2 0x71B PUSH2 0x5CE PUSH1 0x0 SLOAD PUSH20 0xFFFFFFFFFFFFFFFFFFFFFFFFFFFFFFFFFFFFFFFF AND SWAP1 JUMP JUMPDEST CALLER PUSH2 0x8C9 JUMP JUMPDEST PUSH2 0x73F JUMP JUMPDEST PUSH2 0x72F DUP4 PUSH2 0x322 JUMP JUMPDEST PUSH2 0x73D PUSH2 0x6EF PUSH2 0x6E9 PUSH2 0x76E JUMP JUMPDEST POP JUMPDEST POP POP PUSH1 0x0 DUP1 SLOAD PUSH32 0xFFFFFFFFFFFFFFFFFFFFFFFF0000000000000000000000000000000000000000 AND CALLER OR SWAP1 SSTORE POP JUMP JUMPDEST PUSH1 0x0 PUSH20 0xAB594600376EC9FD91F8E885DADF0CE036862DE0 DUP1 EXTCODESIZE PUSH2 0x790 JUMPI PUSH1 0x0 DUP1 REVERT JUMPDEST PUSH1 0x40 MLOAD PUSH32 0xFEAF968C00000000000000000000000000000000000000000000000000000000 DUP2 MSTORE PUSH1 0xA0 DUP2 PUSH1 0x4 DUP4 DUP6 GAS STATICCALL SWAP2 POP DUP2 PUSH2 0x7D2 JUMPI PUSH1 0x40 MLOAD RETURNDATASIZE PUSH1 0x0 DUP3 RETURNDATACOPY RETURNDATASIZE DUP2 REVERT JUMPDEST PUSH1 0x0 DUP3 ISZERO PUSH2 0x243 JUMPI PUSH2 0x7E4 RETURNDATASIZE DUP4 PUSH2 0x4B4 JUMP JUMPDEST PUSH1 0xA0 DUP3 RETURNDATASIZE DUP5 ADD SUB SLT ISZERO PUSH2 0x7F5 JUMPI DUP1 DUP2 REVERT JUMPDEST PUSH2 0x7FE DUP3 PUSH2 0x172 JUMP JUMPDEST POP PUSH1 0x20 DUP3 ADD MLOAD PUSH2 0x810 PUSH1 0x80 DUP5 ADD PUSH2 0x172 JUMP JUMPDEST POP SWAP5 SWAP4 POP POP POP POP JUMP JUMPDEST PUSH1 0x0 PUSH20 0xFFFFFFFFFFFFFFFFFFFFFFFFFFFFFFFFFFFFFFFF DUP3 AND DUP1 EXTCODESIZE PUSH2 0x83D JUMPI PUSH1 0x0 DUP1 REVERT JUMPDEST PUSH1 0x40 MLOAD PUSH32 0xFEAF968C00000000000000000000000000000000000000000000000000000000 DUP2 MSTORE PUSH1 0xA0 DUP2 PUSH1 0x4 DUP4 DUP6 GAS STATICCALL SWAP2 POP DUP2 PUSH2 0x87F JUMPI PUSH1 0x40 MLOAD RETURNDATASIZE PUSH1 0x0 DUP3 RETURNDATACOPY RETURNDATASIZE DUP2 REVERT JUMPDEST PUSH1 0x0 DUP3 ISZERO PUSH2 0x8C1 JUMPI PUSH2 0x891 RETURNDATASIZE DUP4 PUSH2 0x4B4 JUMP JUMPDEST PUSH1 0xA0 DUP3 RETURNDATASIZE DUP5 ADD SUB SLT ISZERO PUSH2 0x8A2 JUMPI DUP1 DUP2 REVERT JUMPDEST PUSH2 0x8AB DUP3 PUSH2 0x172 JUMP JUMPDEST POP PUSH1 0x20 DUP3 ADD MLOAD PUSH2 0x8BD PUSH1 0x80 DUP5 ADD PUSH2 0x172 JUMP JUMPDEST POP SWAP1 POP JUMPDEST SWAP5 SWAP4 POP POP POP POP JUMP JUMPDEST PUSH1 0x40 MLOAD PUSH1 0x20 DUP2 ADD PUSH32 0x23B872DD00000000000000000000000000000000000000000000000000000000 DUP2 MSTORE PUSH20 0xFFFFFFFFFFFFFFFFFFFFFFFFFFFFFFFFFFFFFFFF DUP1 DUP5 AND PUSH1 0x24 DUP5 ADD MSTORE DUP1 DUP6 AND PUSH1 0x44 DUP5 ADD MSTORE POP DUP5 PUSH1 0x64 DUP4 ADD MSTORE PUSH1 0x64 DUP3 MSTORE PUSH2 0x92C DUP3 PUSH2 0x46E JUMP JUMPDEST PUSH1 0x40 MLOAD PUSH2 0x938 DUP2 PUSH2 0x494 JUMP JUMPDEST PUSH1 0x20 DUP2 MSTORE PUSH32 0x5361666545524332303A206C6F772D6C6576656C2063616C6C206661696C6564 PUSH1 0x20 DUP3 ADD MSTORE PUSH20 0x2791BCA1F2DE4661ED88A30C99A7A9449AA84174 PUSH2 0x983 DUP2 EXTCODESIZE ISZERO ISZERO PUSH2 0xB45 JUMP JUMPDEST PUSH1 0x0 DUP1 DUP6 MLOAD DUP6 PUSH1 0x0 DUP6 GAS CALL SWAP4 POP POP PUSH2 0x9A3 DUP2 PUSH2 0x99D PUSH2 0x3FB JUMP JUMPDEST DUP6 PUSH2 0x9D0 JUMP JUMPDEST SWAP3 POP POP POP DUP1 MLOAD DUP1 ISZERO PUSH2 0x9C9 JUMPI PUSH2 0x9C9 PUSH2 0x9C4 PUSH1 0x20 DUP4 DUP6 ADD ADD PUSH1 0x20 DUP6 ADD PUSH2 0x221 JUMP JUMPDEST PUSH2 0xBA9 JUMP JUMPDEST POP POP POP POP POP JUMP JUMPDEST PUSH1 0x60 DUP2 DUP1 ISZERO PUSH2 0x9E2 JUMPI DUP4 SWAP2 POP POP PUSH2 0x243 JUMP JUMPDEST DUP4 MLOAD ISZERO DUP1 ISZERO SWAP1 PUSH2 0x9F4 JUMPI DUP5 MLOAD DUP6 PUSH1 0x20 ADD REVERT JUMPDEST PUSH1 0x40 MLOAD PUSH32 0x8C379A000000000000000000000000000000000000000000000000000000000 DUP2 MSTORE PUSH1 0x20 DUP1 PUSH1 0x4 DUP4 ADD MSTORE DUP8 MLOAD DUP1 PUSH1 0x24 DUP5 ADD MSTORE PUSH1 0x0 JUMPDEST DUP2 DUP2 LT ISZERO PUSH2 0xA49 JUMPI DUP10 DUP2 ADD DUP4 ADD MLOAD DUP5 DUP3 ADD PUSH1 0x44 ADD MSTORE DUP3 ADD PUSH2 0xA2D JUMP JUMPDEST DUP2 DUP2 GT ISZERO PUSH2 0xA5B JUMPI PUSH1 0x0 PUSH1 0x44 DUP4 DUP7 ADD ADD MSTORE JUMPDEST POP PUSH1 0x44 DUP4 PUSH32 0xFFFFFFFFFFFFFFFFFFFFFFFFFFFFFFFFFFFFFFFFFFFFFFFFFFFFFFFFFFFFFFE0 PUSH1 0x1F DUP5 ADD AND DUP6 ADD SUB ADD DUP4 REVERT JUMPDEST PUSH32 0x4E487B7100000000000000000000000000000000000000000000000000000000 PUSH1 0x0 MSTORE PUSH1 0x41 PUSH1 0x4 MSTORE PUSH1 0x24 PUSH1 0x0 REVERT JUMPDEST DUP1 PUSH2 0x1C1 JUMPI PUSH1 0x40 MLOAD PUSH32 0x8C379A000000000000000000000000000000000000000000000000000000000 DUP2 MSTORE PUSH1 0x20 PUSH1 0x4 DUP3 ADD MSTORE PUSH1 0x22 PUSH1 0x24 DUP3 ADD MSTORE PUSH32 0x596F75277265206E6F74206465706F736974696E6720656E6F75676820555344 PUSH1 0x44 DUP3 ADD MSTORE PUSH32 0x4321000000000000000000000000000000000000000000000000000000000000 PUSH1 0x64 DUP3 ADD MSTORE PUSH1 0x84 DUP2 REVERT JUMPDEST DUP1 PUSH2 0x1C1 JUMPI PUSH1 0x40 MLOAD PUSH32 0x8C379A000000000000000000000000000000000000000000000000000000000 DUP2 MSTORE PUSH1 0x20 PUSH1 0x4 DUP3 ADD MSTORE PUSH1 0x1D PUSH1 0x24 DUP3 ADD MSTORE PUSH32 0x416464726573733A2063616C6C20746F206E6F6E2D636F6E7472616374000000 PUSH1 0x44 DUP3 ADD MSTORE PUSH1 0x64 DUP2 REVERT JUMPDEST DUP1 PUSH2 0x1C1 JUMPI PUSH1 0x40 MLOAD PUSH32 0x8C379A000000000000000000000000000000000000000000000000000000000 DUP2 MSTORE PUSH1 0x20 PUSH1 0x4 DUP3 ADD MSTORE PUSH1 0x2A PUSH1 0x24 DUP3 ADD MSTORE PUSH32 0x5361666545524332303A204552433230206F7065726174696F6E20646964206E PUSH1 0x44 DUP3 ADD MSTORE PUSH32 0x6F74207375636365656400000000000000000000000000000000000000000000 PUSH1 0x64 DUP3 ADD MSTORE PUSH1 0x84 DUP2 REVERT INVALID LOG3 PUSH5 0x6970667358 0x22 SLT KECCAK256 0xC2 CODESIZE 0x5F SMOD EXTCODEHASH SWAP7 MSTORE8 0xE4 0xB5 MLOAD JUMP DIFFICULTY MSTORE 0xD7 CHAINID SWAP8 0xEF LOG0 0xB6 ADD 0xD5 EXTCODECOPY PUSH18 0x30F3E7F7149F81599E6C6578706572696D65 PUSH15 0x74616CF564736F6C63430008070041 "},"methodIdentifiers":{"MATIC_USD_ORACLE()":"8db9f39a","USDC_ADDRESS()":"bb09d9b7","deposit(uint256)":"b6b55f25","getKing()":"7920d804","getLatestPrice(address)":"16345f18","maximumPaid()":"423cb99e"}}}}}