{"contracts/King.sol":{"King":{"abi":[{"anonymous":false,"inputs":[{"indexed":false,"internalType":"bool","name":"success","type":"bool"},{"indexed":false,"internalType":"uint256","name":"amount","type":"uint256"},{"indexed":false,"internalType":"address","name":"king","type":"address"}],"name":"EthDeposit","type":"event"},{"anonymous":false,"inputs":[{"indexed":true,"internalType":"address","name":"previousOwner","type":"address"},{"indexed":true,"internalType":"address","name":"newOwner","type":"address"}],"name":"OwnershipTransferred","type":"event"},{"anonymous":false,"inputs":[{"indexed":false,"internalType":"address","name":"account","type":"address"}],"name":"Paused","type":"event"},{"anonymous":false,"inputs":[{"indexed":false,"internalType":"address","name":"account","type":"address"}],"name":"Unpaused","type":"event"},{"anonymous":false,"inputs":[{"indexed":false,"internalType":"uint256","name":"amount","type":"uint256"},{"indexed":false,"internalType":"address","name":"king","type":"address"}],"name":"UsdcDeposit","type":"event"},{"inputs":[],"name":"MATIC_USD_ORACLE","outputs":[{"internalType":"address","name":"","type":"address"}],"stateMutability":"view","type":"function"},{"inputs":[],"name":"USDC_ADDRESS","outputs":[{"internalType":"address","name":"","type":"address"}],"stateMutability":"view","type":"function"},{"inputs":[{"internalType":"uint256","name":"depositAmount","type":"uint256"}],"name":"deposit","outputs":[],"stateMutability":"nonpayable","type":"function"},{"inputs":[],"name":"emergencyWithdraw","outputs":[],"stateMutability":"payable","type":"function"},{"inputs":[],"name":"getKing","outputs":[{"internalType":"address payable","name":"","type":"address"}],"stateMutability":"view","type":"function"},{"inputs":[],"name":"maximumPaid","outputs":[{"internalType":"uint256","name":"","type":"uint256"}],"stateMutability":"view","type":"function"},{"inputs":[],"name":"owner","outputs":[{"internalType":"address","name":"","type":"address"}],"stateMutability":"view","type":"function"},{"inputs":[],"name":"paused","outputs":[{"internalType":"bool","name":"","type":"bool"}],"stateMutability":"view","type":"function"},{"inputs":[],"name":"renounceOwnership","outputs":[],"stateMutability":"nonpayable","type":"function"},{"inputs":[{"internalType":"address","name":"newOwner","type":"address"}],"name":"transferOwnership","outputs":[],"stateMutability":"nonpayable","type":"function"},{"stateMutability":"payable","type":"receive"}],"evm":{"bytecode":{"linkReferences":{},"object":"6080604052341561000f57600080fd5b600080546001600160a81b0319811633600881811b610100600160a81b031692909217845591929083901c6001600160a01b0316907f8be0079c531659141344cd1fd0a4f28419497f9722a3daafe3b4186f6b6457e0906080a35061135c8061007a608039806080f3fe60406080815260043610610238576000803560e01c63423cb99e811461008757635c975abb81146100c85763715018a681146100f757637920d804811461011757638da5cb5b811461015057638db9f39a811461018c5763b6b55f2581146101bd5763bb09d9b781146101d85763db2e21bc81146102095763f2fde38b811461021a57610235565b3415610091578182fd5b61009a3661026c565b6002546080527fffffffffffffffffffffffffffffffffffffffffffffffffffffffffffffff8060a0016080f35b34156100d2578182fd5b6100db3661026c565b60ff8254168351806100f38383901515815260200190565b0381f35b3415610101578182fd5b61010a3661026c565b610112610ad5565b818351f35b3415610121578182fd5b61012a3661026c565b600154835173ffffffffffffffffffffffffffffffffffffffff90911680825290602081f35b341561015a578182fd5b6101633661026c565b8154835160089190911c73ffffffffffffffffffffffffffffffffffffffff1680825290602081f35b3415610196578182fd5b61019f3661026c565b825173ab594600376ec9fd91f8e885dadf0ce036862de08152602081f35b34156101c7578182fd5b6101126101d336610325565b610e32565b34156101e2578182fd5b6101eb3661026c565b8251732791bca1f2de4661ed88a30c99a7a9449aa841748152602081f35b6102123661026c565b610112610f7c565b3415610224578182fd5b6101126102303661029f565b610b4c565b50505b503661024857610246610c6d565b005b600080fd5b805169ffffffffffffffffffff8116811461026757600080fd5b919050565b60007ffffffffffffffffffffffffffffffffffffffffffffffffffffffffffffffffc8201121561029c57600080fd5b50565b600060207ffffffffffffffffffffffffffffffffffffffffffffffffffffffffffffffffc830112156102d157600080fd5b60043573ffffffffffffffffffffffffffffffffffffffff811681146102f657600080fd5b92915050565b60006020828403121561030e57600080fd5b8151801515811461031e57600080fd5b9392505050565b600060207ffffffffffffffffffffffffffffffffffffffffffffffffffffffffffffffffc8301121561035757600080fd5b505060043590565b60006020828403121561037157600080fd5b5051919050565b6000826103ae577f4e487b7100000000000000000000000000000000000000000000000000000000600052601260045260246000fd5b500490565b60007f555555555555555555555555555555555555555555555555555555555555555582116001161561040f577f4e487b7100000000000000000000000000000000000000000000000000000000600052601160045260246000fd5b5060030290565b6000817fffffffffffffffffffffffffffffffffffffffffffffffffffffffffffffffff046064118215151615610476577f4e487b7100000000000000000000000000000000000000000000000000000000600052601160045260246000fd5b5060640290565b600068056bc75e2d63100000827fffffffffffffffffffffffffffffffffffffffffffffffffffffffffffffffff04811183151516156104e6577f4e487b7100000000000000000000000000000000000000000000000000000000600052601160045260246000fd5b91909102919050565b6000817fffffffffffffffffffffffffffffffffffffffffffffffffffffffffffffffff048311821515161561054e577f4e487b7100000000000000000000000000000000000000000000000000000000600052601160045260246000fd5b500290565b60003d80156105be573d67ffffffffffffffff81111561057557610575611165565b6040516105aa60207fffffffffffffffffffffffffffffffffffffffffffffffffffffffffffffffe0601f85011601826105c6565b8181528093503d6000602083013e50505090565b606091505090565b7fffffffffffffffffffffffffffffffffffffffffffffffffffffffffffffffe0601f830116810181811067ffffffffffffffff8211171561060a5761060a611165565b6040525050565b6040516040810181811067ffffffffffffffff8211171561063457610634611165565b60405260208082527f5361666545524332303a206c6f772d6c6576656c2063616c6c206661696c656482820152732791bca1f2de4661ed88a30c99a7a9449aa84174803b6106da576040517f08c379a0000000000000000000000000000000000000000000000000000000008152826004820152601d60248201527f416464726573733a2063616c6c20746f206e6f6e2d636f6e74726163740000006044820152606481fd5b60008085518487016000855af190506106fb836106f5610553565b83610a19565b9250508151801561071e5761071e61071983838601018486016102fc565b611282565b50505050565b73ffffffffffffffffffffffffffffffffffffffff60005460081c1633811461029c576040517f08c379a000000000000000000000000000000000000000000000000000000000815260206004820152602060248201527f4f776e61626c653a2063616c6c6572206973206e6f7420746865206f776e65726044820152606481fd5b60ff6000541615610810576040517f08c379a000000000000000000000000000000000000000000000000000000000815260206004820152601060248201527f5061757361626c653a20706175736564000000000000000000000000000000006044820152606481fd5b565b600073ab594600376ec9fd91f8e885dadf0ce036862de0803b61083457600080fd5b6040517ffeaf968c00000000000000000000000000000000000000000000000000000000815260a081600483855afa9150816108725761087261130c565b6000821561031e576108843d836105c6565b60a0823d8401031215610895578081fd5b61089e8261024d565b5060208201516108b06080840161024d565b50949350505050565b604051602081017ff82c50f1000000000000000000000000000000000000000000000000000000008152826024830152602482526060820182811067ffffffffffffffff8211171561090d5761090d611165565b80604052506000808351836a636f6e736f6c652e6c6f675afa50505050565b6040517f23b872dd00000000000000000000000000000000000000000000000000000000602082015273ffffffffffffffffffffffffffffffffffffffff8281166024830152831660448201526064808201859052815260a0810167ffffffffffffffff811182821017156109a3576109a3611165565b60405261071e81610611565b6040517fa9059cbb00000000000000000000000000000000000000000000000000000000602082015273ffffffffffffffffffffffffffffffffffffffff82166024820152604480820184905281526064610a0a81836105c6565b50610a1481610611565b505050565b6060818015610a2b578391505061031e565b835115801590610a3d57845185602001fd5b6040517f08c379a00000000000000000000000000000000000000000000000000000000081526020806004830152875180602484015260005b81811015610a9257898101830151848201604401528201610a76565b81811115610aa4576000604483860101525b506044837fffffffffffffffffffffffffffffffffffffffffffffffffffffffffffffffe0601f8401168501030183fd5b610add610724565b6000547fffffffffffffffffffffff0000000000000000000000000000000000000000ff8116600055600073ffffffffffffffffffffffffffffffffffffffff8260081c167f8be0079c531659141344cd1fd0a4f28419497f9722a3daafe3b4186f6b6457e06000604051a350565b610b54610724565b73ffffffffffffffffffffffffffffffffffffffff808216610bf5576040517f08c379a000000000000000000000000000000000000000000000000000000000815260206004820152602660248201527f4f776e61626c653a206e6577206f776e657220697320746865207a65726f206160448201527f64647265737300000000000000000000000000000000000000000000000000006064820152608481fd5b60005474ffffffffffffffffffffffffffffffffffffffff008360081b167fffffffffffffffffffffff0000000000000000000000000000000000000000ff82161760005582828260081c167f8be0079c531659141344cd1fd0a4f28419497f9722a3daafe3b4186f6b6457e06000604051a3505050565b610c756107a6565b600254610c81816103b3565b60011c341015610d10576040517f08c379a000000000000000000000000000000000000000000000000000000000815260206004820152602360248201527f596f75277265206e6f74206465706f736974696e6720656e6f7567682065746860448201527f65722100000000000000000000000000000000000000000000000000000000006064820152608481fd5b8015801590610db257610d2234600255565b610d5d610d4460015473ffffffffffffffffffffffffffffffffffffffff1690565b73ffffffffffffffffffffffffffffffffffffffff1690565b600080600060405134855af19050610d73610553565b50610dac817fffffffffffffffffffffffffffffffffffffffffffffffffffffffffffffff006003541660ff8215151681176003555050565b50610dbb565b610dbb34600255565b5050600180547fffffffffffffffffffffffff0000000000000000000000000000000000000000163317905560035460ff1660408051821515815234602082015233918101919091527f7f7caf2cfdc2014aa045dd0ef7e9f5a6a4819e729710bed3689ba095e658738f81606081015b0382a15050565b610e3a6107a6565b600254610e46816103b3565b610e7d610e75610e6f610e60610e5a610812565b856104ef565b68056bc75e2d63100000900490565b60011c90565b841015611194565b50610e87816103b3565b610ea0610e9b610e6f610e60610e5a610812565b6108b9565b508015801590610efe57610eb38361047d565b610ecc610ec7610ec1610812565b83610378565b600255565b50610ef983610ef3610d4460015473ffffffffffffffffffffffffffffffffffffffff1690565b3361092c565b610f17565b610f0783610416565b610f15610ec7610ec1610812565b505b5050600180547fffffffffffffffffffffffff0000000000000000000000000000000000000000163317905560408051828152336020820152907ff5cb588f5f04842fa8a48ffd1f1b14b97339a788a30a4ab1c445e84f46a8b5ff9082908101610e2b565b600060ff815416610fe6576040517f08c379a000000000000000000000000000000000000000000000000000000000815260206004820152601460248201527f5061757361626c653a206e6f74207061757365640000000000000000000000006044820152606481fd5b610fee610724565b4715611057574781828360405184335af19050611009610553565b50611042817fffffffffffffffffffffffffffffffffffffffffffffffffffffffffffffff006003541660ff8215151681176003555050565b5061105761105260035460ff1690565b61121e565b732791bca1f2de4661ed88a30c99a7a9449aa84174803b611076578182fd5b6040517f70a08231000000000000000000000000000000000000000000000000000000008152306004820152602081602481855afa806110b8576110b861130c565b8381156110d8576110c93d846105c6565b6110d53d84018461035f565b90505b801561115e57833b6110e8578485fd5b6040517f095ea7b300000000000000000000000000000000000000000000000000000000815233600482015260248101829052925060208360448188885af19150816111365761113661130c565b8115611154576111463d846105c6565b6111523d8401846102fc565b505b61115e81336109af565b5050505050565b7f4e487b7100000000000000000000000000000000000000000000000000000000600052604160045260246000fd5b8061029c576040517f08c379a000000000000000000000000000000000000000000000000000000000815260206004820152602260248201527f596f75277265206e6f74206465706f736974696e6720656e6f7567682055534460448201527f43210000000000000000000000000000000000000000000000000000000000006064820152608481fd5b8061029c576040517f08c379a000000000000000000000000000000000000000000000000000000000815260206004820152601360248201527f4572726f7220696e207769746864726177616c000000000000000000000000006044820152606481fd5b8061029c576040517f08c379a000000000000000000000000000000000000000000000000000000000815260206004820152602a60248201527f5361666545524332303a204552433230206f7065726174696f6e20646964206e60448201527f6f742073756363656564000000000000000000000000000000000000000000006064820152608481fd5b6040513d6000823e3d81fdfea3646970667358221220777346060e2fd8bd20b44ac88988fee47ac2de3d5b66d83d33eaf8926c6f00da6c6578706572696d656e74616cf564736f6c63430008070041","opcodes":"PUSH1 0x80 PUSH1 0x40 MSTORE CALLVALUE ISZERO PUSH2 0xF JUMPI PUSH1 0x0 DUP1 REVERT JUMPDEST PUSH1 0x0 DUP1 SLOAD PUSH1 0x1 PUSH1 0x1 PUSH1 0xA8 SHL SUB NOT DUP2 AND CALLER PUSH1 0x8 DUP2 DUP2 SHL PUSH2 0x100 PUSH1 0x1 PUSH1 0xA8 SHL SUB AND SWAP3 SWAP1 SWAP3 OR DUP5 SSTORE SWAP2 SWAP3 SWAP1 DUP4 SWAP1 SHR PUSH1 0x1 PUSH1 0x1 PUSH1 0xA0 SHL SUB AND SWAP1 PUSH32 0x8BE0079C531659141344CD1FD0A4F28419497F9722A3DAAFE3B4186F6B6457E0 SWAP1 PUSH1 0x80 LOG3 POP PUSH2 0x135C DUP1 PUSH2 0x7A PUSH1 0x80 CODECOPY DUP1 PUSH1 0x80 RETURN INVALID PUSH1 0x40 PUSH1 0x80 DUP2 MSTORE PUSH1 0x4 CALLDATASIZE LT PUSH2 0x238 JUMPI PUSH1 0x0 DUP1 CALLDATALOAD PUSH1 0xE0 SHR PUSH4 0x423CB99E DUP2 EQ PUSH2 0x87 JUMPI PUSH4 0x5C975ABB DUP2 EQ PUSH2 0xC8 JUMPI PUSH4 0x715018A6 DUP2 EQ PUSH2 0xF7 JUMPI PUSH4 0x7920D804 DUP2 EQ PUSH2 0x117 JUMPI PUSH4 0x8DA5CB5B DUP2 EQ PUSH2 0x150 JUMPI PUSH4 0x8DB9F39A DUP2 EQ PUSH2 0x18C JUMPI PUSH4 0xB6B55F25 DUP2 EQ PUSH2 0x1BD JUMPI PUSH4 0xBB09D9B7 DUP2 EQ PUSH2 0x1D8 JUMPI PUSH4 0xDB2E21BC DUP2 EQ PUSH2 0x209 JUMPI PUSH4 0xF2FDE38B DUP2 EQ PUSH2 0x21A JUMPI PUSH2 0x235 JUMP JUMPDEST CALLVALUE ISZERO PUSH2 0x91 JUMPI DUP2 DUP3 REVERT JUMPDEST PUSH2 0x9A CALLDATASIZE PUSH2 0x26C JUMP JUMPDEST PUSH1 0x2 SLOAD PUSH1 0x80 MSTORE PUSH32 0xFFFFFFFFFFFFFFFFFFFFFFFFFFFFFFFFFFFFFFFFFFFFFFFFFFFFFFFFFFFFFF80 PUSH1 0xA0 ADD PUSH1 0x80 RETURN JUMPDEST CALLVALUE ISZERO PUSH2 0xD2 JUMPI DUP2 DUP3 REVERT JUMPDEST PUSH2 0xDB CALLDATASIZE PUSH2 0x26C JUMP JUMPDEST PUSH1 0xFF DUP3 SLOAD AND DUP4 MLOAD DUP1 PUSH2 0xF3 DUP4 DUP4 SWAP1 ISZERO ISZERO DUP2 MSTORE PUSH1 0x20 ADD SWAP1 JUMP JUMPDEST SUB DUP2 RETURN JUMPDEST CALLVALUE ISZERO PUSH2 0x101 JUMPI DUP2 DUP3 REVERT JUMPDEST PUSH2 0x10A CALLDATASIZE PUSH2 0x26C JUMP JUMPDEST PUSH2 0x112 PUSH2 0xAD5 JUMP JUMPDEST DUP2 DUP4 MLOAD RETURN JUMPDEST CALLVALUE ISZERO PUSH2 0x121 JUMPI DUP2 DUP3 REVERT JUMPDEST PUSH2 0x12A CALLDATASIZE PUSH2 0x26C JUMP JUMPDEST PUSH1 0x1 SLOAD DUP4 MLOAD PUSH20 0xFFFFFFFFFFFFFFFFFFFFFFFFFFFFFFFFFFFFFFFF SWAP1 SWAP2 AND DUP1 DUP3 MSTORE SWAP1 PUSH1 0x20 DUP2 RETURN JUMPDEST CALLVALUE ISZERO PUSH2 0x15A JUMPI DUP2 DUP3 REVERT JUMPDEST PUSH2 0x163 CALLDATASIZE PUSH2 0x26C JUMP JUMPDEST DUP2 SLOAD DUP4 MLOAD PUSH1 0x8 SWAP2 SWAP1 SWAP2 SHR PUSH20 0xFFFFFFFFFFFFFFFFFFFFFFFFFFFFFFFFFFFFFFFF AND DUP1 DUP3 MSTORE SWAP1 PUSH1 0x20 DUP2 RETURN JUMPDEST CALLVALUE ISZERO PUSH2 0x196 JUMPI DUP2 DUP3 REVERT JUMPDEST PUSH2 0x19F CALLDATASIZE PUSH2 0x26C JUMP JUMPDEST DUP3 MLOAD PUSH20 0xAB594600376EC9FD91F8E885DADF0CE036862DE0 DUP2 MSTORE PUSH1 0x20 DUP2 RETURN JUMPDEST CALLVALUE ISZERO PUSH2 0x1C7 JUMPI DUP2 DUP3 REVERT JUMPDEST PUSH2 0x112 PUSH2 0x1D3 CALLDATASIZE PUSH2 0x325 JUMP JUMPDEST PUSH2 0xE32 JUMP JUMPDEST CALLVALUE ISZERO PUSH2 0x1E2 JUMPI DUP2 DUP3 REVERT JUMPDEST PUSH2 0x1EB CALLDATASIZE PUSH2 0x26C JUMP JUMPDEST DUP3 MLOAD PUSH20 0x2791BCA1F2DE4661ED88A30C99A7A9449AA84174 DUP2 MSTORE PUSH1 0x20 DUP2 RETURN JUMPDEST PUSH2 0x212 CALLDATASIZE PUSH2 0x26C JUMP JUMPDEST PUSH2 0x112 PUSH2 0xF7C JUMP JUMPDEST CALLVALUE ISZERO PUSH2 0x224 JUMPI DUP2 DUP3 REVERT JUMPDEST PUSH2 0x112 PUSH2 0x230 CALLDATASIZE PUSH2 0x29F JUMP JUMPDEST PUSH2 0xB4C JUMP JUMPDEST POP POP JUMPDEST POP CALLDATASIZE PUSH2 0x248 JUMPI PUSH2 0x246 PUSH2 0xC6D JUMP JUMPDEST STOP JUMPDEST PUSH1 0x0 DUP1 REVERT JUMPDEST DUP1 MLOAD PUSH10 0xFFFFFFFFFFFFFFFFFFFF DUP2 AND DUP2 EQ PUSH2 0x267 JUMPI PUSH1 0x0 DUP1 REVERT JUMPDEST SWAP2 SWAP1 POP JUMP JUMPDEST PUSH1 0x0 PUSH32 0xFFFFFFFFFFFFFFFFFFFFFFFFFFFFFFFFFFFFFFFFFFFFFFFFFFFFFFFFFFFFFFFC DUP3 ADD SLT ISZERO PUSH2 0x29C JUMPI PUSH1 0x0 DUP1 REVERT JUMPDEST POP JUMP JUMPDEST PUSH1 0x0 PUSH1 0x20 PUSH32 0xFFFFFFFFFFFFFFFFFFFFFFFFFFFFFFFFFFFFFFFFFFFFFFFFFFFFFFFFFFFFFFFC DUP4 ADD SLT ISZERO PUSH2 0x2D1 JUMPI PUSH1 0x0 DUP1 REVERT JUMPDEST PUSH1 0x4 CALLDATALOAD PUSH20 0xFFFFFFFFFFFFFFFFFFFFFFFFFFFFFFFFFFFFFFFF DUP2 AND DUP2 EQ PUSH2 0x2F6 JUMPI PUSH1 0x0 DUP1 REVERT JUMPDEST SWAP3 SWAP2 POP POP JUMP JUMPDEST PUSH1 0x0 PUSH1 0x20 DUP3 DUP5 SUB SLT ISZERO PUSH2 0x30E JUMPI PUSH1 0x0 DUP1 REVERT JUMPDEST DUP2 MLOAD DUP1 ISZERO ISZERO DUP2 EQ PUSH2 0x31E JUMPI PUSH1 0x0 DUP1 REVERT JUMPDEST SWAP4 SWAP3 POP POP POP JUMP JUMPDEST PUSH1 0x0 PUSH1 0x20 PUSH32 0xFFFFFFFFFFFFFFFFFFFFFFFFFFFFFFFFFFFFFFFFFFFFFFFFFFFFFFFFFFFFFFFC DUP4 ADD SLT ISZERO PUSH2 0x357 JUMPI PUSH1 0x0 DUP1 REVERT JUMPDEST POP POP PUSH1 0x4 CALLDATALOAD SWAP1 JUMP JUMPDEST PUSH1 0x0 PUSH1 0x20 DUP3 DUP5 SUB SLT ISZERO PUSH2 0x371 JUMPI PUSH1 0x0 DUP1 REVERT JUMPDEST POP MLOAD SWAP2 SWAP1 POP JUMP JUMPDEST PUSH1 0x0 DUP3 PUSH2 0x3AE JUMPI PUSH32 0x4E487B7100000000000000000000000000000000000000000000000000000000 PUSH1 0x0 MSTORE PUSH1 0x12 PUSH1 0x4 MSTORE PUSH1 0x24 PUSH1 0x0 REVERT JUMPDEST POP DIV SWAP1 JUMP JUMPDEST PUSH1 0x0 PUSH32 0x5555555555555555555555555555555555555555555555555555555555555555 DUP3 GT PUSH1 0x1 AND ISZERO PUSH2 0x40F JUMPI PUSH32 0x4E487B7100000000000000000000000000000000000000000000000000000000 PUSH1 0x0 MSTORE PUSH1 0x11 PUSH1 0x4 MSTORE PUSH1 0x24 PUSH1 0x0 REVERT JUMPDEST POP PUSH1 0x3 MUL SWAP1 JUMP JUMPDEST PUSH1 0x0 DUP2 PUSH32 0xFFFFFFFFFFFFFFFFFFFFFFFFFFFFFFFFFFFFFFFFFFFFFFFFFFFFFFFFFFFFFFFF DIV PUSH1 0x64 GT DUP3 ISZERO ISZERO AND ISZERO PUSH2 0x476 JUMPI PUSH32 0x4E487B7100000000000000000000000000000000000000000000000000000000 PUSH1 0x0 MSTORE PUSH1 0x11 PUSH1 0x4 MSTORE PUSH1 0x24 PUSH1 0x0 REVERT JUMPDEST POP PUSH1 0x64 MUL SWAP1 JUMP JUMPDEST PUSH1 0x0 PUSH9 0x56BC75E2D63100000 DUP3 PUSH32 0xFFFFFFFFFFFFFFFFFFFFFFFFFFFFFFFFFFFFFFFFFFFFFFFFFFFFFFFFFFFFFFFF DIV DUP2 GT DUP4 ISZERO ISZERO AND ISZERO PUSH2 0x4E6 JUMPI PUSH32 0x4E487B7100000000000000000000000000000000000000000000000000000000 PUSH1 0x0 MSTORE PUSH1 0x11 PUSH1 0x4 MSTORE PUSH1 0x24 PUSH1 0x0 REVERT JUMPDEST SWAP2 SWAP1 SWAP2 MUL SWAP2 SWAP1 POP JUMP JUMPDEST PUSH1 0x0 DUP2 PUSH32 0xFFFFFFFFFFFFFFFFFFFFFFFFFFFFFFFFFFFFFFFFFFFFFFFFFFFFFFFFFFFFFFFF DIV DUP4 GT DUP3 ISZERO ISZERO AND ISZERO PUSH2 0x54E JUMPI PUSH32 0x4E487B7100000000000000000000000000000000000000000000000000000000 PUSH1 0x0 MSTORE PUSH1 0x11 PUSH1 0x4 MSTORE PUSH1 0x24 PUSH1 0x0 REVERT JUMPDEST POP MUL SWAP1 JUMP JUMPDEST PUSH1 0x0 RETURNDATASIZE DUP1 ISZERO PUSH2 0x5BE JUMPI RETURNDATASIZE PUSH8 0xFFFFFFFFFFFFFFFF DUP2 GT ISZERO PUSH2 0x575 JUMPI PUSH2 0x575 PUSH2 0x1165 JUMP JUMPDEST PUSH1 0x40 MLOAD PUSH2 0x5AA PUSH1 0x20 PUSH32 0xFFFFFFFFFFFFFFFFFFFFFFFFFFFFFFFFFFFFFFFFFFFFFFFFFFFFFFFFFFFFFFE0 PUSH1 0x1F DUP6 ADD AND ADD DUP3 PUSH2 0x5C6 JUMP JUMPDEST DUP2 DUP2 MSTORE DUP1 SWAP4 POP RETURNDATASIZE PUSH1 0x0 PUSH1 0x20 DUP4 ADD RETURNDATACOPY POP POP POP SWAP1 JUMP JUMPDEST PUSH1 0x60 SWAP2 POP POP SWAP1 JUMP JUMPDEST PUSH32 0xFFFFFFFFFFFFFFFFFFFFFFFFFFFFFFFFFFFFFFFFFFFFFFFFFFFFFFFFFFFFFFE0 PUSH1 0x1F DUP4 ADD AND DUP2 ADD DUP2 DUP2 LT PUSH8 0xFFFFFFFFFFFFFFFF DUP3 GT OR ISZERO PUSH2 0x60A JUMPI PUSH2 0x60A PUSH2 0x1165 JUMP JUMPDEST PUSH1 0x40 MSTORE POP POP JUMP JUMPDEST PUSH1 0x40 MLOAD PUSH1 0x40 DUP2 ADD DUP2 DUP2 LT PUSH8 0xFFFFFFFFFFFFFFFF DUP3 GT OR ISZERO PUSH2 0x634 JUMPI PUSH2 0x634 PUSH2 0x1165 JUMP JUMPDEST PUSH1 0x40 MSTORE PUSH1 0x20 DUP1 DUP3 MSTORE PUSH32 0x5361666545524332303A206C6F772D6C6576656C2063616C6C206661696C6564 DUP3 DUP3 ADD MSTORE PUSH20 0x2791BCA1F2DE4661ED88A30C99A7A9449AA84174 DUP1 EXTCODESIZE PUSH2 0x6DA JUMPI PUSH1 0x40 MLOAD PUSH32 0x8C379A000000000000000000000000000000000000000000000000000000000 DUP2 MSTORE DUP3 PUSH1 0x4 DUP3 ADD MSTORE PUSH1 0x1D PUSH1 0x24 DUP3 ADD MSTORE PUSH32 0x416464726573733A2063616C6C20746F206E6F6E2D636F6E7472616374000000 PUSH1 0x44 DUP3 ADD MSTORE PUSH1 0x64 DUP2 REVERT JUMPDEST PUSH1 0x0 DUP1 DUP6 MLOAD DUP5 DUP8 ADD PUSH1 0x0 DUP6 GAS CALL SWAP1 POP PUSH2 0x6FB DUP4 PUSH2 0x6F5 PUSH2 0x553 JUMP JUMPDEST DUP4 PUSH2 0xA19 JUMP JUMPDEST SWAP3 POP POP DUP2 MLOAD DUP1 ISZERO PUSH2 0x71E JUMPI PUSH2 0x71E PUSH2 0x719 DUP4 DUP4 DUP7 ADD ADD DUP5 DUP7 ADD PUSH2 0x2FC JUMP JUMPDEST PUSH2 0x1282 JUMP JUMPDEST POP POP POP POP JUMP JUMPDEST PUSH20 0xFFFFFFFFFFFFFFFFFFFFFFFFFFFFFFFFFFFFFFFF PUSH1 0x0 SLOAD PUSH1 0x8 SHR AND CALLER DUP2 EQ PUSH2 0x29C JUMPI PUSH1 0x40 MLOAD PUSH32 0x8C379A000000000000000000000000000000000000000000000000000000000 DUP2 MSTORE PUSH1 0x20 PUSH1 0x4 DUP3 ADD MSTORE PUSH1 0x20 PUSH1 0x24 DUP3 ADD MSTORE PUSH32 0x4F776E61626C653A2063616C6C6572206973206E6F7420746865206F776E6572 PUSH1 0x44 DUP3 ADD MSTORE PUSH1 0x64 DUP2 REVERT JUMPDEST PUSH1 0xFF PUSH1 0x0 SLOAD AND ISZERO PUSH2 0x810 JUMPI PUSH1 0x40 MLOAD PUSH32 0x8C379A000000000000000000000000000000000000000000000000000000000 DUP2 MSTORE PUSH1 0x20 PUSH1 0x4 DUP3 ADD MSTORE PUSH1 0x10 PUSH1 0x24 DUP3 ADD MSTORE PUSH32 0x5061757361626C653A2070617573656400000000000000000000000000000000 PUSH1 0x44 DUP3 ADD MSTORE PUSH1 0x64 DUP2 REVERT JUMPDEST JUMP JUMPDEST PUSH1 0x0 PUSH20 0xAB594600376EC9FD91F8E885DADF0CE036862DE0 DUP1 EXTCODESIZE PUSH2 0x834 JUMPI PUSH1 0x0 DUP1 REVERT JUMPDEST PUSH1 0x40 MLOAD PUSH32 0xFEAF968C00000000000000000000000000000000000000000000000000000000 DUP2 MSTORE PUSH1 0xA0 DUP2 PUSH1 0x4 DUP4 DUP6 GAS STATICCALL SWAP2 POP DUP2 PUSH2 0x872 JUMPI PUSH2 0x872 PUSH2 0x130C JUMP JUMPDEST PUSH1 0x0 DUP3 ISZERO PUSH2 0x31E JUMPI PUSH2 0x884 RETURNDATASIZE DUP4 PUSH2 0x5C6 JUMP JUMPDEST PUSH1 0xA0 DUP3 RETURNDATASIZE DUP5 ADD SUB SLT ISZERO PUSH2 0x895 JUMPI DUP1 DUP2 REVERT JUMPDEST PUSH2 0x89E DUP3 PUSH2 0x24D JUMP JUMPDEST POP PUSH1 0x20 DUP3 ADD MLOAD PUSH2 0x8B0 PUSH1 0x80 DUP5 ADD PUSH2 0x24D JUMP JUMPDEST POP SWAP5 SWAP4 POP POP POP POP JUMP JUMPDEST PUSH1 0x40 MLOAD PUSH1 0x20 DUP2 ADD PUSH32 0xF82C50F100000000000000000000000000000000000000000000000000000000 DUP2 MSTORE DUP3 PUSH1 0x24 DUP4 ADD MSTORE PUSH1 0x24 DUP3 MSTORE PUSH1 0x60 DUP3 ADD DUP3 DUP2 LT PUSH8 0xFFFFFFFFFFFFFFFF DUP3 GT OR ISZERO PUSH2 0x90D JUMPI PUSH2 0x90D PUSH2 0x1165 JUMP JUMPDEST DUP1 PUSH1 0x40 MSTORE POP PUSH1 0x0 DUP1 DUP4 MLOAD DUP4 PUSH11 0x636F6E736F6C652E6C6F67 GAS STATICCALL POP POP POP POP JUMP JUMPDEST PUSH1 0x40 MLOAD PUSH32 0x23B872DD00000000000000000000000000000000000000000000000000000000 PUSH1 0x20 DUP3 ADD MSTORE PUSH20 0xFFFFFFFFFFFFFFFFFFFFFFFFFFFFFFFFFFFFFFFF DUP3 DUP2 AND PUSH1 0x24 DUP4 ADD MSTORE DUP4 AND PUSH1 0x44 DUP3 ADD MSTORE PUSH1 0x64 DUP1 DUP3 ADD DUP6 SWAP1 MSTORE DUP2 MSTORE PUSH1 0xA0 DUP2 ADD PUSH8 0xFFFFFFFFFFFFFFFF DUP2 GT DUP3 DUP3 LT OR ISZERO PUSH2 0x9A3 JUMPI PUSH2 0x9A3 PUSH2 0x1165 JUMP JUMPDEST PUSH1 0x40 MSTORE PUSH2 0x71E DUP2 PUSH2 0x611 JUMP JUMPDEST PUSH1 0x40 MLOAD PUSH32 0xA9059CBB00000000000000000000000000000000000000000000000000000000 PUSH1 0x20 DUP3 ADD MSTORE PUSH20 0xFFFFFFFFFFFFFFFFFFFFFFFFFFFFFFFFFFFFFFFF DUP3 AND PUSH1 0x24 DUP3 ADD MSTORE PUSH1 0x44 DUP1 DUP3 ADD DUP5 SWAP1 MSTORE DUP2 MSTORE PUSH1 0x64 PUSH2 0xA0A DUP2 DUP4 PUSH2 0x5C6 JUMP JUMPDEST POP PUSH2 0xA14 DUP2 PUSH2 0x611 JUMP JUMPDEST POP POP POP JUMP JUMPDEST PUSH1 0x60 DUP2 DUP1 ISZERO PUSH2 0xA2B JUMPI DUP4 SWAP2 POP POP PUSH2 0x31E JUMP JUMPDEST DUP4 MLOAD ISZERO DUP1 ISZERO SWAP1 PUSH2 0xA3D JUMPI DUP5 MLOAD DUP6 PUSH1 0x20 ADD REVERT JUMPDEST PUSH1 0x40 MLOAD PUSH32 0x8C379A000000000000000000000000000000000000000000000000000000000 DUP2 MSTORE PUSH1 0x20 DUP1 PUSH1 0x4 DUP4 ADD MSTORE DUP8 MLOAD DUP1 PUSH1 0x24 DUP5 ADD MSTORE PUSH1 0x0 JUMPDEST DUP2 DUP2 LT ISZERO PUSH2 0xA92 JUMPI DUP10 DUP2 ADD DUP4 ADD MLOAD DUP5 DUP3 ADD PUSH1 0x44 ADD MSTORE DUP3 ADD PUSH2 0xA76 JUMP JUMPDEST DUP2 DUP2 GT ISZERO PUSH2 0xAA4 JUMPI PUSH1 0x0 PUSH1 0x44 DUP4 DUP7 ADD ADD MSTORE JUMPDEST POP PUSH1 0x44 DUP4 PUSH32 0xFFFFFFFFFFFFFFFFFFFFFFFFFFFFFFFFFFFFFFFFFFFFFFFFFFFFFFFFFFFFFFE0 PUSH1 0x1F DUP5 ADD AND DUP6 ADD SUB ADD DUP4 REVERT JUMPDEST PUSH2 0xADD PUSH2 0x724 JUMP JUMPDEST PUSH1 0x0 SLOAD PUSH32 0xFFFFFFFFFFFFFFFFFFFFFF0000000000000000000000000000000000000000FF DUP2 AND PUSH1 0x0 SSTORE PUSH1 0x0 PUSH20 0xFFFFFFFFFFFFFFFFFFFFFFFFFFFFFFFFFFFFFFFF DUP3 PUSH1 0x8 SHR AND PUSH32 0x8BE0079C531659141344CD1FD0A4F28419497F9722A3DAAFE3B4186F6B6457E0 PUSH1 0x0 PUSH1 0x40 MLOAD LOG3 POP JUMP JUMPDEST PUSH2 0xB54 PUSH2 0x724 JUMP JUMPDEST PUSH20 0xFFFFFFFFFFFFFFFFFFFFFFFFFFFFFFFFFFFFFFFF DUP1 DUP3 AND PUSH2 0xBF5 JUMPI PUSH1 0x40 MLOAD PUSH32 0x8C379A000000000000000000000000000000000000000000000000000000000 DUP2 MSTORE PUSH1 0x20 PUSH1 0x4 DUP3 ADD MSTORE PUSH1 0x26 PUSH1 0x24 DUP3 ADD MSTORE PUSH32 0x4F776E61626C653A206E6577206F776E657220697320746865207A65726F2061 PUSH1 0x44 DUP3 ADD MSTORE PUSH32 0x6464726573730000000000000000000000000000000000000000000000000000 PUSH1 0x64 DUP3 ADD MSTORE PUSH1 0x84 DUP2 REVERT JUMPDEST PUSH1 0x0 SLOAD PUSH21 0xFFFFFFFFFFFFFFFFFFFFFFFFFFFFFFFFFFFFFFFF00 DUP4 PUSH1 0x8 SHL AND PUSH32 0xFFFFFFFFFFFFFFFFFFFFFF0000000000000000000000000000000000000000FF DUP3 AND OR PUSH1 0x0 SSTORE DUP3 DUP3 DUP3 PUSH1 0x8 SHR AND PUSH32 0x8BE0079C531659141344CD1FD0A4F28419497F9722A3DAAFE3B4186F6B6457E0 PUSH1 0x0 PUSH1 0x40 MLOAD LOG3 POP POP POP JUMP JUMPDEST PUSH2 0xC75 PUSH2 0x7A6 JUMP JUMPDEST PUSH1 0x2 SLOAD PUSH2 0xC81 DUP2 PUSH2 0x3B3 JUMP JUMPDEST PUSH1 0x1 SHR CALLVALUE LT ISZERO PUSH2 0xD10 JUMPI PUSH1 0x40 MLOAD PUSH32 0x8C379A000000000000000000000000000000000000000000000000000000000 DUP2 MSTORE PUSH1 0x20 PUSH1 0x4 DUP3 ADD MSTORE PUSH1 0x23 PUSH1 0x24 DUP3 ADD MSTORE PUSH32 0x596F75277265206E6F74206465706F736974696E6720656E6F75676820657468 PUSH1 0x44 DUP3 ADD MSTORE PUSH32 0x6572210000000000000000000000000000000000000000000000000000000000 PUSH1 0x64 DUP3 ADD MSTORE PUSH1 0x84 DUP2 REVERT JUMPDEST DUP1 ISZERO DUP1 ISZERO SWAP1 PUSH2 0xDB2 JUMPI PUSH2 0xD22 CALLVALUE PUSH1 0x2 SSTORE JUMP JUMPDEST PUSH2 0xD5D PUSH2 0xD44 PUSH1 0x1 SLOAD PUSH20 0xFFFFFFFFFFFFFFFFFFFFFFFFFFFFFFFFFFFFFFFF AND SWAP1 JUMP JUMPDEST PUSH20 0xFFFFFFFFFFFFFFFFFFFFFFFFFFFFFFFFFFFFFFFF AND SWAP1 JUMP JUMPDEST PUSH1 0x0 DUP1 PUSH1 0x0 PUSH1 0x40 MLOAD CALLVALUE DUP6 GAS CALL SWAP1 POP PUSH2 0xD73 PUSH2 0x553 JUMP JUMPDEST POP PUSH2 0xDAC DUP2 PUSH32 0xFFFFFFFFFFFFFFFFFFFFFFFFFFFFFFFFFFFFFFFFFFFFFFFFFFFFFFFFFFFFFF00 PUSH1 0x3 SLOAD AND PUSH1 0xFF DUP3 ISZERO ISZERO AND DUP2 OR PUSH1 0x3 SSTORE POP POP JUMP JUMPDEST POP PUSH2 0xDBB JUMP JUMPDEST PUSH2 0xDBB CALLVALUE PUSH1 0x2 SSTORE JUMP JUMPDEST POP POP PUSH1 0x1 DUP1 SLOAD PUSH32 0xFFFFFFFFFFFFFFFFFFFFFFFF0000000000000000000000000000000000000000 AND CALLER OR SWAP1 SSTORE PUSH1 0x3 SLOAD PUSH1 0xFF AND PUSH1 0x40 DUP1 MLOAD DUP3 ISZERO ISZERO DUP2 MSTORE CALLVALUE PUSH1 0x20 DUP3 ADD MSTORE CALLER SWAP2 DUP2 ADD SWAP2 SWAP1 SWAP2 MSTORE PUSH32 0x7F7CAF2CFDC2014AA045DD0EF7E9F5A6A4819E729710BED3689BA095E658738F DUP2 PUSH1 0x60 DUP2 ADD JUMPDEST SUB DUP3 LOG1 POP POP JUMP JUMPDEST PUSH2 0xE3A PUSH2 0x7A6 JUMP JUMPDEST PUSH1 0x2 SLOAD PUSH2 0xE46 DUP2 PUSH2 0x3B3 JUMP JUMPDEST PUSH2 0xE7D PUSH2 0xE75 PUSH2 0xE6F PUSH2 0xE60 PUSH2 0xE5A PUSH2 0x812 JUMP JUMPDEST DUP6 PUSH2 0x4EF JUMP JUMPDEST PUSH9 0x56BC75E2D63100000 SWAP1 DIV SWAP1 JUMP JUMPDEST PUSH1 0x1 SHR SWAP1 JUMP JUMPDEST DUP5 LT ISZERO PUSH2 0x1194 JUMP JUMPDEST POP PUSH2 0xE87 DUP2 PUSH2 0x3B3 JUMP JUMPDEST PUSH2 0xEA0 PUSH2 0xE9B PUSH2 0xE6F PUSH2 0xE60 PUSH2 0xE5A PUSH2 0x812 JUMP JUMPDEST PUSH2 0x8B9 JUMP JUMPDEST POP DUP1 ISZERO DUP1 ISZERO SWAP1 PUSH2 0xEFE JUMPI PUSH2 0xEB3 DUP4 PUSH2 0x47D JUMP JUMPDEST PUSH2 0xECC PUSH2 0xEC7 PUSH2 0xEC1 PUSH2 0x812 JUMP JUMPDEST DUP4 PUSH2 0x378 JUMP JUMPDEST PUSH1 0x2 SSTORE JUMP JUMPDEST POP PUSH2 0xEF9 DUP4 PUSH2 0xEF3 PUSH2 0xD44 PUSH1 0x1 SLOAD PUSH20 0xFFFFFFFFFFFFFFFFFFFFFFFFFFFFFFFFFFFFFFFF AND SWAP1 JUMP JUMPDEST CALLER PUSH2 0x92C JUMP JUMPDEST PUSH2 0xF17 JUMP JUMPDEST PUSH2 0xF07 DUP4 PUSH2 0x416 JUMP JUMPDEST PUSH2 0xF15 PUSH2 0xEC7 PUSH2 0xEC1 PUSH2 0x812 JUMP JUMPDEST POP JUMPDEST POP POP PUSH1 0x1 DUP1 SLOAD PUSH32 0xFFFFFFFFFFFFFFFFFFFFFFFF0000000000000000000000000000000000000000 AND CALLER OR SWAP1 SSTORE PUSH1 0x40 DUP1 MLOAD DUP3 DUP2 MSTORE CALLER PUSH1 0x20 DUP3 ADD MSTORE SWAP1 PUSH32 0xF5CB588F5F04842FA8A48FFD1F1B14B97339A788A30A4AB1C445E84F46A8B5FF SWAP1 DUP3 SWAP1 DUP2 ADD PUSH2 0xE2B JUMP JUMPDEST PUSH1 0x0 PUSH1 0xFF DUP2 SLOAD AND PUSH2 0xFE6 JUMPI PUSH1 0x40 MLOAD PUSH32 0x8C379A000000000000000000000000000000000000000000000000000000000 DUP2 MSTORE PUSH1 0x20 PUSH1 0x4 DUP3 ADD MSTORE PUSH1 0x14 PUSH1 0x24 DUP3 ADD MSTORE PUSH32 0x5061757361626C653A206E6F7420706175736564000000000000000000000000 PUSH1 0x44 DUP3 ADD MSTORE PUSH1 0x64 DUP2 REVERT JUMPDEST PUSH2 0xFEE PUSH2 0x724 JUMP JUMPDEST SELFBALANCE ISZERO PUSH2 0x1057 JUMPI SELFBALANCE DUP2 DUP3 DUP4 PUSH1 0x40 MLOAD DUP5 CALLER GAS CALL SWAP1 POP PUSH2 0x1009 PUSH2 0x553 JUMP JUMPDEST POP PUSH2 0x1042 DUP2 PUSH32 0xFFFFFFFFFFFFFFFFFFFFFFFFFFFFFFFFFFFFFFFFFFFFFFFFFFFFFFFFFFFFFF00 PUSH1 0x3 SLOAD AND PUSH1 0xFF DUP3 ISZERO ISZERO AND DUP2 OR PUSH1 0x3 SSTORE POP POP JUMP JUMPDEST POP PUSH2 0x1057 PUSH2 0x1052 PUSH1 0x3 SLOAD PUSH1 0xFF AND SWAP1 JUMP JUMPDEST PUSH2 0x121E JUMP JUMPDEST PUSH20 0x2791BCA1F2DE4661ED88A30C99A7A9449AA84174 DUP1 EXTCODESIZE PUSH2 0x1076 JUMPI DUP2 DUP3 REVERT JUMPDEST PUSH1 0x40 MLOAD PUSH32 0x70A0823100000000000000000000000000000000000000000000000000000000 DUP2 MSTORE ADDRESS PUSH1 0x4 DUP3 ADD MSTORE PUSH1 0x20 DUP2 PUSH1 0x24 DUP2 DUP6 GAS STATICCALL DUP1 PUSH2 0x10B8 JUMPI PUSH2 0x10B8 PUSH2 0x130C JUMP JUMPDEST DUP4 DUP2 ISZERO PUSH2 0x10D8 JUMPI PUSH2 0x10C9 RETURNDATASIZE DUP5 PUSH2 0x5C6 JUMP JUMPDEST PUSH2 0x10D5 RETURNDATASIZE DUP5 ADD DUP5 PUSH2 0x35F JUMP JUMPDEST SWAP1 POP JUMPDEST DUP1 ISZERO PUSH2 0x115E JUMPI DUP4 EXTCODESIZE PUSH2 0x10E8 JUMPI DUP5 DUP6 REVERT JUMPDEST PUSH1 0x40 MLOAD PUSH32 0x95EA7B300000000000000000000000000000000000000000000000000000000 DUP2 MSTORE CALLER PUSH1 0x4 DUP3 ADD MSTORE PUSH1 0x24 DUP2 ADD DUP3 SWAP1 MSTORE SWAP3 POP PUSH1 0x20 DUP4 PUSH1 0x44 DUP2 DUP9 DUP9 GAS CALL SWAP2 POP DUP2 PUSH2 0x1136 JUMPI PUSH2 0x1136 PUSH2 0x130C JUMP JUMPDEST DUP2 ISZERO PUSH2 0x1154 JUMPI PUSH2 0x1146 RETURNDATASIZE DUP5 PUSH2 0x5C6 JUMP JUMPDEST PUSH2 0x1152 RETURNDATASIZE DUP5 ADD DUP5 PUSH2 0x2FC JUMP JUMPDEST POP JUMPDEST PUSH2 0x115E DUP2 CALLER PUSH2 0x9AF JUMP JUMPDEST POP POP POP POP POP JUMP JUMPDEST PUSH32 0x4E487B7100000000000000000000000000000000000000000000000000000000 PUSH1 0x0 MSTORE PUSH1 0x41 PUSH1 0x4 MSTORE PUSH1 0x24 PUSH1 0x0 REVERT JUMPDEST DUP1 PUSH2 0x29C JUMPI PUSH1 0x40 MLOAD PUSH32 0x8C379A000000000000000000000000000000000000000000000000000000000 DUP2 MSTORE PUSH1 0x20 PUSH1 0x4 DUP3 ADD MSTORE PUSH1 0x22 PUSH1 0x24 DUP3 ADD MSTORE PUSH32 0x596F75277265206E6F74206465706F736974696E6720656E6F75676820555344 PUSH1 0x44 DUP3 ADD MSTORE PUSH32 0x4321000000000000000000000000000000000000000000000000000000000000 PUSH1 0x64 DUP3 ADD MSTORE PUSH1 0x84 DUP2 REVERT JUMPDEST DUP1 PUSH2 0x29C JUMPI PUSH1 0x40 MLOAD PUSH32 0x8C379A000000000000000000000000000000000000000000000000000000000 DUP2 MSTORE PUSH1 0x20 PUSH1 0x4 DUP3 ADD MSTORE PUSH1 0x13 PUSH1 0x24 DUP3 ADD MSTORE PUSH32 0x4572726F7220696E207769746864726177616C00000000000000000000000000 PUSH1 0x44 DUP3 ADD MSTORE PUSH1 0x64 DUP2 REVERT JUMPDEST DUP1 PUSH2 0x29C JUMPI PUSH1 0x40 MLOAD PUSH32 0x8C379A000000000000000000000000000000000000000000000000000000000 DUP2 MSTORE PUSH1 0x20 PUSH1 0x4 DUP3 ADD MSTORE PUSH1 0x2A PUSH1 0x24 DUP3 ADD MSTORE PUSH32 0x5361666545524332303A204552433230206F7065726174696F6E20646964206E PUSH1 0x44 DUP3 ADD MSTORE PUSH32 0x6F74207375636365656400000000000000000000000000000000000000000000 PUSH1 0x64 DUP3 ADD MSTORE PUSH1 0x84 DUP2 REVERT JUMPDEST PUSH1 0x40 MLOAD RETURNDATASIZE PUSH1 0x0 DUP3 RETURNDATACOPY RETURNDATASIZE DUP2 REVERT INVALID LOG3 PUSH5 0x6970667358 0x22 SLT KECCAK256 PUSH24 0x7346060E2FD8BD20B44AC88988FEE47AC2DE3D5B66D83D33 0xEA 0xF8 SWAP3 PUSH13 0x6F00DA6C6578706572696D656E PUSH21 0x616CF564736F6C6343000807004100000000000000 "},"methodIdentifiers":{"MATIC_USD_ORACLE()":"8db9f39a","USDC_ADDRESS()":"bb09d9b7","deposit(uint256)":"b6b55f25","emergencyWithdraw()":"db2e21bc","getKing()":"7920d804","maximumPaid()":"423cb99e","owner()":"8da5cb5b","paused()":"5c975abb","renounceOwnership()":"715018a6","transferOwnership(address)":"f2fde38b"}}}}}