{"contracts/King.sol":{"King":{"abi":[{"inputs":[],"name":"MATIC_USD_ORACLE","outputs":[{"internalType":"address","name":"","type":"address"}],"stateMutability":"view","type":"function"},{"inputs":[],"name":"USDC_ADDRESS","outputs":[{"internalType":"address","name":"","type":"address"}],"stateMutability":"view","type":"function"},{"inputs":[],"name":"_king","outputs":[{"internalType":"address payable","name":"","type":"address"}],"stateMutability":"view","type":"function"},{"inputs":[{"internalType":"uint256","name":"deposit_amount","type":"uint256"}],"name":"deposit","outputs":[],"stateMutability":"nonpayable","type":"function"},{"inputs":[{"internalType":"address","name":"_oracle_address","type":"address"}],"name":"getLatestPrice","outputs":[{"internalType":"int256","name":"","type":"int256"}],"stateMutability":"view","type":"function"},{"inputs":[],"name":"previous_maximum","outputs":[{"internalType":"uint256","name":"","type":"uint256"}],"stateMutability":"view","type":"function"},{"inputs":[],"name":"previous_usdc_maximum","outputs":[{"internalType":"uint256","name":"","type":"uint256"}],"stateMutability":"view","type":"function"},{"stateMutability":"payable","type":"receive"}],"evm":{"bytecode":{"linkReferences":{},"object":"60808060405234610016576107c4908161001c8239f35b600080fdfe60806040526004361015610023575b361561001957600080fd5b6100216106e3565b005b6000803560e01c90816316345f18146100b25750806329cc6d6f146100a95780636e4a17d3146100a05780638db9f39a146100975780639144c2541461008e578063b6b55f25146100855763bb09d9b70361000e576100806103ce565b61000e565b50610080610238565b506100806101fb565b506100806101ad565b50610080610170565b50610080610118565b346101155760207ffffffffffffffffffffffffffffffffffffffffffffffffffffffffffffffffc360112610115576004359073ffffffffffffffffffffffffffffffffffffffff8216820361011557602061010d8361055c565b604051908152f35b80fd5b503461016b5760007ffffffffffffffffffffffffffffffffffffffffffffffffffffffffffffffffc36011261016b57602073ffffffffffffffffffffffffffffffffffffffff60005416604051908152f35b600080fd5b503461016b5760007ffffffffffffffffffffffffffffffffffffffffffffffffffffffffffffffffc36011261016b576020600254604051908152f35b503461016b5760007ffffffffffffffffffffffffffffffffffffffffffffffffffffffffffffffffc36011261016b57602060405173ab594600376ec9fd91f8e885dadf0ce036862de08152f35b503461016b5760007ffffffffffffffffffffffffffffffffffffffffffffffffffffffffffffffffc36011261016b576020600154604051908152f35b503461016b5760207ffffffffffffffffffffffffffffffffffffffffffffffffffffffffffffffffc36011261016b576100216102df6004356001546102a261029a610294610286846105b5565b61028e6104b0565b90610614565b60011c90565b83101561067e565b6102e4575b600080547fffffffffffffffffffffffff000000000000000000000000000000000000000016331790556102d96104b0565b90610645565b600155565b61036660208261030960005473ffffffffffffffffffffffffffffffffffffffff1690565b6040517f23b872dd00000000000000000000000000000000000000000000000000000000815233600482015273ffffffffffffffffffffffffffffffffffffffff9091166024820152604481019190915291829081906064820190565b03816000732791bca1f2de4661ed88a30c99a7a9449aa841745af180156103c1575b610393575b506102a7565b6103b39060203d81116103ba575b6103ab818361041c565b810190610776565b503861038d565b503d6103a1565b6103c96104a3565b610388565b503461016b5760007ffffffffffffffffffffffffffffffffffffffffffffffffffffffffffffffffc36011261016b576020604051732791bca1f2de4661ed88a30c99a7a9449aa841748152f35b90601f7fffffffffffffffffffffffffffffffffffffffffffffffffffffffffffffffe0910116810190811067ffffffffffffffff82111761045d57604052565b7f4e487b7100000000000000000000000000000000000000000000000000000000600052604160045260246000fd5b519069ffffffffffffffffffff8216820361016b57565b506040513d6000823e3d90fd5b6040517ffeaf968c00000000000000000000000000000000000000000000000000000000815260a08160048173ab594600376ec9fd91f8e885dadf0ce036862de05afa90811561054f575b600091610506575090565b9060a0823d8211610547575b8161051f60a0938361041c565b8101031261011557506105318161048c565b5061054360806020830151920161048c565b5090565b3d9150610512565b6105576104a3565b6104fb565b60a073ffffffffffffffffffffffffffffffffffffffff916004604051809481937ffeaf968c000000000000000000000000000000000000000000000000000000008352165afa90811561054f57600091610506575090565b7f555555555555555555555555555555555555555555555555555555555555555581116001166105e55760030290565b7f4e487b7100000000000000000000000000000000000000000000000000000000600052601160045260246000fd5b807fffffffffffffffffffffffffffffffffffffffffffffffffffffffffffffffff048211811515166105e5570290565b811561064f570490565b7f4e487b7100000000000000000000000000000000000000000000000000000000600052601260045260246000fd5b1561068557565b60646040517f08c379a000000000000000000000000000000000000000000000000000000000815260206004820152601c60248201527f596f7520646f6e2774206861766520656e6f75676820657468657221000000006044820152fd5b6001546106fd6106f2826105b5565b60011c34101561067e565b610732575b600080547fffffffffffffffffffffffff0000000000000000000000000000000000000000163317905534600155565b600080808073ffffffffffffffffffffffffffffffffffffffff8154168190341561076c575b3491f1610702576107676104a3565b610702565b6108fc9150610758565b9081602091031261016b5751801515810361016b579056fea2646970667358221220e9219b14c51f9604886453b681967251997079d7b6fccfd0c2a5f098e35b197364736f6c634300080d0033","opcodes":"PUSH1 0x80 DUP1 PUSH1 0x40 MSTORE CALLVALUE PUSH2 0x16 JUMPI PUSH2 0x7C4 SWAP1 DUP2 PUSH2 0x1C DUP3 CODECOPY RETURN JUMPDEST PUSH1 0x0 DUP1 REVERT INVALID PUSH1 0x80 PUSH1 0x40 MSTORE PUSH1 0x4 CALLDATASIZE LT ISZERO PUSH2 0x23 JUMPI JUMPDEST CALLDATASIZE ISZERO PUSH2 0x19 JUMPI PUSH1 0x0 DUP1 REVERT JUMPDEST PUSH2 0x21 PUSH2 0x6E3 JUMP JUMPDEST STOP JUMPDEST PUSH1 0x0 DUP1 CALLDATALOAD PUSH1 0xE0 SHR SWAP1 DUP2 PUSH4 0x16345F18 EQ PUSH2 0xB2 JUMPI POP DUP1 PUSH4 0x29CC6D6F EQ PUSH2 0xA9 JUMPI DUP1 PUSH4 0x6E4A17D3 EQ PUSH2 0xA0 JUMPI DUP1 PUSH4 0x8DB9F39A EQ PUSH2 0x97 JUMPI DUP1 PUSH4 0x9144C254 EQ PUSH2 0x8E JUMPI DUP1 PUSH4 0xB6B55F25 EQ PUSH2 0x85 JUMPI PUSH4 0xBB09D9B7 SUB PUSH2 0xE JUMPI PUSH2 0x80 PUSH2 0x3CE JUMP JUMPDEST PUSH2 0xE JUMP JUMPDEST POP PUSH2 0x80 PUSH2 0x238 JUMP JUMPDEST POP PUSH2 0x80 PUSH2 0x1FB JUMP JUMPDEST POP PUSH2 0x80 PUSH2 0x1AD JUMP JUMPDEST POP PUSH2 0x80 PUSH2 0x170 JUMP JUMPDEST POP PUSH2 0x80 PUSH2 0x118 JUMP JUMPDEST CALLVALUE PUSH2 0x115 JUMPI PUSH1 0x20 PUSH32 0xFFFFFFFFFFFFFFFFFFFFFFFFFFFFFFFFFFFFFFFFFFFFFFFFFFFFFFFFFFFFFFFC CALLDATASIZE ADD SLT PUSH2 0x115 JUMPI PUSH1 0x4 CALLDATALOAD SWAP1 PUSH20 0xFFFFFFFFFFFFFFFFFFFFFFFFFFFFFFFFFFFFFFFF DUP3 AND DUP3 SUB PUSH2 0x115 JUMPI PUSH1 0x20 PUSH2 0x10D DUP4 PUSH2 0x55C JUMP JUMPDEST PUSH1 0x40 MLOAD SWAP1 DUP2 MSTORE RETURN JUMPDEST DUP1 REVERT JUMPDEST POP CALLVALUE PUSH2 0x16B JUMPI PUSH1 0x0 PUSH32 0xFFFFFFFFFFFFFFFFFFFFFFFFFFFFFFFFFFFFFFFFFFFFFFFFFFFFFFFFFFFFFFFC CALLDATASIZE ADD SLT PUSH2 0x16B JUMPI PUSH1 0x20 PUSH20 0xFFFFFFFFFFFFFFFFFFFFFFFFFFFFFFFFFFFFFFFF PUSH1 0x0 SLOAD AND PUSH1 0x40 MLOAD SWAP1 DUP2 MSTORE RETURN JUMPDEST PUSH1 0x0 DUP1 REVERT JUMPDEST POP CALLVALUE PUSH2 0x16B JUMPI PUSH1 0x0 PUSH32 0xFFFFFFFFFFFFFFFFFFFFFFFFFFFFFFFFFFFFFFFFFFFFFFFFFFFFFFFFFFFFFFFC CALLDATASIZE ADD SLT PUSH2 0x16B JUMPI PUSH1 0x20 PUSH1 0x2 SLOAD PUSH1 0x40 MLOAD SWAP1 DUP2 MSTORE RETURN JUMPDEST POP CALLVALUE PUSH2 0x16B JUMPI PUSH1 0x0 PUSH32 0xFFFFFFFFFFFFFFFFFFFFFFFFFFFFFFFFFFFFFFFFFFFFFFFFFFFFFFFFFFFFFFFC CALLDATASIZE ADD SLT PUSH2 0x16B JUMPI PUSH1 0x20 PUSH1 0x40 MLOAD PUSH20 0xAB594600376EC9FD91F8E885DADF0CE036862DE0 DUP2 MSTORE RETURN JUMPDEST POP CALLVALUE PUSH2 0x16B JUMPI PUSH1 0x0 PUSH32 0xFFFFFFFFFFFFFFFFFFFFFFFFFFFFFFFFFFFFFFFFFFFFFFFFFFFFFFFFFFFFFFFC CALLDATASIZE ADD SLT PUSH2 0x16B JUMPI PUSH1 0x20 PUSH1 0x1 SLOAD PUSH1 0x40 MLOAD SWAP1 DUP2 MSTORE RETURN JUMPDEST POP CALLVALUE PUSH2 0x16B JUMPI PUSH1 0x20 PUSH32 0xFFFFFFFFFFFFFFFFFFFFFFFFFFFFFFFFFFFFFFFFFFFFFFFFFFFFFFFFFFFFFFFC CALLDATASIZE ADD SLT PUSH2 0x16B JUMPI PUSH2 0x21 PUSH2 0x2DF PUSH1 0x4 CALLDATALOAD PUSH1 0x1 SLOAD PUSH2 0x2A2 PUSH2 0x29A PUSH2 0x294 PUSH2 0x286 DUP5 PUSH2 0x5B5 JUMP JUMPDEST PUSH2 0x28E PUSH2 0x4B0 JUMP JUMPDEST SWAP1 PUSH2 0x614 JUMP JUMPDEST PUSH1 0x1 SHR SWAP1 JUMP JUMPDEST DUP4 LT ISZERO PUSH2 0x67E JUMP JUMPDEST PUSH2 0x2E4 JUMPI JUMPDEST PUSH1 0x0 DUP1 SLOAD PUSH32 0xFFFFFFFFFFFFFFFFFFFFFFFF0000000000000000000000000000000000000000 AND CALLER OR SWAP1 SSTORE PUSH2 0x2D9 PUSH2 0x4B0 JUMP JUMPDEST SWAP1 PUSH2 0x645 JUMP JUMPDEST PUSH1 0x1 SSTORE JUMP JUMPDEST PUSH2 0x366 PUSH1 0x20 DUP3 PUSH2 0x309 PUSH1 0x0 SLOAD PUSH20 0xFFFFFFFFFFFFFFFFFFFFFFFFFFFFFFFFFFFFFFFF AND SWAP1 JUMP JUMPDEST PUSH1 0x40 MLOAD PUSH32 0x23B872DD00000000000000000000000000000000000000000000000000000000 DUP2 MSTORE CALLER PUSH1 0x4 DUP3 ADD MSTORE PUSH20 0xFFFFFFFFFFFFFFFFFFFFFFFFFFFFFFFFFFFFFFFF SWAP1 SWAP2 AND PUSH1 0x24 DUP3 ADD MSTORE PUSH1 0x44 DUP2 ADD SWAP2 SWAP1 SWAP2 MSTORE SWAP2 DUP3 SWAP1 DUP2 SWAP1 PUSH1 0x64 DUP3 ADD SWAP1 JUMP JUMPDEST SUB DUP2 PUSH1 0x0 PUSH20 0x2791BCA1F2DE4661ED88A30C99A7A9449AA84174 GAS CALL DUP1 ISZERO PUSH2 0x3C1 JUMPI JUMPDEST PUSH2 0x393 JUMPI JUMPDEST POP PUSH2 0x2A7 JUMP JUMPDEST PUSH2 0x3B3 SWAP1 PUSH1 0x20 RETURNDATASIZE DUP2 GT PUSH2 0x3BA JUMPI JUMPDEST PUSH2 0x3AB DUP2 DUP4 PUSH2 0x41C JUMP JUMPDEST DUP2 ADD SWAP1 PUSH2 0x776 JUMP JUMPDEST POP CODESIZE PUSH2 0x38D JUMP JUMPDEST POP RETURNDATASIZE PUSH2 0x3A1 JUMP JUMPDEST PUSH2 0x3C9 PUSH2 0x4A3 JUMP JUMPDEST PUSH2 0x388 JUMP JUMPDEST POP CALLVALUE PUSH2 0x16B JUMPI PUSH1 0x0 PUSH32 0xFFFFFFFFFFFFFFFFFFFFFFFFFFFFFFFFFFFFFFFFFFFFFFFFFFFFFFFFFFFFFFFC CALLDATASIZE ADD SLT PUSH2 0x16B JUMPI PUSH1 0x20 PUSH1 0x40 MLOAD PUSH20 0x2791BCA1F2DE4661ED88A30C99A7A9449AA84174 DUP2 MSTORE RETURN JUMPDEST SWAP1 PUSH1 0x1F PUSH32 0xFFFFFFFFFFFFFFFFFFFFFFFFFFFFFFFFFFFFFFFFFFFFFFFFFFFFFFFFFFFFFFE0 SWAP2 ADD AND DUP2 ADD SWAP1 DUP2 LT PUSH8 0xFFFFFFFFFFFFFFFF DUP3 GT OR PUSH2 0x45D JUMPI PUSH1 0x40 MSTORE JUMP JUMPDEST PUSH32 0x4E487B7100000000000000000000000000000000000000000000000000000000 PUSH1 0x0 MSTORE PUSH1 0x41 PUSH1 0x4 MSTORE PUSH1 0x24 PUSH1 0x0 REVERT JUMPDEST MLOAD SWAP1 PUSH10 0xFFFFFFFFFFFFFFFFFFFF DUP3 AND DUP3 SUB PUSH2 0x16B JUMPI JUMP JUMPDEST POP PUSH1 0x40 MLOAD RETURNDATASIZE PUSH1 0x0 DUP3 RETURNDATACOPY RETURNDATASIZE SWAP1 REVERT JUMPDEST PUSH1 0x40 MLOAD PUSH32 0xFEAF968C00000000000000000000000000000000000000000000000000000000 DUP2 MSTORE PUSH1 0xA0 DUP2 PUSH1 0x4 DUP2 PUSH20 0xAB594600376EC9FD91F8E885DADF0CE036862DE0 GAS STATICCALL SWAP1 DUP2 ISZERO PUSH2 0x54F JUMPI JUMPDEST PUSH1 0x0 SWAP2 PUSH2 0x506 JUMPI POP SWAP1 JUMP JUMPDEST SWAP1 PUSH1 0xA0 DUP3 RETURNDATASIZE DUP3 GT PUSH2 0x547 JUMPI JUMPDEST DUP2 PUSH2 0x51F PUSH1 0xA0 SWAP4 DUP4 PUSH2 0x41C JUMP JUMPDEST DUP2 ADD SUB SLT PUSH2 0x115 JUMPI POP PUSH2 0x531 DUP2 PUSH2 0x48C JUMP JUMPDEST POP PUSH2 0x543 PUSH1 0x80 PUSH1 0x20 DUP4 ADD MLOAD SWAP3 ADD PUSH2 0x48C JUMP JUMPDEST POP SWAP1 JUMP JUMPDEST RETURNDATASIZE SWAP2 POP PUSH2 0x512 JUMP JUMPDEST PUSH2 0x557 PUSH2 0x4A3 JUMP JUMPDEST PUSH2 0x4FB JUMP JUMPDEST PUSH1 0xA0 PUSH20 0xFFFFFFFFFFFFFFFFFFFFFFFFFFFFFFFFFFFFFFFF SWAP2 PUSH1 0x4 PUSH1 0x40 MLOAD DUP1 SWAP5 DUP2 SWAP4 PUSH32 0xFEAF968C00000000000000000000000000000000000000000000000000000000 DUP4 MSTORE AND GAS STATICCALL SWAP1 DUP2 ISZERO PUSH2 0x54F JUMPI PUSH1 0x0 SWAP2 PUSH2 0x506 JUMPI POP SWAP1 JUMP JUMPDEST PUSH32 0x5555555555555555555555555555555555555555555555555555555555555555 DUP2 GT PUSH1 0x1 AND PUSH2 0x5E5 JUMPI PUSH1 0x3 MUL SWAP1 JUMP JUMPDEST PUSH32 0x4E487B7100000000000000000000000000000000000000000000000000000000 PUSH1 0x0 MSTORE PUSH1 0x11 PUSH1 0x4 MSTORE PUSH1 0x24 PUSH1 0x0 REVERT JUMPDEST DUP1 PUSH32 0xFFFFFFFFFFFFFFFFFFFFFFFFFFFFFFFFFFFFFFFFFFFFFFFFFFFFFFFFFFFFFFFF DIV DUP3 GT DUP2 ISZERO ISZERO AND PUSH2 0x5E5 JUMPI MUL SWAP1 JUMP JUMPDEST DUP2 ISZERO PUSH2 0x64F JUMPI DIV SWAP1 JUMP JUMPDEST PUSH32 0x4E487B7100000000000000000000000000000000000000000000000000000000 PUSH1 0x0 MSTORE PUSH1 0x12 PUSH1 0x4 MSTORE PUSH1 0x24 PUSH1 0x0 REVERT JUMPDEST ISZERO PUSH2 0x685 JUMPI JUMP JUMPDEST PUSH1 0x64 PUSH1 0x40 MLOAD PUSH32 0x8C379A000000000000000000000000000000000000000000000000000000000 DUP2 MSTORE PUSH1 0x20 PUSH1 0x4 DUP3 ADD MSTORE PUSH1 0x1C PUSH1 0x24 DUP3 ADD MSTORE PUSH32 0x596F7520646F6E2774206861766520656E6F7567682065746865722100000000 PUSH1 0x44 DUP3 ADD MSTORE REVERT JUMPDEST PUSH1 0x1 SLOAD PUSH2 0x6FD PUSH2 0x6F2 DUP3 PUSH2 0x5B5 JUMP JUMPDEST PUSH1 0x1 SHR CALLVALUE LT ISZERO PUSH2 0x67E JUMP JUMPDEST PUSH2 0x732 JUMPI JUMPDEST PUSH1 0x0 DUP1 SLOAD PUSH32 0xFFFFFFFFFFFFFFFFFFFFFFFF0000000000000000000000000000000000000000 AND CALLER OR SWAP1 SSTORE CALLVALUE PUSH1 0x1 SSTORE JUMP JUMPDEST PUSH1 0x0 DUP1 DUP1 DUP1 PUSH20 0xFFFFFFFFFFFFFFFFFFFFFFFFFFFFFFFFFFFFFFFF DUP2 SLOAD AND DUP2 SWAP1 CALLVALUE ISZERO PUSH2 0x76C JUMPI JUMPDEST CALLVALUE SWAP2 CALL PUSH2 0x702 JUMPI PUSH2 0x767 PUSH2 0x4A3 JUMP JUMPDEST PUSH2 0x702 JUMP JUMPDEST PUSH2 0x8FC SWAP2 POP PUSH2 0x758 JUMP JUMPDEST SWAP1 DUP2 PUSH1 0x20 SWAP2 SUB SLT PUSH2 0x16B JUMPI MLOAD DUP1 ISZERO ISZERO DUP2 SUB PUSH2 0x16B JUMPI SWAP1 JUMP INVALID LOG2 PUSH5 0x6970667358 0x22 SLT KECCAK256 0xE9 0x21 SWAP12 EQ 0xC5 0x1F SWAP7 DIV DUP9 PUSH5 0x53B6819672 MLOAD SWAP10 PUSH17 0x79D7B6FCCFD0C2A5F098E35B197364736F PUSH13 0x634300080D0033000000000000 "},"methodIdentifiers":{"MATIC_USD_ORACLE()":"8db9f39a","USDC_ADDRESS()":"bb09d9b7","_king()":"29cc6d6f","deposit(uint256)":"b6b55f25","getLatestPrice(address)":"16345f18","previous_maximum()":"9144c254","previous_usdc_maximum()":"6e4a17d3"}}}}}