{"contracts/King.sol":{"King":{"abi":[{"anonymous":false,"inputs":[{"indexed":false,"internalType":"bool","name":"sent","type":"bool"},{"indexed":false,"internalType":"uint256","name":"balance","type":"uint256"}],"name":"EthEmergencyWithdrawal","type":"event"},{"anonymous":false,"inputs":[{"indexed":false,"internalType":"bool","name":"success","type":"bool"},{"indexed":false,"internalType":"uint256","name":"amount","type":"uint256"},{"indexed":false,"internalType":"address","name":"king","type":"address"}],"name":"EthSent","type":"event"},{"anonymous":false,"inputs":[{"indexed":false,"internalType":"uint256","name":"gasAmount","type":"uint256"}],"name":"GasAllocatedForKingPayment","type":"event"},{"anonymous":false,"inputs":[{"indexed":true,"internalType":"address","name":"previousOwner","type":"address"},{"indexed":true,"internalType":"address","name":"newOwner","type":"address"}],"name":"OwnershipTransferred","type":"event"},{"anonymous":false,"inputs":[{"indexed":false,"internalType":"uint256","name":"amount","type":"uint256"},{"indexed":false,"internalType":"address","name":"king","type":"address"}],"name":"UsdcDeposit","type":"event"},{"anonymous":false,"inputs":[{"indexed":false,"internalType":"uint256","name":"usdcBalance","type":"uint256"}],"name":"UsdcEmergencyWithdrawal","type":"event"},{"inputs":[],"name":"MATIC_USD_ORACLE","outputs":[{"internalType":"address","name":"","type":"address"}],"stateMutability":"view","type":"function"},{"inputs":[],"name":"USDC_ADDRESS","outputs":[{"internalType":"address","name":"","type":"address"}],"stateMutability":"view","type":"function"},{"inputs":[{"internalType":"uint256","name":"depositAmount","type":"uint256"}],"name":"depositUsdc","outputs":[],"stateMutability":"nonpayable","type":"function"},{"inputs":[],"name":"emergencyWithdraw","outputs":[],"stateMutability":"nonpayable","type":"function"},{"inputs":[],"name":"gasAllocatedForKingPayment","outputs":[{"internalType":"uint256","name":"","type":"uint256"}],"stateMutability":"view","type":"function"},{"inputs":[],"name":"getKing","outputs":[{"internalType":"address payable","name":"","type":"address"}],"stateMutability":"view","type":"function"},{"inputs":[],"name":"maximumPaid","outputs":[{"internalType":"uint256","name":"","type":"uint256"}],"stateMutability":"view","type":"function"},{"inputs":[],"name":"owner","outputs":[{"internalType":"address","name":"","type":"address"}],"stateMutability":"view","type":"function"},{"inputs":[],"name":"renounceOwnership","outputs":[],"stateMutability":"nonpayable","type":"function"},{"inputs":[{"internalType":"uint256","name":"gasAmount","type":"uint256"}],"name":"setGasAllocatedForKingPayment","outputs":[],"stateMutability":"nonpayable","type":"function"},{"inputs":[{"internalType":"address","name":"newOwner","type":"address"}],"name":"transferOwnership","outputs":[],"stateMutability":"nonpayable","type":"function"},{"stateMutability":"payable","type":"receive"}],"evm":{"bytecode":{"linkReferences":{},"object":"608080604052346100615760008054336001600160a01b0319821681178355916001600160a01b03909116907f8be0079c531659141344cd1fd0a4f28419497f9722a3daafe3b4186f6b6457e09080a36108fc60035561111890816100678239f35b600080fdfe6040608081526004803610156101b1575b361561001b57600080fd5b60025490816003026003810483036101835760011c34106101005750156100cf5760607fd29d20006af4e9b0cd7e6d299270d7a18b7afc3b52c437367b874ebfd0a6363891600080808060015434600255337fffffffffffffffffffffffff000000000000000000000000000000000000000082161760015573ffffffffffffffffffffffffffffffffffffffff349116600354f1906100b9610d70565b50805191151582523460208301523390820152a1005b5034600255337fffffffffffffffffffffffff00000000000000000000000000000000000000006001541617600155005b60849060208451917f08c379a0000000000000000000000000000000000000000000000000000000008352820152602360248201527f596f75277265206e6f74206465706f736974696e6720656e6f7567682065746860448201527f65722100000000000000000000000000000000000000000000000000000000006064820152fd5b6011827f4e487b71000000000000000000000000000000000000000000000000000000006000525260246000fd5b6000803560e01c80631f19ec2914610c145780632357928e14610978578063423cb99e1461093b5780634d3e8f0a146108fe578063715018a61461085f5780637920d8041461080c5780638da5cb5b146107bb5780638db9f39a1461076e578063bb09d9b71461071d578063db2e21bc146103755763f2fde38b146102365750610010565b91346103715760207ffffffffffffffffffffffffffffffffffffffffffffffffffffffffffffffffc3601126103715781359173ffffffffffffffffffffffffffffffffffffffff9182841680940361036d57610291610c81565b83156102ea5750508254827fffffffffffffffffffffffff00000000000000000000000000000000000000008216178455167f8be0079c531659141344cd1fd0a4f28419497f9722a3daafe3b4186f6b6457e08380a380f35b90602060849251917f08c379a0000000000000000000000000000000000000000000000000000000008352820152602660248201527f4f776e61626c653a206e6577206f776e657220697320746865207a65726f206160448201527f64647265737300000000000000000000000000000000000000000000000000006064820152fd5b8480fd5b8280fd5b5091903461037157827ffffffffffffffffffffffffffffffffffffffffffffffffffffffffffffffffc360112610371576103ae610c81565b47610676575b81517f70a082310000000000000000000000000000000000000000000000000000000081523082820152602091732791bca1f2de4661ed88a30c99a7a9449aa841748383602481845afa92831561063d578693610647575b5082158015918261041b578780f35b85917feb1bb465721b1baf11a4b364962aa63e8183707b2a9eb8e1e4994504aefb4622838951888152a1926105bb575b505015610539575082517f095ea7b300000000000000000000000000000000000000000000000000000000838201523360248201526044808201839052815261052e937fa9059cbb00000000000000000000000000000000000000000000000000000000936104e9937fffffffffffffffffffffffffffffffffffffffffffffffffffffffffffffffe0939192610522926104ee9087606482610d00565b610dce565b5195869384015233602484016020909392919373ffffffffffffffffffffffffffffffffffffffff60408201951681520152565b03908101835282610d00565b388080808080808780f35b608490838551917f08c379a0000000000000000000000000000000000000000000000000000000008352820152603660248201527f5361666545524332303a20617070726f76652066726f6d206e6f6e2d7a65726f60448201527f20746f206e6f6e2d7a65726f20616c6c6f77616e6365000000000000000000006064820152fd5b604492508651928380927fdd62ed3e00000000000000000000000000000000000000000000000000000000825230878301523360248301525afa90811561063d57869161060c575b5015833861044b565b90508381813d8311610636575b6106238183610d00565b81010312610632575138610603565b8580fd5b503d610619565b85513d88823e3d90fd5b9092508381813d831161066f575b61065f8183610d00565b810103126106325751913861040c565b503d610655565b8280808047335af1610686610d70565b50156106c1577f029c9780294ed370bdadf9d028c337ec660b4de49f16aac94ba5645e6c1b4d318247815190600182526020820152a16103b4565b602060649251917f08c379a0000000000000000000000000000000000000000000000000000000008352820152601360248201527f4572726f7220696e207769746864726177616c000000000000000000000000006044820152fd5b50823461076a57817ffffffffffffffffffffffffffffffffffffffffffffffffffffffffffffffffc36011261076a5760209051732791bca1f2de4661ed88a30c99a7a9449aa841748152f35b5080fd5b50823461076a57817ffffffffffffffffffffffffffffffffffffffffffffffffffffffffffffffffc36011261076a576020905173ab594600376ec9fd91f8e885dadf0ce036862de08152f35b50823461076a57817ffffffffffffffffffffffffffffffffffffffffffffffffffffffffffffffffc36011261076a5773ffffffffffffffffffffffffffffffffffffffff60209254169051908152f35b50823461076a57817ffffffffffffffffffffffffffffffffffffffffffffffffffffffffffffffffc36011261076a5760209073ffffffffffffffffffffffffffffffffffffffff600154169051908152f35b50346108fb57807ffffffffffffffffffffffffffffffffffffffffffffffffffffffffffffffffc3601126108fb57610896610c81565b8073ffffffffffffffffffffffffffffffffffffffff81547fffffffffffffffffffffffff000000000000000000000000000000000000000081168355167f8be0079c531659141344cd1fd0a4f28419497f9722a3daafe3b4186f6b6457e08280a380f35b80fd5b50823461076a57817ffffffffffffffffffffffffffffffffffffffffffffffffffffffffffffffffc36011261076a576020906003549051908152f35b50823461076a57817ffffffffffffffffffffffffffffffffffffffffffffffffffffffffffffffffc36011261076a576020906002549051908152f35b50823461076a5760207ffffffffffffffffffffffffffffffffffffffffffffffffffffffffffffffffc36011261076a57823590600254918260030292600384048103610b5e576109c7611038565b93600385830202948186041490151715610b5e5768056bc75e2d6310000080940460011c8210610b915715610b8a5773ffffffffffffffffffffffffffffffffffffffff60015416925b337fffffffffffffffffffffffff00000000000000000000000000000000000000006001541617600155808202908282041482151715610b5e57610a53611038565b908115610b3257046002557ff5cb588f5f04842fa8a48ffd1f1b14b97339a788a30a4ab1c445e84f46a8b5ff828051838152336020820152a173ffffffffffffffffffffffffffffffffffffffff8251937f23b872dd00000000000000000000000000000000000000000000000000000000602086015233602486015216604484015260648301526064825260a082019082821067ffffffffffffffff831117610b0657610b0393945052610dce565b80f35b6024846041877f4e487b7100000000000000000000000000000000000000000000000000000000835252fd5b6024866012897f4e487b7100000000000000000000000000000000000000000000000000000000835252fd5b6024856011887f4e487b7100000000000000000000000000000000000000000000000000000000835252fd5b3092610a11565b60848660208551917f08c379a0000000000000000000000000000000000000000000000000000000008352820152602260248201527f596f75277265206e6f74206465706f736974696e6720656e6f7567682055534460448201527f43210000000000000000000000000000000000000000000000000000000000006064820152fd5b509190346103715760207ffffffffffffffffffffffffffffffffffffffffffffffffffffffffffffffffc360112610371577f0501d492551db2cd7156eecde86493a333f12237a6f0e0ad1d4c61d507e2901c916020913590610c75610c81565b8160035551908152a180f35b73ffffffffffffffffffffffffffffffffffffffff600054163303610ca257565b60646040517f08c379a000000000000000000000000000000000000000000000000000000000815260206004820152602060248201527f4f776e61626c653a2063616c6c6572206973206e6f7420746865206f776e65726044820152fd5b90601f7fffffffffffffffffffffffffffffffffffffffffffffffffffffffffffffffe0910116810190811067ffffffffffffffff821117610d4157604052565b7f4e487b7100000000000000000000000000000000000000000000000000000000600052604160045260246000fd5b3d15610dc9573d9067ffffffffffffffff8211610d415760405191610dbd60207fffffffffffffffffffffffffffffffffffffffffffffffffffffffffffffffe0601f8401160184610d00565b82523d6000602084013e565b606090565b604051906040820182811067ffffffffffffffff821117610d41576040526020918281527f5361666545524332303a206c6f772d6c6576656c2063616c6c206661696c656483820152732791bca1f2de4661ed88a30c99a7a9449aa84174803b15610f0e5790610e569160008481959282888195519301915af1610e50610d70565b90610f6c565b805180610e64575b50505050565b8184918101031261076a57820151908115918215036108fb5750610e8a57808080610e5e565b608490604051907f08c379a00000000000000000000000000000000000000000000000000000000082526004820152602a60248201527f5361666545524332303a204552433230206f7065726174696f6e20646964206e60448201527f6f742073756363656564000000000000000000000000000000000000000000006064820152fd5b606484604051907f08c379a00000000000000000000000000000000000000000000000000000000082526004820152601d60248201527f416464726573733a2063616c6c20746f206e6f6e2d636f6e74726163740000006044820152fd5b90919015610f78575090565b815115610f885750805190602001fd5b604051907f08c379a000000000000000000000000000000000000000000000000000000000825281602080600483015282519283602484015260005b848110611005575050507fffffffffffffffffffffffffffffffffffffffffffffffffffffffffffffffe0601f836000604480968601015201168101030190fd5b818101830151868201604401528593508201610fc4565b519069ffffffffffffffffffff8216820361103357565b600080fd5b6040517ffeaf968c00000000000000000000000000000000000000000000000000000000815260a08160048173ab594600376ec9fd91f8e885dadf0ce036862de05afa9081156110d65760009161108d575090565b9060a0823d82116110ce575b816110a660a09383610d00565b810103126108fb57506110b88161101c565b506110ca60806020830151920161101c565b5090565b3d9150611099565b6040513d6000823e3d90fdfea264697066735822122013d46e8bededd08871b76c655d20bf7b77f192a75cc1edeca3569838945f7c9f64736f6c63430008110033","opcodes":"PUSH1 0x80 DUP1 PUSH1 0x40 MSTORE CALLVALUE PUSH2 0x61 JUMPI PUSH1 0x0 DUP1 SLOAD CALLER PUSH1 0x1 PUSH1 0x1 PUSH1 0xA0 SHL SUB NOT DUP3 AND DUP2 OR DUP4 SSTORE SWAP2 PUSH1 0x1 PUSH1 0x1 PUSH1 0xA0 SHL SUB SWAP1 SWAP2 AND SWAP1 PUSH32 0x8BE0079C531659141344CD1FD0A4F28419497F9722A3DAAFE3B4186F6B6457E0 SWAP1 DUP1 LOG3 PUSH2 0x8FC PUSH1 0x3 SSTORE PUSH2 0x1118 SWAP1 DUP2 PUSH2 0x67 DUP3 CODECOPY RETURN JUMPDEST PUSH1 0x0 DUP1 REVERT INVALID PUSH1 0x40 PUSH1 0x80 DUP2 MSTORE PUSH1 0x4 DUP1 CALLDATASIZE LT ISZERO PUSH2 0x1B1 JUMPI JUMPDEST CALLDATASIZE ISZERO PUSH2 0x1B JUMPI PUSH1 0x0 DUP1 REVERT JUMPDEST PUSH1 0x2 SLOAD SWAP1 DUP2 PUSH1 0x3 MUL PUSH1 0x3 DUP2 DIV DUP4 SUB PUSH2 0x183 JUMPI PUSH1 0x1 SHR CALLVALUE LT PUSH2 0x100 JUMPI POP ISZERO PUSH2 0xCF JUMPI PUSH1 0x60 PUSH32 0xD29D20006AF4E9B0CD7E6D299270D7A18B7AFC3B52C437367B874EBFD0A63638 SWAP2 PUSH1 0x0 DUP1 DUP1 DUP1 PUSH1 0x1 SLOAD CALLVALUE PUSH1 0x2 SSTORE CALLER PUSH32 0xFFFFFFFFFFFFFFFFFFFFFFFF0000000000000000000000000000000000000000 DUP3 AND OR PUSH1 0x1 SSTORE PUSH20 0xFFFFFFFFFFFFFFFFFFFFFFFFFFFFFFFFFFFFFFFF CALLVALUE SWAP2 AND PUSH1 0x3 SLOAD CALL SWAP1 PUSH2 0xB9 PUSH2 0xD70 JUMP JUMPDEST POP DUP1 MLOAD SWAP2 ISZERO ISZERO DUP3 MSTORE CALLVALUE PUSH1 0x20 DUP4 ADD MSTORE CALLER SWAP1 DUP3 ADD MSTORE LOG1 STOP JUMPDEST POP CALLVALUE PUSH1 0x2 SSTORE CALLER PUSH32 0xFFFFFFFFFFFFFFFFFFFFFFFF0000000000000000000000000000000000000000 PUSH1 0x1 SLOAD AND OR PUSH1 0x1 SSTORE STOP JUMPDEST PUSH1 0x84 SWAP1 PUSH1 0x20 DUP5 MLOAD SWAP2 PUSH32 0x8C379A000000000000000000000000000000000000000000000000000000000 DUP4 MSTORE DUP3 ADD MSTORE PUSH1 0x23 PUSH1 0x24 DUP3 ADD MSTORE PUSH32 0x596F75277265206E6F74206465706F736974696E6720656E6F75676820657468 PUSH1 0x44 DUP3 ADD MSTORE PUSH32 0x6572210000000000000000000000000000000000000000000000000000000000 PUSH1 0x64 DUP3 ADD MSTORE REVERT JUMPDEST PUSH1 0x11 DUP3 PUSH32 0x4E487B7100000000000000000000000000000000000000000000000000000000 PUSH1 0x0 MSTORE MSTORE PUSH1 0x24 PUSH1 0x0 REVERT JUMPDEST PUSH1 0x0 DUP1 CALLDATALOAD PUSH1 0xE0 SHR DUP1 PUSH4 0x1F19EC29 EQ PUSH2 0xC14 JUMPI DUP1 PUSH4 0x2357928E EQ PUSH2 0x978 JUMPI DUP1 PUSH4 0x423CB99E EQ PUSH2 0x93B JUMPI DUP1 PUSH4 0x4D3E8F0A EQ PUSH2 0x8FE JUMPI DUP1 PUSH4 0x715018A6 EQ PUSH2 0x85F JUMPI DUP1 PUSH4 0x7920D804 EQ PUSH2 0x80C JUMPI DUP1 PUSH4 0x8DA5CB5B EQ PUSH2 0x7BB JUMPI DUP1 PUSH4 0x8DB9F39A EQ PUSH2 0x76E JUMPI DUP1 PUSH4 0xBB09D9B7 EQ PUSH2 0x71D JUMPI DUP1 PUSH4 0xDB2E21BC EQ PUSH2 0x375 JUMPI PUSH4 0xF2FDE38B EQ PUSH2 0x236 JUMPI POP PUSH2 0x10 JUMP JUMPDEST SWAP2 CALLVALUE PUSH2 0x371 JUMPI PUSH1 0x20 PUSH32 0xFFFFFFFFFFFFFFFFFFFFFFFFFFFFFFFFFFFFFFFFFFFFFFFFFFFFFFFFFFFFFFFC CALLDATASIZE ADD SLT PUSH2 0x371 JUMPI DUP2 CALLDATALOAD SWAP2 PUSH20 0xFFFFFFFFFFFFFFFFFFFFFFFFFFFFFFFFFFFFFFFF SWAP2 DUP3 DUP5 AND DUP1 SWAP5 SUB PUSH2 0x36D JUMPI PUSH2 0x291 PUSH2 0xC81 JUMP JUMPDEST DUP4 ISZERO PUSH2 0x2EA JUMPI POP POP DUP3 SLOAD DUP3 PUSH32 0xFFFFFFFFFFFFFFFFFFFFFFFF0000000000000000000000000000000000000000 DUP3 AND OR DUP5 SSTORE AND PUSH32 0x8BE0079C531659141344CD1FD0A4F28419497F9722A3DAAFE3B4186F6B6457E0 DUP4 DUP1 LOG3 DUP1 RETURN JUMPDEST SWAP1 PUSH1 0x20 PUSH1 0x84 SWAP3 MLOAD SWAP2 PUSH32 0x8C379A000000000000000000000000000000000000000000000000000000000 DUP4 MSTORE DUP3 ADD MSTORE PUSH1 0x26 PUSH1 0x24 DUP3 ADD MSTORE PUSH32 0x4F776E61626C653A206E6577206F776E657220697320746865207A65726F2061 PUSH1 0x44 DUP3 ADD MSTORE PUSH32 0x6464726573730000000000000000000000000000000000000000000000000000 PUSH1 0x64 DUP3 ADD MSTORE REVERT JUMPDEST DUP5 DUP1 REVERT JUMPDEST DUP3 DUP1 REVERT JUMPDEST POP SWAP2 SWAP1 CALLVALUE PUSH2 0x371 JUMPI DUP3 PUSH32 0xFFFFFFFFFFFFFFFFFFFFFFFFFFFFFFFFFFFFFFFFFFFFFFFFFFFFFFFFFFFFFFFC CALLDATASIZE ADD SLT PUSH2 0x371 JUMPI PUSH2 0x3AE PUSH2 0xC81 JUMP JUMPDEST SELFBALANCE PUSH2 0x676 JUMPI JUMPDEST DUP2 MLOAD PUSH32 0x70A0823100000000000000000000000000000000000000000000000000000000 DUP2 MSTORE ADDRESS DUP3 DUP3 ADD MSTORE PUSH1 0x20 SWAP2 PUSH20 0x2791BCA1F2DE4661ED88A30C99A7A9449AA84174 DUP4 DUP4 PUSH1 0x24 DUP2 DUP5 GAS STATICCALL SWAP3 DUP4 ISZERO PUSH2 0x63D JUMPI DUP7 SWAP4 PUSH2 0x647 JUMPI JUMPDEST POP DUP3 ISZERO DUP1 ISZERO SWAP2 DUP3 PUSH2 0x41B JUMPI DUP8 DUP1 RETURN JUMPDEST DUP6 SWAP2 PUSH32 0xEB1BB465721B1BAF11A4B364962AA63E8183707B2A9EB8E1E4994504AEFB4622 DUP4 DUP10 MLOAD DUP9 DUP2 MSTORE LOG1 SWAP3 PUSH2 0x5BB JUMPI JUMPDEST POP POP ISZERO PUSH2 0x539 JUMPI POP DUP3 MLOAD PUSH32 0x95EA7B300000000000000000000000000000000000000000000000000000000 DUP4 DUP3 ADD MSTORE CALLER PUSH1 0x24 DUP3 ADD MSTORE PUSH1 0x44 DUP1 DUP3 ADD DUP4 SWAP1 MSTORE DUP2 MSTORE PUSH2 0x52E SWAP4 PUSH32 0xA9059CBB00000000000000000000000000000000000000000000000000000000 SWAP4 PUSH2 0x4E9 SWAP4 PUSH32 0xFFFFFFFFFFFFFFFFFFFFFFFFFFFFFFFFFFFFFFFFFFFFFFFFFFFFFFFFFFFFFFE0 SWAP4 SWAP2 SWAP3 PUSH2 0x522 SWAP3 PUSH2 0x4EE SWAP1 DUP8 PUSH1 0x64 DUP3 PUSH2 0xD00 JUMP JUMPDEST PUSH2 0xDCE JUMP JUMPDEST MLOAD SWAP6 DUP7 SWAP4 DUP5 ADD MSTORE CALLER PUSH1 0x24 DUP5 ADD PUSH1 0x20 SWAP1 SWAP4 SWAP3 SWAP2 SWAP4 PUSH20 0xFFFFFFFFFFFFFFFFFFFFFFFFFFFFFFFFFFFFFFFF PUSH1 0x40 DUP3 ADD SWAP6 AND DUP2 MSTORE ADD MSTORE JUMP JUMPDEST SUB SWAP1 DUP2 ADD DUP4 MSTORE DUP3 PUSH2 0xD00 JUMP JUMPDEST CODESIZE DUP1 DUP1 DUP1 DUP1 DUP1 DUP1 DUP8 DUP1 RETURN JUMPDEST PUSH1 0x84 SWAP1 DUP4 DUP6 MLOAD SWAP2 PUSH32 0x8C379A000000000000000000000000000000000000000000000000000000000 DUP4 MSTORE DUP3 ADD MSTORE PUSH1 0x36 PUSH1 0x24 DUP3 ADD MSTORE PUSH32 0x5361666545524332303A20617070726F76652066726F6D206E6F6E2D7A65726F PUSH1 0x44 DUP3 ADD MSTORE PUSH32 0x20746F206E6F6E2D7A65726F20616C6C6F77616E636500000000000000000000 PUSH1 0x64 DUP3 ADD MSTORE REVERT JUMPDEST PUSH1 0x44 SWAP3 POP DUP7 MLOAD SWAP3 DUP4 DUP1 SWAP3 PUSH32 0xDD62ED3E00000000000000000000000000000000000000000000000000000000 DUP3 MSTORE ADDRESS DUP8 DUP4 ADD MSTORE CALLER PUSH1 0x24 DUP4 ADD MSTORE GAS STATICCALL SWAP1 DUP2 ISZERO PUSH2 0x63D JUMPI DUP7 SWAP2 PUSH2 0x60C JUMPI JUMPDEST POP ISZERO DUP4 CODESIZE PUSH2 0x44B JUMP JUMPDEST SWAP1 POP DUP4 DUP2 DUP2 RETURNDATASIZE DUP4 GT PUSH2 0x636 JUMPI JUMPDEST PUSH2 0x623 DUP2 DUP4 PUSH2 0xD00 JUMP JUMPDEST DUP2 ADD SUB SLT PUSH2 0x632 JUMPI MLOAD CODESIZE PUSH2 0x603 JUMP JUMPDEST DUP6 DUP1 REVERT JUMPDEST POP RETURNDATASIZE PUSH2 0x619 JUMP JUMPDEST DUP6 MLOAD RETURNDATASIZE DUP9 DUP3 RETURNDATACOPY RETURNDATASIZE SWAP1 REVERT JUMPDEST SWAP1 SWAP3 POP DUP4 DUP2 DUP2 RETURNDATASIZE DUP4 GT PUSH2 0x66F JUMPI JUMPDEST PUSH2 0x65F DUP2 DUP4 PUSH2 0xD00 JUMP JUMPDEST DUP2 ADD SUB SLT PUSH2 0x632 JUMPI MLOAD SWAP2 CODESIZE PUSH2 0x40C JUMP JUMPDEST POP RETURNDATASIZE PUSH2 0x655 JUMP JUMPDEST DUP3 DUP1 DUP1 DUP1 SELFBALANCE CALLER GAS CALL PUSH2 0x686 PUSH2 0xD70 JUMP JUMPDEST POP ISZERO PUSH2 0x6C1 JUMPI PUSH32 0x29C9780294ED370BDADF9D028C337EC660B4DE49F16AAC94BA5645E6C1B4D31 DUP3 SELFBALANCE DUP2 MLOAD SWAP1 PUSH1 0x1 DUP3 MSTORE PUSH1 0x20 DUP3 ADD MSTORE LOG1 PUSH2 0x3B4 JUMP JUMPDEST PUSH1 0x20 PUSH1 0x64 SWAP3 MLOAD SWAP2 PUSH32 0x8C379A000000000000000000000000000000000000000000000000000000000 DUP4 MSTORE DUP3 ADD MSTORE PUSH1 0x13 PUSH1 0x24 DUP3 ADD MSTORE PUSH32 0x4572726F7220696E207769746864726177616C00000000000000000000000000 PUSH1 0x44 DUP3 ADD MSTORE REVERT JUMPDEST POP DUP3 CALLVALUE PUSH2 0x76A JUMPI DUP2 PUSH32 0xFFFFFFFFFFFFFFFFFFFFFFFFFFFFFFFFFFFFFFFFFFFFFFFFFFFFFFFFFFFFFFFC CALLDATASIZE ADD SLT PUSH2 0x76A JUMPI PUSH1 0x20 SWAP1 MLOAD PUSH20 0x2791BCA1F2DE4661ED88A30C99A7A9449AA84174 DUP2 MSTORE RETURN JUMPDEST POP DUP1 REVERT JUMPDEST POP DUP3 CALLVALUE PUSH2 0x76A JUMPI DUP2 PUSH32 0xFFFFFFFFFFFFFFFFFFFFFFFFFFFFFFFFFFFFFFFFFFFFFFFFFFFFFFFFFFFFFFFC CALLDATASIZE ADD SLT PUSH2 0x76A JUMPI PUSH1 0x20 SWAP1 MLOAD PUSH20 0xAB594600376EC9FD91F8E885DADF0CE036862DE0 DUP2 MSTORE RETURN JUMPDEST POP DUP3 CALLVALUE PUSH2 0x76A JUMPI DUP2 PUSH32 0xFFFFFFFFFFFFFFFFFFFFFFFFFFFFFFFFFFFFFFFFFFFFFFFFFFFFFFFFFFFFFFFC CALLDATASIZE ADD SLT PUSH2 0x76A JUMPI PUSH20 0xFFFFFFFFFFFFFFFFFFFFFFFFFFFFFFFFFFFFFFFF PUSH1 0x20 SWAP3 SLOAD AND SWAP1 MLOAD SWAP1 DUP2 MSTORE RETURN JUMPDEST POP DUP3 CALLVALUE PUSH2 0x76A JUMPI DUP2 PUSH32 0xFFFFFFFFFFFFFFFFFFFFFFFFFFFFFFFFFFFFFFFFFFFFFFFFFFFFFFFFFFFFFFFC CALLDATASIZE ADD SLT PUSH2 0x76A JUMPI PUSH1 0x20 SWAP1 PUSH20 0xFFFFFFFFFFFFFFFFFFFFFFFFFFFFFFFFFFFFFFFF PUSH1 0x1 SLOAD AND SWAP1 MLOAD SWAP1 DUP2 MSTORE RETURN JUMPDEST POP CALLVALUE PUSH2 0x8FB JUMPI DUP1 PUSH32 0xFFFFFFFFFFFFFFFFFFFFFFFFFFFFFFFFFFFFFFFFFFFFFFFFFFFFFFFFFFFFFFFC CALLDATASIZE ADD SLT PUSH2 0x8FB JUMPI PUSH2 0x896 PUSH2 0xC81 JUMP JUMPDEST DUP1 PUSH20 0xFFFFFFFFFFFFFFFFFFFFFFFFFFFFFFFFFFFFFFFF DUP2 SLOAD PUSH32 0xFFFFFFFFFFFFFFFFFFFFFFFF0000000000000000000000000000000000000000 DUP2 AND DUP4 SSTORE AND PUSH32 0x8BE0079C531659141344CD1FD0A4F28419497F9722A3DAAFE3B4186F6B6457E0 DUP3 DUP1 LOG3 DUP1 RETURN JUMPDEST DUP1 REVERT JUMPDEST POP DUP3 CALLVALUE PUSH2 0x76A JUMPI DUP2 PUSH32 0xFFFFFFFFFFFFFFFFFFFFFFFFFFFFFFFFFFFFFFFFFFFFFFFFFFFFFFFFFFFFFFFC CALLDATASIZE ADD SLT PUSH2 0x76A JUMPI PUSH1 0x20 SWAP1 PUSH1 0x3 SLOAD SWAP1 MLOAD SWAP1 DUP2 MSTORE RETURN JUMPDEST POP DUP3 CALLVALUE PUSH2 0x76A JUMPI DUP2 PUSH32 0xFFFFFFFFFFFFFFFFFFFFFFFFFFFFFFFFFFFFFFFFFFFFFFFFFFFFFFFFFFFFFFFC CALLDATASIZE ADD SLT PUSH2 0x76A JUMPI PUSH1 0x20 SWAP1 PUSH1 0x2 SLOAD SWAP1 MLOAD SWAP1 DUP2 MSTORE RETURN JUMPDEST POP DUP3 CALLVALUE PUSH2 0x76A JUMPI PUSH1 0x20 PUSH32 0xFFFFFFFFFFFFFFFFFFFFFFFFFFFFFFFFFFFFFFFFFFFFFFFFFFFFFFFFFFFFFFFC CALLDATASIZE ADD SLT PUSH2 0x76A JUMPI DUP3 CALLDATALOAD SWAP1 PUSH1 0x2 SLOAD SWAP2 DUP3 PUSH1 0x3 MUL SWAP3 PUSH1 0x3 DUP5 DIV DUP2 SUB PUSH2 0xB5E JUMPI PUSH2 0x9C7 PUSH2 0x1038 JUMP JUMPDEST SWAP4 PUSH1 0x3 DUP6 DUP4 MUL MUL SWAP5 DUP2 DUP7 DIV EQ SWAP1 ISZERO OR ISZERO PUSH2 0xB5E JUMPI PUSH9 0x56BC75E2D63100000 DUP1 SWAP5 DIV PUSH1 0x1 SHR DUP3 LT PUSH2 0xB91 JUMPI ISZERO PUSH2 0xB8A JUMPI PUSH20 0xFFFFFFFFFFFFFFFFFFFFFFFFFFFFFFFFFFFFFFFF PUSH1 0x1 SLOAD AND SWAP3 JUMPDEST CALLER PUSH32 0xFFFFFFFFFFFFFFFFFFFFFFFF0000000000000000000000000000000000000000 PUSH1 0x1 SLOAD AND OR PUSH1 0x1 SSTORE DUP1 DUP3 MUL SWAP1 DUP3 DUP3 DIV EQ DUP3 ISZERO OR ISZERO PUSH2 0xB5E JUMPI PUSH2 0xA53 PUSH2 0x1038 JUMP JUMPDEST SWAP1 DUP2 ISZERO PUSH2 0xB32 JUMPI DIV PUSH1 0x2 SSTORE PUSH32 0xF5CB588F5F04842FA8A48FFD1F1B14B97339A788A30A4AB1C445E84F46A8B5FF DUP3 DUP1 MLOAD DUP4 DUP2 MSTORE CALLER PUSH1 0x20 DUP3 ADD MSTORE LOG1 PUSH20 0xFFFFFFFFFFFFFFFFFFFFFFFFFFFFFFFFFFFFFFFF DUP3 MLOAD SWAP4 PUSH32 0x23B872DD00000000000000000000000000000000000000000000000000000000 PUSH1 0x20 DUP7 ADD MSTORE CALLER PUSH1 0x24 DUP7 ADD MSTORE AND PUSH1 0x44 DUP5 ADD MSTORE PUSH1 0x64 DUP4 ADD MSTORE PUSH1 0x64 DUP3 MSTORE PUSH1 0xA0 DUP3 ADD SWAP1 DUP3 DUP3 LT PUSH8 0xFFFFFFFFFFFFFFFF DUP4 GT OR PUSH2 0xB06 JUMPI PUSH2 0xB03 SWAP4 SWAP5 POP MSTORE PUSH2 0xDCE JUMP JUMPDEST DUP1 RETURN JUMPDEST PUSH1 0x24 DUP5 PUSH1 0x41 DUP8 PUSH32 0x4E487B7100000000000000000000000000000000000000000000000000000000 DUP4 MSTORE MSTORE REVERT JUMPDEST PUSH1 0x24 DUP7 PUSH1 0x12 DUP10 PUSH32 0x4E487B7100000000000000000000000000000000000000000000000000000000 DUP4 MSTORE MSTORE REVERT JUMPDEST PUSH1 0x24 DUP6 PUSH1 0x11 DUP9 PUSH32 0x4E487B7100000000000000000000000000000000000000000000000000000000 DUP4 MSTORE MSTORE REVERT JUMPDEST ADDRESS SWAP3 PUSH2 0xA11 JUMP JUMPDEST PUSH1 0x84 DUP7 PUSH1 0x20 DUP6 MLOAD SWAP2 PUSH32 0x8C379A000000000000000000000000000000000000000000000000000000000 DUP4 MSTORE DUP3 ADD MSTORE PUSH1 0x22 PUSH1 0x24 DUP3 ADD MSTORE PUSH32 0x596F75277265206E6F74206465706F736974696E6720656E6F75676820555344 PUSH1 0x44 DUP3 ADD MSTORE PUSH32 0x4321000000000000000000000000000000000000000000000000000000000000 PUSH1 0x64 DUP3 ADD MSTORE REVERT JUMPDEST POP SWAP2 SWAP1 CALLVALUE PUSH2 0x371 JUMPI PUSH1 0x20 PUSH32 0xFFFFFFFFFFFFFFFFFFFFFFFFFFFFFFFFFFFFFFFFFFFFFFFFFFFFFFFFFFFFFFFC CALLDATASIZE ADD SLT PUSH2 0x371 JUMPI PUSH32 0x501D492551DB2CD7156EECDE86493A333F12237A6F0E0AD1D4C61D507E2901C SWAP2 PUSH1 0x20 SWAP2 CALLDATALOAD SWAP1 PUSH2 0xC75 PUSH2 0xC81 JUMP JUMPDEST DUP2 PUSH1 0x3 SSTORE MLOAD SWAP1 DUP2 MSTORE LOG1 DUP1 RETURN JUMPDEST PUSH20 0xFFFFFFFFFFFFFFFFFFFFFFFFFFFFFFFFFFFFFFFF PUSH1 0x0 SLOAD AND CALLER SUB PUSH2 0xCA2 JUMPI JUMP JUMPDEST PUSH1 0x64 PUSH1 0x40 MLOAD PUSH32 0x8C379A000000000000000000000000000000000000000000000000000000000 DUP2 MSTORE PUSH1 0x20 PUSH1 0x4 DUP3 ADD MSTORE PUSH1 0x20 PUSH1 0x24 DUP3 ADD MSTORE PUSH32 0x4F776E61626C653A2063616C6C6572206973206E6F7420746865206F776E6572 PUSH1 0x44 DUP3 ADD MSTORE REVERT JUMPDEST SWAP1 PUSH1 0x1F PUSH32 0xFFFFFFFFFFFFFFFFFFFFFFFFFFFFFFFFFFFFFFFFFFFFFFFFFFFFFFFFFFFFFFE0 SWAP2 ADD AND DUP2 ADD SWAP1 DUP2 LT PUSH8 0xFFFFFFFFFFFFFFFF DUP3 GT OR PUSH2 0xD41 JUMPI PUSH1 0x40 MSTORE JUMP JUMPDEST PUSH32 0x4E487B7100000000000000000000000000000000000000000000000000000000 PUSH1 0x0 MSTORE PUSH1 0x41 PUSH1 0x4 MSTORE PUSH1 0x24 PUSH1 0x0 REVERT JUMPDEST RETURNDATASIZE ISZERO PUSH2 0xDC9 JUMPI RETURNDATASIZE SWAP1 PUSH8 0xFFFFFFFFFFFFFFFF DUP3 GT PUSH2 0xD41 JUMPI PUSH1 0x40 MLOAD SWAP2 PUSH2 0xDBD PUSH1 0x20 PUSH32 0xFFFFFFFFFFFFFFFFFFFFFFFFFFFFFFFFFFFFFFFFFFFFFFFFFFFFFFFFFFFFFFE0 PUSH1 0x1F DUP5 ADD AND ADD DUP5 PUSH2 0xD00 JUMP JUMPDEST DUP3 MSTORE RETURNDATASIZE PUSH1 0x0 PUSH1 0x20 DUP5 ADD RETURNDATACOPY JUMP JUMPDEST PUSH1 0x60 SWAP1 JUMP JUMPDEST PUSH1 0x40 MLOAD SWAP1 PUSH1 0x40 DUP3 ADD DUP3 DUP2 LT PUSH8 0xFFFFFFFFFFFFFFFF DUP3 GT OR PUSH2 0xD41 JUMPI PUSH1 0x40 MSTORE PUSH1 0x20 SWAP2 DUP3 DUP2 MSTORE PUSH32 0x5361666545524332303A206C6F772D6C6576656C2063616C6C206661696C6564 DUP4 DUP3 ADD MSTORE PUSH20 0x2791BCA1F2DE4661ED88A30C99A7A9449AA84174 DUP1 EXTCODESIZE ISZERO PUSH2 0xF0E JUMPI SWAP1 PUSH2 0xE56 SWAP2 PUSH1 0x0 DUP5 DUP2 SWAP6 SWAP3 DUP3 DUP9 DUP2 SWAP6 MLOAD SWAP4 ADD SWAP2 GAS CALL PUSH2 0xE50 PUSH2 0xD70 JUMP JUMPDEST SWAP1 PUSH2 0xF6C JUMP JUMPDEST DUP1 MLOAD DUP1 PUSH2 0xE64 JUMPI JUMPDEST POP POP POP POP JUMP JUMPDEST DUP2 DUP5 SWAP2 DUP2 ADD SUB SLT PUSH2 0x76A JUMPI DUP3 ADD MLOAD SWAP1 DUP2 ISZERO SWAP2 DUP3 ISZERO SUB PUSH2 0x8FB JUMPI POP PUSH2 0xE8A JUMPI DUP1 DUP1 DUP1 PUSH2 0xE5E JUMP JUMPDEST PUSH1 0x84 SWAP1 PUSH1 0x40 MLOAD SWAP1 PUSH32 0x8C379A000000000000000000000000000000000000000000000000000000000 DUP3 MSTORE PUSH1 0x4 DUP3 ADD MSTORE PUSH1 0x2A PUSH1 0x24 DUP3 ADD MSTORE PUSH32 0x5361666545524332303A204552433230206F7065726174696F6E20646964206E PUSH1 0x44 DUP3 ADD MSTORE PUSH32 0x6F74207375636365656400000000000000000000000000000000000000000000 PUSH1 0x64 DUP3 ADD MSTORE REVERT JUMPDEST PUSH1 0x64 DUP5 PUSH1 0x40 MLOAD SWAP1 PUSH32 0x8C379A000000000000000000000000000000000000000000000000000000000 DUP3 MSTORE PUSH1 0x4 DUP3 ADD MSTORE PUSH1 0x1D PUSH1 0x24 DUP3 ADD MSTORE PUSH32 0x416464726573733A2063616C6C20746F206E6F6E2D636F6E7472616374000000 PUSH1 0x44 DUP3 ADD MSTORE REVERT JUMPDEST SWAP1 SWAP2 SWAP1 ISZERO PUSH2 0xF78 JUMPI POP SWAP1 JUMP JUMPDEST DUP2 MLOAD ISZERO PUSH2 0xF88 JUMPI POP DUP1 MLOAD SWAP1 PUSH1 0x20 ADD REVERT JUMPDEST PUSH1 0x40 MLOAD SWAP1 PUSH32 0x8C379A000000000000000000000000000000000000000000000000000000000 DUP3 MSTORE DUP2 PUSH1 0x20 DUP1 PUSH1 0x4 DUP4 ADD MSTORE DUP3 MLOAD SWAP3 DUP4 PUSH1 0x24 DUP5 ADD MSTORE PUSH1 0x0 JUMPDEST DUP5 DUP2 LT PUSH2 0x1005 JUMPI POP POP POP PUSH32 0xFFFFFFFFFFFFFFFFFFFFFFFFFFFFFFFFFFFFFFFFFFFFFFFFFFFFFFFFFFFFFFE0 PUSH1 0x1F DUP4 PUSH1 0x0 PUSH1 0x44 DUP1 SWAP7 DUP7 ADD ADD MSTORE ADD AND DUP2 ADD SUB ADD SWAP1 REVERT JUMPDEST DUP2 DUP2 ADD DUP4 ADD MLOAD DUP7 DUP3 ADD PUSH1 0x44 ADD MSTORE DUP6 SWAP4 POP DUP3 ADD PUSH2 0xFC4 JUMP JUMPDEST MLOAD SWAP1 PUSH10 0xFFFFFFFFFFFFFFFFFFFF DUP3 AND DUP3 SUB PUSH2 0x1033 JUMPI JUMP JUMPDEST PUSH1 0x0 DUP1 REVERT JUMPDEST PUSH1 0x40 MLOAD PUSH32 0xFEAF968C00000000000000000000000000000000000000000000000000000000 DUP2 MSTORE PUSH1 0xA0 DUP2 PUSH1 0x4 DUP2 PUSH20 0xAB594600376EC9FD91F8E885DADF0CE036862DE0 GAS STATICCALL SWAP1 DUP2 ISZERO PUSH2 0x10D6 JUMPI PUSH1 0x0 SWAP2 PUSH2 0x108D JUMPI POP SWAP1 JUMP JUMPDEST SWAP1 PUSH1 0xA0 DUP3 RETURNDATASIZE DUP3 GT PUSH2 0x10CE JUMPI JUMPDEST DUP2 PUSH2 0x10A6 PUSH1 0xA0 SWAP4 DUP4 PUSH2 0xD00 JUMP JUMPDEST DUP2 ADD SUB SLT PUSH2 0x8FB JUMPI POP PUSH2 0x10B8 DUP2 PUSH2 0x101C JUMP JUMPDEST POP PUSH2 0x10CA PUSH1 0x80 PUSH1 0x20 DUP4 ADD MLOAD SWAP3 ADD PUSH2 0x101C JUMP JUMPDEST POP SWAP1 JUMP JUMPDEST RETURNDATASIZE SWAP2 POP PUSH2 0x1099 JUMP JUMPDEST PUSH1 0x40 MLOAD RETURNDATASIZE PUSH1 0x0 DUP3 RETURNDATACOPY RETURNDATASIZE SWAP1 REVERT INVALID LOG2 PUSH5 0x6970667358 0x22 SLT KECCAK256 SGT 0xD4 PUSH15 0x8BEDEDD08871B76C655D20BF7B77F1 SWAP3 0xA7 0x5C 0xC1 0xED 0xEC LOG3 JUMP SWAP9 CODESIZE SWAP5 0x5F PUSH29 0x9F64736F6C634300081100330000000000000000000000000000000000 "},"methodIdentifiers":{"MATIC_USD_ORACLE()":"8db9f39a","USDC_ADDRESS()":"bb09d9b7","depositUsdc(uint256)":"2357928e","emergencyWithdraw()":"db2e21bc","gasAllocatedForKingPayment()":"4d3e8f0a","getKing()":"7920d804","maximumPaid()":"423cb99e","owner()":"8da5cb5b","renounceOwnership()":"715018a6","setGasAllocatedForKingPayment(uint256)":"1f19ec29","transferOwnership(address)":"f2fde38b"}}}}}