{"contracts/King.sol":{"King":{"abi":[{"anonymous":false,"inputs":[{"indexed":false,"internalType":"bool","name":"success","type":"bool"},{"indexed":false,"internalType":"uint256","name":"amount","type":"uint256"},{"indexed":false,"internalType":"address","name":"king","type":"address"}],"name":"EthDeposit","type":"event"},{"anonymous":false,"inputs":[{"indexed":true,"internalType":"address","name":"previousOwner","type":"address"},{"indexed":true,"internalType":"address","name":"newOwner","type":"address"}],"name":"OwnershipTransferred","type":"event"},{"anonymous":false,"inputs":[{"indexed":false,"internalType":"uint256","name":"amount","type":"uint256"},{"indexed":false,"internalType":"address","name":"king","type":"address"}],"name":"UsdcDeposit","type":"event"},{"inputs":[],"name":"MATIC_USD_ORACLE","outputs":[{"internalType":"address","name":"","type":"address"}],"stateMutability":"view","type":"function"},{"inputs":[],"name":"USDC_ADDRESS","outputs":[{"internalType":"address","name":"","type":"address"}],"stateMutability":"view","type":"function"},{"inputs":[{"internalType":"uint256","name":"depositAmount","type":"uint256"}],"name":"deposit","outputs":[],"stateMutability":"nonpayable","type":"function"},{"inputs":[],"name":"emergencyWithdraw","outputs":[],"stateMutability":"payable","type":"function"},{"inputs":[],"name":"getKing","outputs":[{"internalType":"address payable","name":"","type":"address"}],"stateMutability":"view","type":"function"},{"inputs":[],"name":"maximumPaid","outputs":[{"internalType":"uint256","name":"","type":"uint256"}],"stateMutability":"view","type":"function"},{"inputs":[],"name":"owner","outputs":[{"internalType":"address","name":"","type":"address"}],"stateMutability":"view","type":"function"},{"inputs":[],"name":"renounceOwnership","outputs":[],"stateMutability":"nonpayable","type":"function"},{"inputs":[{"internalType":"uint256","name":"gasAmount","type":"uint256"}],"name":"setGasAllocatedForKingPayment","outputs":[],"stateMutability":"nonpayable","type":"function"},{"inputs":[{"internalType":"address","name":"newOwner","type":"address"}],"name":"transferOwnership","outputs":[],"stateMutability":"nonpayable","type":"function"},{"stateMutability":"payable","type":"receive"}],"evm":{"bytecode":{"linkReferences":{},"object":"6080806040523461005b5760008054336001600160a01b0319821681178355916001600160a01b03909116907f8be0079c531659141344cd1fd0a4f28419497f9722a3daafe3b4186f6b6457e09080a3610fb190816100618239f35b600080fdfe60406080815260048036101561018c575b361561001b57600080fd5b600254908160030260038104830361015e5760011c34106100db5750156100d15760607f7f7caf2cfdc2014aa045dd0ef7e9f5a6a4819e729710bed3689ba095e658738f913460025560008080803473ffffffffffffffffffffffffffffffffffffffff60015416600354f190610090610c04565b50805191151582523460208301523390820152a15b337fffffffffffffffffffffffff00000000000000000000000000000000000000006001541617600155005b50346002556100a5565b60849060208451917f08c379a0000000000000000000000000000000000000000000000000000000008352820152602360248201527f596f75277265206e6f74206465706f736974696e6720656e6f7567682065746860448201527f65722100000000000000000000000000000000000000000000000000000000006064820152fd5b6011827f4e487b71000000000000000000000000000000000000000000000000000000006000525260246000fd5b6000803560e01c80631f19ec2914610a9c578063423cb99e14610a5f578063715018a6146109c05780637920d8041461096d5780638da5cb5b1461091c5780638db9f39a146108cf578063b6b55f2514610605578063bb09d9b7146105b4578063db2e21bc146103455763f2fde38b146102065750610010565b91346103415760207ffffffffffffffffffffffffffffffffffffffffffffffffffffffffffffffffc3601126103415781359173ffffffffffffffffffffffffffffffffffffffff9182841680940361033d57610261610adc565b83156102ba5750508254827fffffffffffffffffffffffff00000000000000000000000000000000000000008216178455167f8be0079c531659141344cd1fd0a4f28419497f9722a3daafe3b4186f6b6457e08380a380f35b90602060849251917f08c379a0000000000000000000000000000000000000000000000000000000008352820152602660248201527f4f776e61626c653a206e6577206f776e657220697320746865207a65726f206160448201527f64647265737300000000000000000000000000000000000000000000000000006064820152fd5b8480fd5b8280fd5b509190827ffffffffffffffffffffffffffffffffffffffffffffffffffffffffffffffffc36011261034157610379610adc565b47610543575b81517f70a082310000000000000000000000000000000000000000000000000000000081523082820152602091732791bca1f2de4661ed88a30c99a7a9449aa841748383602481845afa928315610539578693610506575b50826103e1578580f35b84517f095ea7b30000000000000000000000000000000000000000000000000000000081523392810192835260208301849052918491839182908990829060400103925af180156104fc576104c1926104c6957fa9059cbb000000000000000000000000000000000000000000000000000000009593610495936104cf575b505194859384015233602484016020909392919373ffffffffffffffffffffffffffffffffffffffff60408201951681520152565b037fffffffffffffffffffffffffffffffffffffffffffffffffffffffffffffffe08101835282610b94565b610c7f565b38808080808580f35b6104ee90853d87116104f5575b6104e68183610b94565b810190610c62565b5038610460565b503d6104dc565b84513d87823e3d90fd5b9092508381813d8311610532575b61051e8183610b94565b8101031261052e575191386103d7565b8580fd5b503d610514565b85513d88823e3d90fd5b8280808047335af1610553610c04565b5061037f57602060649251917f08c379a0000000000000000000000000000000000000000000000000000000008352820152601360248201527f4572726f7220696e207769746864726177616c000000000000000000000000006044820152fd5b50823461060157817ffffffffffffffffffffffffffffffffffffffffffffffffffffffffffffffffc3601126106015760209051732791bca1f2de4661ed88a30c99a7a9449aa841748152f35b5080fd5b5082346106015760207ffffffffffffffffffffffffffffffffffffffffffffffffffffffffffffffffc36011261060157823560025480600302906003820481036108a357610652610ed1565b916003838302029281840414901517156108a35768056bc75e2d6310000080920460011c831061082057156107d5578082029082820414821517156107a9576106a39061069d610ed1565b90610b5b565b60025573ffffffffffffffffffffffffffffffffffffffff600154168251907f23b872dd00000000000000000000000000000000000000000000000000000000602083015233602483015260448201528160648201526064815260a0810181811067ffffffffffffffff82111761077d577ff5cb588f5f04842fa8a48ffd1f1b14b97339a788a30a4ab1c445e84f46a8b5ff94955090610744918452610c7f565b337fffffffffffffffffffffffff000000000000000000000000000000000000000060015416176001558151908152336020820152a180f35b6024856041887f4e487b7100000000000000000000000000000000000000000000000000000000835252fd5b6024846011877f4e487b7100000000000000000000000000000000000000000000000000000000835252fd5b5060648102818104606414821517156107a9577ff5cb588f5f04842fa8a48ffd1f1b14b97339a788a30a4ab1c445e84f46a8b5ff9394506108189061069d610ed1565b600255610744565b60848660208651917f08c379a0000000000000000000000000000000000000000000000000000000008352820152602260248201527f596f75277265206e6f74206465706f736974696e6720656e6f7567682055534460448201527f43210000000000000000000000000000000000000000000000000000000000006064820152fd5b6024856011887f4e487b7100000000000000000000000000000000000000000000000000000000835252fd5b50823461060157817ffffffffffffffffffffffffffffffffffffffffffffffffffffffffffffffffc360112610601576020905173ab594600376ec9fd91f8e885dadf0ce036862de08152f35b50823461060157817ffffffffffffffffffffffffffffffffffffffffffffffffffffffffffffffffc3601126106015773ffffffffffffffffffffffffffffffffffffffff60209254169051908152f35b50823461060157817ffffffffffffffffffffffffffffffffffffffffffffffffffffffffffffffffc3601126106015760209073ffffffffffffffffffffffffffffffffffffffff600154169051908152f35b5034610a5c57807ffffffffffffffffffffffffffffffffffffffffffffffffffffffffffffffffc360112610a5c576109f7610adc565b8073ffffffffffffffffffffffffffffffffffffffff81547fffffffffffffffffffffffff000000000000000000000000000000000000000081168355167f8be0079c531659141344cd1fd0a4f28419497f9722a3daafe3b4186f6b6457e08280a380f35b80fd5b50823461060157817ffffffffffffffffffffffffffffffffffffffffffffffffffffffffffffffffc360112610601576020906002549051908152f35b5090346106015760207ffffffffffffffffffffffffffffffffffffffffffffffffffffffffffffffffc36011261060157610ad5610adc565b3560035580f35b73ffffffffffffffffffffffffffffffffffffffff600054163303610afd57565b60646040517f08c379a000000000000000000000000000000000000000000000000000000000815260206004820152602060248201527f4f776e61626c653a2063616c6c6572206973206e6f7420746865206f776e65726044820152fd5b8115610b65570490565b7f4e487b7100000000000000000000000000000000000000000000000000000000600052601260045260246000fd5b90601f7fffffffffffffffffffffffffffffffffffffffffffffffffffffffffffffffe0910116810190811067ffffffffffffffff821117610bd557604052565b7f4e487b7100000000000000000000000000000000000000000000000000000000600052604160045260246000fd5b3d15610c5d573d9067ffffffffffffffff8211610bd55760405191610c5160207fffffffffffffffffffffffffffffffffffffffffffffffffffffffffffffffe0601f8401160184610b94565b82523d6000602084013e565b606090565b90816020910312610c7a57518015158103610c7a5790565b600080fd5b6040516040810181811067ffffffffffffffff821117610bd5576040526020918282527f5361666545524332303a206c6f772d6c6576656c2063616c6c206661696c656483830152732791bca1f2de4661ed88a30c99a7a9449aa84174803b15610dac5760008281928287610d039796519301915af1610cfd610c04565b90610e0a565b80519081610d1057505050565b8280610d20938301019101610c62565b15610d285750565b608490604051907f08c379a00000000000000000000000000000000000000000000000000000000082526004820152602a60248201527f5361666545524332303a204552433230206f7065726174696f6e20646964206e60448201527f6f742073756363656564000000000000000000000000000000000000000000006064820152fd5b606484604051907f08c379a00000000000000000000000000000000000000000000000000000000082526004820152601d60248201527f416464726573733a2063616c6c20746f206e6f6e2d636f6e74726163740000006044820152fd5b90919015610e16575090565b815115610e265750805190602001fd5b604051907f08c379a000000000000000000000000000000000000000000000000000000000825281602080600483015282519283602484015260005b848110610ea3575050507fffffffffffffffffffffffffffffffffffffffffffffffffffffffffffffffe0601f836000604480968601015201168101030190fd5b818101830151868201604401528593508201610e62565b519069ffffffffffffffffffff82168203610c7a57565b6040517ffeaf968c00000000000000000000000000000000000000000000000000000000815260a08160048173ab594600376ec9fd91f8e885dadf0ce036862de05afa908115610f6f57600091610f26575090565b9060a0823d8211610f67575b81610f3f60a09383610b94565b81010312610a5c5750610f5181610eba565b50610f63608060208301519201610eba565b5090565b3d9150610f32565b6040513d6000823e3d90fdfea2646970667358221220d35faab97b1d1e8976c9bf3af67486768f46e56650fb9ebcf96fd8b191c484f364736f6c63430008110033","opcodes":"PUSH1 0x80 DUP1 PUSH1 0x40 MSTORE CALLVALUE PUSH2 0x5B JUMPI PUSH1 0x0 DUP1 SLOAD CALLER PUSH1 0x1 PUSH1 0x1 PUSH1 0xA0 SHL SUB NOT DUP3 AND DUP2 OR DUP4 SSTORE SWAP2 PUSH1 0x1 PUSH1 0x1 PUSH1 0xA0 SHL SUB SWAP1 SWAP2 AND SWAP1 PUSH32 0x8BE0079C531659141344CD1FD0A4F28419497F9722A3DAAFE3B4186F6B6457E0 SWAP1 DUP1 LOG3 PUSH2 0xFB1 SWAP1 DUP2 PUSH2 0x61 DUP3 CODECOPY RETURN JUMPDEST PUSH1 0x0 DUP1 REVERT INVALID PUSH1 0x40 PUSH1 0x80 DUP2 MSTORE PUSH1 0x4 DUP1 CALLDATASIZE LT ISZERO PUSH2 0x18C JUMPI JUMPDEST CALLDATASIZE ISZERO PUSH2 0x1B JUMPI PUSH1 0x0 DUP1 REVERT JUMPDEST PUSH1 0x2 SLOAD SWAP1 DUP2 PUSH1 0x3 MUL PUSH1 0x3 DUP2 DIV DUP4 SUB PUSH2 0x15E JUMPI PUSH1 0x1 SHR CALLVALUE LT PUSH2 0xDB JUMPI POP ISZERO PUSH2 0xD1 JUMPI PUSH1 0x60 PUSH32 0x7F7CAF2CFDC2014AA045DD0EF7E9F5A6A4819E729710BED3689BA095E658738F SWAP2 CALLVALUE PUSH1 0x2 SSTORE PUSH1 0x0 DUP1 DUP1 DUP1 CALLVALUE PUSH20 0xFFFFFFFFFFFFFFFFFFFFFFFFFFFFFFFFFFFFFFFF PUSH1 0x1 SLOAD AND PUSH1 0x3 SLOAD CALL SWAP1 PUSH2 0x90 PUSH2 0xC04 JUMP JUMPDEST POP DUP1 MLOAD SWAP2 ISZERO ISZERO DUP3 MSTORE CALLVALUE PUSH1 0x20 DUP4 ADD MSTORE CALLER SWAP1 DUP3 ADD MSTORE LOG1 JUMPDEST CALLER PUSH32 0xFFFFFFFFFFFFFFFFFFFFFFFF0000000000000000000000000000000000000000 PUSH1 0x1 SLOAD AND OR PUSH1 0x1 SSTORE STOP JUMPDEST POP CALLVALUE PUSH1 0x2 SSTORE PUSH2 0xA5 JUMP JUMPDEST PUSH1 0x84 SWAP1 PUSH1 0x20 DUP5 MLOAD SWAP2 PUSH32 0x8C379A000000000000000000000000000000000000000000000000000000000 DUP4 MSTORE DUP3 ADD MSTORE PUSH1 0x23 PUSH1 0x24 DUP3 ADD MSTORE PUSH32 0x596F75277265206E6F74206465706F736974696E6720656E6F75676820657468 PUSH1 0x44 DUP3 ADD MSTORE PUSH32 0x6572210000000000000000000000000000000000000000000000000000000000 PUSH1 0x64 DUP3 ADD MSTORE REVERT JUMPDEST PUSH1 0x11 DUP3 PUSH32 0x4E487B7100000000000000000000000000000000000000000000000000000000 PUSH1 0x0 MSTORE MSTORE PUSH1 0x24 PUSH1 0x0 REVERT JUMPDEST PUSH1 0x0 DUP1 CALLDATALOAD PUSH1 0xE0 SHR DUP1 PUSH4 0x1F19EC29 EQ PUSH2 0xA9C JUMPI DUP1 PUSH4 0x423CB99E EQ PUSH2 0xA5F JUMPI DUP1 PUSH4 0x715018A6 EQ PUSH2 0x9C0 JUMPI DUP1 PUSH4 0x7920D804 EQ PUSH2 0x96D JUMPI DUP1 PUSH4 0x8DA5CB5B EQ PUSH2 0x91C JUMPI DUP1 PUSH4 0x8DB9F39A EQ PUSH2 0x8CF JUMPI DUP1 PUSH4 0xB6B55F25 EQ PUSH2 0x605 JUMPI DUP1 PUSH4 0xBB09D9B7 EQ PUSH2 0x5B4 JUMPI DUP1 PUSH4 0xDB2E21BC EQ PUSH2 0x345 JUMPI PUSH4 0xF2FDE38B EQ PUSH2 0x206 JUMPI POP PUSH2 0x10 JUMP JUMPDEST SWAP2 CALLVALUE PUSH2 0x341 JUMPI PUSH1 0x20 PUSH32 0xFFFFFFFFFFFFFFFFFFFFFFFFFFFFFFFFFFFFFFFFFFFFFFFFFFFFFFFFFFFFFFFC CALLDATASIZE ADD SLT PUSH2 0x341 JUMPI DUP2 CALLDATALOAD SWAP2 PUSH20 0xFFFFFFFFFFFFFFFFFFFFFFFFFFFFFFFFFFFFFFFF SWAP2 DUP3 DUP5 AND DUP1 SWAP5 SUB PUSH2 0x33D JUMPI PUSH2 0x261 PUSH2 0xADC JUMP JUMPDEST DUP4 ISZERO PUSH2 0x2BA JUMPI POP POP DUP3 SLOAD DUP3 PUSH32 0xFFFFFFFFFFFFFFFFFFFFFFFF0000000000000000000000000000000000000000 DUP3 AND OR DUP5 SSTORE AND PUSH32 0x8BE0079C531659141344CD1FD0A4F28419497F9722A3DAAFE3B4186F6B6457E0 DUP4 DUP1 LOG3 DUP1 RETURN JUMPDEST SWAP1 PUSH1 0x20 PUSH1 0x84 SWAP3 MLOAD SWAP2 PUSH32 0x8C379A000000000000000000000000000000000000000000000000000000000 DUP4 MSTORE DUP3 ADD MSTORE PUSH1 0x26 PUSH1 0x24 DUP3 ADD MSTORE PUSH32 0x4F776E61626C653A206E6577206F776E657220697320746865207A65726F2061 PUSH1 0x44 DUP3 ADD MSTORE PUSH32 0x6464726573730000000000000000000000000000000000000000000000000000 PUSH1 0x64 DUP3 ADD MSTORE REVERT JUMPDEST DUP5 DUP1 REVERT JUMPDEST DUP3 DUP1 REVERT JUMPDEST POP SWAP2 SWAP1 DUP3 PUSH32 0xFFFFFFFFFFFFFFFFFFFFFFFFFFFFFFFFFFFFFFFFFFFFFFFFFFFFFFFFFFFFFFFC CALLDATASIZE ADD SLT PUSH2 0x341 JUMPI PUSH2 0x379 PUSH2 0xADC JUMP JUMPDEST SELFBALANCE PUSH2 0x543 JUMPI JUMPDEST DUP2 MLOAD PUSH32 0x70A0823100000000000000000000000000000000000000000000000000000000 DUP2 MSTORE ADDRESS DUP3 DUP3 ADD MSTORE PUSH1 0x20 SWAP2 PUSH20 0x2791BCA1F2DE4661ED88A30C99A7A9449AA84174 DUP4 DUP4 PUSH1 0x24 DUP2 DUP5 GAS STATICCALL SWAP3 DUP4 ISZERO PUSH2 0x539 JUMPI DUP7 SWAP4 PUSH2 0x506 JUMPI JUMPDEST POP DUP3 PUSH2 0x3E1 JUMPI DUP6 DUP1 RETURN JUMPDEST DUP5 MLOAD PUSH32 0x95EA7B300000000000000000000000000000000000000000000000000000000 DUP2 MSTORE CALLER SWAP3 DUP2 ADD SWAP3 DUP4 MSTORE PUSH1 0x20 DUP4 ADD DUP5 SWAP1 MSTORE SWAP2 DUP5 SWAP2 DUP4 SWAP2 DUP3 SWAP1 DUP10 SWAP1 DUP3 SWAP1 PUSH1 0x40 ADD SUB SWAP3 GAS CALL DUP1 ISZERO PUSH2 0x4FC JUMPI PUSH2 0x4C1 SWAP3 PUSH2 0x4C6 SWAP6 PUSH32 0xA9059CBB00000000000000000000000000000000000000000000000000000000 SWAP6 SWAP4 PUSH2 0x495 SWAP4 PUSH2 0x4CF JUMPI JUMPDEST POP MLOAD SWAP5 DUP6 SWAP4 DUP5 ADD MSTORE CALLER PUSH1 0x24 DUP5 ADD PUSH1 0x20 SWAP1 SWAP4 SWAP3 SWAP2 SWAP4 PUSH20 0xFFFFFFFFFFFFFFFFFFFFFFFFFFFFFFFFFFFFFFFF PUSH1 0x40 DUP3 ADD SWAP6 AND DUP2 MSTORE ADD MSTORE JUMP JUMPDEST SUB PUSH32 0xFFFFFFFFFFFFFFFFFFFFFFFFFFFFFFFFFFFFFFFFFFFFFFFFFFFFFFFFFFFFFFE0 DUP2 ADD DUP4 MSTORE DUP3 PUSH2 0xB94 JUMP JUMPDEST PUSH2 0xC7F JUMP JUMPDEST CODESIZE DUP1 DUP1 DUP1 DUP1 DUP6 DUP1 RETURN JUMPDEST PUSH2 0x4EE SWAP1 DUP6 RETURNDATASIZE DUP8 GT PUSH2 0x4F5 JUMPI JUMPDEST PUSH2 0x4E6 DUP2 DUP4 PUSH2 0xB94 JUMP JUMPDEST DUP2 ADD SWAP1 PUSH2 0xC62 JUMP JUMPDEST POP CODESIZE PUSH2 0x460 JUMP JUMPDEST POP RETURNDATASIZE PUSH2 0x4DC JUMP JUMPDEST DUP5 MLOAD RETURNDATASIZE DUP8 DUP3 RETURNDATACOPY RETURNDATASIZE SWAP1 REVERT JUMPDEST SWAP1 SWAP3 POP DUP4 DUP2 DUP2 RETURNDATASIZE DUP4 GT PUSH2 0x532 JUMPI JUMPDEST PUSH2 0x51E DUP2 DUP4 PUSH2 0xB94 JUMP JUMPDEST DUP2 ADD SUB SLT PUSH2 0x52E JUMPI MLOAD SWAP2 CODESIZE PUSH2 0x3D7 JUMP JUMPDEST DUP6 DUP1 REVERT JUMPDEST POP RETURNDATASIZE PUSH2 0x514 JUMP JUMPDEST DUP6 MLOAD RETURNDATASIZE DUP9 DUP3 RETURNDATACOPY RETURNDATASIZE SWAP1 REVERT JUMPDEST DUP3 DUP1 DUP1 DUP1 SELFBALANCE CALLER GAS CALL PUSH2 0x553 PUSH2 0xC04 JUMP JUMPDEST POP PUSH2 0x37F JUMPI PUSH1 0x20 PUSH1 0x64 SWAP3 MLOAD SWAP2 PUSH32 0x8C379A000000000000000000000000000000000000000000000000000000000 DUP4 MSTORE DUP3 ADD MSTORE PUSH1 0x13 PUSH1 0x24 DUP3 ADD MSTORE PUSH32 0x4572726F7220696E207769746864726177616C00000000000000000000000000 PUSH1 0x44 DUP3 ADD MSTORE REVERT JUMPDEST POP DUP3 CALLVALUE PUSH2 0x601 JUMPI DUP2 PUSH32 0xFFFFFFFFFFFFFFFFFFFFFFFFFFFFFFFFFFFFFFFFFFFFFFFFFFFFFFFFFFFFFFFC CALLDATASIZE ADD SLT PUSH2 0x601 JUMPI PUSH1 0x20 SWAP1 MLOAD PUSH20 0x2791BCA1F2DE4661ED88A30C99A7A9449AA84174 DUP2 MSTORE RETURN JUMPDEST POP DUP1 REVERT JUMPDEST POP DUP3 CALLVALUE PUSH2 0x601 JUMPI PUSH1 0x20 PUSH32 0xFFFFFFFFFFFFFFFFFFFFFFFFFFFFFFFFFFFFFFFFFFFFFFFFFFFFFFFFFFFFFFFC CALLDATASIZE ADD SLT PUSH2 0x601 JUMPI DUP3 CALLDATALOAD PUSH1 0x2 SLOAD DUP1 PUSH1 0x3 MUL SWAP1 PUSH1 0x3 DUP3 DIV DUP2 SUB PUSH2 0x8A3 JUMPI PUSH2 0x652 PUSH2 0xED1 JUMP JUMPDEST SWAP2 PUSH1 0x3 DUP4 DUP4 MUL MUL SWAP3 DUP2 DUP5 DIV EQ SWAP1 ISZERO OR ISZERO PUSH2 0x8A3 JUMPI PUSH9 0x56BC75E2D63100000 DUP1 SWAP3 DIV PUSH1 0x1 SHR DUP4 LT PUSH2 0x820 JUMPI ISZERO PUSH2 0x7D5 JUMPI DUP1 DUP3 MUL SWAP1 DUP3 DUP3 DIV EQ DUP3 ISZERO OR ISZERO PUSH2 0x7A9 JUMPI PUSH2 0x6A3 SWAP1 PUSH2 0x69D PUSH2 0xED1 JUMP JUMPDEST SWAP1 PUSH2 0xB5B JUMP JUMPDEST PUSH1 0x2 SSTORE PUSH20 0xFFFFFFFFFFFFFFFFFFFFFFFFFFFFFFFFFFFFFFFF PUSH1 0x1 SLOAD AND DUP3 MLOAD SWAP1 PUSH32 0x23B872DD00000000000000000000000000000000000000000000000000000000 PUSH1 0x20 DUP4 ADD MSTORE CALLER PUSH1 0x24 DUP4 ADD MSTORE PUSH1 0x44 DUP3 ADD MSTORE DUP2 PUSH1 0x64 DUP3 ADD MSTORE PUSH1 0x64 DUP2 MSTORE PUSH1 0xA0 DUP2 ADD DUP2 DUP2 LT PUSH8 0xFFFFFFFFFFFFFFFF DUP3 GT OR PUSH2 0x77D JUMPI PUSH32 0xF5CB588F5F04842FA8A48FFD1F1B14B97339A788A30A4AB1C445E84F46A8B5FF SWAP5 SWAP6 POP SWAP1 PUSH2 0x744 SWAP2 DUP5 MSTORE PUSH2 0xC7F JUMP JUMPDEST CALLER PUSH32 0xFFFFFFFFFFFFFFFFFFFFFFFF0000000000000000000000000000000000000000 PUSH1 0x1 SLOAD AND OR PUSH1 0x1 SSTORE DUP2 MLOAD SWAP1 DUP2 MSTORE CALLER PUSH1 0x20 DUP3 ADD MSTORE LOG1 DUP1 RETURN JUMPDEST PUSH1 0x24 DUP6 PUSH1 0x41 DUP9 PUSH32 0x4E487B7100000000000000000000000000000000000000000000000000000000 DUP4 MSTORE MSTORE REVERT JUMPDEST PUSH1 0x24 DUP5 PUSH1 0x11 DUP8 PUSH32 0x4E487B7100000000000000000000000000000000000000000000000000000000 DUP4 MSTORE MSTORE REVERT JUMPDEST POP PUSH1 0x64 DUP2 MUL DUP2 DUP2 DIV PUSH1 0x64 EQ DUP3 ISZERO OR ISZERO PUSH2 0x7A9 JUMPI PUSH32 0xF5CB588F5F04842FA8A48FFD1F1B14B97339A788A30A4AB1C445E84F46A8B5FF SWAP4 SWAP5 POP PUSH2 0x818 SWAP1 PUSH2 0x69D PUSH2 0xED1 JUMP JUMPDEST PUSH1 0x2 SSTORE PUSH2 0x744 JUMP JUMPDEST PUSH1 0x84 DUP7 PUSH1 0x20 DUP7 MLOAD SWAP2 PUSH32 0x8C379A000000000000000000000000000000000000000000000000000000000 DUP4 MSTORE DUP3 ADD MSTORE PUSH1 0x22 PUSH1 0x24 DUP3 ADD MSTORE PUSH32 0x596F75277265206E6F74206465706F736974696E6720656E6F75676820555344 PUSH1 0x44 DUP3 ADD MSTORE PUSH32 0x4321000000000000000000000000000000000000000000000000000000000000 PUSH1 0x64 DUP3 ADD MSTORE REVERT JUMPDEST PUSH1 0x24 DUP6 PUSH1 0x11 DUP9 PUSH32 0x4E487B7100000000000000000000000000000000000000000000000000000000 DUP4 MSTORE MSTORE REVERT JUMPDEST POP DUP3 CALLVALUE PUSH2 0x601 JUMPI DUP2 PUSH32 0xFFFFFFFFFFFFFFFFFFFFFFFFFFFFFFFFFFFFFFFFFFFFFFFFFFFFFFFFFFFFFFFC CALLDATASIZE ADD SLT PUSH2 0x601 JUMPI PUSH1 0x20 SWAP1 MLOAD PUSH20 0xAB594600376EC9FD91F8E885DADF0CE036862DE0 DUP2 MSTORE RETURN JUMPDEST POP DUP3 CALLVALUE PUSH2 0x601 JUMPI DUP2 PUSH32 0xFFFFFFFFFFFFFFFFFFFFFFFFFFFFFFFFFFFFFFFFFFFFFFFFFFFFFFFFFFFFFFFC CALLDATASIZE ADD SLT PUSH2 0x601 JUMPI PUSH20 0xFFFFFFFFFFFFFFFFFFFFFFFFFFFFFFFFFFFFFFFF PUSH1 0x20 SWAP3 SLOAD AND SWAP1 MLOAD SWAP1 DUP2 MSTORE RETURN JUMPDEST POP DUP3 CALLVALUE PUSH2 0x601 JUMPI DUP2 PUSH32 0xFFFFFFFFFFFFFFFFFFFFFFFFFFFFFFFFFFFFFFFFFFFFFFFFFFFFFFFFFFFFFFFC CALLDATASIZE ADD SLT PUSH2 0x601 JUMPI PUSH1 0x20 SWAP1 PUSH20 0xFFFFFFFFFFFFFFFFFFFFFFFFFFFFFFFFFFFFFFFF PUSH1 0x1 SLOAD AND SWAP1 MLOAD SWAP1 DUP2 MSTORE RETURN JUMPDEST POP CALLVALUE PUSH2 0xA5C JUMPI DUP1 PUSH32 0xFFFFFFFFFFFFFFFFFFFFFFFFFFFFFFFFFFFFFFFFFFFFFFFFFFFFFFFFFFFFFFFC CALLDATASIZE ADD SLT PUSH2 0xA5C JUMPI PUSH2 0x9F7 PUSH2 0xADC JUMP JUMPDEST DUP1 PUSH20 0xFFFFFFFFFFFFFFFFFFFFFFFFFFFFFFFFFFFFFFFF DUP2 SLOAD PUSH32 0xFFFFFFFFFFFFFFFFFFFFFFFF0000000000000000000000000000000000000000 DUP2 AND DUP4 SSTORE AND PUSH32 0x8BE0079C531659141344CD1FD0A4F28419497F9722A3DAAFE3B4186F6B6457E0 DUP3 DUP1 LOG3 DUP1 RETURN JUMPDEST DUP1 REVERT JUMPDEST POP DUP3 CALLVALUE PUSH2 0x601 JUMPI DUP2 PUSH32 0xFFFFFFFFFFFFFFFFFFFFFFFFFFFFFFFFFFFFFFFFFFFFFFFFFFFFFFFFFFFFFFFC CALLDATASIZE ADD SLT PUSH2 0x601 JUMPI PUSH1 0x20 SWAP1 PUSH1 0x2 SLOAD SWAP1 MLOAD SWAP1 DUP2 MSTORE RETURN JUMPDEST POP SWAP1 CALLVALUE PUSH2 0x601 JUMPI PUSH1 0x20 PUSH32 0xFFFFFFFFFFFFFFFFFFFFFFFFFFFFFFFFFFFFFFFFFFFFFFFFFFFFFFFFFFFFFFFC CALLDATASIZE ADD SLT PUSH2 0x601 JUMPI PUSH2 0xAD5 PUSH2 0xADC JUMP JUMPDEST CALLDATALOAD PUSH1 0x3 SSTORE DUP1 RETURN JUMPDEST PUSH20 0xFFFFFFFFFFFFFFFFFFFFFFFFFFFFFFFFFFFFFFFF PUSH1 0x0 SLOAD AND CALLER SUB PUSH2 0xAFD JUMPI JUMP JUMPDEST PUSH1 0x64 PUSH1 0x40 MLOAD PUSH32 0x8C379A000000000000000000000000000000000000000000000000000000000 DUP2 MSTORE PUSH1 0x20 PUSH1 0x4 DUP3 ADD MSTORE PUSH1 0x20 PUSH1 0x24 DUP3 ADD MSTORE PUSH32 0x4F776E61626C653A2063616C6C6572206973206E6F7420746865206F776E6572 PUSH1 0x44 DUP3 ADD MSTORE REVERT JUMPDEST DUP2 ISZERO PUSH2 0xB65 JUMPI DIV SWAP1 JUMP JUMPDEST PUSH32 0x4E487B7100000000000000000000000000000000000000000000000000000000 PUSH1 0x0 MSTORE PUSH1 0x12 PUSH1 0x4 MSTORE PUSH1 0x24 PUSH1 0x0 REVERT JUMPDEST SWAP1 PUSH1 0x1F PUSH32 0xFFFFFFFFFFFFFFFFFFFFFFFFFFFFFFFFFFFFFFFFFFFFFFFFFFFFFFFFFFFFFFE0 SWAP2 ADD AND DUP2 ADD SWAP1 DUP2 LT PUSH8 0xFFFFFFFFFFFFFFFF DUP3 GT OR PUSH2 0xBD5 JUMPI PUSH1 0x40 MSTORE JUMP JUMPDEST PUSH32 0x4E487B7100000000000000000000000000000000000000000000000000000000 PUSH1 0x0 MSTORE PUSH1 0x41 PUSH1 0x4 MSTORE PUSH1 0x24 PUSH1 0x0 REVERT JUMPDEST RETURNDATASIZE ISZERO PUSH2 0xC5D JUMPI RETURNDATASIZE SWAP1 PUSH8 0xFFFFFFFFFFFFFFFF DUP3 GT PUSH2 0xBD5 JUMPI PUSH1 0x40 MLOAD SWAP2 PUSH2 0xC51 PUSH1 0x20 PUSH32 0xFFFFFFFFFFFFFFFFFFFFFFFFFFFFFFFFFFFFFFFFFFFFFFFFFFFFFFFFFFFFFFE0 PUSH1 0x1F DUP5 ADD AND ADD DUP5 PUSH2 0xB94 JUMP JUMPDEST DUP3 MSTORE RETURNDATASIZE PUSH1 0x0 PUSH1 0x20 DUP5 ADD RETURNDATACOPY JUMP JUMPDEST PUSH1 0x60 SWAP1 JUMP JUMPDEST SWAP1 DUP2 PUSH1 0x20 SWAP2 SUB SLT PUSH2 0xC7A JUMPI MLOAD DUP1 ISZERO ISZERO DUP2 SUB PUSH2 0xC7A JUMPI SWAP1 JUMP JUMPDEST PUSH1 0x0 DUP1 REVERT JUMPDEST PUSH1 0x40 MLOAD PUSH1 0x40 DUP2 ADD DUP2 DUP2 LT PUSH8 0xFFFFFFFFFFFFFFFF DUP3 GT OR PUSH2 0xBD5 JUMPI PUSH1 0x40 MSTORE PUSH1 0x20 SWAP2 DUP3 DUP3 MSTORE PUSH32 0x5361666545524332303A206C6F772D6C6576656C2063616C6C206661696C6564 DUP4 DUP4 ADD MSTORE PUSH20 0x2791BCA1F2DE4661ED88A30C99A7A9449AA84174 DUP1 EXTCODESIZE ISZERO PUSH2 0xDAC JUMPI PUSH1 0x0 DUP3 DUP2 SWAP3 DUP3 DUP8 PUSH2 0xD03 SWAP8 SWAP7 MLOAD SWAP4 ADD SWAP2 GAS CALL PUSH2 0xCFD PUSH2 0xC04 JUMP JUMPDEST SWAP1 PUSH2 0xE0A JUMP JUMPDEST DUP1 MLOAD SWAP1 DUP2 PUSH2 0xD10 JUMPI POP POP POP JUMP JUMPDEST DUP3 DUP1 PUSH2 0xD20 SWAP4 DUP4 ADD ADD SWAP2 ADD PUSH2 0xC62 JUMP JUMPDEST ISZERO PUSH2 0xD28 JUMPI POP JUMP JUMPDEST PUSH1 0x84 SWAP1 PUSH1 0x40 MLOAD SWAP1 PUSH32 0x8C379A000000000000000000000000000000000000000000000000000000000 DUP3 MSTORE PUSH1 0x4 DUP3 ADD MSTORE PUSH1 0x2A PUSH1 0x24 DUP3 ADD MSTORE PUSH32 0x5361666545524332303A204552433230206F7065726174696F6E20646964206E PUSH1 0x44 DUP3 ADD MSTORE PUSH32 0x6F74207375636365656400000000000000000000000000000000000000000000 PUSH1 0x64 DUP3 ADD MSTORE REVERT JUMPDEST PUSH1 0x64 DUP5 PUSH1 0x40 MLOAD SWAP1 PUSH32 0x8C379A000000000000000000000000000000000000000000000000000000000 DUP3 MSTORE PUSH1 0x4 DUP3 ADD MSTORE PUSH1 0x1D PUSH1 0x24 DUP3 ADD MSTORE PUSH32 0x416464726573733A2063616C6C20746F206E6F6E2D636F6E7472616374000000 PUSH1 0x44 DUP3 ADD MSTORE REVERT JUMPDEST SWAP1 SWAP2 SWAP1 ISZERO PUSH2 0xE16 JUMPI POP SWAP1 JUMP JUMPDEST DUP2 MLOAD ISZERO PUSH2 0xE26 JUMPI POP DUP1 MLOAD SWAP1 PUSH1 0x20 ADD REVERT JUMPDEST PUSH1 0x40 MLOAD SWAP1 PUSH32 0x8C379A000000000000000000000000000000000000000000000000000000000 DUP3 MSTORE DUP2 PUSH1 0x20 DUP1 PUSH1 0x4 DUP4 ADD MSTORE DUP3 MLOAD SWAP3 DUP4 PUSH1 0x24 DUP5 ADD MSTORE PUSH1 0x0 JUMPDEST DUP5 DUP2 LT PUSH2 0xEA3 JUMPI POP POP POP PUSH32 0xFFFFFFFFFFFFFFFFFFFFFFFFFFFFFFFFFFFFFFFFFFFFFFFFFFFFFFFFFFFFFFE0 PUSH1 0x1F DUP4 PUSH1 0x0 PUSH1 0x44 DUP1 SWAP7 DUP7 ADD ADD MSTORE ADD AND DUP2 ADD SUB ADD SWAP1 REVERT JUMPDEST DUP2 DUP2 ADD DUP4 ADD MLOAD DUP7 DUP3 ADD PUSH1 0x44 ADD MSTORE DUP6 SWAP4 POP DUP3 ADD PUSH2 0xE62 JUMP JUMPDEST MLOAD SWAP1 PUSH10 0xFFFFFFFFFFFFFFFFFFFF DUP3 AND DUP3 SUB PUSH2 0xC7A JUMPI JUMP JUMPDEST PUSH1 0x40 MLOAD PUSH32 0xFEAF968C00000000000000000000000000000000000000000000000000000000 DUP2 MSTORE PUSH1 0xA0 DUP2 PUSH1 0x4 DUP2 PUSH20 0xAB594600376EC9FD91F8E885DADF0CE036862DE0 GAS STATICCALL SWAP1 DUP2 ISZERO PUSH2 0xF6F JUMPI PUSH1 0x0 SWAP2 PUSH2 0xF26 JUMPI POP SWAP1 JUMP JUMPDEST SWAP1 PUSH1 0xA0 DUP3 RETURNDATASIZE DUP3 GT PUSH2 0xF67 JUMPI JUMPDEST DUP2 PUSH2 0xF3F PUSH1 0xA0 SWAP4 DUP4 PUSH2 0xB94 JUMP JUMPDEST DUP2 ADD SUB SLT PUSH2 0xA5C JUMPI POP PUSH2 0xF51 DUP2 PUSH2 0xEBA JUMP JUMPDEST POP PUSH2 0xF63 PUSH1 0x80 PUSH1 0x20 DUP4 ADD MLOAD SWAP3 ADD PUSH2 0xEBA JUMP JUMPDEST POP SWAP1 JUMP JUMPDEST RETURNDATASIZE SWAP2 POP PUSH2 0xF32 JUMP JUMPDEST PUSH1 0x40 MLOAD RETURNDATASIZE PUSH1 0x0 DUP3 RETURNDATACOPY RETURNDATASIZE SWAP1 REVERT INVALID LOG2 PUSH5 0x6970667358 0x22 SLT KECCAK256 0xD3 0x5F 0xAA 0xB9 PUSH28 0x1D1E8976C9BF3AF67486768F46E56650FB9EBCF96FD8B191C484F364 PUSH20 0x6F6C634300081100330000000000000000000000 "},"methodIdentifiers":{"MATIC_USD_ORACLE()":"8db9f39a","USDC_ADDRESS()":"bb09d9b7","deposit(uint256)":"b6b55f25","emergencyWithdraw()":"db2e21bc","getKing()":"7920d804","maximumPaid()":"423cb99e","owner()":"8da5cb5b","renounceOwnership()":"715018a6","setGasAllocatedForKingPayment(uint256)":"1f19ec29","transferOwnership(address)":"f2fde38b"}}}}}