{"contracts/King.sol":{"King":{"abi":[{"anonymous":false,"inputs":[{"indexed":false,"internalType":"bool","name":"success","type":"bool"},{"indexed":false,"internalType":"uint256","name":"amount","type":"uint256"},{"indexed":false,"internalType":"address","name":"king","type":"address"}],"name":"EthDeposit","type":"event"},{"anonymous":false,"inputs":[{"indexed":false,"internalType":"bool","name":"sent","type":"bool"},{"indexed":false,"internalType":"uint256","name":"balance","type":"uint256"}],"name":"EthEmergencyWithdrawal","type":"event"},{"anonymous":false,"inputs":[{"indexed":true,"internalType":"address","name":"previousOwner","type":"address"},{"indexed":true,"internalType":"address","name":"newOwner","type":"address"}],"name":"OwnershipTransferred","type":"event"},{"anonymous":false,"inputs":[{"indexed":false,"internalType":"uint256","name":"amount","type":"uint256"},{"indexed":false,"internalType":"address","name":"king","type":"address"}],"name":"UsdcDeposit","type":"event"},{"anonymous":false,"inputs":[{"indexed":false,"internalType":"uint256","name":"usdcBalance","type":"uint256"}],"name":"UsdcEmergencyWithdrawal","type":"event"},{"inputs":[],"name":"MATIC_USD_ORACLE","outputs":[{"internalType":"address","name":"","type":"address"}],"stateMutability":"view","type":"function"},{"inputs":[],"name":"USDC_ADDRESS","outputs":[{"internalType":"address","name":"","type":"address"}],"stateMutability":"view","type":"function"},{"inputs":[{"internalType":"uint256","name":"depositAmount","type":"uint256"}],"name":"deposit","outputs":[],"stateMutability":"nonpayable","type":"function"},{"inputs":[],"name":"emergencyWithdraw","outputs":[],"stateMutability":"payable","type":"function"},{"inputs":[],"name":"getKing","outputs":[{"internalType":"address payable","name":"","type":"address"}],"stateMutability":"view","type":"function"},{"inputs":[],"name":"maximumPaid","outputs":[{"internalType":"uint256","name":"","type":"uint256"}],"stateMutability":"view","type":"function"},{"inputs":[],"name":"owner","outputs":[{"internalType":"address","name":"","type":"address"}],"stateMutability":"view","type":"function"},{"inputs":[],"name":"renounceOwnership","outputs":[],"stateMutability":"nonpayable","type":"function"},{"inputs":[{"internalType":"uint256","name":"gasAmount","type":"uint256"}],"name":"setGasAllocatedForKingPayment","outputs":[],"stateMutability":"nonpayable","type":"function"},{"inputs":[{"internalType":"address","name":"newOwner","type":"address"}],"name":"transferOwnership","outputs":[],"stateMutability":"nonpayable","type":"function"},{"stateMutability":"payable","type":"receive"}],"evm":{"bytecode":{"linkReferences":{},"object":"608080604052346100615760008054336001600160a01b0319821681178355916001600160a01b03909116907f8be0079c531659141344cd1fd0a4f28419497f9722a3daafe3b4186f6b6457e09080a36108fc60035561110490816100678239f35b600080fdfe60406080815260048036101561018c575b361561001b57600080fd5b600254908160030260038104830361015e5760011c34106100db5750156100d15760607f7f7caf2cfdc2014aa045dd0ef7e9f5a6a4819e729710bed3689ba095e658738f913460025560008080803473ffffffffffffffffffffffffffffffffffffffff60015416600354f190610090610d5c565b50805191151582523460208301523390820152a15b337fffffffffffffffffffffffff00000000000000000000000000000000000000006001541617600155005b50346002556100a5565b60849060208451917f08c379a0000000000000000000000000000000000000000000000000000000008352820152602360248201527f596f75277265206e6f74206465706f736974696e6720656e6f7567682065746860448201527f65722100000000000000000000000000000000000000000000000000000000006064820152fd5b6011827f4e487b71000000000000000000000000000000000000000000000000000000006000525260246000fd5b6000803560e01c80631f19ec2914610bf4578063423cb99e14610bb7578063715018a614610b1b5780637920d80414610ac85780638da5cb5b14610a775780638db9f39a14610a2a578063b6b55f2514610760578063bb09d9b71461070f578063db2e21bc146103485763f2fde38b146102065750610010565b91346103445760207ffffffffffffffffffffffffffffffffffffffffffffffffffffffffffffffffc3601126103445781359173ffffffffffffffffffffffffffffffffffffffff9182841680940361034057610261610c34565b83156102bd575050600054827fffffffffffffffffffffffff0000000000000000000000000000000000000000821617600055167f8be0079c531659141344cd1fd0a4f28419497f9722a3daafe3b4186f6b6457e0600080a380f35b90602060849251917f08c379a0000000000000000000000000000000000000000000000000000000008352820152602660248201527f4f776e61626c653a206e6577206f776e657220697320746865207a65726f206160448201527f64647265737300000000000000000000000000000000000000000000000000006064820152fd5b8480fd5b8280fd5b509190827ffffffffffffffffffffffffffffffffffffffffffffffffffffffffffffffffc3601126103445761037c610c34565b47610668575b81517f70a082310000000000000000000000000000000000000000000000000000000081523082820152602090602493732791bca1f2de4661ed88a30c99a7a9449aa8417483838781845afa92831561065e57879361062b575b50826103e6578680f35b909192939495948251917f095ea7b300000000000000000000000000000000000000000000000000000000928387820152338982015260006044820152604481526080810181811067ffffffffffffffff8211176105fe5791610450889260449695948852610dba565b8551948580927fdd62ed3e0000000000000000000000000000000000000000000000000000000082523086830152338d8301525afa9283156105f3576000936105c1575b508483018093116105945750610539610585927feb1bb465721b1baf11a4b364962aa63e8183707b2a9eb8e1e4994504aefb4622979861053e879461050788519485928c840152338584016020909392919373ffffffffffffffffffffffffffffffffffffffff60408201951681520152565b03926105397fffffffffffffffffffffffffffffffffffffffffffffffffffffffffffffffe094858101835282610cec565b610dba565b85517fa9059cbb0000000000000000000000000000000000000000000000000000000089820152339181019182526020820194909452839060400103908101835282610cec565b51908152a13880808080808680f35b601188917f4e487b7100000000000000000000000000000000000000000000000000000000600052526000fd5b90928682813d83116105ec575b6105d88183610cec565b810103126105e95750519138610494565b80fd5b503d6105ce565b84513d6000823e3d90fd5b896041857f4e487b7100000000000000000000000000000000000000000000000000000000600052526000fd5b9092508381813d8311610657575b6106438183610cec565b81010312610653575191386103dc565b8680fd5b503d610639565b82513d89823e3d90fd5b8280808047335af1610678610d5c565b50156106b3577f029c9780294ed370bdadf9d028c337ec660b4de49f16aac94ba5645e6c1b4d318247815190600182526020820152a1610382565b602060649251917f08c379a0000000000000000000000000000000000000000000000000000000008352820152601360248201527f4572726f7220696e207769746864726177616c000000000000000000000000006044820152fd5b50823461075c57817ffffffffffffffffffffffffffffffffffffffffffffffffffffffffffffffffc36011261075c5760209051732791bca1f2de4661ed88a30c99a7a9449aa841748152f35b5080fd5b50823461075c5760207ffffffffffffffffffffffffffffffffffffffffffffffffffffffffffffffffc36011261075c57823560025480600302906003820481036109fe576107ad611024565b916003838302029281840414901517156109fe5768056bc75e2d6310000080920460011c831061097b571561093057808202908282041482151715610904576107fe906107f8611024565b90610cb3565b60025573ffffffffffffffffffffffffffffffffffffffff600154168251907f23b872dd00000000000000000000000000000000000000000000000000000000602083015233602483015260448201528160648201526064815260a0810181811067ffffffffffffffff8211176108d8577ff5cb588f5f04842fa8a48ffd1f1b14b97339a788a30a4ab1c445e84f46a8b5ff9495509061089f918452610dba565b337fffffffffffffffffffffffff000000000000000000000000000000000000000060015416176001558151908152336020820152a180f35b6024856041887f4e487b7100000000000000000000000000000000000000000000000000000000835252fd5b6024846011877f4e487b7100000000000000000000000000000000000000000000000000000000835252fd5b506064810281810460641482151715610904577ff5cb588f5f04842fa8a48ffd1f1b14b97339a788a30a4ab1c445e84f46a8b5ff939450610973906107f8611024565b60025561089f565b60848660208651917f08c379a0000000000000000000000000000000000000000000000000000000008352820152602260248201527f596f75277265206e6f74206465706f736974696e6720656e6f7567682055534460448201527f43210000000000000000000000000000000000000000000000000000000000006064820152fd5b6024856011887f4e487b7100000000000000000000000000000000000000000000000000000000835252fd5b50823461075c57817ffffffffffffffffffffffffffffffffffffffffffffffffffffffffffffffffc36011261075c576020905173ab594600376ec9fd91f8e885dadf0ce036862de08152f35b50823461075c57817ffffffffffffffffffffffffffffffffffffffffffffffffffffffffffffffffc36011261075c5773ffffffffffffffffffffffffffffffffffffffff60209254169051908152f35b50823461075c57817ffffffffffffffffffffffffffffffffffffffffffffffffffffffffffffffffc36011261075c5760209073ffffffffffffffffffffffffffffffffffffffff600154169051908152f35b50346105e957807ffffffffffffffffffffffffffffffffffffffffffffffffffffffffffffffffc3601126105e957610b52610c34565b8073ffffffffffffffffffffffffffffffffffffffff81547fffffffffffffffffffffffff000000000000000000000000000000000000000081168355167f8be0079c531659141344cd1fd0a4f28419497f9722a3daafe3b4186f6b6457e08280a380f35b50823461075c57817ffffffffffffffffffffffffffffffffffffffffffffffffffffffffffffffffc36011261075c576020906002549051908152f35b50903461075c5760207ffffffffffffffffffffffffffffffffffffffffffffffffffffffffffffffffc36011261075c57610c2d610c34565b3560035580f35b73ffffffffffffffffffffffffffffffffffffffff600054163303610c5557565b60646040517f08c379a000000000000000000000000000000000000000000000000000000000815260206004820152602060248201527f4f776e61626c653a2063616c6c6572206973206e6f7420746865206f776e65726044820152fd5b8115610cbd570490565b7f4e487b7100000000000000000000000000000000000000000000000000000000600052601260045260246000fd5b90601f7fffffffffffffffffffffffffffffffffffffffffffffffffffffffffffffffe0910116810190811067ffffffffffffffff821117610d2d57604052565b7f4e487b7100000000000000000000000000000000000000000000000000000000600052604160045260246000fd5b3d15610db5573d9067ffffffffffffffff8211610d2d5760405191610da960207fffffffffffffffffffffffffffffffffffffffffffffffffffffffffffffffe0601f8401160184610cec565b82523d6000602084013e565b606090565b604051906040820182811067ffffffffffffffff821117610d2d576040526020918281527f5361666545524332303a206c6f772d6c6576656c2063616c6c206661696c656483820152732791bca1f2de4661ed88a30c99a7a9449aa84174803b15610efa5790610e429160008481959282888195519301915af1610e3c610d5c565b90610f58565b805180610e50575b50505050565b8184918101031261075c57820151908115918215036105e95750610e7657808080610e4a565b608490604051907f08c379a00000000000000000000000000000000000000000000000000000000082526004820152602a60248201527f5361666545524332303a204552433230206f7065726174696f6e20646964206e60448201527f6f742073756363656564000000000000000000000000000000000000000000006064820152fd5b606484604051907f08c379a00000000000000000000000000000000000000000000000000000000082526004820152601d60248201527f416464726573733a2063616c6c20746f206e6f6e2d636f6e74726163740000006044820152fd5b90919015610f64575090565b815115610f745750805190602001fd5b604051907f08c379a000000000000000000000000000000000000000000000000000000000825281602080600483015282519283602484015260005b848110610ff1575050507fffffffffffffffffffffffffffffffffffffffffffffffffffffffffffffffe0601f836000604480968601015201168101030190fd5b818101830151868201604401528593508201610fb0565b519069ffffffffffffffffffff8216820361101f57565b600080fd5b6040517ffeaf968c00000000000000000000000000000000000000000000000000000000815260a08160048173ab594600376ec9fd91f8e885dadf0ce036862de05afa9081156110c257600091611079575090565b9060a0823d82116110ba575b8161109260a09383610cec565b810103126105e957506110a481611008565b506110b6608060208301519201611008565b5090565b3d9150611085565b6040513d6000823e3d90fdfea2646970667358221220e603c222b590aa8a2dcd335b338a087731f6c115f1dbaa6838cd2ffdeff204bf64736f6c63430008110033","opcodes":"PUSH1 0x80 DUP1 PUSH1 0x40 MSTORE CALLVALUE PUSH2 0x61 JUMPI PUSH1 0x0 DUP1 SLOAD CALLER PUSH1 0x1 PUSH1 0x1 PUSH1 0xA0 SHL SUB NOT DUP3 AND DUP2 OR DUP4 SSTORE SWAP2 PUSH1 0x1 PUSH1 0x1 PUSH1 0xA0 SHL SUB SWAP1 SWAP2 AND SWAP1 PUSH32 0x8BE0079C531659141344CD1FD0A4F28419497F9722A3DAAFE3B4186F6B6457E0 SWAP1 DUP1 LOG3 PUSH2 0x8FC PUSH1 0x3 SSTORE PUSH2 0x1104 SWAP1 DUP2 PUSH2 0x67 DUP3 CODECOPY RETURN JUMPDEST PUSH1 0x0 DUP1 REVERT INVALID PUSH1 0x40 PUSH1 0x80 DUP2 MSTORE PUSH1 0x4 DUP1 CALLDATASIZE LT ISZERO PUSH2 0x18C JUMPI JUMPDEST CALLDATASIZE ISZERO PUSH2 0x1B JUMPI PUSH1 0x0 DUP1 REVERT JUMPDEST PUSH1 0x2 SLOAD SWAP1 DUP2 PUSH1 0x3 MUL PUSH1 0x3 DUP2 DIV DUP4 SUB PUSH2 0x15E JUMPI PUSH1 0x1 SHR CALLVALUE LT PUSH2 0xDB JUMPI POP ISZERO PUSH2 0xD1 JUMPI PUSH1 0x60 PUSH32 0x7F7CAF2CFDC2014AA045DD0EF7E9F5A6A4819E729710BED3689BA095E658738F SWAP2 CALLVALUE PUSH1 0x2 SSTORE PUSH1 0x0 DUP1 DUP1 DUP1 CALLVALUE PUSH20 0xFFFFFFFFFFFFFFFFFFFFFFFFFFFFFFFFFFFFFFFF PUSH1 0x1 SLOAD AND PUSH1 0x3 SLOAD CALL SWAP1 PUSH2 0x90 PUSH2 0xD5C JUMP JUMPDEST POP DUP1 MLOAD SWAP2 ISZERO ISZERO DUP3 MSTORE CALLVALUE PUSH1 0x20 DUP4 ADD MSTORE CALLER SWAP1 DUP3 ADD MSTORE LOG1 JUMPDEST CALLER PUSH32 0xFFFFFFFFFFFFFFFFFFFFFFFF0000000000000000000000000000000000000000 PUSH1 0x1 SLOAD AND OR PUSH1 0x1 SSTORE STOP JUMPDEST POP CALLVALUE PUSH1 0x2 SSTORE PUSH2 0xA5 JUMP JUMPDEST PUSH1 0x84 SWAP1 PUSH1 0x20 DUP5 MLOAD SWAP2 PUSH32 0x8C379A000000000000000000000000000000000000000000000000000000000 DUP4 MSTORE DUP3 ADD MSTORE PUSH1 0x23 PUSH1 0x24 DUP3 ADD MSTORE PUSH32 0x596F75277265206E6F74206465706F736974696E6720656E6F75676820657468 PUSH1 0x44 DUP3 ADD MSTORE PUSH32 0x6572210000000000000000000000000000000000000000000000000000000000 PUSH1 0x64 DUP3 ADD MSTORE REVERT JUMPDEST PUSH1 0x11 DUP3 PUSH32 0x4E487B7100000000000000000000000000000000000000000000000000000000 PUSH1 0x0 MSTORE MSTORE PUSH1 0x24 PUSH1 0x0 REVERT JUMPDEST PUSH1 0x0 DUP1 CALLDATALOAD PUSH1 0xE0 SHR DUP1 PUSH4 0x1F19EC29 EQ PUSH2 0xBF4 JUMPI DUP1 PUSH4 0x423CB99E EQ PUSH2 0xBB7 JUMPI DUP1 PUSH4 0x715018A6 EQ PUSH2 0xB1B JUMPI DUP1 PUSH4 0x7920D804 EQ PUSH2 0xAC8 JUMPI DUP1 PUSH4 0x8DA5CB5B EQ PUSH2 0xA77 JUMPI DUP1 PUSH4 0x8DB9F39A EQ PUSH2 0xA2A JUMPI DUP1 PUSH4 0xB6B55F25 EQ PUSH2 0x760 JUMPI DUP1 PUSH4 0xBB09D9B7 EQ PUSH2 0x70F JUMPI DUP1 PUSH4 0xDB2E21BC EQ PUSH2 0x348 JUMPI PUSH4 0xF2FDE38B EQ PUSH2 0x206 JUMPI POP PUSH2 0x10 JUMP JUMPDEST SWAP2 CALLVALUE PUSH2 0x344 JUMPI PUSH1 0x20 PUSH32 0xFFFFFFFFFFFFFFFFFFFFFFFFFFFFFFFFFFFFFFFFFFFFFFFFFFFFFFFFFFFFFFFC CALLDATASIZE ADD SLT PUSH2 0x344 JUMPI DUP2 CALLDATALOAD SWAP2 PUSH20 0xFFFFFFFFFFFFFFFFFFFFFFFFFFFFFFFFFFFFFFFF SWAP2 DUP3 DUP5 AND DUP1 SWAP5 SUB PUSH2 0x340 JUMPI PUSH2 0x261 PUSH2 0xC34 JUMP JUMPDEST DUP4 ISZERO PUSH2 0x2BD JUMPI POP POP PUSH1 0x0 SLOAD DUP3 PUSH32 0xFFFFFFFFFFFFFFFFFFFFFFFF0000000000000000000000000000000000000000 DUP3 AND OR PUSH1 0x0 SSTORE AND PUSH32 0x8BE0079C531659141344CD1FD0A4F28419497F9722A3DAAFE3B4186F6B6457E0 PUSH1 0x0 DUP1 LOG3 DUP1 RETURN JUMPDEST SWAP1 PUSH1 0x20 PUSH1 0x84 SWAP3 MLOAD SWAP2 PUSH32 0x8C379A000000000000000000000000000000000000000000000000000000000 DUP4 MSTORE DUP3 ADD MSTORE PUSH1 0x26 PUSH1 0x24 DUP3 ADD MSTORE PUSH32 0x4F776E61626C653A206E6577206F776E657220697320746865207A65726F2061 PUSH1 0x44 DUP3 ADD MSTORE PUSH32 0x6464726573730000000000000000000000000000000000000000000000000000 PUSH1 0x64 DUP3 ADD MSTORE REVERT JUMPDEST DUP5 DUP1 REVERT JUMPDEST DUP3 DUP1 REVERT JUMPDEST POP SWAP2 SWAP1 DUP3 PUSH32 0xFFFFFFFFFFFFFFFFFFFFFFFFFFFFFFFFFFFFFFFFFFFFFFFFFFFFFFFFFFFFFFFC CALLDATASIZE ADD SLT PUSH2 0x344 JUMPI PUSH2 0x37C PUSH2 0xC34 JUMP JUMPDEST SELFBALANCE PUSH2 0x668 JUMPI JUMPDEST DUP2 MLOAD PUSH32 0x70A0823100000000000000000000000000000000000000000000000000000000 DUP2 MSTORE ADDRESS DUP3 DUP3 ADD MSTORE PUSH1 0x20 SWAP1 PUSH1 0x24 SWAP4 PUSH20 0x2791BCA1F2DE4661ED88A30C99A7A9449AA84174 DUP4 DUP4 DUP8 DUP2 DUP5 GAS STATICCALL SWAP3 DUP4 ISZERO PUSH2 0x65E JUMPI DUP8 SWAP4 PUSH2 0x62B JUMPI JUMPDEST POP DUP3 PUSH2 0x3E6 JUMPI DUP7 DUP1 RETURN JUMPDEST SWAP1 SWAP2 SWAP3 SWAP4 SWAP5 SWAP6 SWAP5 DUP3 MLOAD SWAP2 PUSH32 0x95EA7B300000000000000000000000000000000000000000000000000000000 SWAP3 DUP4 DUP8 DUP3 ADD MSTORE CALLER DUP10 DUP3 ADD MSTORE PUSH1 0x0 PUSH1 0x44 DUP3 ADD MSTORE PUSH1 0x44 DUP2 MSTORE PUSH1 0x80 DUP2 ADD DUP2 DUP2 LT PUSH8 0xFFFFFFFFFFFFFFFF DUP3 GT OR PUSH2 0x5FE JUMPI SWAP2 PUSH2 0x450 DUP9 SWAP3 PUSH1 0x44 SWAP7 SWAP6 SWAP5 DUP9 MSTORE PUSH2 0xDBA JUMP JUMPDEST DUP6 MLOAD SWAP5 DUP6 DUP1 SWAP3 PUSH32 0xDD62ED3E00000000000000000000000000000000000000000000000000000000 DUP3 MSTORE ADDRESS DUP7 DUP4 ADD MSTORE CALLER DUP14 DUP4 ADD MSTORE GAS STATICCALL SWAP3 DUP4 ISZERO PUSH2 0x5F3 JUMPI PUSH1 0x0 SWAP4 PUSH2 0x5C1 JUMPI JUMPDEST POP DUP5 DUP4 ADD DUP1 SWAP4 GT PUSH2 0x594 JUMPI POP PUSH2 0x539 PUSH2 0x585 SWAP3 PUSH32 0xEB1BB465721B1BAF11A4B364962AA63E8183707B2A9EB8E1E4994504AEFB4622 SWAP8 SWAP9 PUSH2 0x53E DUP8 SWAP5 PUSH2 0x507 DUP9 MLOAD SWAP5 DUP6 SWAP3 DUP13 DUP5 ADD MSTORE CALLER DUP6 DUP5 ADD PUSH1 0x20 SWAP1 SWAP4 SWAP3 SWAP2 SWAP4 PUSH20 0xFFFFFFFFFFFFFFFFFFFFFFFFFFFFFFFFFFFFFFFF PUSH1 0x40 DUP3 ADD SWAP6 AND DUP2 MSTORE ADD MSTORE JUMP JUMPDEST SUB SWAP3 PUSH2 0x539 PUSH32 0xFFFFFFFFFFFFFFFFFFFFFFFFFFFFFFFFFFFFFFFFFFFFFFFFFFFFFFFFFFFFFFE0 SWAP5 DUP6 DUP2 ADD DUP4 MSTORE DUP3 PUSH2 0xCEC JUMP JUMPDEST PUSH2 0xDBA JUMP JUMPDEST DUP6 MLOAD PUSH32 0xA9059CBB00000000000000000000000000000000000000000000000000000000 DUP10 DUP3 ADD MSTORE CALLER SWAP2 DUP2 ADD SWAP2 DUP3 MSTORE PUSH1 0x20 DUP3 ADD SWAP5 SWAP1 SWAP5 MSTORE DUP4 SWAP1 PUSH1 0x40 ADD SUB SWAP1 DUP2 ADD DUP4 MSTORE DUP3 PUSH2 0xCEC JUMP JUMPDEST MLOAD SWAP1 DUP2 MSTORE LOG1 CODESIZE DUP1 DUP1 DUP1 DUP1 DUP1 DUP7 DUP1 RETURN JUMPDEST PUSH1 0x11 DUP9 SWAP2 PUSH32 0x4E487B7100000000000000000000000000000000000000000000000000000000 PUSH1 0x0 MSTORE MSTORE PUSH1 0x0 REVERT JUMPDEST SWAP1 SWAP3 DUP7 DUP3 DUP2 RETURNDATASIZE DUP4 GT PUSH2 0x5EC JUMPI JUMPDEST PUSH2 0x5D8 DUP2 DUP4 PUSH2 0xCEC JUMP JUMPDEST DUP2 ADD SUB SLT PUSH2 0x5E9 JUMPI POP MLOAD SWAP2 CODESIZE PUSH2 0x494 JUMP JUMPDEST DUP1 REVERT JUMPDEST POP RETURNDATASIZE PUSH2 0x5CE JUMP JUMPDEST DUP5 MLOAD RETURNDATASIZE PUSH1 0x0 DUP3 RETURNDATACOPY RETURNDATASIZE SWAP1 REVERT JUMPDEST DUP10 PUSH1 0x41 DUP6 PUSH32 0x4E487B7100000000000000000000000000000000000000000000000000000000 PUSH1 0x0 MSTORE MSTORE PUSH1 0x0 REVERT JUMPDEST SWAP1 SWAP3 POP DUP4 DUP2 DUP2 RETURNDATASIZE DUP4 GT PUSH2 0x657 JUMPI JUMPDEST PUSH2 0x643 DUP2 DUP4 PUSH2 0xCEC JUMP JUMPDEST DUP2 ADD SUB SLT PUSH2 0x653 JUMPI MLOAD SWAP2 CODESIZE PUSH2 0x3DC JUMP JUMPDEST DUP7 DUP1 REVERT JUMPDEST POP RETURNDATASIZE PUSH2 0x639 JUMP JUMPDEST DUP3 MLOAD RETURNDATASIZE DUP10 DUP3 RETURNDATACOPY RETURNDATASIZE SWAP1 REVERT JUMPDEST DUP3 DUP1 DUP1 DUP1 SELFBALANCE CALLER GAS CALL PUSH2 0x678 PUSH2 0xD5C JUMP JUMPDEST POP ISZERO PUSH2 0x6B3 JUMPI PUSH32 0x29C9780294ED370BDADF9D028C337EC660B4DE49F16AAC94BA5645E6C1B4D31 DUP3 SELFBALANCE DUP2 MLOAD SWAP1 PUSH1 0x1 DUP3 MSTORE PUSH1 0x20 DUP3 ADD MSTORE LOG1 PUSH2 0x382 JUMP JUMPDEST PUSH1 0x20 PUSH1 0x64 SWAP3 MLOAD SWAP2 PUSH32 0x8C379A000000000000000000000000000000000000000000000000000000000 DUP4 MSTORE DUP3 ADD MSTORE PUSH1 0x13 PUSH1 0x24 DUP3 ADD MSTORE PUSH32 0x4572726F7220696E207769746864726177616C00000000000000000000000000 PUSH1 0x44 DUP3 ADD MSTORE REVERT JUMPDEST POP DUP3 CALLVALUE PUSH2 0x75C JUMPI DUP2 PUSH32 0xFFFFFFFFFFFFFFFFFFFFFFFFFFFFFFFFFFFFFFFFFFFFFFFFFFFFFFFFFFFFFFFC CALLDATASIZE ADD SLT PUSH2 0x75C JUMPI PUSH1 0x20 SWAP1 MLOAD PUSH20 0x2791BCA1F2DE4661ED88A30C99A7A9449AA84174 DUP2 MSTORE RETURN JUMPDEST POP DUP1 REVERT JUMPDEST POP DUP3 CALLVALUE PUSH2 0x75C JUMPI PUSH1 0x20 PUSH32 0xFFFFFFFFFFFFFFFFFFFFFFFFFFFFFFFFFFFFFFFFFFFFFFFFFFFFFFFFFFFFFFFC CALLDATASIZE ADD SLT PUSH2 0x75C JUMPI DUP3 CALLDATALOAD PUSH1 0x2 SLOAD DUP1 PUSH1 0x3 MUL SWAP1 PUSH1 0x3 DUP3 DIV DUP2 SUB PUSH2 0x9FE JUMPI PUSH2 0x7AD PUSH2 0x1024 JUMP JUMPDEST SWAP2 PUSH1 0x3 DUP4 DUP4 MUL MUL SWAP3 DUP2 DUP5 DIV EQ SWAP1 ISZERO OR ISZERO PUSH2 0x9FE JUMPI PUSH9 0x56BC75E2D63100000 DUP1 SWAP3 DIV PUSH1 0x1 SHR DUP4 LT PUSH2 0x97B JUMPI ISZERO PUSH2 0x930 JUMPI DUP1 DUP3 MUL SWAP1 DUP3 DUP3 DIV EQ DUP3 ISZERO OR ISZERO PUSH2 0x904 JUMPI PUSH2 0x7FE SWAP1 PUSH2 0x7F8 PUSH2 0x1024 JUMP JUMPDEST SWAP1 PUSH2 0xCB3 JUMP JUMPDEST PUSH1 0x2 SSTORE PUSH20 0xFFFFFFFFFFFFFFFFFFFFFFFFFFFFFFFFFFFFFFFF PUSH1 0x1 SLOAD AND DUP3 MLOAD SWAP1 PUSH32 0x23B872DD00000000000000000000000000000000000000000000000000000000 PUSH1 0x20 DUP4 ADD MSTORE CALLER PUSH1 0x24 DUP4 ADD MSTORE PUSH1 0x44 DUP3 ADD MSTORE DUP2 PUSH1 0x64 DUP3 ADD MSTORE PUSH1 0x64 DUP2 MSTORE PUSH1 0xA0 DUP2 ADD DUP2 DUP2 LT PUSH8 0xFFFFFFFFFFFFFFFF DUP3 GT OR PUSH2 0x8D8 JUMPI PUSH32 0xF5CB588F5F04842FA8A48FFD1F1B14B97339A788A30A4AB1C445E84F46A8B5FF SWAP5 SWAP6 POP SWAP1 PUSH2 0x89F SWAP2 DUP5 MSTORE PUSH2 0xDBA JUMP JUMPDEST CALLER PUSH32 0xFFFFFFFFFFFFFFFFFFFFFFFF0000000000000000000000000000000000000000 PUSH1 0x1 SLOAD AND OR PUSH1 0x1 SSTORE DUP2 MLOAD SWAP1 DUP2 MSTORE CALLER PUSH1 0x20 DUP3 ADD MSTORE LOG1 DUP1 RETURN JUMPDEST PUSH1 0x24 DUP6 PUSH1 0x41 DUP9 PUSH32 0x4E487B7100000000000000000000000000000000000000000000000000000000 DUP4 MSTORE MSTORE REVERT JUMPDEST PUSH1 0x24 DUP5 PUSH1 0x11 DUP8 PUSH32 0x4E487B7100000000000000000000000000000000000000000000000000000000 DUP4 MSTORE MSTORE REVERT JUMPDEST POP PUSH1 0x64 DUP2 MUL DUP2 DUP2 DIV PUSH1 0x64 EQ DUP3 ISZERO OR ISZERO PUSH2 0x904 JUMPI PUSH32 0xF5CB588F5F04842FA8A48FFD1F1B14B97339A788A30A4AB1C445E84F46A8B5FF SWAP4 SWAP5 POP PUSH2 0x973 SWAP1 PUSH2 0x7F8 PUSH2 0x1024 JUMP JUMPDEST PUSH1 0x2 SSTORE PUSH2 0x89F JUMP JUMPDEST PUSH1 0x84 DUP7 PUSH1 0x20 DUP7 MLOAD SWAP2 PUSH32 0x8C379A000000000000000000000000000000000000000000000000000000000 DUP4 MSTORE DUP3 ADD MSTORE PUSH1 0x22 PUSH1 0x24 DUP3 ADD MSTORE PUSH32 0x596F75277265206E6F74206465706F736974696E6720656E6F75676820555344 PUSH1 0x44 DUP3 ADD MSTORE PUSH32 0x4321000000000000000000000000000000000000000000000000000000000000 PUSH1 0x64 DUP3 ADD MSTORE REVERT JUMPDEST PUSH1 0x24 DUP6 PUSH1 0x11 DUP9 PUSH32 0x4E487B7100000000000000000000000000000000000000000000000000000000 DUP4 MSTORE MSTORE REVERT JUMPDEST POP DUP3 CALLVALUE PUSH2 0x75C JUMPI DUP2 PUSH32 0xFFFFFFFFFFFFFFFFFFFFFFFFFFFFFFFFFFFFFFFFFFFFFFFFFFFFFFFFFFFFFFFC CALLDATASIZE ADD SLT PUSH2 0x75C JUMPI PUSH1 0x20 SWAP1 MLOAD PUSH20 0xAB594600376EC9FD91F8E885DADF0CE036862DE0 DUP2 MSTORE RETURN JUMPDEST POP DUP3 CALLVALUE PUSH2 0x75C JUMPI DUP2 PUSH32 0xFFFFFFFFFFFFFFFFFFFFFFFFFFFFFFFFFFFFFFFFFFFFFFFFFFFFFFFFFFFFFFFC CALLDATASIZE ADD SLT PUSH2 0x75C JUMPI PUSH20 0xFFFFFFFFFFFFFFFFFFFFFFFFFFFFFFFFFFFFFFFF PUSH1 0x20 SWAP3 SLOAD AND SWAP1 MLOAD SWAP1 DUP2 MSTORE RETURN JUMPDEST POP DUP3 CALLVALUE PUSH2 0x75C JUMPI DUP2 PUSH32 0xFFFFFFFFFFFFFFFFFFFFFFFFFFFFFFFFFFFFFFFFFFFFFFFFFFFFFFFFFFFFFFFC CALLDATASIZE ADD SLT PUSH2 0x75C JUMPI PUSH1 0x20 SWAP1 PUSH20 0xFFFFFFFFFFFFFFFFFFFFFFFFFFFFFFFFFFFFFFFF PUSH1 0x1 SLOAD AND SWAP1 MLOAD SWAP1 DUP2 MSTORE RETURN JUMPDEST POP CALLVALUE PUSH2 0x5E9 JUMPI DUP1 PUSH32 0xFFFFFFFFFFFFFFFFFFFFFFFFFFFFFFFFFFFFFFFFFFFFFFFFFFFFFFFFFFFFFFFC CALLDATASIZE ADD SLT PUSH2 0x5E9 JUMPI PUSH2 0xB52 PUSH2 0xC34 JUMP JUMPDEST DUP1 PUSH20 0xFFFFFFFFFFFFFFFFFFFFFFFFFFFFFFFFFFFFFFFF DUP2 SLOAD PUSH32 0xFFFFFFFFFFFFFFFFFFFFFFFF0000000000000000000000000000000000000000 DUP2 AND DUP4 SSTORE AND PUSH32 0x8BE0079C531659141344CD1FD0A4F28419497F9722A3DAAFE3B4186F6B6457E0 DUP3 DUP1 LOG3 DUP1 RETURN JUMPDEST POP DUP3 CALLVALUE PUSH2 0x75C JUMPI DUP2 PUSH32 0xFFFFFFFFFFFFFFFFFFFFFFFFFFFFFFFFFFFFFFFFFFFFFFFFFFFFFFFFFFFFFFFC CALLDATASIZE ADD SLT PUSH2 0x75C JUMPI PUSH1 0x20 SWAP1 PUSH1 0x2 SLOAD SWAP1 MLOAD SWAP1 DUP2 MSTORE RETURN JUMPDEST POP SWAP1 CALLVALUE PUSH2 0x75C JUMPI PUSH1 0x20 PUSH32 0xFFFFFFFFFFFFFFFFFFFFFFFFFFFFFFFFFFFFFFFFFFFFFFFFFFFFFFFFFFFFFFFC CALLDATASIZE ADD SLT PUSH2 0x75C JUMPI PUSH2 0xC2D PUSH2 0xC34 JUMP JUMPDEST CALLDATALOAD PUSH1 0x3 SSTORE DUP1 RETURN JUMPDEST PUSH20 0xFFFFFFFFFFFFFFFFFFFFFFFFFFFFFFFFFFFFFFFF PUSH1 0x0 SLOAD AND CALLER SUB PUSH2 0xC55 JUMPI JUMP JUMPDEST PUSH1 0x64 PUSH1 0x40 MLOAD PUSH32 0x8C379A000000000000000000000000000000000000000000000000000000000 DUP2 MSTORE PUSH1 0x20 PUSH1 0x4 DUP3 ADD MSTORE PUSH1 0x20 PUSH1 0x24 DUP3 ADD MSTORE PUSH32 0x4F776E61626C653A2063616C6C6572206973206E6F7420746865206F776E6572 PUSH1 0x44 DUP3 ADD MSTORE REVERT JUMPDEST DUP2 ISZERO PUSH2 0xCBD JUMPI DIV SWAP1 JUMP JUMPDEST PUSH32 0x4E487B7100000000000000000000000000000000000000000000000000000000 PUSH1 0x0 MSTORE PUSH1 0x12 PUSH1 0x4 MSTORE PUSH1 0x24 PUSH1 0x0 REVERT JUMPDEST SWAP1 PUSH1 0x1F PUSH32 0xFFFFFFFFFFFFFFFFFFFFFFFFFFFFFFFFFFFFFFFFFFFFFFFFFFFFFFFFFFFFFFE0 SWAP2 ADD AND DUP2 ADD SWAP1 DUP2 LT PUSH8 0xFFFFFFFFFFFFFFFF DUP3 GT OR PUSH2 0xD2D JUMPI PUSH1 0x40 MSTORE JUMP JUMPDEST PUSH32 0x4E487B7100000000000000000000000000000000000000000000000000000000 PUSH1 0x0 MSTORE PUSH1 0x41 PUSH1 0x4 MSTORE PUSH1 0x24 PUSH1 0x0 REVERT JUMPDEST RETURNDATASIZE ISZERO PUSH2 0xDB5 JUMPI RETURNDATASIZE SWAP1 PUSH8 0xFFFFFFFFFFFFFFFF DUP3 GT PUSH2 0xD2D JUMPI PUSH1 0x40 MLOAD SWAP2 PUSH2 0xDA9 PUSH1 0x20 PUSH32 0xFFFFFFFFFFFFFFFFFFFFFFFFFFFFFFFFFFFFFFFFFFFFFFFFFFFFFFFFFFFFFFE0 PUSH1 0x1F DUP5 ADD AND ADD DUP5 PUSH2 0xCEC JUMP JUMPDEST DUP3 MSTORE RETURNDATASIZE PUSH1 0x0 PUSH1 0x20 DUP5 ADD RETURNDATACOPY JUMP JUMPDEST PUSH1 0x60 SWAP1 JUMP JUMPDEST PUSH1 0x40 MLOAD SWAP1 PUSH1 0x40 DUP3 ADD DUP3 DUP2 LT PUSH8 0xFFFFFFFFFFFFFFFF DUP3 GT OR PUSH2 0xD2D JUMPI PUSH1 0x40 MSTORE PUSH1 0x20 SWAP2 DUP3 DUP2 MSTORE PUSH32 0x5361666545524332303A206C6F772D6C6576656C2063616C6C206661696C6564 DUP4 DUP3 ADD MSTORE PUSH20 0x2791BCA1F2DE4661ED88A30C99A7A9449AA84174 DUP1 EXTCODESIZE ISZERO PUSH2 0xEFA JUMPI SWAP1 PUSH2 0xE42 SWAP2 PUSH1 0x0 DUP5 DUP2 SWAP6 SWAP3 DUP3 DUP9 DUP2 SWAP6 MLOAD SWAP4 ADD SWAP2 GAS CALL PUSH2 0xE3C PUSH2 0xD5C JUMP JUMPDEST SWAP1 PUSH2 0xF58 JUMP JUMPDEST DUP1 MLOAD DUP1 PUSH2 0xE50 JUMPI JUMPDEST POP POP POP POP JUMP JUMPDEST DUP2 DUP5 SWAP2 DUP2 ADD SUB SLT PUSH2 0x75C JUMPI DUP3 ADD MLOAD SWAP1 DUP2 ISZERO SWAP2 DUP3 ISZERO SUB PUSH2 0x5E9 JUMPI POP PUSH2 0xE76 JUMPI DUP1 DUP1 DUP1 PUSH2 0xE4A JUMP JUMPDEST PUSH1 0x84 SWAP1 PUSH1 0x40 MLOAD SWAP1 PUSH32 0x8C379A000000000000000000000000000000000000000000000000000000000 DUP3 MSTORE PUSH1 0x4 DUP3 ADD MSTORE PUSH1 0x2A PUSH1 0x24 DUP3 ADD MSTORE PUSH32 0x5361666545524332303A204552433230206F7065726174696F6E20646964206E PUSH1 0x44 DUP3 ADD MSTORE PUSH32 0x6F74207375636365656400000000000000000000000000000000000000000000 PUSH1 0x64 DUP3 ADD MSTORE REVERT JUMPDEST PUSH1 0x64 DUP5 PUSH1 0x40 MLOAD SWAP1 PUSH32 0x8C379A000000000000000000000000000000000000000000000000000000000 DUP3 MSTORE PUSH1 0x4 DUP3 ADD MSTORE PUSH1 0x1D PUSH1 0x24 DUP3 ADD MSTORE PUSH32 0x416464726573733A2063616C6C20746F206E6F6E2D636F6E7472616374000000 PUSH1 0x44 DUP3 ADD MSTORE REVERT JUMPDEST SWAP1 SWAP2 SWAP1 ISZERO PUSH2 0xF64 JUMPI POP SWAP1 JUMP JUMPDEST DUP2 MLOAD ISZERO PUSH2 0xF74 JUMPI POP DUP1 MLOAD SWAP1 PUSH1 0x20 ADD REVERT JUMPDEST PUSH1 0x40 MLOAD SWAP1 PUSH32 0x8C379A000000000000000000000000000000000000000000000000000000000 DUP3 MSTORE DUP2 PUSH1 0x20 DUP1 PUSH1 0x4 DUP4 ADD MSTORE DUP3 MLOAD SWAP3 DUP4 PUSH1 0x24 DUP5 ADD MSTORE PUSH1 0x0 JUMPDEST DUP5 DUP2 LT PUSH2 0xFF1 JUMPI POP POP POP PUSH32 0xFFFFFFFFFFFFFFFFFFFFFFFFFFFFFFFFFFFFFFFFFFFFFFFFFFFFFFFFFFFFFFE0 PUSH1 0x1F DUP4 PUSH1 0x0 PUSH1 0x44 DUP1 SWAP7 DUP7 ADD ADD MSTORE ADD AND DUP2 ADD SUB ADD SWAP1 REVERT JUMPDEST DUP2 DUP2 ADD DUP4 ADD MLOAD DUP7 DUP3 ADD PUSH1 0x44 ADD MSTORE DUP6 SWAP4 POP DUP3 ADD PUSH2 0xFB0 JUMP JUMPDEST MLOAD SWAP1 PUSH10 0xFFFFFFFFFFFFFFFFFFFF DUP3 AND DUP3 SUB PUSH2 0x101F JUMPI JUMP JUMPDEST PUSH1 0x0 DUP1 REVERT JUMPDEST PUSH1 0x40 MLOAD PUSH32 0xFEAF968C00000000000000000000000000000000000000000000000000000000 DUP2 MSTORE PUSH1 0xA0 DUP2 PUSH1 0x4 DUP2 PUSH20 0xAB594600376EC9FD91F8E885DADF0CE036862DE0 GAS STATICCALL SWAP1 DUP2 ISZERO PUSH2 0x10C2 JUMPI PUSH1 0x0 SWAP2 PUSH2 0x1079 JUMPI POP SWAP1 JUMP JUMPDEST SWAP1 PUSH1 0xA0 DUP3 RETURNDATASIZE DUP3 GT PUSH2 0x10BA JUMPI JUMPDEST DUP2 PUSH2 0x1092 PUSH1 0xA0 SWAP4 DUP4 PUSH2 0xCEC JUMP JUMPDEST DUP2 ADD SUB SLT PUSH2 0x5E9 JUMPI POP PUSH2 0x10A4 DUP2 PUSH2 0x1008 JUMP JUMPDEST POP PUSH2 0x10B6 PUSH1 0x80 PUSH1 0x20 DUP4 ADD MLOAD SWAP3 ADD PUSH2 0x1008 JUMP JUMPDEST POP SWAP1 JUMP JUMPDEST RETURNDATASIZE SWAP2 POP PUSH2 0x1085 JUMP JUMPDEST PUSH1 0x40 MLOAD RETURNDATASIZE PUSH1 0x0 DUP3 RETURNDATACOPY RETURNDATASIZE SWAP1 REVERT INVALID LOG2 PUSH5 0x6970667358 0x22 SLT KECCAK256 0xE6 SUB 0xC2 0x22 0xB5 SWAP1 0xAA DUP11 0x2D 0xCD CALLER JUMPDEST CALLER DUP11 ADDMOD PUSH24 0x31F6C115F1DBAA6838CD2FFDEFF204BF64736F6C63430008 GT STOP CALLER "},"methodIdentifiers":{"MATIC_USD_ORACLE()":"8db9f39a","USDC_ADDRESS()":"bb09d9b7","deposit(uint256)":"b6b55f25","emergencyWithdraw()":"db2e21bc","getKing()":"7920d804","maximumPaid()":"423cb99e","owner()":"8da5cb5b","renounceOwnership()":"715018a6","setGasAllocatedForKingPayment(uint256)":"1f19ec29","transferOwnership(address)":"f2fde38b"}}}}}