{
  "_format": "hh-sol-artifact-1",
  "contractName": "King",
  "sourceName": "contracts/King.sol",
  "abi": [
    {
      "anonymous": false,
      "inputs": [
        {
          "indexed": false,
          "internalType": "bool",
          "name": "success",
          "type": "bool"
        },
        {
          "indexed": false,
          "internalType": "uint256",
          "name": "amount",
          "type": "uint256"
        },
        {
          "indexed": false,
          "internalType": "address",
          "name": "king",
          "type": "address"
        }
      ],
      "name": "EthDeposit",
      "type": "event"
    },
    {
      "anonymous": false,
      "inputs": [
        {
          "indexed": true,
          "internalType": "address",
          "name": "previousOwner",
          "type": "address"
        },
        {
          "indexed": true,
          "internalType": "address",
          "name": "newOwner",
          "type": "address"
        }
      ],
      "name": "OwnershipTransferred",
      "type": "event"
    },
    {
      "anonymous": false,
      "inputs": [
        {
          "indexed": false,
          "internalType": "uint256",
          "name": "amount",
          "type": "uint256"
        },
        {
          "indexed": false,
          "internalType": "address",
          "name": "king",
          "type": "address"
        }
      ],
      "name": "UsdcDeposit",
      "type": "event"
    },
    {
      "inputs": [],
      "name": "MATIC_USD_ORACLE",
      "outputs": [
        {
          "internalType": "address",
          "name": "",
          "type": "address"
        }
      ],
      "stateMutability": "view",
      "type": "function"
    },
    {
      "inputs": [],
      "name": "USDC_ADDRESS",
      "outputs": [
        {
          "internalType": "address",
          "name": "",
          "type": "address"
        }
      ],
      "stateMutability": "view",
      "type": "function"
    },
    {
      "inputs": [
        {
          "internalType": "uint256",
          "name": "depositAmount",
          "type": "uint256"
        }
      ],
      "name": "deposit",
      "outputs": [],
      "stateMutability": "nonpayable",
      "type": "function"
    },
    {
      "inputs": [],
      "name": "emergencyWithdraw",
      "outputs": [],
      "stateMutability": "payable",
      "type": "function"
    },
    {
      "inputs": [],
      "name": "getKing",
      "outputs": [
        {
          "internalType": "address payable",
          "name": "",
          "type": "address"
        }
      ],
      "stateMutability": "view",
      "type": "function"
    },
    {
      "inputs": [],
      "name": "maximumPaid",
      "outputs": [
        {
          "internalType": "uint256",
          "name": "",
          "type": "uint256"
        }
      ],
      "stateMutability": "view",
      "type": "function"
    },
    {
      "inputs": [],
      "name": "owner",
      "outputs": [
        {
          "internalType": "address",
          "name": "",
          "type": "address"
        }
      ],
      "stateMutability": "view",
      "type": "function"
    },
    {
      "inputs": [],
      "name": "renounceOwnership",
      "outputs": [],
      "stateMutability": "nonpayable",
      "type": "function"
    },
    {
      "inputs": [
        {
          "internalType": "uint256",
          "name": "gasAmount",
          "type": "uint256"
        }
      ],
      "name": "setGasAllocatedForKingPayment",
      "outputs": [],
      "stateMutability": "nonpayable",
      "type": "function"
    },
    {
      "inputs": [
        {
          "internalType": "address",
          "name": "newOwner",
          "type": "address"
        }
      ],
      "name": "transferOwnership",
      "outputs": [],
      "stateMutability": "nonpayable",
      "type": "function"
    },
    {
      "stateMutability": "payable",
      "type": "receive"
    }
  ],
  "bytecode": "0x6080806040523461005b5760008054336001600160a01b0319821681178355916001600160a01b03909116907f8be0079c531659141344cd1fd0a4f28419497f9722a3daafe3b4186f6b6457e09080a3610fb190816100618239f35b600080fdfe60406080815260048036101561018c575b361561001b57600080fd5b600254908160030260038104830361015e5760011c34106100db5750156100d15760607f7f7caf2cfdc2014aa045dd0ef7e9f5a6a4819e729710bed3689ba095e658738f913460025560008080803473ffffffffffffffffffffffffffffffffffffffff60015416600354f190610090610c04565b50805191151582523460208301523390820152a15b337fffffffffffffffffffffffff00000000000000000000000000000000000000006001541617600155005b50346002556100a5565b60849060208451917f08c379a0000000000000000000000000000000000000000000000000000000008352820152602360248201527f596f75277265206e6f74206465706f736974696e6720656e6f7567682065746860448201527f65722100000000000000000000000000000000000000000000000000000000006064820152fd5b6011827f4e487b71000000000000000000000000000000000000000000000000000000006000525260246000fd5b6000803560e01c80631f19ec2914610a9c578063423cb99e14610a5f578063715018a6146109c05780637920d8041461096d5780638da5cb5b1461091c5780638db9f39a146108cf578063b6b55f2514610605578063bb09d9b7146105b4578063db2e21bc146103455763f2fde38b146102065750610010565b91346103415760207ffffffffffffffffffffffffffffffffffffffffffffffffffffffffffffffffc3601126103415781359173ffffffffffffffffffffffffffffffffffffffff9182841680940361033d57610261610adc565b83156102ba5750508254827fffffffffffffffffffffffff00000000000000000000000000000000000000008216178455167f8be0079c531659141344cd1fd0a4f28419497f9722a3daafe3b4186f6b6457e08380a380f35b90602060849251917f08c379a0000000000000000000000000000000000000000000000000000000008352820152602660248201527f4f776e61626c653a206e6577206f776e657220697320746865207a65726f206160448201527f64647265737300000000000000000000000000000000000000000000000000006064820152fd5b8480fd5b8280fd5b509190827ffffffffffffffffffffffffffffffffffffffffffffffffffffffffffffffffc36011261034157610379610adc565b47610543575b81517f70a082310000000000000000000000000000000000000000000000000000000081523082820152602091732791bca1f2de4661ed88a30c99a7a9449aa841748383602481845afa928315610539578693610506575b50826103e1578580f35b84517f095ea7b30000000000000000000000000000000000000000000000000000000081523392810192835260208301849052918491839182908990829060400103925af180156104fc576104c1926104c6957fa9059cbb000000000000000000000000000000000000000000000000000000009593610495936104cf575b505194859384015233602484016020909392919373ffffffffffffffffffffffffffffffffffffffff60408201951681520152565b037fffffffffffffffffffffffffffffffffffffffffffffffffffffffffffffffe08101835282610b94565b610c7f565b38808080808580f35b6104ee90853d87116104f5575b6104e68183610b94565b810190610c62565b5038610460565b503d6104dc565b84513d87823e3d90fd5b9092508381813d8311610532575b61051e8183610b94565b8101031261052e575191386103d7565b8580fd5b503d610514565b85513d88823e3d90fd5b8280808047335af1610553610c04565b5061037f57602060649251917f08c379a0000000000000000000000000000000000000000000000000000000008352820152601360248201527f4572726f7220696e207769746864726177616c000000000000000000000000006044820152fd5b50823461060157817ffffffffffffffffffffffffffffffffffffffffffffffffffffffffffffffffc3601126106015760209051732791bca1f2de4661ed88a30c99a7a9449aa841748152f35b5080fd5b5082346106015760207ffffffffffffffffffffffffffffffffffffffffffffffffffffffffffffffffc36011261060157823560025480600302906003820481036108a357610652610ed1565b916003838302029281840414901517156108a35768056bc75e2d6310000080920460011c831061082057156107d5578082029082820414821517156107a9576106a39061069d610ed1565b90610b5b565b60025573ffffffffffffffffffffffffffffffffffffffff600154168251907f23b872dd00000000000000000000000000000000000000000000000000000000602083015233602483015260448201528160648201526064815260a0810181811067ffffffffffffffff82111761077d577ff5cb588f5f04842fa8a48ffd1f1b14b97339a788a30a4ab1c445e84f46a8b5ff94955090610744918452610c7f565b337fffffffffffffffffffffffff000000000000000000000000000000000000000060015416176001558151908152336020820152a180f35b6024856041887f4e487b7100000000000000000000000000000000000000000000000000000000835252fd5b6024846011877f4e487b7100000000000000000000000000000000000000000000000000000000835252fd5b5060648102818104606414821517156107a9577ff5cb588f5f04842fa8a48ffd1f1b14b97339a788a30a4ab1c445e84f46a8b5ff9394506108189061069d610ed1565b600255610744565b60848660208651917f08c379a0000000000000000000000000000000000000000000000000000000008352820152602260248201527f596f75277265206e6f74206465706f736974696e6720656e6f7567682055534460448201527f43210000000000000000000000000000000000000000000000000000000000006064820152fd5b6024856011887f4e487b7100000000000000000000000000000000000000000000000000000000835252fd5b50823461060157817ffffffffffffffffffffffffffffffffffffffffffffffffffffffffffffffffc360112610601576020905173ab594600376ec9fd91f8e885dadf0ce036862de08152f35b50823461060157817ffffffffffffffffffffffffffffffffffffffffffffffffffffffffffffffffc3601126106015773ffffffffffffffffffffffffffffffffffffffff60209254169051908152f35b50823461060157817ffffffffffffffffffffffffffffffffffffffffffffffffffffffffffffffffc3601126106015760209073ffffffffffffffffffffffffffffffffffffffff600154169051908152f35b5034610a5c57807ffffffffffffffffffffffffffffffffffffffffffffffffffffffffffffffffc360112610a5c576109f7610adc565b8073ffffffffffffffffffffffffffffffffffffffff81547fffffffffffffffffffffffff000000000000000000000000000000000000000081168355167f8be0079c531659141344cd1fd0a4f28419497f9722a3daafe3b4186f6b6457e08280a380f35b80fd5b50823461060157817ffffffffffffffffffffffffffffffffffffffffffffffffffffffffffffffffc360112610601576020906002549051908152f35b5090346106015760207ffffffffffffffffffffffffffffffffffffffffffffffffffffffffffffffffc36011261060157610ad5610adc565b3560035580f35b73ffffffffffffffffffffffffffffffffffffffff600054163303610afd57565b60646040517f08c379a000000000000000000000000000000000000000000000000000000000815260206004820152602060248201527f4f776e61626c653a2063616c6c6572206973206e6f7420746865206f776e65726044820152fd5b8115610b65570490565b7f4e487b7100000000000000000000000000000000000000000000000000000000600052601260045260246000fd5b90601f7fffffffffffffffffffffffffffffffffffffffffffffffffffffffffffffffe0910116810190811067ffffffffffffffff821117610bd557604052565b7f4e487b7100000000000000000000000000000000000000000000000000000000600052604160045260246000fd5b3d15610c5d573d9067ffffffffffffffff8211610bd55760405191610c5160207fffffffffffffffffffffffffffffffffffffffffffffffffffffffffffffffe0601f8401160184610b94565b82523d6000602084013e565b606090565b90816020910312610c7a57518015158103610c7a5790565b600080fd5b6040516040810181811067ffffffffffffffff821117610bd5576040526020918282527f5361666545524332303a206c6f772d6c6576656c2063616c6c206661696c656483830152732791bca1f2de4661ed88a30c99a7a9449aa84174803b15610dac5760008281928287610d039796519301915af1610cfd610c04565b90610e0a565b80519081610d1057505050565b8280610d20938301019101610c62565b15610d285750565b608490604051907f08c379a00000000000000000000000000000000000000000000000000000000082526004820152602a60248201527f5361666545524332303a204552433230206f7065726174696f6e20646964206e60448201527f6f742073756363656564000000000000000000000000000000000000000000006064820152fd5b606484604051907f08c379a00000000000000000000000000000000000000000000000000000000082526004820152601d60248201527f416464726573733a2063616c6c20746f206e6f6e2d636f6e74726163740000006044820152fd5b90919015610e16575090565b815115610e265750805190602001fd5b604051907f08c379a000000000000000000000000000000000000000000000000000000000825281602080600483015282519283602484015260005b848110610ea3575050507fffffffffffffffffffffffffffffffffffffffffffffffffffffffffffffffe0601f836000604480968601015201168101030190fd5b818101830151868201604401528593508201610e62565b519069ffffffffffffffffffff82168203610c7a57565b6040517ffeaf968c00000000000000000000000000000000000000000000000000000000815260a08160048173ab594600376ec9fd91f8e885dadf0ce036862de05afa908115610f6f57600091610f26575090565b9060a0823d8211610f67575b81610f3f60a09383610b94565b81010312610a5c5750610f5181610eba565b50610f63608060208301519201610eba565b5090565b3d9150610f32565b6040513d6000823e3d90fdfea2646970667358221220d35faab97b1d1e8976c9bf3af67486768f46e56650fb9ebcf96fd8b191c484f364736f6c63430008110033",
  "linkReferences": {},
  "deployedLinkReferences": {}
}