{
  "_format": "hh-sol-artifact-1",
  "contractName": "King",
  "sourceName": "contracts/King.sol",
  "abi": [
    {
      "inputs": [],
      "stateMutability": "nonpayable",
      "type": "constructor"
    },
    {
      "anonymous": false,
      "inputs": [
        {
          "indexed": false,
          "internalType": "bool",
          "name": "success",
          "type": "bool"
        },
        {
          "indexed": false,
          "internalType": "uint256",
          "name": "amount",
          "type": "uint256"
        },
        {
          "indexed": false,
          "internalType": "address",
          "name": "king",
          "type": "address"
        }
      ],
      "name": "EthDeposit",
      "type": "event"
    },
    {
      "anonymous": false,
      "inputs": [
        {
          "indexed": false,
          "internalType": "uint256",
          "name": "amount",
          "type": "uint256"
        },
        {
          "indexed": false,
          "internalType": "address",
          "name": "king",
          "type": "address"
        }
      ],
      "name": "UsdcDeposit",
      "type": "event"
    },
    {
      "inputs": [],
      "name": "MATIC_USD_ORACLE",
      "outputs": [
        {
          "internalType": "address",
          "name": "",
          "type": "address"
        }
      ],
      "stateMutability": "view",
      "type": "function"
    },
    {
      "inputs": [],
      "name": "USDC_ADDRESS",
      "outputs": [
        {
          "internalType": "address",
          "name": "",
          "type": "address"
        }
      ],
      "stateMutability": "view",
      "type": "function"
    },
    {
      "inputs": [
        {
          "internalType": "uint256",
          "name": "depositAmount",
          "type": "uint256"
        }
      ],
      "name": "deposit",
      "outputs": [],
      "stateMutability": "nonpayable",
      "type": "function"
    },
    {
      "inputs": [],
      "name": "emergencyWithdraw",
      "outputs": [],
      "stateMutability": "payable",
      "type": "function"
    },
    {
      "inputs": [],
      "name": "getKing",
      "outputs": [
        {
          "internalType": "address payable",
          "name": "",
          "type": "address"
        }
      ],
      "stateMutability": "view",
      "type": "function"
    },
    {
      "inputs": [
        {
          "internalType": "address",
          "name": "oracleAddress",
          "type": "address"
        }
      ],
      "name": "getLatestPrice",
      "outputs": [
        {
          "internalType": "int256",
          "name": "",
          "type": "int256"
        }
      ],
      "stateMutability": "view",
      "type": "function"
    },
    {
      "inputs": [],
      "name": "maximumPaid",
      "outputs": [
        {
          "internalType": "uint256",
          "name": "",
          "type": "uint256"
        }
      ],
      "stateMutability": "view",
      "type": "function"
    },
    {
      "inputs": [],
      "name": "owner",
      "outputs": [
        {
          "internalType": "address",
          "name": "",
          "type": "address"
        }
      ],
      "stateMutability": "view",
      "type": "function"
    },
    {
      "stateMutability": "payable",
      "type": "receive"
    }
  ],
  "bytecode": "0x6080604052341561000f57600080fd5b600180546001600160a01b031916331790556110c880610031608039806080f3fe604060808152600436106101bd576000803560e01c6316345f1881146100715763423cb99e811461009657637920d80481146100b657638da5cb5b81146100ee57638db9f39a81146101275763b6b55f2581146101585763bb09d9b781146101785763db2e21bc81146101a9576101ba565b341561007b578182fd5b61008c61008736610224565b610bff565b8351818152602081f35b34156100a0578182fd5b6100a9366101f1565b6002548351818152602081f35b34156100c0578182fd5b6100c9366101f1565b8154835173ffffffffffffffffffffffffffffffffffffffff90911680825290602081f35b34156100f8578182fd5b610101366101f1565b600154835173ffffffffffffffffffffffffffffffffffffffff90911680825290602081f35b3415610131578182fd5b61013a366101f1565b825173ab594600376ec9fd91f8e885dadf0ce036862de08152602081f35b3415610162578182fd5b61017361016e366102aa565b610866565b818351f35b3415610182578182fd5b61018b366101f1565b8251732791bca1f2de4661ed88a30c99a7a9449aa841748152602081f35b6101b2366101f1565b6101736109b6565b50505b50366101cd576101cb610596565b005b600080fd5b805169ffffffffffffffffffff811681146101ec57600080fd5b919050565b60007ffffffffffffffffffffffffffffffffffffffffffffffffffffffffffffffffc8201121561022157600080fd5b50565b600060207ffffffffffffffffffffffffffffffffffffffffffffffffffffffffffffffffc8301121561025657600080fd5b60043573ffffffffffffffffffffffffffffffffffffffff8116811461027b57600080fd5b92915050565b60006020828403121561029357600080fd5b815180151581146102a357600080fd5b9392505050565b600060207ffffffffffffffffffffffffffffffffffffffffffffffffffffffffffffffffc830112156102dc57600080fd5b505060043590565b6000602082840312156102f657600080fd5b5051919050565b600082610333577f4e487b7100000000000000000000000000000000000000000000000000000000600052601260045260246000fd5b500490565b60007f5555555555555555555555555555555555555555555555555555555555555555821160011615610394577f4e487b7100000000000000000000000000000000000000000000000000000000600052601160045260246000fd5b5060030290565b6000817fffffffffffffffffffffffffffffffffffffffffffffffffffffffffffffffff0460641182151516156103fb577f4e487b7100000000000000000000000000000000000000000000000000000000600052601160045260246000fd5b5060640290565b600068056bc75e2d63100000827fffffffffffffffffffffffffffffffffffffffffffffffffffffffffffffffff048111831515161561046b577f4e487b7100000000000000000000000000000000000000000000000000000000600052601160045260246000fd5b91909102919050565b6000817fffffffffffffffffffffffffffffffffffffffffffffffffffffffffffffffff04831182151516156104d3577f4e487b7100000000000000000000000000000000000000000000000000000000600052601160045260246000fd5b500290565b60003d8015610543573d67ffffffffffffffff8111156104fa576104fa610ec7565b60405161052f60207fffffffffffffffffffffffffffffffffffffffffffffffffffffffffffffffe0601f850116018261054b565b8181528093503d6000602083013e50505090565b606091505090565b7fffffffffffffffffffffffffffffffffffffffffffffffffffffffffffffffe0601f830116810181811067ffffffffffffffff8211171561058f5761058f610ec7565b6040525050565b6002546105a281610338565b60011c341015610631576040517f08c379a000000000000000000000000000000000000000000000000000000000815260206004820152602360248201527f596f75277265206e6f74206465706f736974696e6720656e6f7567682065746860448201527f65722100000000000000000000000000000000000000000000000000000000006064820152608481fd5b80158015906106d35761064334600255565b61067e61066560005473ffffffffffffffffffffffffffffffffffffffff1690565b73ffffffffffffffffffffffffffffffffffffffff1690565b600080600060405134855af190506106946104d8565b506106cd817fffffffffffffffffffffffffffffffffffffffffffffffffffffffffffffff006003541660ff8215151681176003555050565b506106dc565b6106dc34600255565b5050600080547fffffffffffffffffffffffff0000000000000000000000000000000000000000163317905560035460ff1660408051821515815234602082015233918101919091527f7f7caf2cfdc2014aa045dd0ef7e9f5a6a4819e729710bed3689ba095e658738f81606081015b0382a15050565b6040516040810181811067ffffffffffffffff8211171561077657610776610ec7565b60405260208082527f5361666545524332303a206c6f772d6c6576656c2063616c6c206661696c656482820152732791bca1f2de4661ed88a30c99a7a9449aa84174803b61081c576040517f08c379a0000000000000000000000000000000000000000000000000000000008152826004820152601d60248201527f416464726573733a2063616c6c20746f206e6f6e2d636f6e74726163740000006044820152606481fd5b60008085518487016000855af1905061083d836108376104d8565b83610e0b565b925050815180156108605761086061085b8383860101848601610281565b610fee565b50505050565b60025461087281610338565b61089c68056bc75e2d6310000061089061088a610b58565b84610474565b0460011c841015610f00565b506108a681610338565b6108da6108d56108cf6108c06108ba610b58565b85610474565b68056bc75e2d63100000900490565b60011c90565b610cab565b508015801590610938576108ed83610402565b6109066109016108fb610b58565b836102fd565b600255565b506109338361092d61066560005473ffffffffffffffffffffffffffffffffffffffff1690565b33610d1e565b610951565b6109418361039b565b61094f6109016108fb610b58565b505b5050600080547fffffffffffffffffffffffff0000000000000000000000000000000000000000163317905560408051828152336020820152907ff5cb588f5f04842fa8a48ffd1f1b14b97339a788a30a4ab1c445e84f46a8b5ff908290810161074c565b6109e26109db61066560015473ffffffffffffffffffffffffffffffffffffffff1690565b3314610ef6565b4715610a4d5747600080600060405184335af190506109ff6104d8565b50610a38817fffffffffffffffffffffffffffffffffffffffffffffffffffffffffffffff006003541660ff8215151681176003555050565b50610a4d610a4860035460ff1690565b610f8a565b732791bca1f2de4661ed88a30c99a7a9449aa84174803b610a6d57600080fd5b6040517f70a08231000000000000000000000000000000000000000000000000000000008152306004820152602081602481855afa80610aaf57610aaf611078565b60008115610ad057610ac13d8461054b565b610acd3d8401846102e4565b90505b801561086057833b610ae157600080fd5b6040517f095ea7b30000000000000000000000000000000000000000000000000000000081523360048201526024810182905292506020836044816000885af1915081610b3057610b30611078565b8115610b4e57610b403d8461054b565b610b4c3d840184610281565b505b6108608133610da1565b600073ab594600376ec9fd91f8e885dadf0ce036862de0803b610b7a57600080fd5b6040517ffeaf968c00000000000000000000000000000000000000000000000000000000815260a081600483855afa915081610bb857610bb8611078565b600082156102a357610bca3d8361054b565b60a0823d8401031215610bdb578081fd5b610be4826101d2565b506020820151610bf6608084016101d2565b50949350505050565b600073ffffffffffffffffffffffffffffffffffffffff8216803b610c2357600080fd5b6040517ffeaf968c00000000000000000000000000000000000000000000000000000000815260a081600483855afa915081610c6157610c61611078565b60008215610ca357610c733d8361054b565b60a0823d8401031215610c84578081fd5b610c8d826101d2565b506020820151610c9f608084016101d2565b5090505b949350505050565b604051602081017ff82c50f1000000000000000000000000000000000000000000000000000000008152826024830152602482526060820182811067ffffffffffffffff82111715610cff57610cff610ec7565b80604052506000808351836a636f6e736f6c652e6c6f675afa50505050565b6040517f23b872dd00000000000000000000000000000000000000000000000000000000602082015273ffffffffffffffffffffffffffffffffffffffff8281166024830152831660448201526064808201859052815260a0810167ffffffffffffffff81118282101715610d9557610d95610ec7565b60405261086081610753565b6040517fa9059cbb00000000000000000000000000000000000000000000000000000000602082015273ffffffffffffffffffffffffffffffffffffffff82166024820152604480820184905281526064610dfc818361054b565b50610e0681610753565b505050565b6060818015610e1d57839150506102a3565b835115801590610e2f57845185602001fd5b6040517f08c379a00000000000000000000000000000000000000000000000000000000081526020806004830152875180602484015260005b81811015610e8457898101830151848201604401528201610e68565b81811115610e96576000604483860101525b506044837fffffffffffffffffffffffffffffffffffffffffffffffffffffffffffffffe0601f8401168501030183fd5b7f4e487b7100000000000000000000000000000000000000000000000000000000600052604160045260246000fd5b8061022157600080fd5b80610221576040517f08c379a000000000000000000000000000000000000000000000000000000000815260206004820152602260248201527f596f75277265206e6f74206465706f736974696e6720656e6f7567682055534460448201527f43210000000000000000000000000000000000000000000000000000000000006064820152608481fd5b80610221576040517f08c379a000000000000000000000000000000000000000000000000000000000815260206004820152601360248201527f4572726f7220696e207769746864726177616c000000000000000000000000006044820152606481fd5b80610221576040517f08c379a000000000000000000000000000000000000000000000000000000000815260206004820152602a60248201527f5361666545524332303a204552433230206f7065726174696f6e20646964206e60448201527f6f742073756363656564000000000000000000000000000000000000000000006064820152608481fd5b6040513d6000823e3d81fdfea364697066735822122040de65119e1b659f97017e17cdba8aa989a665eef10f03b1f30be06fe822aab26c6578706572696d656e74616cf564736f6c63430008070041",
  "linkReferences": {},
  "deployedLinkReferences": {}
}