{
  "contractName": "King",
  "abi": [
    {
      "anonymous": false,
      "inputs": [
        {
          "indexed": false,
          "internalType": "bool",
          "name": "success",
          "type": "bool"
        },
        {
          "indexed": false,
          "internalType": "uint256",
          "name": "amount",
          "type": "uint256"
        },
        {
          "indexed": false,
          "internalType": "address",
          "name": "king",
          "type": "address"
        }
      ],
      "name": "EthDeposit",
      "type": "event"
    },
    {
      "anonymous": false,
      "inputs": [
        {
          "indexed": true,
          "internalType": "address",
          "name": "previousOwner",
          "type": "address"
        },
        {
          "indexed": true,
          "internalType": "address",
          "name": "newOwner",
          "type": "address"
        }
      ],
      "name": "OwnershipTransferred",
      "type": "event"
    },
    {
      "anonymous": false,
      "inputs": [
        {
          "indexed": false,
          "internalType": "uint256",
          "name": "amount",
          "type": "uint256"
        },
        {
          "indexed": false,
          "internalType": "address",
          "name": "king",
          "type": "address"
        }
      ],
      "name": "UsdcDeposit",
      "type": "event"
    },
    {
      "stateMutability": "payable",
      "type": "fallback",
      "payable": true
    },
    {
      "inputs": [],
      "name": "MATIC_USD_ORACLE",
      "outputs": [
        {
          "internalType": "address",
          "name": "",
          "type": "address"
        }
      ],
      "stateMutability": "view",
      "type": "function",
      "constant": true
    },
    {
      "inputs": [],
      "name": "USDC_ADDRESS",
      "outputs": [
        {
          "internalType": "address",
          "name": "",
          "type": "address"
        }
      ],
      "stateMutability": "view",
      "type": "function",
      "constant": true
    },
    {
      "inputs": [],
      "name": "maximumPaid",
      "outputs": [
        {
          "internalType": "uint256",
          "name": "",
          "type": "uint256"
        }
      ],
      "stateMutability": "view",
      "type": "function",
      "constant": true
    },
    {
      "inputs": [],
      "name": "owner",
      "outputs": [
        {
          "internalType": "address",
          "name": "",
          "type": "address"
        }
      ],
      "stateMutability": "view",
      "type": "function",
      "constant": true
    },
    {
      "inputs": [],
      "name": "renounceOwnership",
      "outputs": [],
      "stateMutability": "nonpayable",
      "type": "function"
    },
    {
      "inputs": [
        {
          "internalType": "address",
          "name": "newOwner",
          "type": "address"
        }
      ],
      "name": "transferOwnership",
      "outputs": [],
      "stateMutability": "nonpayable",
      "type": "function"
    },
    {
      "inputs": [
        {
          "internalType": "bytes32",
          "name": "_commitment",
          "type": "bytes32"
        }
      ],
      "name": "register",
      "outputs": [],
      "stateMutability": "nonpayable",
      "type": "function"
    },
    {
      "inputs": [
        {
          "internalType": "uint256",
          "name": "depositAmount",
          "type": "uint256"
        },
        {
          "internalType": "bytes32",
          "name": "_secret",
          "type": "bytes32"
        }
      ],
      "name": "deposit",
      "outputs": [],
      "stateMutability": "nonpayable",
      "type": "function"
    },
    {
      "inputs": [],
      "name": "getKing",
      "outputs": [
        {
          "internalType": "address payable",
          "name": "",
          "type": "address"
        }
      ],
      "stateMutability": "view",
      "type": "function",
      "constant": true
    },
    {
      "inputs": [],
      "name": "emergencyWithdraw",
      "outputs": [],
      "stateMutability": "payable",
      "type": "function",
      "payable": true
    }
  ],
  "bytecode": "0x608060405234801561001057600080fd5b5061002d61002261003260201b60201c565b61003a60201b60201c565b6100fe565b600033905090565b60008060009054906101000a900473ffffffffffffffffffffffffffffffffffffffff169050816000806101000a81548173ffffffffffffffffffffffffffffffffffffffff021916908373ffffffffffffffffffffffffffffffffffffffff1602179055508173ffffffffffffffffffffffffffffffffffffffff168173ffffffffffffffffffffffffffffffffffffffff167f8be0079c531659141344cd1fd0a4f28419497f9722a3daafe3b4186f6b6457e060405160405180910390a35050565b611d1d8061010d6000396000f3fe6080604052600436106100955760003560e01c8063bb09d9b711610059578063bb09d9b714610377578063c9630cb0146103a2578063db2e21bc146103cb578063e1fa8e84146103d5578063f2fde38b146103fe57610096565b8063423cb99e146102b4578063715018a6146102df5780637920d804146102f65780638da5cb5b146103215780638db9f39a1461034c57610096565b5b6002805460036100a69190611833565b6100b09190611802565b3410156100f2576040517f08c379a00000000000000000000000000000000000000000000000000000000081526004016100e990611656565b60405180910390fd5b60003633604051602001610108939291906114b1565b6040516020818303038152906040528051906020012060045414610161576040517f08c379a0000000000000000000000000000000000000000000000000000000008152600401610158906116b6565b60405180910390fd5b6000600254111561021f5734600281905550600160009054906101000a900473ffffffffffffffffffffffffffffffffffffffff1673ffffffffffffffffffffffffffffffffffffffff16346040516101b9906114f2565b60006040518083038185875af1925050503d80600081146101f6576040519150601f19603f3d011682016040523d82523d6000602084013e6101fb565b606091505b5050600360008291906101000a81548160ff02191690831515021790555050610227565b346002819055505b33600160006101000a81548173ffffffffffffffffffffffffffffffffffffffff021916908373ffffffffffffffffffffffffffffffffffffffff1602179055507f7f7caf2cfdc2014aa045dd0ef7e9f5a6a4819e729710bed3689ba095e658738f600360009054906101000a900460ff1634336040516102aa9392919061159d565b60405180910390a1005b3480156102c057600080fd5b506102c9610427565b6040516102d69190611736565b60405180910390f35b3480156102eb57600080fd5b506102f461042d565b005b34801561030257600080fd5b5061030b610441565b6040516103189190611522565b60405180910390f35b34801561032d57600080fd5b5061033661046b565b6040516103439190611507565b60405180910390f35b34801561035857600080fd5b50610361610494565b60405161036e9190611507565b60405180910390f35b34801561038357600080fd5b5061038c6104ac565b6040516103999190611507565b60405180910390f35b3480156103ae57600080fd5b506103c960048036038101906103c49190611150565b6104c4565b005b6103d3610736565b005b3480156103e157600080fd5b506103fc60048036038101906103f791906110f6565b6109b1565b005b34801561040a57600080fd5b506104256004803603810190610420919061109c565b610a1f565b005b60025481565b610435610aa3565b61043f6000610b21565b565b6000600160009054906101000a900473ffffffffffffffffffffffffffffffffffffffff16905090565b60008060009054906101000a900473ffffffffffffffffffffffffffffffffffffffff16905090565b73ab594600376ec9fd91f8e885dadf0ce036862de081565b732791bca1f2de4661ed88a30c99a7a9449aa8417481565b600268056bc75e2d631000006104ed73ab594600376ec9fd91f8e885dadf0ce036862de0610be5565b60025460036104fc9190611833565b6105069190611833565b6105109190611802565b61051a9190611802565b82101561055c576040517f08c379a0000000000000000000000000000000000000000000000000000000008152600401610553906115f6565b60405180910390fd5b803360405160200161056f929190611485565b60405160208183030381529060405280519060200120600454146105c8576040517f08c379a00000000000000000000000000000000000000000000000000000000081526004016105bf906116b6565b60405180910390fd5b6000600254111561067d576105f073ab594600376ec9fd91f8e885dadf0ce036862de0610be5565b68056bc75e2d63100000836106059190611833565b61060f9190611802565b60028190555061067833600160009054906101000a900473ffffffffffffffffffffffffffffffffffffffff1684732791bca1f2de4661ed88a30c99a7a9449aa8417473ffffffffffffffffffffffffffffffffffffffff16610c75909392919063ffffffff16565b6106b8565b61069a73ab594600376ec9fd91f8e885dadf0ce036862de0610be5565b6064836106a79190611833565b6106b19190611802565b6002819055505b33600160006101000a81548173ffffffffffffffffffffffffffffffffffffffff021916908373ffffffffffffffffffffffffffffffffffffffff1602179055507ff5cb588f5f04842fa8a48ffd1f1b14b97339a788a30a4ab1c445e84f46a8b5ff823360405161072a929190611751565b60405180910390a15050565b61073e610aa3565b60004790506000811115610821573373ffffffffffffffffffffffffffffffffffffffff1647604051610770906114f2565b60006040518083038185875af1925050503d80600081146107ad576040519150601f19603f3d011682016040523d82523d6000602084013e6107b2565b606091505b5050600360008291906101000a81548160ff02191690831515021790555050600360009054906101000a900460ff16610820576040517f08c379a0000000000000000000000000000000000000000000000000000000008152600401610817906116d6565b60405180910390fd5b5b6000732791bca1f2de4661ed88a30c99a7a9449aa8417473ffffffffffffffffffffffffffffffffffffffff166370a08231306040518263ffffffff1660e01b81526004016108709190611507565b60206040518083038186803b15801561088857600080fd5b505afa15801561089c573d6000803e3d6000fd5b505050506040513d601f19601f820116820180604052508101906108c09190611123565b905060008111156109ad57732791bca1f2de4661ed88a30c99a7a9449aa8417473ffffffffffffffffffffffffffffffffffffffff1663095ea7b333836040518363ffffffff1660e01b815260040161091a929190611574565b602060405180830381600087803b15801561093457600080fd5b505af1158015610948573d6000803e3d6000fd5b505050506040513d601f19601f8201168201806040525081019061096c91906110c9565b506109ac3382732791bca1f2de4661ed88a30c99a7a9449aa8417473ffffffffffffffffffffffffffffffffffffffff16610cfe9092919063ffffffff16565b5b5050565b6000801b60045414610a02576005544211610a01576040517f08c379a00000000000000000000000000000000000000000000000000000000081526004016109f890611636565b60405180910390fd5b5b80600481905550600042610a1691906117ac565b60058190555050565b610a27610aa3565b600073ffffffffffffffffffffffffffffffffffffffff168173ffffffffffffffffffffffffffffffffffffffff161415610a97576040517f08c379a0000000000000000000000000000000000000000000000000000000008152600401610a8e90611616565b60405180910390fd5b610aa081610b21565b50565b610aab610d84565b73ffffffffffffffffffffffffffffffffffffffff16610ac961046b565b73ffffffffffffffffffffffffffffffffffffffff1614610b1f576040517f08c379a0000000000000000000000000000000000000000000000000000000008152600401610b1690611696565b60405180910390fd5b565b60008060009054906101000a900473ffffffffffffffffffffffffffffffffffffffff169050816000806101000a81548173ffffffffffffffffffffffffffffffffffffffff021916908373ffffffffffffffffffffffffffffffffffffffff1602179055508173ffffffffffffffffffffffffffffffffffffffff168173ffffffffffffffffffffffffffffffffffffffff167f8be0079c531659141344cd1fd0a4f28419497f9722a3daafe3b4186f6b6457e060405160405180910390a35050565b6000808273ffffffffffffffffffffffffffffffffffffffff1663feaf968c6040518163ffffffff1660e01b815260040160a06040518083038186803b158015610c2e57600080fd5b505afa158015610c42573d6000803e3d6000fd5b505050506040513d601f19601f82011682018060405250810190610c669190611190565b50505091505080915050919050565b610cf8846323b872dd60e01b858585604051602401610c969392919061153d565b604051602081830303815290604052907bffffffffffffffffffffffffffffffffffffffffffffffffffffffff19166020820180517bffffffffffffffffffffffffffffffffffffffffffffffffffffffff8381831617835250505050610d8c565b50505050565b610d7f8363a9059cbb60e01b8484604051602401610d1d929190611574565b604051602081830303815290604052907bffffffffffffffffffffffffffffffffffffffffffffffffffffffff19166020820180517bffffffffffffffffffffffffffffffffffffffffffffffffffffffff8381831617835250505050610d8c565b505050565b600033905090565b6000610dee826040518060400160405280602081526020017f5361666545524332303a206c6f772d6c6576656c2063616c6c206661696c65648152508573ffffffffffffffffffffffffffffffffffffffff16610e539092919063ffffffff16565b9050600081511115610e4e5780806020019051810190610e0e91906110c9565b610e4d576040517f08c379a0000000000000000000000000000000000000000000000000000000008152600401610e4490611716565b60405180910390fd5b5b505050565b6060610e628484600085610e6b565b90509392505050565b606082471015610eb0576040517f08c379a0000000000000000000000000000000000000000000000000000000008152600401610ea790611676565b60405180910390fd5b610eb985610f7f565b610ef8576040517f08c379a0000000000000000000000000000000000000000000000000000000008152600401610eef906116f6565b60405180910390fd5b6000808673ffffffffffffffffffffffffffffffffffffffff168587604051610f2191906114db565b60006040518083038185875af1925050503d8060008114610f5e576040519150601f19603f3d011682016040523d82523d6000602084013e610f63565b606091505b5091509150610f73828286610fa2565b92505050949350505050565b6000808273ffffffffffffffffffffffffffffffffffffffff163b119050919050565b60608315610fb257829050611002565b600083511115610fc55782518084602001fd5b816040517f08c379a0000000000000000000000000000000000000000000000000000000008152600401610ff991906115d4565b60405180910390fd5b9392505050565b60008135905061101881611c5d565b92915050565b60008151905061102d81611c74565b92915050565b60008135905061104281611c8b565b92915050565b60008151905061105781611ca2565b92915050565b60008135905061106c81611cb9565b92915050565b60008151905061108181611cb9565b92915050565b60008151905061109681611cd0565b92915050565b6000602082840312156110b2576110b16119df565b5b60006110c084828501611009565b91505092915050565b6000602082840312156110df576110de6119df565b5b60006110ed8482850161101e565b91505092915050565b60006020828403121561110c5761110b6119df565b5b600061111a84828501611033565b91505092915050565b600060208284031215611139576111386119df565b5b600061114784828501611072565b91505092915050565b60008060408385031215611167576111666119df565b5b60006111758582860161105d565b925050602061118685828601611033565b9150509250929050565b600080600080600060a086880312156111ac576111ab6119df565b5b60006111ba88828901611087565b95505060206111cb88828901611048565b94505060406111dc88828901611072565b93505060606111ed88828901611072565b92505060806111fe88828901611087565b9150509295509295909350565b6112148161189f565b82525050565b6112238161188d565b82525050565b61123a6112358261188d565b611953565b82525050565b611249816118b1565b82525050565b61126061125b826118bd565b611965565b82525050565b60006112728385611790565b935061127f838584611911565b82840190509392505050565b60006112968261177a565b6112a08185611790565b93506112b0818560208601611920565b80840191505092915050565b60006112c782611785565b6112d1818561179b565b93506112e1818560208601611920565b6112ea816119e4565b840191505092915050565b600061130260228361179b565b915061130d82611a02565b604082019050919050565b600061132560268361179b565b915061133082611a51565b604082019050919050565b600061134860048361179b565b915061135382611aa0565b602082019050919050565b600061136b60238361179b565b915061137682611ac9565b604082019050919050565b600061138e60268361179b565b915061139982611b18565b604082019050919050565b60006113b160208361179b565b91506113bc82611b67565b602082019050919050565b60006113d460088361179b565b91506113df82611b90565b602082019050919050565b60006113f760138361179b565b915061140282611bb9565b602082019050919050565b600061141a600083611790565b915061142582611be2565b600082019050919050565b600061143d601d8361179b565b915061144882611be5565b602082019050919050565b6000611460602a8361179b565b915061146b82611c0e565b604082019050919050565b61147f816118f1565b82525050565b6000611491828561124f565b6020820191506114a18284611229565b6014820191508190509392505050565b60006114be828587611266565b91506114ca8284611229565b601482019150819050949350505050565b60006114e7828461128b565b915081905092915050565b60006114fd8261140d565b9150819050919050565b600060208201905061151c600083018461121a565b92915050565b6000602082019050611537600083018461120b565b92915050565b6000606082019050611552600083018661121a565b61155f602083018561121a565b61156c6040830184611476565b949350505050565b6000604082019050611589600083018561121a565b6115966020830184611476565b9392505050565b60006060820190506115b26000830186611240565b6115bf6020830185611476565b6115cc604083018461121a565b949350505050565b600060208201905081810360008301526115ee81846112bc565b905092915050565b6000602082019050818103600083015261160f816112f5565b9050919050565b6000602082019050818103600083015261162f81611318565b9050919050565b6000602082019050818103600083015261164f8161133b565b9050919050565b6000602082019050818103600083015261166f8161135e565b9050919050565b6000602082019050818103600083015261168f81611381565b9050919050565b600060208201905081810360008301526116af816113a4565b9050919050565b600060208201905081810360008301526116cf816113c7565b9050919050565b600060208201905081810360008301526116ef816113ea565b9050919050565b6000602082019050818103600083015261170f81611430565b9050919050565b6000602082019050818103600083015261172f81611453565b9050919050565b600060208201905061174b6000830184611476565b92915050565b60006040820190506117666000830185611476565b611773602083018461121a565b9392505050565b600081519050919050565b600081519050919050565b600081905092915050565b600082825260208201905092915050565b60006117b7826118f1565b91506117c2836118f1565b9250827fffffffffffffffffffffffffffffffffffffffffffffffffffffffffffffffff038211156117f7576117f6611981565b5b828201905092915050565b600061180d826118f1565b9150611818836118f1565b925082611828576118276119b0565b5b828204905092915050565b600061183e826118f1565b9150611849836118f1565b9250817fffffffffffffffffffffffffffffffffffffffffffffffffffffffffffffffff048311821515161561188257611881611981565b5b828202905092915050565b6000611898826118d1565b9050919050565b60006118aa826118d1565b9050919050565b60008115159050919050565b6000819050919050565b6000819050919050565b600073ffffffffffffffffffffffffffffffffffffffff82169050919050565b6000819050919050565b600069ffffffffffffffffffff82169050919050565b82818337600083830152505050565b60005b8381101561193e578082015181840152602081019050611923565b8381111561194d576000848401525b50505050565b600061195e8261196f565b9050919050565b6000819050919050565b600061197a826119f5565b9050919050565b7f4e487b7100000000000000000000000000000000000000000000000000000000600052601160045260246000fd5b7f4e487b7100000000000000000000000000000000000000000000000000000000600052601260045260246000fd5b600080fd5b6000601f19601f8301169050919050565b60008160601b9050919050565b7f596f75277265206e6f74206465706f736974696e6720656e6f7567682055534460008201527f4321000000000000000000000000000000000000000000000000000000000000602082015250565b7f4f776e61626c653a206e6577206f776e657220697320746865207a65726f206160008201527f6464726573730000000000000000000000000000000000000000000000000000602082015250565b7f5761697400000000000000000000000000000000000000000000000000000000600082015250565b7f596f75277265206e6f74206465706f736974696e6720656e6f7567682065746860008201527f6572210000000000000000000000000000000000000000000000000000000000602082015250565b7f416464726573733a20696e73756666696369656e742062616c616e636520666f60008201527f722063616c6c0000000000000000000000000000000000000000000000000000602082015250565b7f4f776e61626c653a2063616c6c6572206973206e6f7420746865206f776e6572600082015250565b7f4d69736d61746368000000000000000000000000000000000000000000000000600082015250565b7f4572726f7220696e207769746864726177616c00000000000000000000000000600082015250565b50565b7f416464726573733a2063616c6c20746f206e6f6e2d636f6e7472616374000000600082015250565b7f5361666545524332303a204552433230206f7065726174696f6e20646964206e60008201527f6f74207375636365656400000000000000000000000000000000000000000000602082015250565b611c668161188d565b8114611c7157600080fd5b50565b611c7d816118b1565b8114611c8857600080fd5b50565b611c94816118bd565b8114611c9f57600080fd5b50565b611cab816118c7565b8114611cb657600080fd5b50565b611cc2816118f1565b8114611ccd57600080fd5b50565b611cd9816118fb565b8114611ce457600080fd5b5056fea2646970667358221220e963da00b45bf3876582005cfb3ddf19d8fa87a3ddc96729b3290270a79d57cb64736f6c63430008070033",
  "immutableReferences": {},
  "source": "// SPDX-License-Identifier: MIT\npragma solidity 0.8.7;\nimport \"@openzeppelin/contracts/token/ERC20/utils/SafeERC20.sol\";\nimport \"@openzeppelin/contracts/access/Ownable.sol\";\nimport \"@chainlink/contracts/src/v0.8/interfaces/AggregatorV3Interface.sol\";\nimport \"hardhat/console.sol\";\n\ncontract King is Ownable {\n    using SafeERC20 for IERC20;\n    address public constant USDC_ADDRESS =\n        0x2791Bca1f2de4661ED88A30C99A7a9449Aa84174;\n    address public constant MATIC_USD_ORACLE =\n        0xAB594600376Ec9fD91F8e885dADF0CE036862dE0;\n    address payable king;\n    uint256 public maximumPaid;\n    bool sent;\n    bytes32 commitment;\n    uint256 timeout;\n    uint256 constant ONE_MINUTE = 0; //60;\n    event EthDeposit(bool success, uint256 amount, address king);\n    event UsdcDeposit(uint256 amount, address king);\n\n    /**\n     * Returns the latest price\n     */\n    function getLatestPrice(address oracleAddress)\n        internal\n        view\n        returns (int256)\n    {\n        (, int256 price, , , ) = AggregatorV3Interface(oracleAddress)\n            .latestRoundData();\n        return price;\n    }\n\n    //must take USDC as well...\n    fallback() external payable {\n        require(\n            msg.value >= (3 * maximumPaid) / 2,\n            \"You're not depositing enough ether!\"\n        );\n        require(\n            commitment == keccak256(abi.encodePacked(msg.data, msg.sender)),\n            \"Mismatch\"\n        );\n        if (maximumPaid > 0) {\n            maximumPaid = msg.value;\n            (sent, ) = king.call{value: msg.value}(\"\");\n            // deliberately not using return value\n            // if payer cannot receive ETH, that's there bad, and we don't let it halt our protocol\n        } else maximumPaid = msg.value;\n        king = payable(msg.sender);\n        emit EthDeposit(sent, msg.value, msg.sender);\n    }\n\n    function register(bytes32 _commitment) external {\n        if (commitment != bytes32(0)) {\n            require(block.timestamp > timeout, \"Wait\");\n        }\n        commitment = _commitment;\n        timeout = block.timestamp + ONE_MINUTE;\n    }\n\n    function deposit(uint256 depositAmount, bytes32 _secret) external {\n        require(\n            depositAmount >=\n                ((3 * maximumPaid * uint256(getLatestPrice(MATIC_USD_ORACLE))) /\n                    (10**20)) /\n                    2,\n            \"You're not depositing enough USDC!\"\n        );\n        require(\n            commitment == keccak256(abi.encodePacked(_secret, msg.sender)),\n            \"Mismatch\"\n        );\n        if (maximumPaid > 0) {\n            maximumPaid =\n                (depositAmount * (10**20)) /\n                uint256(getLatestPrice(MATIC_USD_ORACLE));\n            IERC20(USDC_ADDRESS).safeTransferFrom(\n                msg.sender,\n                king,\n                depositAmount\n            );\n        } else {\n            maximumPaid =\n                (depositAmount * 100) /\n                uint256(getLatestPrice(MATIC_USD_ORACLE));\n        }\n        king = payable(msg.sender);\n        emit UsdcDeposit(depositAmount, msg.sender);\n    }\n\n    function getKing() external view returns (address payable) {\n        return king;\n    }\n\n    function emergencyWithdraw() external payable onlyOwner {\n        uint256 ethBalance = address(this).balance;\n        if (ethBalance > 0) {\n            (sent, ) = msg.sender.call{value: address(this).balance}(\"\");\n            require(sent, \"Error in withdrawal\");\n        }\n        uint256 usdcBalance = IERC20(USDC_ADDRESS).balanceOf(address(this));\n        if (usdcBalance > 0) {\n            IERC20(USDC_ADDRESS).approve(msg.sender, usdcBalance);\n            IERC20(USDC_ADDRESS).safeTransfer(msg.sender, usdcBalance);\n        }\n    }\n}\n",
  "sourcePath": "/Users/richardjamieson/Documents/GitHub/King/contracts/King.sol",
  "compiler": {
    "name": "solc",
    "version": "0.8.7+commit.e28d00a7.Emscripten.clang"
  },
  "schemaVersion": "3.4.9",
  "updatedAt": "2022-09-30T19:24:19.522Z",
  "networkType": "ethereum",
  "devdoc": {
    "kind": "dev",
    "methods": {
      "owner()": {
        "details": "Returns the address of the current owner."
      },
      "renounceOwnership()": {
        "details": "Leaves the contract without owner. It will not be possible to call `onlyOwner` functions anymore. Can only be called by the current owner. NOTE: Renouncing ownership will leave the contract without an owner, thereby removing any functionality that is only available to the owner."
      },
      "transferOwnership(address)": {
        "details": "Transfers ownership of the contract to a new account (`newOwner`). Can only be called by the current owner."
      }
    },
    "version": 1
  },
  "userdoc": {
    "kind": "user",
    "methods": {},
    "version": 1
  }
}