{
  "contractName": "King",
  "abi": [
    {
      "anonymous": false,
      "inputs": [
        {
          "indexed": false,
          "internalType": "bool",
          "name": "sent",
          "type": "bool"
        },
        {
          "indexed": false,
          "internalType": "uint256",
          "name": "balance",
          "type": "uint256"
        }
      ],
      "name": "EthEmergencyWithdrawal",
      "type": "event"
    },
    {
      "anonymous": false,
      "inputs": [
        {
          "indexed": false,
          "internalType": "bool",
          "name": "success",
          "type": "bool"
        },
        {
          "indexed": false,
          "internalType": "uint256",
          "name": "amount",
          "type": "uint256"
        },
        {
          "indexed": false,
          "internalType": "address",
          "name": "king",
          "type": "address"
        }
      ],
      "name": "EthSent",
      "type": "event"
    },
    {
      "anonymous": false,
      "inputs": [
        {
          "indexed": false,
          "internalType": "uint256",
          "name": "gasAmount",
          "type": "uint256"
        }
      ],
      "name": "GasAllocatedForKingPayment",
      "type": "event"
    },
    {
      "anonymous": false,
      "inputs": [
        {
          "indexed": true,
          "internalType": "address",
          "name": "previousOwner",
          "type": "address"
        },
        {
          "indexed": true,
          "internalType": "address",
          "name": "newOwner",
          "type": "address"
        }
      ],
      "name": "OwnershipTransferred",
      "type": "event"
    },
    {
      "anonymous": false,
      "inputs": [
        {
          "indexed": false,
          "internalType": "uint256",
          "name": "amount",
          "type": "uint256"
        },
        {
          "indexed": false,
          "internalType": "address",
          "name": "king",
          "type": "address"
        }
      ],
      "name": "UsdcDeposit",
      "type": "event"
    },
    {
      "anonymous": false,
      "inputs": [
        {
          "indexed": false,
          "internalType": "uint256",
          "name": "usdcBalance",
          "type": "uint256"
        }
      ],
      "name": "UsdcEmergencyWithdrawal",
      "type": "event"
    },
    {
      "inputs": [],
      "name": "MATIC_USD_ORACLE",
      "outputs": [
        {
          "internalType": "address",
          "name": "",
          "type": "address"
        }
      ],
      "stateMutability": "view",
      "type": "function",
      "constant": true
    },
    {
      "inputs": [],
      "name": "USDC_ADDRESS",
      "outputs": [
        {
          "internalType": "address",
          "name": "",
          "type": "address"
        }
      ],
      "stateMutability": "view",
      "type": "function",
      "constant": true
    },
    {
      "inputs": [],
      "name": "gasAllocatedForKingPayment",
      "outputs": [
        {
          "internalType": "uint256",
          "name": "",
          "type": "uint256"
        }
      ],
      "stateMutability": "view",
      "type": "function",
      "constant": true
    },
    {
      "inputs": [],
      "name": "maximumPaid",
      "outputs": [
        {
          "internalType": "uint256",
          "name": "",
          "type": "uint256"
        }
      ],
      "stateMutability": "view",
      "type": "function",
      "constant": true
    },
    {
      "inputs": [],
      "name": "owner",
      "outputs": [
        {
          "internalType": "address",
          "name": "",
          "type": "address"
        }
      ],
      "stateMutability": "view",
      "type": "function",
      "constant": true
    },
    {
      "inputs": [],
      "name": "renounceOwnership",
      "outputs": [],
      "stateMutability": "nonpayable",
      "type": "function"
    },
    {
      "inputs": [
        {
          "internalType": "address",
          "name": "newOwner",
          "type": "address"
        }
      ],
      "name": "transferOwnership",
      "outputs": [],
      "stateMutability": "nonpayable",
      "type": "function"
    },
    {
      "stateMutability": "payable",
      "type": "receive",
      "payable": true
    },
    {
      "inputs": [
        {
          "internalType": "uint256",
          "name": "gasAmount",
          "type": "uint256"
        }
      ],
      "name": "setGasAllocatedForKingPayment",
      "outputs": [],
      "stateMutability": "nonpayable",
      "type": "function"
    },
    {
      "inputs": [
        {
          "internalType": "uint256",
          "name": "depositAmount",
          "type": "uint256"
        }
      ],
      "name": "depositUsdc",
      "outputs": [],
      "stateMutability": "nonpayable",
      "type": "function"
    },
    {
      "inputs": [],
      "name": "getKing",
      "outputs": [
        {
          "internalType": "address payable",
          "name": "",
          "type": "address"
        }
      ],
      "stateMutability": "view",
      "type": "function",
      "constant": true
    },
    {
      "inputs": [],
      "name": "emergencyWithdraw",
      "outputs": [],
      "stateMutability": "nonpayable",
      "type": "function"
    }
  ],
  "bytecode": "0x60806040526108fc60035534801561001657600080fd5b5061003361002861003860201b60201c565b61004060201b60201c565b610104565b600033905090565b60008060009054906101000a900473ffffffffffffffffffffffffffffffffffffffff169050816000806101000a81548173ffffffffffffffffffffffffffffffffffffffff021916908373ffffffffffffffffffffffffffffffffffffffff1602179055508173ffffffffffffffffffffffffffffffffffffffff168173ffffffffffffffffffffffffffffffffffffffff167f8be0079c531659141344cd1fd0a4f28419497f9722a3daafe3b4186f6b6457e060405160405180910390a35050565b611b9a806101136000396000f3fe6080604052600436106100a05760003560e01c80637920d804116100645780637920d8041461033c5780638da5cb5b146103675780638db9f39a14610392578063bb09d9b7146103bd578063db2e21bc146103e8578063f2fde38b146103ff57610278565b80631f19ec291461027d5780632357928e146102a6578063423cb99e146102cf5780634d3e8f0a146102fa578063715018a61461032557610278565b36610278576002805460036100b59190611093565b6100bf9190611104565b341015610101576040517f08c379a00000000000000000000000000000000000000000000000000000000081526004016100f8906111b8565b60405180910390fd5b6000600254111561022d576000600160009054906101000a900473ffffffffffffffffffffffffffffffffffffffff1690503460028190555033600160006101000a81548173ffffffffffffffffffffffffffffffffffffffff021916908373ffffffffffffffffffffffffffffffffffffffff16021790555060008173ffffffffffffffffffffffffffffffffffffffff16600354346040516101a490611209565b600060405180830381858888f193505050503d80600081146101e2576040519150601f19603f3d011682016040523d82523d6000602084013e6101e7565b606091505b505090507fd29d20006af4e9b0cd7e6d299270d7a18b7afc3b52c437367b874ebfd0a6363881343360405161021e93929190611289565b60405180910390a15050610276565b3460028190555033600160006101000a81548173ffffffffffffffffffffffffffffffffffffffff021916908373ffffffffffffffffffffffffffffffffffffffff1602179055505b005b600080fd5b34801561028957600080fd5b506102a4600480360381019061029f91906112f1565b610428565b005b3480156102b257600080fd5b506102cd60048036038101906102c891906112f1565b610469565b005b3480156102db57600080fd5b506102e461063c565b6040516102f1919061131e565b60405180910390f35b34801561030657600080fd5b5061030f610642565b60405161031c919061131e565b60405180910390f35b34801561033157600080fd5b5061033a610648565b005b34801561034857600080fd5b5061035161065c565b60405161035e919061135a565b60405180910390f35b34801561037357600080fd5b5061037c610686565b6040516103899190611375565b60405180910390f35b34801561039e57600080fd5b506103a76106af565b6040516103b49190611375565b60405180910390f35b3480156103c957600080fd5b506103d26106c7565b6040516103df9190611375565b60405180910390f35b3480156103f457600080fd5b506103fd6106df565b005b34801561040b57600080fd5b50610426600480360381019061042191906113bc565b610931565b005b806003819055507f0501d492551db2cd7156eecde86493a333f12237a6f0e0ad1d4c61d507e2901c8160405161045e919061131e565b60405180910390a150565b600268056bc75e2d6310000061049273ab594600376ec9fd91f8e885dadf0ce036862de06109b4565b60025460036104a19190611093565b6104ab9190611093565b6104b59190611104565b6104bf9190611104565b811015610501576040517f08c379a00000000000000000000000000000000000000000000000000000000081526004016104f89061145b565b60405180910390fd5b600080600254111561053757600160009054906101000a900473ffffffffffffffffffffffffffffffffffffffff16905061053b565b3090505b33600160006101000a81548173ffffffffffffffffffffffffffffffffffffffff021916908373ffffffffffffffffffffffffffffffffffffffff16021790555061059973ab594600376ec9fd91f8e885dadf0ce036862de06109b4565b68056bc75e2d63100000836105ae9190611093565b6105b89190611104565b6002819055507ff5cb588f5f04842fa8a48ffd1f1b14b97339a788a30a4ab1c445e84f46a8b5ff82336040516105ef92919061147b565b60405180910390a1610638338284732791bca1f2de4661ed88a30c99a7a9449aa8417473ffffffffffffffffffffffffffffffffffffffff16610a35909392919063ffffffff16565b5050565b60025481565b60035481565b610650610abe565b61065a6000610b3c565b565b6000600160009054906101000a900473ffffffffffffffffffffffffffffffffffffffff16905090565b60008060009054906101000a900473ffffffffffffffffffffffffffffffffffffffff16905090565b73ab594600376ec9fd91f8e885dadf0ce036862de081565b732791bca1f2de4661ed88a30c99a7a9449aa8417481565b6106e7610abe565b600047905060008111156107dc5760003373ffffffffffffffffffffffffffffffffffffffff164760405161071b90611209565b60006040518083038185875af1925050503d8060008114610758576040519150601f19603f3d011682016040523d82523d6000602084013e61075d565b606091505b50509050806107a1576040517f08c379a0000000000000000000000000000000000000000000000000000000008152600401610798906114f0565b60405180910390fd5b7f029c9780294ed370bdadf9d028c337ec660b4de49f16aac94ba5645e6c1b4d3181476040516107d2929190611510565b60405180910390a1505b6000732791bca1f2de4661ed88a30c99a7a9449aa8417473ffffffffffffffffffffffffffffffffffffffff166370a08231306040518263ffffffff1660e01b815260040161082b9190611375565b602060405180830381865afa158015610848573d6000803e3d6000fd5b505050506040513d601f19601f8201168201806040525081019061086c919061154e565b9050600081111561092d577feb1bb465721b1baf11a4b364962aa63e8183707b2a9eb8e1e4994504aefb4622816040516108a6919061131e565b60405180910390a16108ed3382732791bca1f2de4661ed88a30c99a7a9449aa8417473ffffffffffffffffffffffffffffffffffffffff16610c009092919063ffffffff16565b61092c3382732791bca1f2de4661ed88a30c99a7a9449aa8417473ffffffffffffffffffffffffffffffffffffffff16610d4f9092919063ffffffff16565b5b5050565b610939610abe565b600073ffffffffffffffffffffffffffffffffffffffff168173ffffffffffffffffffffffffffffffffffffffff16036109a8576040517f08c379a000000000000000000000000000000000000000000000000000000000815260040161099f906115ed565b60405180910390fd5b6109b181610b3c565b50565b6000808273ffffffffffffffffffffffffffffffffffffffff1663feaf968c6040518163ffffffff1660e01b815260040160a060405180830381865afa158015610a02573d6000803e3d6000fd5b505050506040513d601f19601f82011682018060405250810190610a269190611685565b50505091505080915050919050565b610ab8846323b872dd60e01b858585604051602401610a5693929190611700565b604051602081830303815290604052907bffffffffffffffffffffffffffffffffffffffffffffffffffffffff19166020820180517bffffffffffffffffffffffffffffffffffffffffffffffffffffffff8381831617835250505050610dd5565b50505050565b610ac6610e9c565b73ffffffffffffffffffffffffffffffffffffffff16610ae4610686565b73ffffffffffffffffffffffffffffffffffffffff1614610b3a576040517f08c379a0000000000000000000000000000000000000000000000000000000008152600401610b3190611783565b60405180910390fd5b565b60008060009054906101000a900473ffffffffffffffffffffffffffffffffffffffff169050816000806101000a81548173ffffffffffffffffffffffffffffffffffffffff021916908373ffffffffffffffffffffffffffffffffffffffff1602179055508173ffffffffffffffffffffffffffffffffffffffff168173ffffffffffffffffffffffffffffffffffffffff167f8be0079c531659141344cd1fd0a4f28419497f9722a3daafe3b4186f6b6457e060405160405180910390a35050565b6000811480610c8a575060008373ffffffffffffffffffffffffffffffffffffffff1663dd62ed3e30856040518363ffffffff1660e01b8152600401610c479291906117a3565b602060405180830381865afa158015610c64573d6000803e3d6000fd5b505050506040513d601f19601f82011682018060405250810190610c88919061154e565b145b610cc9576040517f08c379a0000000000000000000000000000000000000000000000000000000008152600401610cc09061183e565b60405180910390fd5b610d4a8363095ea7b360e01b8484604051602401610ce892919061185e565b604051602081830303815290604052907bffffffffffffffffffffffffffffffffffffffffffffffffffffffff19166020820180517bffffffffffffffffffffffffffffffffffffffffffffffffffffffff8381831617835250505050610dd5565b505050565b610dd08363a9059cbb60e01b8484604051602401610d6e92919061185e565b604051602081830303815290604052907bffffffffffffffffffffffffffffffffffffffffffffffffffffffff19166020820180517bffffffffffffffffffffffffffffffffffffffffffffffffffffffff8381831617835250505050610dd5565b505050565b6000610e37826040518060400160405280602081526020017f5361666545524332303a206c6f772d6c6576656c2063616c6c206661696c65648152508573ffffffffffffffffffffffffffffffffffffffff16610ea49092919063ffffffff16565b9050600081511115610e975780806020019051810190610e5791906118b3565b610e96576040517f08c379a0000000000000000000000000000000000000000000000000000000008152600401610e8d90611952565b60405180910390fd5b5b505050565b600033905090565b6060610eb38484600085610ebc565b90509392505050565b606082471015610f01576040517f08c379a0000000000000000000000000000000000000000000000000000000008152600401610ef8906119e4565b60405180910390fd5b610f0a85610fd0565b610f49576040517f08c379a0000000000000000000000000000000000000000000000000000000008152600401610f4090611a50565b60405180910390fd5b6000808673ffffffffffffffffffffffffffffffffffffffff168587604051610f729190611ad6565b60006040518083038185875af1925050503d8060008114610faf576040519150601f19603f3d011682016040523d82523d6000602084013e610fb4565b606091505b5091509150610fc4828286610ff3565b92505050949350505050565b6000808273ffffffffffffffffffffffffffffffffffffffff163b119050919050565b6060831561100357829050611053565b6000835111156110165782518084602001fd5b816040517f08c379a000000000000000000000000000000000000000000000000000000000815260040161104a9190611b42565b60405180910390fd5b9392505050565b6000819050919050565b7f4e487b7100000000000000000000000000000000000000000000000000000000600052601160045260246000fd5b600061109e8261105a565b91506110a98361105a565b92508282026110b78161105a565b915082820484148315176110ce576110cd611064565b5b5092915050565b7f4e487b7100000000000000000000000000000000000000000000000000000000600052601260045260246000fd5b600061110f8261105a565b915061111a8361105a565b92508261112a576111296110d5565b5b828204905092915050565b600082825260208201905092915050565b7f596f75277265206e6f74206465706f736974696e6720656e6f7567682065746860008201527f6572210000000000000000000000000000000000000000000000000000000000602082015250565b60006111a2602383611135565b91506111ad82611146565b604082019050919050565b600060208201905081810360008301526111d181611195565b9050919050565b600081905092915050565b50565b60006111f36000836111d8565b91506111fe826111e3565b600082019050919050565b6000611214826111e6565b9150819050919050565b60008115159050919050565b6112338161121e565b82525050565b6112428161105a565b82525050565b600073ffffffffffffffffffffffffffffffffffffffff82169050919050565b600061127382611248565b9050919050565b61128381611268565b82525050565b600060608201905061129e600083018661122a565b6112ab6020830185611239565b6112b8604083018461127a565b949350505050565b600080fd5b6112ce8161105a565b81146112d957600080fd5b50565b6000813590506112eb816112c5565b92915050565b600060208284031215611307576113066112c0565b5b6000611315848285016112dc565b91505092915050565b60006020820190506113336000830184611239565b92915050565b600061134482611248565b9050919050565b61135481611339565b82525050565b600060208201905061136f600083018461134b565b92915050565b600060208201905061138a600083018461127a565b92915050565b61139981611268565b81146113a457600080fd5b50565b6000813590506113b681611390565b92915050565b6000602082840312156113d2576113d16112c0565b5b60006113e0848285016113a7565b91505092915050565b7f596f75277265206e6f74206465706f736974696e6720656e6f7567682055534460008201527f4321000000000000000000000000000000000000000000000000000000000000602082015250565b6000611445602283611135565b9150611450826113e9565b604082019050919050565b6000602082019050818103600083015261147481611438565b9050919050565b60006040820190506114906000830185611239565b61149d602083018461127a565b9392505050565b7f4572726f7220696e207769746864726177616c00000000000000000000000000600082015250565b60006114da601383611135565b91506114e5826114a4565b602082019050919050565b60006020820190508181036000830152611509816114cd565b9050919050565b6000604082019050611525600083018561122a565b6115326020830184611239565b9392505050565b600081519050611548816112c5565b92915050565b600060208284031215611564576115636112c0565b5b600061157284828501611539565b91505092915050565b7f4f776e61626c653a206e6577206f776e657220697320746865207a65726f206160008201527f6464726573730000000000000000000000000000000000000000000000000000602082015250565b60006115d7602683611135565b91506115e28261157b565b604082019050919050565b60006020820190508181036000830152611606816115ca565b9050919050565b600069ffffffffffffffffffff82169050919050565b61162c8161160d565b811461163757600080fd5b50565b60008151905061164981611623565b92915050565b6000819050919050565b6116628161164f565b811461166d57600080fd5b50565b60008151905061167f81611659565b92915050565b600080600080600060a086880312156116a1576116a06112c0565b5b60006116af8882890161163a565b95505060206116c088828901611670565b94505060406116d188828901611539565b93505060606116e288828901611539565b92505060806116f38882890161163a565b9150509295509295909350565b6000606082019050611715600083018661127a565b611722602083018561127a565b61172f6040830184611239565b949350505050565b7f4f776e61626c653a2063616c6c6572206973206e6f7420746865206f776e6572600082015250565b600061176d602083611135565b915061177882611737565b602082019050919050565b6000602082019050818103600083015261179c81611760565b9050919050565b60006040820190506117b8600083018561127a565b6117c5602083018461127a565b9392505050565b7f5361666545524332303a20617070726f76652066726f6d206e6f6e2d7a65726f60008201527f20746f206e6f6e2d7a65726f20616c6c6f77616e636500000000000000000000602082015250565b6000611828603683611135565b9150611833826117cc565b604082019050919050565b600060208201905081810360008301526118578161181b565b9050919050565b6000604082019050611873600083018561127a565b6118806020830184611239565b9392505050565b6118908161121e565b811461189b57600080fd5b50565b6000815190506118ad81611887565b92915050565b6000602082840312156118c9576118c86112c0565b5b60006118d78482850161189e565b91505092915050565b7f5361666545524332303a204552433230206f7065726174696f6e20646964206e60008201527f6f74207375636365656400000000000000000000000000000000000000000000602082015250565b600061193c602a83611135565b9150611947826118e0565b604082019050919050565b6000602082019050818103600083015261196b8161192f565b9050919050565b7f416464726573733a20696e73756666696369656e742062616c616e636520666f60008201527f722063616c6c0000000000000000000000000000000000000000000000000000602082015250565b60006119ce602683611135565b91506119d982611972565b604082019050919050565b600060208201905081810360008301526119fd816119c1565b9050919050565b7f416464726573733a2063616c6c20746f206e6f6e2d636f6e7472616374000000600082015250565b6000611a3a601d83611135565b9150611a4582611a04565b602082019050919050565b60006020820190508181036000830152611a6981611a2d565b9050919050565b600081519050919050565b60005b83811015611a99578082015181840152602081019050611a7e565b60008484015250505050565b6000611ab082611a70565b611aba81856111d8565b9350611aca818560208601611a7b565b80840191505092915050565b6000611ae28284611aa5565b915081905092915050565b600081519050919050565b6000601f19601f8301169050919050565b6000611b1482611aed565b611b1e8185611135565b9350611b2e818560208601611a7b565b611b3781611af8565b840191505092915050565b60006020820190508181036000830152611b5c8184611b09565b90509291505056fea26469706673582212202ae5d992a707328ea6b963acaab6f0d239eeba91ed5cabc6e5bc2f4329c1a15d64736f6c63430008110033",
  "immutableReferences": {},
  "source": "// SPDX-License-Identifier: MIT\npragma solidity 0.8.17;\nimport \"@openzeppelin/contracts/token/ERC20/utils/SafeERC20.sol\";\nimport \"@openzeppelin/contracts/access/Ownable.sol\";\nimport \"@chainlink/contracts/src/v0.8/interfaces/AggregatorV3Interface.sol\";\n\ncontract King is Ownable {\n    using SafeERC20 for IERC20;\n\n    address public constant USDC_ADDRESS =\n        0x2791Bca1f2de4661ED88A30C99A7a9449Aa84174;\n    address public constant MATIC_USD_ORACLE =\n        0xAB594600376Ec9fD91F8e885dADF0CE036862dE0;\n    address payable king;\n\n    uint256 public maximumPaid;\n    uint256 public gasAllocatedForKingPayment = 2300;\n\n    event EthSent(bool success, uint256 amount, address king);\n    event UsdcDeposit(uint256 amount, address king);\n    event EthEmergencyWithdrawal(bool sent, uint256 balance);\n    event UsdcEmergencyWithdrawal(uint256 usdcBalance);\n    event GasAllocatedForKingPayment(uint256 gasAmount);\n\n    function getLatestPrice(address oracleAddress)\n        internal\n        view\n        returns (int256)\n    {\n        (, int256 price, , , ) = AggregatorV3Interface(oracleAddress)\n            .latestRoundData();\n        return price;\n    }\n\n    function setGasAllocatedForKingPayment(uint256 gasAmount) external {\n        gasAllocatedForKingPayment = gasAmount;\n        emit GasAllocatedForKingPayment(gasAmount);\n    }\n\n    receive() external payable {\n        require(\n            msg.value >= (3 * maximumPaid) / 2,\n            \"You're not depositing enough ether!\"\n        );\n        if (maximumPaid > 0) {\n            address _to = king;\n            maximumPaid = msg.value;\n            king = payable(msg.sender);\n            (bool sent, ) = _to.call{\n                gas: gasAllocatedForKingPayment,\n                value: msg.value\n            }(\"\");\n            emit EthSent(sent, msg.value, msg.sender);\n            // we make best efforts to pay outgoing king, but if it fails it doesn't jam the contract\n        } else {\n            maximumPaid = msg.value;\n            king = payable(msg.sender);\n        }\n    }\n\n    function depositUsdc(uint256 depositAmount) external {\n        require(\n            depositAmount >=\n                ((3 * maximumPaid * uint256(getLatestPrice(MATIC_USD_ORACLE))) /\n                    (10**20)) /\n                    2,\n            \"You're not depositing enough USDC!\"\n        );\n        address _to;\n        if (maximumPaid > 0) _to = king;\n        else _to = address(this);\n        king = payable(msg.sender);\n        maximumPaid =\n            (depositAmount * (10**20)) /\n            uint256(getLatestPrice(MATIC_USD_ORACLE));\n        emit UsdcDeposit(depositAmount, msg.sender);\n        IERC20(USDC_ADDRESS).safeTransferFrom(msg.sender, _to, depositAmount);\n        // this function will revert if transfer not possible\n    }\n\n    function getKing() external view returns (address payable) {\n        return king;\n    }\n\n    function emergencyWithdraw() external onlyOwner {\n        uint256 ethBalance = address(this).balance;\n        if (ethBalance > 0) {\n            (bool sent, ) = msg.sender.call{value: address(this).balance}(\"\");\n            require(sent, \"Error in withdrawal\");\n            emit EthEmergencyWithdrawal(sent, address(this).balance);\n        }\n        uint256 usdcBalance = IERC20(USDC_ADDRESS).balanceOf(address(this));\n        if (usdcBalance > 0) {\n            emit UsdcEmergencyWithdrawal(usdcBalance);\n            IERC20(USDC_ADDRESS).safeApprove(msg.sender, usdcBalance);\n            IERC20(USDC_ADDRESS).safeTransfer(msg.sender, usdcBalance);\n        }\n    }\n}\n",
  "sourcePath": "/Users/richardjamieson/Documents/GitHub/King/contracts/King.sol",
  "compiler": {
    "name": "solc",
    "version": "0.8.17+commit.8df45f5f.Emscripten.clang"
  },
  "schemaVersion": "3.4.9",
  "updatedAt": "2022-10-03T09:27:12.779Z",
  "networkType": "ethereum",
  "devdoc": {
    "kind": "dev",
    "methods": {
      "owner()": {
        "details": "Returns the address of the current owner."
      },
      "renounceOwnership()": {
        "details": "Leaves the contract without owner. It will not be possible to call `onlyOwner` functions anymore. Can only be called by the current owner. NOTE: Renouncing ownership will leave the contract without an owner, thereby removing any functionality that is only available to the owner."
      },
      "transferOwnership(address)": {
        "details": "Transfers ownership of the contract to a new account (`newOwner`). Can only be called by the current owner."
      }
    },
    "version": 1
  },
  "userdoc": {
    "kind": "user",
    "methods": {},
    "version": 1
  }
}