{
  "contractName": "King",
  "abi": [
    {
      "anonymous": false,
      "inputs": [
        {
          "indexed": false,
          "internalType": "bool",
          "name": "success",
          "type": "bool"
        },
        {
          "indexed": false,
          "internalType": "uint256",
          "name": "amount",
          "type": "uint256"
        },
        {
          "indexed": false,
          "internalType": "address",
          "name": "king",
          "type": "address"
        }
      ],
      "name": "EthDeposit",
      "type": "event"
    },
    {
      "anonymous": false,
      "inputs": [
        {
          "indexed": true,
          "internalType": "address",
          "name": "previousOwner",
          "type": "address"
        },
        {
          "indexed": true,
          "internalType": "address",
          "name": "newOwner",
          "type": "address"
        }
      ],
      "name": "OwnershipTransferred",
      "type": "event"
    },
    {
      "anonymous": false,
      "inputs": [
        {
          "indexed": false,
          "internalType": "uint256",
          "name": "amount",
          "type": "uint256"
        },
        {
          "indexed": false,
          "internalType": "address",
          "name": "king",
          "type": "address"
        }
      ],
      "name": "UsdcDeposit",
      "type": "event"
    },
    {
      "stateMutability": "payable",
      "type": "fallback",
      "payable": true
    },
    {
      "inputs": [],
      "name": "MATIC_USD_ORACLE",
      "outputs": [
        {
          "internalType": "address",
          "name": "",
          "type": "address"
        }
      ],
      "stateMutability": "view",
      "type": "function",
      "constant": true
    },
    {
      "inputs": [],
      "name": "USDC_ADDRESS",
      "outputs": [
        {
          "internalType": "address",
          "name": "",
          "type": "address"
        }
      ],
      "stateMutability": "view",
      "type": "function",
      "constant": true
    },
    {
      "inputs": [],
      "name": "maximumPaid",
      "outputs": [
        {
          "internalType": "uint256",
          "name": "",
          "type": "uint256"
        }
      ],
      "stateMutability": "view",
      "type": "function",
      "constant": true
    },
    {
      "inputs": [],
      "name": "owner",
      "outputs": [
        {
          "internalType": "address",
          "name": "",
          "type": "address"
        }
      ],
      "stateMutability": "view",
      "type": "function",
      "constant": true
    },
    {
      "inputs": [],
      "name": "renounceOwnership",
      "outputs": [],
      "stateMutability": "nonpayable",
      "type": "function"
    },
    {
      "inputs": [
        {
          "internalType": "address",
          "name": "newOwner",
          "type": "address"
        }
      ],
      "name": "transferOwnership",
      "outputs": [],
      "stateMutability": "nonpayable",
      "type": "function"
    },
    {
      "stateMutability": "payable",
      "type": "receive",
      "payable": true
    },
    {
      "inputs": [
        {
          "internalType": "uint256",
          "name": "gasAmount",
          "type": "uint256"
        }
      ],
      "name": "setGasAllocatedForKingPayment",
      "outputs": [],
      "stateMutability": "nonpayable",
      "type": "function"
    },
    {
      "inputs": [
        {
          "internalType": "bytes32",
          "name": "_commitment",
          "type": "bytes32"
        }
      ],
      "name": "register",
      "outputs": [],
      "stateMutability": "nonpayable",
      "type": "function"
    },
    {
      "inputs": [
        {
          "internalType": "uint256",
          "name": "depositAmount",
          "type": "uint256"
        },
        {
          "internalType": "bytes32",
          "name": "_secret",
          "type": "bytes32"
        }
      ],
      "name": "deposit",
      "outputs": [],
      "stateMutability": "nonpayable",
      "type": "function"
    },
    {
      "inputs": [],
      "name": "getKing",
      "outputs": [
        {
          "internalType": "address payable",
          "name": "",
          "type": "address"
        }
      ],
      "stateMutability": "view",
      "type": "function",
      "constant": true
    },
    {
      "inputs": [],
      "name": "emergencyWithdraw",
      "outputs": [],
      "stateMutability": "payable",
      "type": "function",
      "payable": true
    }
  ],
  "bytecode": "0x608060405234801561001057600080fd5b5061002d61002261003260201b60201c565b61003a60201b60201c565b6100fe565b600033905090565b60008060009054906101000a900473ffffffffffffffffffffffffffffffffffffffff169050816000806101000a81548173ffffffffffffffffffffffffffffffffffffffff021916908373ffffffffffffffffffffffffffffffffffffffff1602179055508173ffffffffffffffffffffffffffffffffffffffff168173ffffffffffffffffffffffffffffffffffffffff167f8be0079c531659141344cd1fd0a4f28419497f9722a3daafe3b4186f6b6457e060405160405180910390a35050565b611d868061010d6000396000f3fe6080604052600436106100a05760003560e01c80638db9f39a116100645780638db9f39a1461039c578063bb09d9b7146103c7578063c9630cb0146103f2578063db2e21bc1461041b578063e1fa8e8414610425578063f2fde38b1461044e576100e0565b80631f19ec29146102db578063423cb99e14610304578063715018a61461032f5780637920d804146103465780638da5cb5b14610371576100e0565b366100e0576040517f08c379a00000000000000000000000000000000000000000000000000000000081526004016100d790611099565b60405180910390fd5b6002805460036100f091906110f2565b6100fa9190611163565b34101561013c576040517f08c379a000000000000000000000000000000000000000000000000000000000815260040161013390611206565b60405180910390fd5b60003633604051602001610152939291906112df565b60405160208183030381529060405280519060200120600354146101ab576040517f08c379a00000000000000000000000000000000000000000000000000000000081526004016101a290611099565b60405180910390fd5b6000600254111561029157346002819055506000600160009054906101000a900473ffffffffffffffffffffffffffffffffffffffff1673ffffffffffffffffffffffffffffffffffffffff1634600554906040516102099061132f565b600060405180830381858888f193505050503d8060008114610247576040519150601f19603f3d011682016040523d82523d6000602084013e61024c565b606091505b505090507f7f7caf2cfdc2014aa045dd0ef7e9f5a6a4819e729710bed3689ba095e658738f8134336040516102839392919061137d565b60405180910390a150610299565b346002819055505b33600160006101000a81548173ffffffffffffffffffffffffffffffffffffffff021916908373ffffffffffffffffffffffffffffffffffffffff1602179055005b3480156102e757600080fd5b5061030260048036038101906102fd91906113e5565b610477565b005b34801561031057600080fd5b50610319610489565b6040516103269190611412565b60405180910390f35b34801561033b57600080fd5b5061034461048f565b005b34801561035257600080fd5b5061035b6104a3565b604051610368919061144e565b60405180910390f35b34801561037d57600080fd5b506103866104cd565b6040516103939190611469565b60405180910390f35b3480156103a857600080fd5b506103b16104f6565b6040516103be9190611469565b60405180910390f35b3480156103d357600080fd5b506103dc61050e565b6040516103e99190611469565b60405180910390f35b3480156103fe57600080fd5b50610419600480360381019061041491906114ba565b610526565b005b610423610798565b005b34801561043157600080fd5b5061044c600480360381019061044791906114fa565b6109ce565b005b34801561045a57600080fd5b5061047560048036038101906104709190611553565b610a3c565b005b61047f610abf565b8060058190555050565b60025481565b610497610abf565b6104a16000610b3d565b565b6000600160009054906101000a900473ffffffffffffffffffffffffffffffffffffffff16905090565b60008060009054906101000a900473ffffffffffffffffffffffffffffffffffffffff16905090565b73ab594600376ec9fd91f8e885dadf0ce036862de081565b732791bca1f2de4661ed88a30c99a7a9449aa8417481565b600268056bc75e2d6310000061054f73ab594600376ec9fd91f8e885dadf0ce036862de0610c01565b600254600361055e91906110f2565b61056891906110f2565b6105729190611163565b61057c9190611163565b8210156105be576040517f08c379a00000000000000000000000000000000000000000000000000000000081526004016105b5906115f2565b60405180910390fd5b80336040516020016105d1929190611633565b604051602081830303815290604052805190602001206003541461062a576040517f08c379a000000000000000000000000000000000000000000000000000000000815260040161062190611099565b60405180910390fd5b600060025411156106df5761065273ab594600376ec9fd91f8e885dadf0ce036862de0610c01565b68056bc75e2d631000008361066791906110f2565b6106719190611163565b6002819055506106da33600160009054906101000a900473ffffffffffffffffffffffffffffffffffffffff1684732791bca1f2de4661ed88a30c99a7a9449aa8417473ffffffffffffffffffffffffffffffffffffffff16610c82909392919063ffffffff16565b61071a565b6106fc73ab594600376ec9fd91f8e885dadf0ce036862de0610c01565b60648361070991906110f2565b6107139190611163565b6002819055505b33600160006101000a81548173ffffffffffffffffffffffffffffffffffffffff021916908373ffffffffffffffffffffffffffffffffffffffff1602179055507ff5cb588f5f04842fa8a48ffd1f1b14b97339a788a30a4ab1c445e84f46a8b5ff823360405161078c92919061165f565b60405180910390a15050565b6107a0610abf565b6000479050600081111561085c5760003373ffffffffffffffffffffffffffffffffffffffff16476040516107d49061132f565b60006040518083038185875af1925050503d8060008114610811576040519150601f19603f3d011682016040523d82523d6000602084013e610816565b606091505b505090508061085a576040517f08c379a0000000000000000000000000000000000000000000000000000000008152600401610851906116d4565b60405180910390fd5b505b6000732791bca1f2de4661ed88a30c99a7a9449aa8417473ffffffffffffffffffffffffffffffffffffffff166370a08231306040518263ffffffff1660e01b81526004016108ab9190611469565b602060405180830381865afa1580156108c8573d6000803e3d6000fd5b505050506040513d601f19601f820116820180604052508101906108ec9190611709565b905060008111156109ca57732791bca1f2de4661ed88a30c99a7a9449aa8417473ffffffffffffffffffffffffffffffffffffffff1663095ea7b333836040518363ffffffff1660e01b8152600401610946929190611736565b6020604051808303816000875af1158015610965573d6000803e3d6000fd5b505050506040513d601f19601f82011682018060405250810190610989919061178b565b506109c93382732791bca1f2de4661ed88a30c99a7a9449aa8417473ffffffffffffffffffffffffffffffffffffffff16610d0b9092919063ffffffff16565b5b5050565b6000801b60035414610a1f576004544211610a1e576040517f08c379a0000000000000000000000000000000000000000000000000000000008152600401610a1590611850565b60405180910390fd5b5b80600381905550603c42610a339190611870565b60048190555050565b610a44610abf565b600073ffffffffffffffffffffffffffffffffffffffff168173ffffffffffffffffffffffffffffffffffffffff1603610ab3576040517f08c379a0000000000000000000000000000000000000000000000000000000008152600401610aaa90611916565b60405180910390fd5b610abc81610b3d565b50565b610ac7610d91565b73ffffffffffffffffffffffffffffffffffffffff16610ae56104cd565b73ffffffffffffffffffffffffffffffffffffffff1614610b3b576040517f08c379a0000000000000000000000000000000000000000000000000000000008152600401610b3290611982565b60405180910390fd5b565b60008060009054906101000a900473ffffffffffffffffffffffffffffffffffffffff169050816000806101000a81548173ffffffffffffffffffffffffffffffffffffffff021916908373ffffffffffffffffffffffffffffffffffffffff1602179055508173ffffffffffffffffffffffffffffffffffffffff168173ffffffffffffffffffffffffffffffffffffffff167f8be0079c531659141344cd1fd0a4f28419497f9722a3daafe3b4186f6b6457e060405160405180910390a35050565b6000808273ffffffffffffffffffffffffffffffffffffffff1663feaf968c6040518163ffffffff1660e01b815260040160a060405180830381865afa158015610c4f573d6000803e3d6000fd5b505050506040513d601f19601f82011682018060405250810190610c739190611a1a565b50505091505080915050919050565b610d05846323b872dd60e01b858585604051602401610ca393929190611a95565b604051602081830303815290604052907bffffffffffffffffffffffffffffffffffffffffffffffffffffffff19166020820180517bffffffffffffffffffffffffffffffffffffffffffffffffffffffff8381831617835250505050610d99565b50505050565b610d8c8363a9059cbb60e01b8484604051602401610d2a929190611736565b604051602081830303815290604052907bffffffffffffffffffffffffffffffffffffffffffffffffffffffff19166020820180517bffffffffffffffffffffffffffffffffffffffffffffffffffffffff8381831617835250505050610d99565b505050565b600033905090565b6000610dfb826040518060400160405280602081526020017f5361666545524332303a206c6f772d6c6576656c2063616c6c206661696c65648152508573ffffffffffffffffffffffffffffffffffffffff16610e609092919063ffffffff16565b9050600081511115610e5b5780806020019051810190610e1b919061178b565b610e5a576040517f08c379a0000000000000000000000000000000000000000000000000000000008152600401610e5190611b3e565b60405180910390fd5b5b505050565b6060610e6f8484600085610e78565b90509392505050565b606082471015610ebd576040517f08c379a0000000000000000000000000000000000000000000000000000000008152600401610eb490611bd0565b60405180910390fd5b610ec685610f8c565b610f05576040517f08c379a0000000000000000000000000000000000000000000000000000000008152600401610efc90611c3c565b60405180910390fd5b6000808673ffffffffffffffffffffffffffffffffffffffff168587604051610f2e9190611cc2565b60006040518083038185875af1925050503d8060008114610f6b576040519150601f19603f3d011682016040523d82523d6000602084013e610f70565b606091505b5091509150610f80828286610faf565b92505050949350505050565b6000808273ffffffffffffffffffffffffffffffffffffffff163b119050919050565b60608315610fbf5782905061100f565b600083511115610fd25782518084602001fd5b816040517f08c379a00000000000000000000000000000000000000000000000000000000081526004016110069190611d2e565b60405180910390fd5b9392505050565b600082825260208201905092915050565b7f536f7272792c20796f75277265206e6f74207468652063757272656e746c792060008201527f72656769737465726564206465706f7369746f722e0000000000000000000000602082015250565b6000611083603583611016565b915061108e82611027565b604082019050919050565b600060208201905081810360008301526110b281611076565b9050919050565b6000819050919050565b7f4e487b7100000000000000000000000000000000000000000000000000000000600052601160045260246000fd5b60006110fd826110b9565b9150611108836110b9565b9250828202611116816110b9565b9150828204841483151761112d5761112c6110c3565b5b5092915050565b7f4e487b7100000000000000000000000000000000000000000000000000000000600052601260045260246000fd5b600061116e826110b9565b9150611179836110b9565b92508261118957611188611134565b5b828204905092915050565b7f596f75277265206e6f74206465706f736974696e6720656e6f7567682065746860008201527f6572210000000000000000000000000000000000000000000000000000000000602082015250565b60006111f0602383611016565b91506111fb82611194565b604082019050919050565b6000602082019050818103600083015261121f816111e3565b9050919050565b600081905092915050565b82818337600083830152505050565b600061124c8385611226565b9350611259838584611231565b82840190509392505050565b600073ffffffffffffffffffffffffffffffffffffffff82169050919050565b600061129082611265565b9050919050565b60008160601b9050919050565b60006112af82611297565b9050919050565b60006112c1826112a4565b9050919050565b6112d96112d482611285565b6112b6565b82525050565b60006112ec828587611240565b91506112f882846112c8565b601482019150819050949350505050565b50565b6000611319600083611226565b915061132482611309565b600082019050919050565b600061133a8261130c565b9150819050919050565b60008115159050919050565b61135981611344565b82525050565b611368816110b9565b82525050565b61137781611285565b82525050565b60006060820190506113926000830186611350565b61139f602083018561135f565b6113ac604083018461136e565b949350505050565b600080fd5b6113c2816110b9565b81146113cd57600080fd5b50565b6000813590506113df816113b9565b92915050565b6000602082840312156113fb576113fa6113b4565b5b6000611409848285016113d0565b91505092915050565b6000602082019050611427600083018461135f565b92915050565b600061143882611265565b9050919050565b6114488161142d565b82525050565b6000602082019050611463600083018461143f565b92915050565b600060208201905061147e600083018461136e565b92915050565b6000819050919050565b61149781611484565b81146114a257600080fd5b50565b6000813590506114b48161148e565b92915050565b600080604083850312156114d1576114d06113b4565b5b60006114df858286016113d0565b92505060206114f0858286016114a5565b9150509250929050565b6000602082840312156115105761150f6113b4565b5b600061151e848285016114a5565b91505092915050565b61153081611285565b811461153b57600080fd5b50565b60008135905061154d81611527565b92915050565b600060208284031215611569576115686113b4565b5b60006115778482850161153e565b91505092915050565b7f596f75277265206e6f74206465706f736974696e6720656e6f7567682055534460008201527f4321000000000000000000000000000000000000000000000000000000000000602082015250565b60006115dc602283611016565b91506115e782611580565b604082019050919050565b6000602082019050818103600083015261160b816115cf565b9050919050565b6000819050919050565b61162d61162882611484565b611612565b82525050565b600061163f828561161c565b60208201915061164f82846112c8565b6014820191508190509392505050565b6000604082019050611674600083018561135f565b611681602083018461136e565b9392505050565b7f4572726f7220696e207769746864726177616c00000000000000000000000000600082015250565b60006116be601383611016565b91506116c982611688565b602082019050919050565b600060208201905081810360008301526116ed816116b1565b9050919050565b600081519050611703816113b9565b92915050565b60006020828403121561171f5761171e6113b4565b5b600061172d848285016116f4565b91505092915050565b600060408201905061174b600083018561136e565b611758602083018461135f565b9392505050565b61176881611344565b811461177357600080fd5b50565b6000815190506117858161175f565b92915050565b6000602082840312156117a1576117a06113b4565b5b60006117af84828501611776565b91505092915050565b7f536f6d656f6e6520656c736520686173207265676973746572656420746f206460008201527f65706f7369742c20706c65617365207761697420616e6420747279206167616960208201527f6e20696e2033206d696e75746573000000000000000000000000000000000000604082015250565b600061183a604e83611016565b9150611845826117b8565b606082019050919050565b600060208201905081810360008301526118698161182d565b9050919050565b600061187b826110b9565b9150611886836110b9565b925082820190508082111561189e5761189d6110c3565b5b92915050565b7f4f776e61626c653a206e6577206f776e657220697320746865207a65726f206160008201527f6464726573730000000000000000000000000000000000000000000000000000602082015250565b6000611900602683611016565b915061190b826118a4565b604082019050919050565b6000602082019050818103600083015261192f816118f3565b9050919050565b7f4f776e61626c653a2063616c6c6572206973206e6f7420746865206f776e6572600082015250565b600061196c602083611016565b915061197782611936565b602082019050919050565b6000602082019050818103600083015261199b8161195f565b9050919050565b600069ffffffffffffffffffff82169050919050565b6119c1816119a2565b81146119cc57600080fd5b50565b6000815190506119de816119b8565b92915050565b6000819050919050565b6119f7816119e4565b8114611a0257600080fd5b50565b600081519050611a14816119ee565b92915050565b600080600080600060a08688031215611a3657611a356113b4565b5b6000611a44888289016119cf565b9550506020611a5588828901611a05565b9450506040611a66888289016116f4565b9350506060611a77888289016116f4565b9250506080611a88888289016119cf565b9150509295509295909350565b6000606082019050611aaa600083018661136e565b611ab7602083018561136e565b611ac4604083018461135f565b949350505050565b7f5361666545524332303a204552433230206f7065726174696f6e20646964206e60008201527f6f74207375636365656400000000000000000000000000000000000000000000602082015250565b6000611b28602a83611016565b9150611b3382611acc565b604082019050919050565b60006020820190508181036000830152611b5781611b1b565b9050919050565b7f416464726573733a20696e73756666696369656e742062616c616e636520666f60008201527f722063616c6c0000000000000000000000000000000000000000000000000000602082015250565b6000611bba602683611016565b9150611bc582611b5e565b604082019050919050565b60006020820190508181036000830152611be981611bad565b9050919050565b7f416464726573733a2063616c6c20746f206e6f6e2d636f6e7472616374000000600082015250565b6000611c26601d83611016565b9150611c3182611bf0565b602082019050919050565b60006020820190508181036000830152611c5581611c19565b9050919050565b600081519050919050565b60005b83811015611c85578082015181840152602081019050611c6a565b60008484015250505050565b6000611c9c82611c5c565b611ca68185611226565b9350611cb6818560208601611c67565b80840191505092915050565b6000611cce8284611c91565b915081905092915050565b600081519050919050565b6000601f19601f8301169050919050565b6000611d0082611cd9565b611d0a8185611016565b9350611d1a818560208601611c67565b611d2381611ce4565b840191505092915050565b60006020820190508181036000830152611d488184611cf5565b90509291505056fea26469706673582212202eb99d0b5aec693fe535135d8577029dd2a8a84c8f9bfcaca47ee4dfa7faa1b764736f6c63430008110033",
  "immutableReferences": {},
  "source": "// SPDX-License-Identifier: MIT\npragma solidity 0.8.17;\nimport \"@openzeppelin/contracts/token/ERC20/utils/SafeERC20.sol\";\nimport \"@openzeppelin/contracts/access/Ownable.sol\";\nimport \"@chainlink/contracts/src/v0.8/interfaces/AggregatorV3Interface.sol\";\nimport \"hardhat/console.sol\";\n\ncontract King is Ownable {\n    using SafeERC20 for IERC20;\n    address public constant USDC_ADDRESS =\n        0x2791Bca1f2de4661ED88A30C99A7a9449Aa84174;\n    address public constant MATIC_USD_ORACLE =\n        0xAB594600376Ec9fD91F8e885dADF0CE036862dE0;\n    address payable king;\n    uint256 public maximumPaid;\n    bytes32 commitment;\n    uint256 timeout;\n    uint256 constant ONE_MINUTE = 60;\n    uint256 gasAllocatedForKingPayment;\n    event EthDeposit(bool success, uint256 amount, address king);\n    event UsdcDeposit(uint256 amount, address king);\n\n    /**\n     * Returns the latest price\n     */\n    function getLatestPrice(address oracleAddress)\n        internal\n        view\n        returns (int256)\n    {\n        (, int256 price, , , ) = AggregatorV3Interface(oracleAddress)\n            .latestRoundData();\n        return price;\n    }\n\n    function setGasAllocatedForKingPayment(uint256 gasAmount)\n        external\n        onlyOwner\n    {\n        gasAllocatedForKingPayment = gasAmount;\n    }\n\n    //must take USDC as well...\n    fallback() external payable {\n        require(\n            msg.value >= (3 * maximumPaid) / 2,\n            \"You're not depositing enough ether!\"\n        );\n        require(\n            commitment == keccak256(abi.encodePacked(msg.data, msg.sender)),\n            \"Sorry, you're not the currently registered depositor.\"\n        );\n        if (maximumPaid > 0) {\n            maximumPaid = msg.value;\n            (bool sent, ) = king.call{\n                value: msg.value,\n                gas: gasAllocatedForKingPayment\n            }(\"\");\n            emit EthDeposit(sent, msg.value, msg.sender);\n            // if payer cannot receive ETH, that's there bad, and we don't let it halt our protocol\n        } else maximumPaid = msg.value;\n        king = payable(msg.sender);\n    }\n\n    receive() external payable {\n        revert(\"Sorry, you're not the currently registered depositor.\");\n    }\n\n    function register(bytes32 _commitment) external {\n        if (commitment != bytes32(0)) {\n            require(\n                block.timestamp > timeout,\n                \"Someone else has registered to deposit, please wait and try again in 3 minutes\"\n            );\n        }\n        commitment = _commitment;\n        timeout = block.timestamp + ONE_MINUTE;\n    }\n\n    function deposit(uint256 depositAmount, bytes32 _secret) external {\n        require(\n            depositAmount >=\n                ((3 * maximumPaid * uint256(getLatestPrice(MATIC_USD_ORACLE))) /\n                    (10**20)) /\n                    2,\n            \"You're not depositing enough USDC!\"\n        );\n        require(\n            commitment == keccak256(abi.encodePacked(_secret, msg.sender)),\n            \"Sorry, you're not the currently registered depositor.\"\n        );\n        if (maximumPaid > 0) {\n            maximumPaid =\n                (depositAmount * (10**20)) /\n                uint256(getLatestPrice(MATIC_USD_ORACLE));\n            IERC20(USDC_ADDRESS).safeTransferFrom(\n                msg.sender,\n                king,\n                depositAmount\n            );\n            // this function will revert if transfer not possible\n        } else {\n            maximumPaid =\n                (depositAmount * 100) /\n                uint256(getLatestPrice(MATIC_USD_ORACLE));\n        }\n        king = payable(msg.sender);\n        emit UsdcDeposit(depositAmount, msg.sender);\n    }\n\n    function getKing() external view returns (address payable) {\n        return king;\n    }\n\n    function emergencyWithdraw() external payable onlyOwner {\n        uint256 ethBalance = address(this).balance;\n        if (ethBalance > 0) {\n            (bool sent, ) = msg.sender.call{value: address(this).balance}(\"\");\n            require(sent, \"Error in withdrawal\");\n        }\n        uint256 usdcBalance = IERC20(USDC_ADDRESS).balanceOf(address(this));\n        if (usdcBalance > 0) {\n            IERC20(USDC_ADDRESS).approve(msg.sender, usdcBalance);\n            IERC20(USDC_ADDRESS).safeTransfer(msg.sender, usdcBalance);\n        }\n    }\n}\n",
  "sourcePath": "/Users/richardjamieson/Documents/GitHub/King/contracts/King.sol",
  "compiler": {
    "name": "solc",
    "version": "0.8.17+commit.8df45f5f.Emscripten.clang"
  },
  "schemaVersion": "3.4.9",
  "updatedAt": "2022-10-01T11:56:57.693Z",
  "networkType": "ethereum",
  "devdoc": {
    "kind": "dev",
    "methods": {
      "owner()": {
        "details": "Returns the address of the current owner."
      },
      "renounceOwnership()": {
        "details": "Leaves the contract without owner. It will not be possible to call `onlyOwner` functions anymore. Can only be called by the current owner. NOTE: Renouncing ownership will leave the contract without an owner, thereby removing any functionality that is only available to the owner."
      },
      "transferOwnership(address)": {
        "details": "Transfers ownership of the contract to a new account (`newOwner`). Can only be called by the current owner."
      }
    },
    "version": 1
  },
  "userdoc": {
    "kind": "user",
    "methods": {},
    "version": 1
  }
}